{
  "_format": "hh-sol-artifact-1",
  "contractName": "EloquraLimitOrders",
  "sourceName": "contracts/EloquraLimitOrders.sol",
  "abi": [
    {
      "inputs": [
        {
          "internalType": "address",
          "name": "_router",
          "type": "address"
        }
      ],
      "stateMutability": "nonpayable",
      "type": "constructor"
    },
    {
      "inputs": [],
      "name": "InvalidAmount",
      "type": "error"
    },
    {
      "inputs": [],
      "name": "InvalidExpiry",
      "type": "error"
    },
    {
      "inputs": [],
      "name": "NotOrderOwner",
      "type": "error"
    },
    {
      "inputs": [],
      "name": "OrderAlreadyCancelled",
      "type": "error"
    },
    {
      "inputs": [],
      "name": "OrderAlreadyExecuted",
      "type": "error"
    },
    {
      "inputs": [],
      "name": "OrderExpired",
      "type": "error"
    },
    {
      "inputs": [],
      "name": "OrderNotExpired",
      "type": "error"
    },
    {
      "inputs": [],
      "name": "OrderNotFound",
      "type": "error"
    },
    {
      "inputs": [
        {
          "internalType": "address",
          "name": "owner",
          "type": "address"
        }
      ],
      "name": "OwnableInvalidOwner",
      "type": "error"
    },
    {
      "inputs": [
        {
          "internalType": "address",
          "name": "account",
          "type": "address"
        }
      ],
      "name": "OwnableUnauthorizedAccount",
      "type": "error"
    },
    {
      "inputs": [],
      "name": "PriceConditionNotMet",
      "type": "error"
    },
    {
      "inputs": [],
      "name": "ReentrancyGuardReentrantCall",
      "type": "error"
    },
    {
      "inputs": [
        {
          "internalType": "address",
          "name": "token",
          "type": "address"
        }
      ],
      "name": "SafeERC20FailedOperation",
      "type": "error"
    },
    {
      "anonymous": false,
      "inputs": [
        {
          "indexed": true,
          "internalType": "uint256",
          "name": "orderId",
          "type": "uint256"
        }
      ],
      "name": "OrderCancelled",
      "type": "event"
    },
    {
      "anonymous": false,
      "inputs": [
        {
          "indexed": true,
          "internalType": "uint256",
          "name": "orderId",
          "type": "uint256"
        },
        {
          "indexed": true,
          "internalType": "address",
          "name": "executor",
          "type": "address"
        },
        {
          "indexed": false,
          "internalType": "uint256",
          "name": "amountIn",
          "type": "uint256"
        },
        {
          "indexed": false,
          "internalType": "uint256",
          "name": "amountOut",
          "type": "uint256"
        },
        {
          "indexed": false,
          "internalType": "uint256",
          "name": "executorFee",
          "type": "uint256"
        }
      ],
      "name": "OrderExecuted",
      "type": "event"
    },
    {
      "anonymous": false,
      "inputs": [
        {
          "indexed": true,
          "internalType": "uint256",
          "name": "orderId",
          "type": "uint256"
        },
        {
          "indexed": true,
          "internalType": "address",
          "name": "owner",
          "type": "address"
        },
        {
          "indexed": false,
          "internalType": "address",
          "name": "tokenIn",
          "type": "address"
        },
        {
          "indexed": false,
          "internalType": "address",
          "name": "tokenOut",
          "type": "address"
        },
        {
          "indexed": false,
          "internalType": "uint256",
          "name": "amountIn",
          "type": "uint256"
        },
        {
          "indexed": false,
          "internalType": "uint256",
          "name": "minAmountOut",
          "type": "uint256"
        },
        {
          "indexed": false,
          "internalType": "uint256",
          "name": "triggerPrice",
          "type": "uint256"
        },
        {
          "indexed": false,
          "internalType": "uint256",
          "name": "expiry",
          "type": "uint256"
        }
      ],
      "name": "OrderPlaced",
      "type": "event"
    },
    {
      "anonymous": false,
      "inputs": [
        {
          "indexed": true,
          "internalType": "address",
          "name": "previousOwner",
          "type": "address"
        },
        {
          "indexed": true,
          "internalType": "address",
          "name": "newOwner",
          "type": "address"
        }
      ],
      "name": "OwnershipTransferred",
      "type": "event"
    },
    {
      "inputs": [
        {
          "internalType": "uint256",
          "name": "orderId",
          "type": "uint256"
        }
      ],
      "name": "cancelOrder",
      "outputs": [],
      "stateMutability": "nonpayable",
      "type": "function"
    },
    {
      "inputs": [
        {
          "internalType": "uint256",
          "name": "orderId",
          "type": "uint256"
        }
      ],
      "name": "claimExpired",
      "outputs": [],
      "stateMutability": "nonpayable",
      "type": "function"
    },
    {
      "inputs": [
        {
          "internalType": "uint256",
          "name": "orderId",
          "type": "uint256"
        }
      ],
      "name": "executeOrder",
      "outputs": [],
      "stateMutability": "nonpayable",
      "type": "function"
    },
    {
      "inputs": [],
      "name": "executorFeeBps",
      "outputs": [
        {
          "internalType": "uint256",
          "name": "",
          "type": "uint256"
        }
      ],
      "stateMutability": "view",
      "type": "function"
    },
    {
      "inputs": [
        {
          "internalType": "uint256",
          "name": "orderId",
          "type": "uint256"
        }
      ],
      "name": "getOrder",
      "outputs": [
        {
          "internalType": "address",
          "name": "owner",
          "type": "address"
        },
        {
          "internalType": "address",
          "name": "tokenIn",
          "type": "address"
        },
        {
          "internalType": "address",
          "name": "tokenOut",
          "type": "address"
        },
        {
          "internalType": "uint256",
          "name": "amountIn",
          "type": "uint256"
        },
        {
          "internalType": "uint256",
          "name": "minAmountOut",
          "type": "uint256"
        },
        {
          "internalType": "uint256",
          "name": "triggerPrice",
          "type": "uint256"
        },
        {
          "internalType": "uint256",
          "name": "expiry",
          "type": "uint256"
        },
        {
          "internalType": "bool",
          "name": "executed",
          "type": "bool"
        },
        {
          "internalType": "bool",
          "name": "cancelled",
          "type": "bool"
        }
      ],
      "stateMutability": "view",
      "type": "function"
    },
    {
      "inputs": [
        {
          "internalType": "address",
          "name": "user",
          "type": "address"
        }
      ],
      "name": "getUserOrders",
      "outputs": [
        {
          "internalType": "uint256[]",
          "name": "",
          "type": "uint256[]"
        }
      ],
      "stateMutability": "view",
      "type": "function"
    },
    {
      "inputs": [
        {
          "internalType": "uint256",
          "name": "orderId",
          "type": "uint256"
        }
      ],
      "name": "isExecutable",
      "outputs": [
        {
          "internalType": "bool",
          "name": "executable",
          "type": "bool"
        },
        {
          "internalType": "string",
          "name": "reason",
          "type": "string"
        }
      ],
      "stateMutability": "view",
      "type": "function"
    },
    {
      "inputs": [],
      "name": "nextOrderId",
      "outputs": [
        {
          "internalType": "uint256",
          "name": "",
          "type": "uint256"
        }
      ],
      "stateMutability": "view",
      "type": "function"
    },
    {
      "inputs": [
        {
          "internalType": "uint256",
          "name": "",
          "type": "uint256"
        }
      ],
      "name": "orders",
      "outputs": [
        {
          "internalType": "address",
          "name": "owner",
          "type": "address"
        },
        {
          "internalType": "address",
          "name": "tokenIn",
          "type": "address"
        },
        {
          "internalType": "address",
          "name": "tokenOut",
          "type": "address"
        },
        {
          "internalType": "uint256",
          "name": "amountIn",
          "type": "uint256"
        },
        {
          "internalType": "uint256",
          "name": "minAmountOut",
          "type": "uint256"
        },
        {
          "internalType": "uint256",
          "name": "triggerPrice",
          "type": "uint256"
        },
        {
          "internalType": "uint256",
          "name": "expiry",
          "type": "uint256"
        },
        {
          "internalType": "bool",
          "name": "executed",
          "type": "bool"
        },
        {
          "internalType": "bool",
          "name": "cancelled",
          "type": "bool"
        }
      ],
      "stateMutability": "view",
      "type": "function"
    },
    {
      "inputs": [],
      "name": "owner",
      "outputs": [
        {
          "internalType": "address",
          "name": "",
          "type": "address"
        }
      ],
      "stateMutability": "view",
      "type": "function"
    },
    {
      "inputs": [
        {
          "internalType": "address",
          "name": "tokenIn",
          "type": "address"
        },
        {
          "internalType": "address",
          "name": "tokenOut",
          "type": "address"
        },
        {
          "internalType": "uint256",
          "name": "amountIn",
          "type": "uint256"
        },
        {
          "internalType": "uint256",
          "name": "minAmountOut",
          "type": "uint256"
        },
        {
          "internalType": "uint256",
          "name": "triggerPrice",
          "type": "uint256"
        },
        {
          "internalType": "uint256",
          "name": "expiry",
          "type": "uint256"
        }
      ],
      "name": "placeOrder",
      "outputs": [
        {
          "internalType": "uint256",
          "name": "orderId",
          "type": "uint256"
        }
      ],
      "stateMutability": "nonpayable",
      "type": "function"
    },
    {
      "inputs": [],
      "name": "renounceOwnership",
      "outputs": [],
      "stateMutability": "nonpayable",
      "type": "function"
    },
    {
      "inputs": [],
      "name": "router",
      "outputs": [
        {
          "internalType": "contract EloquraRouter",
          "name": "",
          "type": "address"
        }
      ],
      "stateMutability": "view",
      "type": "function"
    },
    {
      "inputs": [
        {
          "internalType": "uint256",
          "name": "_feeBps",
          "type": "uint256"
        }
      ],
      "name": "setExecutorFeeBps",
      "outputs": [],
      "stateMutability": "nonpayable",
      "type": "function"
    },
    {
      "inputs": [
        {
          "internalType": "address",
          "name": "newOwner",
          "type": "address"
        }
      ],
      "name": "transferOwnership",
      "outputs": [],
      "stateMutability": "nonpayable",
      "type": "function"
    },
    {
      "inputs": [
        {
          "internalType": "address",
          "name": "",
          "type": "address"
        },
        {
          "internalType": "uint256",
          "name": "",
          "type": "uint256"
        }
      ],
      "name": "userOrders",
      "outputs": [
        {
          "internalType": "uint256",
          "name": "",
          "type": "uint256"
        }
      ],
      "stateMutability": "view",
      "type": "function"
    }
  ],
  "bytecode": "0x60a0346100e057601f61131b38819003918201601f19168301916001600160401b038311848410176100e5578084926020946040528339810103126100e057516001600160a01b0390818116908190036100e057600160005533156100c75760018054336001600160a01b03198216811790925560405193167f8be0079c531659141344cd1fd0a4f28419497f9722a3daafe3b4186f6b6457e0600080a3600a60055560805261121f90816100fc823960805181818160e2015281816103520152610feb0152f35b604051631e4fbdf760e01b815260006004820152602490fd5b600080fd5b634e487b7160e01b600052604160045260246000fdfe6080604052600436101561001257600080fd5b60003560e01c80630b422abe14610c035780631294a32614610be55780632a58b33014610bc757806334fe8154146108f45780634e395e2a1461087d578063514fcac7146107be57806363c69f081461070a578063715018a6146106ad578063856652e9146106555780638da5cb5b1461062c57806394f61134146102b057806398b0a16e14610253578063a85c38ef146101a4578063d09ef241146101a4578063f2fde38b146101165763f887ea40146100cc57600080fd5b34610111576000366003190112610111576040517f00000000000000000000000000000000000000000000000000000000000000006001600160a01b03168152602090f35b600080fd5b346101115760203660031901126101115761012f610ca2565b610137610ce6565b6001600160a01b0390811690811561018b57600154826bffffffffffffffffffffffff60a01b821617600155167f8be0079c531659141344cd1fd0a4f28419497f9722a3daafe3b4186f6b6457e0600080a3005b604051631e4fbdf760e01b815260006004820152602490fd5b34610111576020366003190112610111576004803560009081526003602081815260409283902080546001820154600283015494830154968301546005840154600685015460079095015488516001600160a01b0395861681529385169684019690965292909516958101959095526060850195909552608084019290925260a083019390935260c082015260ff808316151560e083015260089290921c909116151561010082015261012090f35b346101115760203660031901126101115760043561026f610ce6565b6064811161027c57600555005b60405162461bcd60e51b815260206004820152600c60248201526b08ccaca40e8dede40d0d2ced60a31b6044820152606490fd5b3461011157602080600319360112610111576004356102cd610dde565b6000818152600383526040902080546001600160a01b03939084161561061a57600782019384549260ff84166106085760ff8460081c166105f657600681015442116105e45760405161031f81610d12565b60028152604036858301376001820190838254168061033d83610e01565b528460028501541661034e83610e0e565b52847f0000000000000000000000000000000000000000000000000000000000000000169060038501549960405163d06ca61f60e01b81528b600482015260406024820152600081806103a46044820189610e9a565b0381875afa8015610556576103c1916000916105c9575b50610e0e565b5198670de0b6b3a7640000808b02908b8204148b1517156105a1578c6103e691610ed7565b6005880154116105b75760048701998a54116105b75760019060ff1916179055600554808b02908b8204148b1517156105a157612710900497888b039a8b116105a15760405163095ea7b360e01b81526001600160a01b0384166004820152602481018c9052918890839060449082906000905af1908115610556578b928892610562575b5060009493926104ab9792869254935416604051988996879586946338ed173960e01b86526004860152602485015260a0604485015260a4840190610e9a565b90606483015242608483015203925af1918215610556576104df938691600094610531575b508161051c575b505050610e0e565b519060405194855284015260408301527f1cd65e6e4f6a6bfcff65064f4e22d514f481a38dcbe4c2ad13ccde1b22e0694160603393a36001600055005b6105299254163390610ef7565b8684816104d7565b61054f9194503d806000833e6105478183610d60565b810190610e1e565b92896104d0565b6040513d6000823e3d90fd5b898092969594508193503d831161059a575b61057e8183610d60565b81010312610111575180151503610111579091858a918c61046b565b503d610574565b634e487b7160e01b600052601160045260246000fd5b604051633bef7afd60e01b8152600490fd5b6105de91503d806000833e6105478183610d60565b8d6103bb565b6040516362b439dd60e11b8152600490fd5b604051633e43d23960e11b8152600490fd5b604051634517788b60e11b8152600490fd5b60405163d36d896560e01b8152600490fd5b34610111576000366003190112610111576001546040516001600160a01b039091168152602090f35b346101115760403660031901126101115761066e610ca2565b6001600160a01b03166000908152600460205260409020805460243591908210156101115760209161069f91610cb8565b90546040519160031b1c8152f35b34610111576000366003190112610111576106c6610ce6565b600180546001600160a01b031981169091556000906001600160a01b03167f8be0079c531659141344cd1fd0a4f28419497f9722a3daafe3b4186f6b6457e08280a3005b3461011157602080600319360112610111576001600160a01b0361072c610ca2565b1660005260048152604060002060405190818382549182815201908192600052846000209060005b868282106107aa57868661076a82880383610d60565b604051928392818401908285525180915260408401929160005b82811061079357505050500390f35b835185528695509381019392810192600101610784565b835485529093019260019283019201610754565b34610111576020366003190112610111576004356107da610dde565b600081815260036020526040902080546001600160a01b0391908216801561061a57600782019283549060ff82166106085760ff8260081c166105f65782330361086b5761083f9461010060039361ff00191617905560018401541692015491610ef7565b7f61b9399f2f0f32ca39ce8d7be32caed5ec22fe07a6daba3a467ed479ec606582600080a26001600055005b604051637b2095ad60e11b8152600490fd5b34610111576020806003193601126101115761089a600435610f3a565b90604051928391151582526040818301528251908160408401526000935b8285106108db575050606092506000838284010152601f80199101168101030190f35b84810182015186860160600152938101938593506108b8565b346101115760c03660031901126101115761090d610ca2565b60249081356001600160a01b038116919082900361011157604435906064356084359060a4359261093c610dde565b84158015610bbf575b610bad5742841115610b9c5760018060a01b031693604051956323b872dd60e01b602088015233888801523060448801528160648801526064875260a0870167ffffffffffffffff9780821089831117610b87576109a69160405287610d82565b6002549660001990818914610b72576001890160025560405190610120820190811182821017610b5d576040523381528860e06007602084018b81528a8a60408701898152606088018b815260808901918d835260a08a0193845260c08a019485526000888b01526101008a019860008a52600052600360205260406000209560018060a01b038b5116906bffffffffffffffffffffffff60a01b9182895416178855600188019060018060a01b0390511682825416179055600287019160018060a01b03905116908254161790555160038501555160048401555160058301555160068201550192015115159060ff61ff0084549251151560081b1692169061ffff1916171790553360005260046020526040600020805499680100000000000000008b1015610b49575089610ae491600160209c018155610cb8565b819291549060031b918a831b921b19161790556040519586528786015260408501526060840152608083015260a0820152817f64044b9c7c96ecab1e66cbf89b68308feb44f532105bbdba72ab1167f995311160c03393a36001600055604051908152f35b634e487b7160e01b60009081526041600452fd5b8a634e487b7160e01b60005260416004526000fd5b89634e487b7160e01b60005260116004526000fd5b89634e487b7160e01b60005260416004526000fd5b60405162d36c8560e81b8152600490fd5b60405163162908e360e11b8152600490fd5b508115610945565b34610111576000366003190112610111576020600254604051908152f35b34610111576000366003190112610111576020600554604051908152f35b3461011157602036600319011261011157600435610c1f610dde565b600081815260036020526040902080546001600160a01b0391908216801561061a57600782019283549060ff82166106085760ff8260081c166105f6576006840154421115610c905782330361086b5761083f9461010060039361ff00191617905560018401541692015491610ef7565b60405163796c85f360e01b8152600490fd5b600435906001600160a01b038216820361011157565b8054821015610cd05760005260206000200190600090565b634e487b7160e01b600052603260045260246000fd5b6001546001600160a01b03163303610cfa57565b60405163118cdaa760e01b8152336004820152602490fd5b6060810190811067ffffffffffffffff821117610d2e57604052565b634e487b7160e01b600052604160045260246000fd5b6040810190811067ffffffffffffffff821117610d2e57604052565b90601f8019910116810190811067ffffffffffffffff821117610d2e57604052565b906000602091828151910182855af115610556576000513d610dd557506001600160a01b0381163b155b610db35750565b604051635274afe760e01b81526001600160a01b039091166004820152602490fd5b60011415610dac565b600260005414610def576002600055565b604051633ee5aeb560e01b8152600490fd5b805115610cd05760200190565b805160011015610cd05760400190565b90602090818382031261011157825167ffffffffffffffff93848211610111570181601f82011215610111578051938411610d2e578360051b9060405194610e6885840187610d60565b85528380860192820101928311610111578301905b828210610e8b575050505090565b81518152908301908301610e7d565b90815180825260208080930193019160005b828110610eba575050505090565b83516001600160a01b031685529381019392810192600101610eac565b8115610ee1570490565b634e487b7160e01b600052601260045260246000fd5b60405163a9059cbb60e01b60208201526001600160a01b03929092166024830152604480830193909352918152610f3891610f33606483610d60565b610d82565b565b90600091825260206003815260409283812060018060a01b039081815416156111bd57600781015460ff811661118f5760081c60ff16611169576006810154421161114557610fe7838751610f8e81610d12565b6002815288368883013784600185015416610fa882610e01565b5284600285015416610fb982610e0e565b526003840154948951808095819463d06ca61f60e01b83528960048401528d60248401526044830190610e9a565b03917f0000000000000000000000000000000000000000000000000000000000000000165afa849181611129575b50611044575050506b145d5bdd194819985a5b195960a21b9093519161103a83610d44565b600c835282015290565b61104d90610e0e565b5191670de0b6b3a7640000808402908482041484151715611115579061107291610ed7565b6005820154116110db5760040154116110ac57506945786563757461626c6560b01b60019351916110a283610d44565b600a835282015290565b734f75747075742062656c6f77206d696e696d756d60601b909351916110d183610d44565b6014835282015290565b50507f507269636520636f6e646974696f6e206e6f74206d65740000000000000000009093519161110b83610d44565b6017835282015290565b634e487b7160e01b85526011600452602485fd5b61113e9192503d8087833e6105478183610d60565b9038611015565b505066115e1c1a5c995960ca1b9093519161115f83610d44565b6007835282015290565b50506810d85b98d95b1b195960ba1b9093519161118583610d44565b6009835282015290565b5050506f105b1c9958591e48195e1958dd5d195960821b909351916111b383610d44565b6010835282015290565b50506e13dc99195c881b9bdd08199bdd5b99608a1b909351916111df83610d44565b600f83528201529056fea26469706673582212209802b9bf8aefaa816057ea257ef1082a8974bf952f5df347c63500e90898a36464736f6c63430008140033",
  "linkReferences": {},
  "deployedLinkReferences": {}
}