{"contracts/TriangularArbExecutor.sol":{"TriangularArbExecutor":{"abi":[{"inputs":[{"internalType":"address","name":"_eloquraRouter","type":"address"},{"internalType":"address","name":"_uniswapRouter","type":"address"},{"internalType":"address","name":"_eloquraWeth","type":"address"},{"internalType":"address","name":"_uniswapWeth","type":"address"},{"internalType":"address","name":"_aavePool","type":"address"}],"stateMutability":"nonpayable","type":"constructor"},{"inputs":[],"name":"aavePool","outputs":[{"internalType":"contract IPool","name":"","type":"address"}],"stateMutability":"view","type":"function"},{"inputs":[],"name":"eloquraRouter","outputs":[{"internalType":"contract IEloquraRouter","name":"","type":"address"}],"stateMutability":"view","type":"function"},{"inputs":[],"name":"eloquraWeth","outputs":[{"internalType":"contract IWETH","name":"","type":"address"}],"stateMutability":"view","type":"function"},{"inputs":[{"internalType":"uint8","name":"direction","type":"uint8"},{"internalType":"address","name":"inputToken","type":"address"},{"internalType":"uint256","name":"amountIn","type":"uint256"},{"internalType":"address[]","name":"eloquraPath1","type":"address[]"},{"internalType":"address[]","name":"eloquraPath2","type":"address[]"},{"internalType":"address","name":"uniswapTokenIn","type":"address"},{"internalType":"address","name":"uniswapTokenOut","type":"address"},{"internalType":"uint24","name":"uniswapFeeTier","type":"uint24"},{"internalType":"uint256","name":"minProfit","type":"uint256"}],"name":"execute","outputs":[],"stateMutability":"nonpayable","type":"function"},{"inputs":[{"internalType":"address","name":"asset","type":"address"},{"internalType":"uint256","name":"amount","type":"uint256"},{"internalType":"uint256","name":"premium","type":"uint256"},{"internalType":"address","name":"initiator","type":"address"},{"internalType":"bytes","name":"params","type":"bytes"}],"name":"executeOperation","outputs":[{"internalType":"bool","name":"","type":"bool"}],"stateMutability":"nonpayable","type":"function"},{"inputs":[{"internalType":"uint8","name":"direction","type":"uint8"},{"internalType":"address","name":"inputToken","type":"address"},{"internalType":"uint256","name":"amountIn","type":"uint256"},{"internalType":"address[]","name":"eloquraPath1","type":"address[]"},{"internalType":"address[]","name":"eloquraPath2","type":"address[]"},{"internalType":"address","name":"uniswapTokenIn","type":"address"},{"internalType":"address","name":"uniswapTokenOut","type":"address"},{"internalType":"uint24","name":"uniswapFeeTier","type":"uint24"}],"name":"executeWithFlashloan","outputs":[],"stateMutability":"nonpayable","type":"function"},{"inputs":[],"name":"owner","outputs":[{"internalType":"address","name":"","type":"address"}],"stateMutability":"view","type":"function"},{"inputs":[],"name":"rescueETH","outputs":[],"stateMutability":"nonpayable","type":"function"},{"inputs":[{"internalType":"address","name":"token","type":"address"},{"internalType":"uint256","name":"amount","type":"uint256"}],"name":"rescueTokens","outputs":[],"stateMutability":"nonpayable","type":"function"},{"inputs":[],"name":"uniswapRouter","outputs":[{"internalType":"contract IUniswapRouter","name":"","type":"address"}],"stateMutability":"view","type":"function"},{"inputs":[],"name":"uniswapWeth","outputs":[{"internalType":"contract IWETH","name":"","type":"address"}],"stateMutability":"view","type":"function"},{"stateMutability":"payable","type":"receive"}],"evm":{"bytecode":{"linkReferences":{},"object":"608034620000ec57601f62001f1538819003918201601f19168301916001600160401b03831184841017620000f15780849260a094604052833981010312620000ec576200004d8162000107565b906200005c6020820162000107565b906200006b6040820162000107565b91620000886080620000806060850162000107565b930162000107565b9160018060a01b0319943386600054161760005560018060a01b03948580948180941689600154161760015516876002541617600255168560035416176003551683600454161760045516906005541617600555604051611df890816200011d8239f35b600080fd5b634e487b7160e01b600052604160045260246000fd5b51906001600160a01b0382168203620000ec5756fe608080604052600436101561001d575b50361561001b57600080fd5b005b600090813560e01c9081631b11d0ff14610f2b5750806320800a0014610e695780635737619814610dd0578063667c358a14610c35578063735de9f714610c0c5780638da5cb5b14610be55780638fbe5c3d146101455780639cf4b4571461011c578063a03e4bc3146100f3578063bdd90def146100ca5763c19766e30361000f57346100c757806003193601126100c7576004546040516001600160a01b039091168152602090f35b80fd5b50346100c757806003193601126100c7576003546040516001600160a01b039091168152602090f35b50346100c757806003193601126100c7576005546040516001600160a01b039091168152602090f35b50346100c757806003193601126100c7576001546040516001600160a01b039091168152602090f35b50346100c7576101203660031901126100c7576101606119ff565b6101686119a9565b9067ffffffffffffffff6064358181116107045761018a903690600401611a0f565b9091608435908111610708576101a4903690600401611a0f565b91906101ae6119bf565b926101b76119d5565b926101c0611a40565b956101d560018060a01b038b54163314611a52565b6040516370a0823160e01b8152306004820152976020896024816001600160a01b038e165afa988915610bda578b99610ba6575b508a60208b6064604051809481936323b872dd60e01b8352336004840152306024840152604435604484015260018060a01b03165af18015610b9b57610b7c575b5061012c42014211610b68578a9060ff1661080b575081156107f7578991829160206102be6001600160a01b0361028084611bfc565b60015460405163095ea7b360e01b81526001600160a01b03919091166004820152604480356024830152909889949390921692849291839190820190565b03925af19384156107ec57610307946107cd575b5060018060a01b036001541690836040518096819582946338ed173960e01b845261012c420191309160443560048701611c8a565b03925af19081156107c25789916107a8575b508051600019810191908211610794579061033391611ce7565b5181156107805761039492899290916020816001600160a01b0361035686611bfc565b60015460405163095ea7b360e01b81526001600160a01b03909116600482015260248101939093529197889291909116908290889082906044820190565b03925af1948515610692576103db95610761575b508360018060a01b036001541692604051968795869485936338ed173960e01b855261012c420192309260048701611c8a565b03925af1908115610756578791610734575b50805160001981019190821161072057879493929161040b91611ce7565b516003549092906001600160a01b0316803b1561070857858091602460405180948193632e1a7d4d60e01b83528960048401525af19081156106e557869161070c575b50506004546001600160a01b0316803b1561070857858491600460405180948193630d0e30db60e41b83525af19081156106e55786916106f0575b50506004805460025460405163095ea7b360e01b81526001600160a01b039182169381019390935260248301869052919491602091869160449183918b91165af180156106e55760209561054a9562ffffff926106c8575b5060018060a01b036002541694604051946104fb86611a8a565b60018060a01b0316855260018060a01b03168785015216604083015230606083015260808201528460a08201528460c08201526040519485809481936304e45aaf60e01b835260048301611cfb565b03925af180156106925761069d575b505b6040516370a0823160e01b8152306004820152906020826024816001600160a01b0387165afa8015610692578490610659575b6105989250611b2d565b906105a861010435604435611b0a565b82106106255760405163a9059cbb60e01b815233600482015260248101929092526020908290604490829086906001600160a01b03165af1801561061a576105ee575080f35b61060f9060203d602011610613575b6106078183611ad0565b810190611af2565b5080f35b503d6105fd565b6040513d84823e3d90fd5b60405162461bcd60e51b815260206004820152600c60248201526b756e70726f66697461626c6560a01b6044820152606490fd5b506020823d60201161068a575b8161067360209383611ad0565b8101031261068557610598915161058e565b600080fd5b3d9150610666565b6040513d86823e3d90fd5b602090813d83116106c1575b6106b38183611ad0565b810103126106855738610559565b503d6106a9565b6106de90883d8a11610613576106078183611ad0565b50386104e1565b6040513d88823e3d90fd5b6106f990611abc565b610704578438610489565b8480fd5b8580fd5b61071590611abc565b61070457843861044e565b634e487b7160e01b88526011600452602488fd5b61075091503d8089833e6107488183611ad0565b810190611c10565b386103ed565b6040513d89823e3d90fd5b6107799060203d602011610613576106078183611ad0565b50386103a8565b634e487b7160e01b89526032600452602489fd5b634e487b7160e01b8a52601160045260248afd5b6107bc91503d808b833e6107488183611ad0565b38610319565b6040513d8b823e3d90fd5b6107e59060203d602011610613576106078183611ad0565b50386102d2565b6040513d85823e3d90fd5b634e487b7160e01b8a52603260045260248afd5b60025460405163095ea7b360e01b81526001600160a01b0391821660048201526044803560248301529699959892979296939593909291602091849182908b908b165af19586156107565762ffffff6020946108d6948a99610b4b575b5060018060a01b0360025416936040519361088285611a8a565b6001600160a01b039081168552168684015216604080830191909152306060830152604435608083015260a0820188905260c08201889052516304e45aaf60e01b8152978893849283919060048301611cfb565b03925af19384156107ec578394610b14575b506004546001600160a01b0316803b15610afc57838091602460405180948193632e1a7d4d60e01b83528a60048401525af1908115610692578491610b00575b50506003546001600160a01b0316803b15610afc57838591600460405180948193630d0e30db60e41b83525af1801561069257610ae4575b5060035460015460405163095ea7b360e01b81526001600160a01b039182166004820152602481018790529591602091879160449183918991165af1948515610692576109de9561076157508360018060a01b036001541692604051968795869485936338ed173960e01b855261012c420192309260048701611c8a565b03925af19081156106e5578691610aca575b508051600019810191908211610ab65790610a0a91611ce7565b518115610aa257610a2d92869290916020816001600160a01b0361035686611bfc565b03925af194851561069257610a739561076157508360018060a01b036001541692604051968795869485936338ed173960e01b855261012c420192309260048701611c8a565b03925af1801561069257610a88575b5061055b565b610a9b903d8086833e6107488183611ad0565b5038610a82565b634e487b7160e01b86526032600452602486fd5b634e487b7160e01b87526011600452602487fd5b610ade91503d8088833e6107488183611ad0565b386109f0565b610aee8491611abc565b610af85738610960565b8280fd5b8380fd5b610b0990611abc565b610af8578238610928565b925092506020823d602011610b43575b81610b3160209383611ad0565b810103126106855787915192386108e8565b3d9150610b24565b610b6190873d8911610613576106078183611ad0565b5038610868565b634e487b7160e01b8b52601160045260248bfd5b610b949060203d602011610613576106078183611ad0565b503861024a565b6040513d8e823e3d90fd5b9098506020813d602011610bd2575b81610bc260209383611ad0565b8101031261068557519738610209565b3d9150610bb5565b6040513d8d823e3d90fd5b50346100c757806003193601126100c757546040516001600160a01b039091168152602090f35b50346100c757806003193601126100c7576002546040516001600160a01b039091168152602090f35b50346100c7576101003660031901126100c757610c506119ff565b90610c596119a9565b67ffffffffffffffff92606435848111610afc57610c7b903690600401611a0f565b9460843590811161070457610c94903690600401611a0f565b929095610c9f6119bf565b610ca76119d5565b97610cb0611a40565b90600160a01b60019003998a8092818c54163314610ccd90611a52565b60405198899760209960ff168a8a01526040890160c0905260e0890190610cf392611b3a565b601f199a8b8983030160608a0152610d0a92611b3a565b941660808601521660a084015262ffffff1660c0830152038381018352610d319083611ad0565b856005541695863b1561070857604051946310ac2ddf60e21b8652306004870152166024850152604435604485015260a060648501528151918260a4860152855b838110610dbc575050508394838560c4828296601f878585859a86010152856084850152011681010301925af1801561061a57610dac5750f35b610db590611abc565b6100c75780f35b81810183015186820160c401528201610d72565b50346100c75760403660031901126100c757610dea611993565b81546001600160a01b0391602091610e3f91908416610e0a338214611a52565b60405163a9059cbb60e01b81526001600160a01b03909116600482015260248035908201529384928391879183906044820190565b0393165af1801561061a57610e52575080f35b61060f9060203d8111610613576106078183611ad0565b50346100c757806003193601126100c7578080808060018060a01b03815416610e93813314611a52565b47905af13d15610f26573d67ffffffffffffffff8111610f125760405190610ec5601f8201601f191660200183611ad0565b81528260203d92013e5b15610ed75780f35b60405162461bcd60e51b8152602060048201526013602482015272115512081d1c985b9cd9995c8819985a5b1959606a1b6044820152606490fd5b634e487b7160e01b83526041600452602483fd5b610ecf565b90503461198f5760a036600319011261198f57610f46611993565b916064359260018060a01b0392838516809503610af8576084359067ffffffffffffffff908183116107045736602384011215610704578260040135828111610708578301602497888201923684116118ad578860055416330361195c57503003611923578360c091031261070457868301359060ff82168092036107085760448401358381116114e3578189610fdf92870101611b96565b9260648501359081116114e3579088610ffa92860101611b96565b611006608485016119eb565b9260c461101560a487016119eb565b9501359262ffffff841684036118ad57899061012c42014211611910576115ab575061108360208961104684611cc4565b5160015460405163095ea7b360e01b8152908d166001600160a01b031660048201528d3560248201529384929091169082908c9082906044820190565b03925af18015611581576110ca8994938c93869361158c575b508b60015416906040519687809481936338ed173960e01b9889845261012c42019130913560048601611d57565b03925af1928315611581578893611565575b5082516000199384820191821161155257906110f791611ce7565b516111416020828c61110887611cc4565b51168d600154168d60405180968195829463095ea7b360e01b84526004840160209093929193604081019460018060a01b031681520152565b03925af1801561154757918a939161117e9593611528575b50838c600154169260405196879586948593845261012c420191309160048601611d57565b03925af190811561075657879161150e575b5080519182019182116114fb57906111a791611ce7565b51908660035416803b156114e3578680918a60405180948193632e1a7d4d60e01b83528860048401525af18015610756579087916114e7575b50508660045416803b156114e357868391600460405180948193630d0e30db60e41b83525af18015610756579087916114cf575b50506004805460025460405163095ea7b360e01b8152908a166001600160a01b0316928101929092526024820184905260209082908a16818a816044810103925af18015610756579262ffffff889693602096936112c8966114b2575b508a806002541695816040519661128788611a8a565b168652168785015216604083015230606083015260808201528460a08201528460c08201526040519485809481936304e45aaf60e01b835260048301611cfb565b03925af180156107ec57611487575b505b826112e76044358635611b0a565b9116906040516370a0823160e01b815230600482015260209586828281875afa91821561140a578592611458575b50828210611415575060055460405163095ea7b360e01b81529086166001600160a01b0316600482015260248101839052868160448188885af1801561140a579187949391611369936113ed575b50611b2d565b908161137a575b8260405160018152f35b835460405163a9059cbb60e01b815295166001600160a01b03166004860152602485019190915283908184816044810103925af19081156113e157506113c4575b80828180611370565b6113da90823d8411610613576106078183611ad0565b50386113bb565b604051903d90823e3d90fd5b61140390863d8811610613576106078183611ad0565b5038611363565b6040513d87823e3d90fd5b8660176064926040519262461bcd60e51b845260048401528201527f666c617368206c6f616e20756e70726f66697461626c650000000000000000006044820152fd5b9091508681813d8311611480575b6114708183611ad0565b8101031261068557519038611315565b503d611466565b602090813d83116114ab575b61149d8183611ad0565b8101031261068557386112d7565b503d611493565b6114c890883d8a11610613576106078183611ad0565b5038611271565b6114d890611abc565b610708578538611214565b8680fd5b6114f090611abc565b6107085785386111e0565b634e487b7160e01b875260116004528887fd5b61152291503d8089833e6107488183611ad0565b38611190565b6115409060203d602011610613576106078183611ad0565b5038611159565b6040513d8c823e3d90fd5b634e487b7160e01b8a5260116004528b8afd5b61157a9193503d808a833e6107488183611ad0565b91386110dc565b6040513d8a823e3d90fd5b6115a49060203d602011610613576106078183611ad0565b503861109c565b60025460405163095ea7b360e01b808252918b166001600160a01b031660048201529135602483018190529396909560209593949193908b169286816044818e885af18015610bda579262ffffff889796938e8e9b9a9794611660976118f3575b508060025416956040519561162087611a8a565b8652168785015216604083015230606083015260808201528760a08201528760c08201526040519788809481936304e45aaf60e01b835260048301611cfb565b03925af19384156107565787946118c4575b508760045416803b156118ad578780918b60405180948193632e1a7d4d60e01b83528a60048401525af18015611581576118b1575b508760035416803b156118ad57878591600460405180948193630d0e30db60e41b83525af1801561158157908891611899575b5050600354600154604051858152908a166001600160a01b031660048201526024810186905290839082908b16818b816044810103925af1801561158157889283926117529261187c575b508a60015416906040519485809481936338ed173960e01b9b8c845261012c420191309160048601611d57565b03925af1908115610756578791611862575b50805160001981019190821161184f576117826117c3928492611ce7565b5180948a61178f89611cc4565b5116908a8c60015416916040519687958694859384526004840160209093929193604081019460018060a01b031681520152565b03925af180156107565791611802959391889593611831575b50508388600154169260405196879586948593845261012c420191309160048601611d57565b03925af180156107ec57611817575b506112d9565b61182a903d8085833e6107488183611ad0565b5038611811565b8161184792903d10610613576106078183611ad0565b5038806117dc565b634e487b7160e01b885260116004528988fd5b61187691503d8089833e6107488183611ad0565b38611764565b61189290863d8811610613576106078183611ad0565b5038611725565b6118a290611abc565b6114e35786386116da565b8780fd5b6118bd90979197611abc565b95386116a7565b9093508181813d83116118ec575b6118dc8183611ad0565b810103126114e357519238611672565b503d6118d2565b61190990893d8b11610613576106078183611ad0565b503861160c565b50634e487b7160e01b8852601160045287fd5b60405162461bcd60e51b8152602060048201526012818a01527134b734ba34b0ba37b9103737ba1039b2b63360711b6044820152606490fd5b62461bcd60e51b815260206004820152600f8a8201526e18d85b1b195c881b9bdd081c1bdbdb608a1b6044820152606490fd5b5080fd5b600435906001600160a01b038216820361068557565b602435906001600160a01b038216820361068557565b60a435906001600160a01b038216820361068557565b60c435906001600160a01b038216820361068557565b35906001600160a01b038216820361068557565b6004359060ff8216820361068557565b9181601f840112156106855782359167ffffffffffffffff8311610685576020808501948460051b01011161068557565b60e4359062ffffff8216820361068557565b15611a5957565b60405162461bcd60e51b81526020600482015260096024820152683737ba1037bbb732b960b91b6044820152606490fd5b60e0810190811067ffffffffffffffff821117611aa657604052565b634e487b7160e01b600052604160045260246000fd5b67ffffffffffffffff8111611aa657604052565b90601f8019910116810190811067ffffffffffffffff821117611aa657604052565b90816020910312610685575180151581036106855790565b91908201809211611b1757565b634e487b7160e01b600052601160045260246000fd5b91908203918211611b1757565b91908082526020809201929160005b828110611b57575050505090565b909192938280600192838060a01b03611b6f896119eb565b16815201950193929101611b49565b67ffffffffffffffff8111611aa65760051b60200190565b81601f8201121561068557803591611bad83611b7e565b92611bbb6040519485611ad0565b808452602092838086019260051b820101928311610685578301905b828210611be5575050505090565b838091611bf1846119eb565b815201910190611bd7565b356001600160a01b03811681036106855790565b60209081818403126106855780519067ffffffffffffffff821161068557019180601f84011215610685578251611c4681611b7e565b93611c546040519586611ad0565b818552838086019260051b820101928311610685578301905b828210611c7b575050505090565b81518152908301908301611c6d565b91608093611cb0929796959784526000602085015260a0604085015260a0840191611b3a565b6001600160a01b0390951660608201520152565b805115611cd15760200190565b634e487b7160e01b600052603260045260246000fd5b8051821015611cd15760209160051b010190565b91909160c060e08201938160018060a01b039182815116855282602082015116602086015262ffffff60408201511660408601528260608201511660608601526080810151608086015260a081015160a0860152015116910152565b91909493929460a0830190835260209060008285015260a0604085015282518091528160c0850193019160005b828110611da55750505050906080919460018060a01b031660608201520152565b83516001600160a01b031685529381019392810192600101611d8456fea26469706673582212208af23ecca27ab43ea8ba1caf38589b39c8ea14b39aef6e2a69d7e1f605b8d22164736f6c63430008140033","opcodes":"PUSH1 0x80 CALLVALUE PUSH3 0xEC JUMPI PUSH1 0x1F PUSH3 0x1F15 CODESIZE DUP2 SWAP1 SUB SWAP2 DUP3 ADD PUSH1 0x1F NOT AND DUP4 ADD SWAP2 PUSH1 0x1 PUSH1 0x1 PUSH1 0x40 SHL SUB DUP4 GT DUP5 DUP5 LT OR PUSH3 0xF1 JUMPI DUP1 DUP5 SWAP3 PUSH1 0xA0 SWAP5 PUSH1 0x40 MSTORE DUP4 CODECOPY DUP2 ADD SUB SLT PUSH3 0xEC JUMPI PUSH3 0x4D DUP2 PUSH3 0x107 JUMP JUMPDEST SWAP1 PUSH3 0x5C PUSH1 0x20 DUP3 ADD PUSH3 0x107 JUMP JUMPDEST SWAP1 PUSH3 0x6B PUSH1 0x40 DUP3 ADD PUSH3 0x107 JUMP JUMPDEST SWAP2 PUSH3 0x88 PUSH1 0x80 PUSH3 0x80 PUSH1 0x60 DUP6 ADD PUSH3 0x107 JUMP JUMPDEST SWAP4 ADD PUSH3 0x107 JUMP JUMPDEST SWAP2 PUSH1 0x1 DUP1 PUSH1 0xA0 SHL SUB NOT SWAP5 CALLER DUP7 PUSH1 0x0 SLOAD AND OR PUSH1 0x0 SSTORE PUSH1 0x1 DUP1 PUSH1 0xA0 SHL SUB SWAP5 DUP6 DUP1 SWAP5 DUP2 DUP1 SWAP5 AND DUP10 PUSH1 0x1 SLOAD AND OR PUSH1 0x1 SSTORE AND DUP8 PUSH1 0x2 SLOAD AND OR PUSH1 0x2 SSTORE AND DUP6 PUSH1 0x3 SLOAD AND OR PUSH1 0x3 SSTORE AND DUP4 PUSH1 0x4 SLOAD AND OR PUSH1 0x4 SSTORE AND SWAP1 PUSH1 0x5 SLOAD AND OR PUSH1 0x5 SSTORE PUSH1 0x40 MLOAD PUSH2 0x1DF8 SWAP1 DUP2 PUSH3 0x11D DUP3 CODECOPY RETURN JUMPDEST PUSH1 0x0 DUP1 REVERT JUMPDEST PUSH4 0x4E487B71 PUSH1 0xE0 SHL PUSH1 0x0 MSTORE PUSH1 0x41 PUSH1 0x4 MSTORE PUSH1 0x24 PUSH1 0x0 REVERT JUMPDEST MLOAD SWAP1 PUSH1 0x1 PUSH1 0x1 PUSH1 0xA0 SHL SUB DUP3 AND DUP3 SUB PUSH3 0xEC JUMPI JUMP INVALID PUSH1 0x80 DUP1 PUSH1 0x40 MSTORE PUSH1 0x4 CALLDATASIZE LT ISZERO PUSH2 0x1D JUMPI JUMPDEST POP CALLDATASIZE ISZERO PUSH2 0x1B JUMPI PUSH1 0x0 DUP1 REVERT JUMPDEST STOP JUMPDEST PUSH1 0x0 SWAP1 DUP2 CALLDATALOAD PUSH1 0xE0 SHR SWAP1 DUP2 PUSH4 0x1B11D0FF EQ PUSH2 0xF2B JUMPI POP DUP1 PUSH4 0x20800A00 EQ PUSH2 0xE69 JUMPI DUP1 PUSH4 0x57376198 EQ PUSH2 0xDD0 JUMPI DUP1 PUSH4 0x667C358A EQ PUSH2 0xC35 JUMPI DUP1 PUSH4 0x735DE9F7 EQ PUSH2 0xC0C JUMPI DUP1 PUSH4 0x8DA5CB5B EQ PUSH2 0xBE5 JUMPI DUP1 PUSH4 0x8FBE5C3D EQ PUSH2 0x145 JUMPI DUP1 PUSH4 0x9CF4B457 EQ PUSH2 0x11C JUMPI DUP1 PUSH4 0xA03E4BC3 EQ PUSH2 0xF3 JUMPI DUP1 PUSH4 0xBDD90DEF EQ PUSH2 0xCA JUMPI PUSH4 0xC19766E3 SUB PUSH2 0xF JUMPI CALLVALUE PUSH2 0xC7 JUMPI DUP1 PUSH1 0x3 NOT CALLDATASIZE ADD SLT PUSH2 0xC7 JUMPI PUSH1 0x4 SLOAD PUSH1 0x40 MLOAD PUSH1 0x1 PUSH1 0x1 PUSH1 0xA0 SHL SUB SWAP1 SWAP2 AND DUP2 MSTORE PUSH1 0x20 SWAP1 RETURN JUMPDEST DUP1 REVERT JUMPDEST POP CALLVALUE PUSH2 0xC7 JUMPI DUP1 PUSH1 0x3 NOT CALLDATASIZE ADD SLT PUSH2 0xC7 JUMPI PUSH1 0x3 SLOAD PUSH1 0x40 MLOAD PUSH1 0x1 PUSH1 0x1 PUSH1 0xA0 SHL SUB SWAP1 SWAP2 AND DUP2 MSTORE PUSH1 0x20 SWAP1 RETURN JUMPDEST POP CALLVALUE PUSH2 0xC7 JUMPI DUP1 PUSH1 0x3 NOT CALLDATASIZE ADD SLT PUSH2 0xC7 JUMPI PUSH1 0x5 SLOAD PUSH1 0x40 MLOAD PUSH1 0x1 PUSH1 0x1 PUSH1 0xA0 SHL SUB SWAP1 SWAP2 AND DUP2 MSTORE PUSH1 0x20 SWAP1 RETURN JUMPDEST POP CALLVALUE PUSH2 0xC7 JUMPI DUP1 PUSH1 0x3 NOT CALLDATASIZE ADD SLT PUSH2 0xC7 JUMPI PUSH1 0x1 SLOAD PUSH1 0x40 MLOAD PUSH1 0x1 PUSH1 0x1 PUSH1 0xA0 SHL SUB SWAP1 SWAP2 AND DUP2 MSTORE PUSH1 0x20 SWAP1 RETURN JUMPDEST POP CALLVALUE PUSH2 0xC7 JUMPI PUSH2 0x120 CALLDATASIZE PUSH1 0x3 NOT ADD SLT PUSH2 0xC7 JUMPI PUSH2 0x160 PUSH2 0x19FF JUMP JUMPDEST PUSH2 0x168 PUSH2 0x19A9 JUMP JUMPDEST SWAP1 PUSH8 0xFFFFFFFFFFFFFFFF PUSH1 0x64 CALLDATALOAD DUP2 DUP2 GT PUSH2 0x704 JUMPI PUSH2 0x18A SWAP1 CALLDATASIZE SWAP1 PUSH1 0x4 ADD PUSH2 0x1A0F JUMP JUMPDEST SWAP1 SWAP2 PUSH1 0x84 CALLDATALOAD SWAP1 DUP2 GT PUSH2 0x708 JUMPI PUSH2 0x1A4 SWAP1 CALLDATASIZE SWAP1 PUSH1 0x4 ADD PUSH2 0x1A0F JUMP JUMPDEST SWAP2 SWAP1 PUSH2 0x1AE PUSH2 0x19BF JUMP JUMPDEST SWAP3 PUSH2 0x1B7 PUSH2 0x19D5 JUMP JUMPDEST SWAP3 PUSH2 0x1C0 PUSH2 0x1A40 JUMP JUMPDEST SWAP6 PUSH2 0x1D5 PUSH1 0x1 DUP1 PUSH1 0xA0 SHL SUB DUP12 SLOAD AND CALLER EQ PUSH2 0x1A52 JUMP JUMPDEST PUSH1 0x40 MLOAD PUSH4 0x70A08231 PUSH1 0xE0 SHL DUP2 MSTORE ADDRESS PUSH1 0x4 DUP3 ADD MSTORE SWAP8 PUSH1 0x20 DUP10 PUSH1 0x24 DUP2 PUSH1 0x1 PUSH1 0x1 PUSH1 0xA0 SHL SUB DUP15 AND GAS STATICCALL SWAP9 DUP10 ISZERO PUSH2 0xBDA JUMPI DUP12 SWAP10 PUSH2 0xBA6 JUMPI JUMPDEST POP DUP11 PUSH1 0x20 DUP12 PUSH1 0x64 PUSH1 0x40 MLOAD DUP1 SWAP5 DUP2 SWAP4 PUSH4 0x23B872DD PUSH1 0xE0 SHL DUP4 MSTORE CALLER PUSH1 0x4 DUP5 ADD MSTORE ADDRESS PUSH1 0x24 DUP5 ADD MSTORE PUSH1 0x44 CALLDATALOAD PUSH1 0x44 DUP5 ADD MSTORE PUSH1 0x1 DUP1 PUSH1 0xA0 SHL SUB AND GAS CALL DUP1 ISZERO PUSH2 0xB9B JUMPI PUSH2 0xB7C JUMPI JUMPDEST POP PUSH2 0x12C TIMESTAMP ADD TIMESTAMP GT PUSH2 0xB68 JUMPI DUP11 SWAP1 PUSH1 0xFF AND PUSH2 0x80B JUMPI POP DUP2 ISZERO PUSH2 0x7F7 JUMPI DUP10 SWAP2 DUP3 SWAP2 PUSH1 0x20 PUSH2 0x2BE PUSH1 0x1 PUSH1 0x1 PUSH1 0xA0 SHL SUB PUSH2 0x280 DUP5 PUSH2 0x1BFC JUMP JUMPDEST PUSH1 0x1 SLOAD PUSH1 0x40 MLOAD PUSH4 0x95EA7B3 PUSH1 0xE0 SHL DUP2 MSTORE PUSH1 0x1 PUSH1 0x1 PUSH1 0xA0 SHL SUB SWAP2 SWAP1 SWAP2 AND PUSH1 0x4 DUP3 ADD MSTORE PUSH1 0x44 DUP1 CALLDATALOAD PUSH1 0x24 DUP4 ADD MSTORE SWAP1 SWAP9 DUP10 SWAP5 SWAP4 SWAP1 SWAP3 AND SWAP3 DUP5 SWAP3 SWAP2 DUP4 SWAP2 SWAP1 DUP3 ADD SWAP1 JUMP JUMPDEST SUB SWAP3 GAS CALL SWAP4 DUP5 ISZERO PUSH2 0x7EC JUMPI PUSH2 0x307 SWAP5 PUSH2 0x7CD JUMPI JUMPDEST POP PUSH1 0x1 DUP1 PUSH1 0xA0 SHL SUB PUSH1 0x1 SLOAD AND SWAP1 DUP4 PUSH1 0x40 MLOAD DUP1 SWAP7 DUP2 SWAP6 DUP3 SWAP5 PUSH4 0x38ED1739 PUSH1 0xE0 SHL DUP5 MSTORE PUSH2 0x12C TIMESTAMP ADD SWAP2 ADDRESS SWAP2 PUSH1 0x44 CALLDATALOAD PUSH1 0x4 DUP8 ADD PUSH2 0x1C8A JUMP JUMPDEST SUB SWAP3 GAS CALL SWAP1 DUP2 ISZERO PUSH2 0x7C2 JUMPI DUP10 SWAP2 PUSH2 0x7A8 JUMPI JUMPDEST POP DUP1 MLOAD PUSH1 0x0 NOT DUP2 ADD SWAP2 SWAP1 DUP3 GT PUSH2 0x794 JUMPI SWAP1 PUSH2 0x333 SWAP2 PUSH2 0x1CE7 JUMP JUMPDEST MLOAD DUP2 ISZERO PUSH2 0x780 JUMPI PUSH2 0x394 SWAP3 DUP10 SWAP3 SWAP1 SWAP2 PUSH1 0x20 DUP2 PUSH1 0x1 PUSH1 0x1 PUSH1 0xA0 SHL SUB PUSH2 0x356 DUP7 PUSH2 0x1BFC JUMP JUMPDEST PUSH1 0x1 SLOAD PUSH1 0x40 MLOAD PUSH4 0x95EA7B3 PUSH1 0xE0 SHL DUP2 MSTORE PUSH1 0x1 PUSH1 0x1 PUSH1 0xA0 SHL SUB SWAP1 SWAP2 AND PUSH1 0x4 DUP3 ADD MSTORE PUSH1 0x24 DUP2 ADD SWAP4 SWAP1 SWAP4 MSTORE SWAP2 SWAP8 DUP9 SWAP3 SWAP2 SWAP1 SWAP2 AND SWAP1 DUP3 SWAP1 DUP9 SWAP1 DUP3 SWAP1 PUSH1 0x44 DUP3 ADD SWAP1 JUMP JUMPDEST SUB SWAP3 GAS CALL SWAP5 DUP6 ISZERO PUSH2 0x692 JUMPI PUSH2 0x3DB SWAP6 PUSH2 0x761 JUMPI JUMPDEST POP DUP4 PUSH1 0x1 DUP1 PUSH1 0xA0 SHL SUB PUSH1 0x1 SLOAD AND SWAP3 PUSH1 0x40 MLOAD SWAP7 DUP8 SWAP6 DUP7 SWAP5 DUP6 SWAP4 PUSH4 0x38ED1739 PUSH1 0xE0 SHL DUP6 MSTORE PUSH2 0x12C TIMESTAMP ADD SWAP3 ADDRESS SWAP3 PUSH1 0x4 DUP8 ADD PUSH2 0x1C8A JUMP JUMPDEST SUB SWAP3 GAS CALL SWAP1 DUP2 ISZERO PUSH2 0x756 JUMPI DUP8 SWAP2 PUSH2 0x734 JUMPI JUMPDEST POP DUP1 MLOAD PUSH1 0x0 NOT DUP2 ADD SWAP2 SWAP1 DUP3 GT PUSH2 0x720 JUMPI DUP8 SWAP5 SWAP4 SWAP3 SWAP2 PUSH2 0x40B SWAP2 PUSH2 0x1CE7 JUMP JUMPDEST MLOAD PUSH1 0x3 SLOAD SWAP1 SWAP3 SWAP1 PUSH1 0x1 PUSH1 0x1 PUSH1 0xA0 SHL SUB AND DUP1 EXTCODESIZE ISZERO PUSH2 0x708 JUMPI DUP6 DUP1 SWAP2 PUSH1 0x24 PUSH1 0x40 MLOAD DUP1 SWAP5 DUP2 SWAP4 PUSH4 0x2E1A7D4D PUSH1 0xE0 SHL DUP4 MSTORE DUP10 PUSH1 0x4 DUP5 ADD MSTORE GAS CALL SWAP1 DUP2 ISZERO PUSH2 0x6E5 JUMPI DUP7 SWAP2 PUSH2 0x70C JUMPI JUMPDEST POP POP PUSH1 0x4 SLOAD PUSH1 0x1 PUSH1 0x1 PUSH1 0xA0 SHL SUB AND DUP1 EXTCODESIZE ISZERO PUSH2 0x708 JUMPI DUP6 DUP5 SWAP2 PUSH1 0x4 PUSH1 0x40 MLOAD DUP1 SWAP5 DUP2 SWAP4 PUSH4 0xD0E30DB PUSH1 0xE4 SHL DUP4 MSTORE GAS CALL SWAP1 DUP2 ISZERO PUSH2 0x6E5 JUMPI DUP7 SWAP2 PUSH2 0x6F0 JUMPI JUMPDEST POP POP PUSH1 0x4 DUP1 SLOAD PUSH1 0x2 SLOAD PUSH1 0x40 MLOAD PUSH4 0x95EA7B3 PUSH1 0xE0 SHL DUP2 MSTORE PUSH1 0x1 PUSH1 0x1 PUSH1 0xA0 SHL SUB SWAP2 DUP3 AND SWAP4 DUP2 ADD SWAP4 SWAP1 SWAP4 MSTORE PUSH1 0x24 DUP4 ADD DUP7 SWAP1 MSTORE SWAP2 SWAP5 SWAP2 PUSH1 0x20 SWAP2 DUP7 SWAP2 PUSH1 0x44 SWAP2 DUP4 SWAP2 DUP12 SWAP2 AND GAS CALL DUP1 ISZERO PUSH2 0x6E5 JUMPI PUSH1 0x20 SWAP6 PUSH2 0x54A SWAP6 PUSH3 0xFFFFFF SWAP3 PUSH2 0x6C8 JUMPI JUMPDEST POP PUSH1 0x1 DUP1 PUSH1 0xA0 SHL SUB PUSH1 0x2 SLOAD AND SWAP5 PUSH1 0x40 MLOAD SWAP5 PUSH2 0x4FB DUP7 PUSH2 0x1A8A JUMP JUMPDEST PUSH1 0x1 DUP1 PUSH1 0xA0 SHL SUB AND DUP6 MSTORE PUSH1 0x1 DUP1 PUSH1 0xA0 SHL SUB AND DUP8 DUP6 ADD MSTORE AND PUSH1 0x40 DUP4 ADD MSTORE ADDRESS PUSH1 0x60 DUP4 ADD MSTORE PUSH1 0x80 DUP3 ADD MSTORE DUP5 PUSH1 0xA0 DUP3 ADD MSTORE DUP5 PUSH1 0xC0 DUP3 ADD MSTORE PUSH1 0x40 MLOAD SWAP5 DUP6 DUP1 SWAP5 DUP2 SWAP4 PUSH4 0x4E45AAF PUSH1 0xE0 SHL DUP4 MSTORE PUSH1 0x4 DUP4 ADD PUSH2 0x1CFB JUMP JUMPDEST SUB SWAP3 GAS CALL DUP1 ISZERO PUSH2 0x692 JUMPI PUSH2 0x69D JUMPI JUMPDEST POP JUMPDEST PUSH1 0x40 MLOAD PUSH4 0x70A08231 PUSH1 0xE0 SHL DUP2 MSTORE ADDRESS PUSH1 0x4 DUP3 ADD MSTORE SWAP1 PUSH1 0x20 DUP3 PUSH1 0x24 DUP2 PUSH1 0x1 PUSH1 0x1 PUSH1 0xA0 SHL SUB DUP8 AND GAS STATICCALL DUP1 ISZERO PUSH2 0x692 JUMPI DUP5 SWAP1 PUSH2 0x659 JUMPI JUMPDEST PUSH2 0x598 SWAP3 POP PUSH2 0x1B2D JUMP JUMPDEST SWAP1 PUSH2 0x5A8 PUSH2 0x104 CALLDATALOAD PUSH1 0x44 CALLDATALOAD PUSH2 0x1B0A JUMP JUMPDEST DUP3 LT PUSH2 0x625 JUMPI PUSH1 0x40 MLOAD PUSH4 0xA9059CBB PUSH1 0xE0 SHL DUP2 MSTORE CALLER PUSH1 0x4 DUP3 ADD MSTORE PUSH1 0x24 DUP2 ADD SWAP3 SWAP1 SWAP3 MSTORE PUSH1 0x20 SWAP1 DUP3 SWAP1 PUSH1 0x44 SWAP1 DUP3 SWAP1 DUP7 SWAP1 PUSH1 0x1 PUSH1 0x1 PUSH1 0xA0 SHL SUB AND GAS CALL DUP1 ISZERO PUSH2 0x61A JUMPI PUSH2 0x5EE JUMPI POP DUP1 RETURN JUMPDEST PUSH2 0x60F SWAP1 PUSH1 0x20 RETURNDATASIZE PUSH1 0x20 GT PUSH2 0x613 JUMPI JUMPDEST PUSH2 0x607 DUP2 DUP4 PUSH2 0x1AD0 JUMP JUMPDEST DUP2 ADD SWAP1 PUSH2 0x1AF2 JUMP JUMPDEST POP DUP1 RETURN JUMPDEST POP RETURNDATASIZE PUSH2 0x5FD JUMP JUMPDEST PUSH1 0x40 MLOAD RETURNDATASIZE DUP5 DUP3 RETURNDATACOPY RETURNDATASIZE SWAP1 REVERT JUMPDEST PUSH1 0x40 MLOAD PUSH3 0x461BCD PUSH1 0xE5 SHL DUP2 MSTORE PUSH1 0x20 PUSH1 0x4 DUP3 ADD MSTORE PUSH1 0xC PUSH1 0x24 DUP3 ADD MSTORE PUSH12 0x756E70726F66697461626C65 PUSH1 0xA0 SHL PUSH1 0x44 DUP3 ADD MSTORE PUSH1 0x64 SWAP1 REVERT JUMPDEST POP PUSH1 0x20 DUP3 RETURNDATASIZE PUSH1 0x20 GT PUSH2 0x68A JUMPI JUMPDEST DUP2 PUSH2 0x673 PUSH1 0x20 SWAP4 DUP4 PUSH2 0x1AD0 JUMP JUMPDEST DUP2 ADD SUB SLT PUSH2 0x685 JUMPI PUSH2 0x598 SWAP2 MLOAD PUSH2 0x58E JUMP JUMPDEST PUSH1 0x0 DUP1 REVERT JUMPDEST RETURNDATASIZE SWAP2 POP PUSH2 0x666 JUMP JUMPDEST PUSH1 0x40 MLOAD RETURNDATASIZE DUP7 DUP3 RETURNDATACOPY RETURNDATASIZE SWAP1 REVERT JUMPDEST PUSH1 0x20 SWAP1 DUP2 RETURNDATASIZE DUP4 GT PUSH2 0x6C1 JUMPI JUMPDEST PUSH2 0x6B3 DUP2 DUP4 PUSH2 0x1AD0 JUMP JUMPDEST DUP2 ADD SUB SLT PUSH2 0x685 JUMPI CODESIZE PUSH2 0x559 JUMP JUMPDEST POP RETURNDATASIZE PUSH2 0x6A9 JUMP JUMPDEST PUSH2 0x6DE SWAP1 DUP9 RETURNDATASIZE DUP11 GT PUSH2 0x613 JUMPI PUSH2 0x607 DUP2 DUP4 PUSH2 0x1AD0 JUMP JUMPDEST POP CODESIZE PUSH2 0x4E1 JUMP JUMPDEST PUSH1 0x40 MLOAD RETURNDATASIZE DUP9 DUP3 RETURNDATACOPY RETURNDATASIZE SWAP1 REVERT JUMPDEST PUSH2 0x6F9 SWAP1 PUSH2 0x1ABC JUMP JUMPDEST PUSH2 0x704 JUMPI DUP5 CODESIZE PUSH2 0x489 JUMP JUMPDEST DUP5 DUP1 REVERT JUMPDEST DUP6 DUP1 REVERT JUMPDEST PUSH2 0x715 SWAP1 PUSH2 0x1ABC JUMP JUMPDEST PUSH2 0x704 JUMPI DUP5 CODESIZE PUSH2 0x44E JUMP JUMPDEST PUSH4 0x4E487B71 PUSH1 0xE0 SHL DUP9 MSTORE PUSH1 0x11 PUSH1 0x4 MSTORE PUSH1 0x24 DUP9 REVERT JUMPDEST PUSH2 0x750 SWAP2 POP RETURNDATASIZE DUP1 DUP10 DUP4 RETURNDATACOPY PUSH2 0x748 DUP2 DUP4 PUSH2 0x1AD0 JUMP JUMPDEST DUP2 ADD SWAP1 PUSH2 0x1C10 JUMP JUMPDEST CODESIZE PUSH2 0x3ED JUMP JUMPDEST PUSH1 0x40 MLOAD RETURNDATASIZE DUP10 DUP3 RETURNDATACOPY RETURNDATASIZE SWAP1 REVERT JUMPDEST PUSH2 0x779 SWAP1 PUSH1 0x20 RETURNDATASIZE PUSH1 0x20 GT PUSH2 0x613 JUMPI PUSH2 0x607 DUP2 DUP4 PUSH2 0x1AD0 JUMP JUMPDEST POP CODESIZE PUSH2 0x3A8 JUMP JUMPDEST PUSH4 0x4E487B71 PUSH1 0xE0 SHL DUP10 MSTORE PUSH1 0x32 PUSH1 0x4 MSTORE PUSH1 0x24 DUP10 REVERT JUMPDEST PUSH4 0x4E487B71 PUSH1 0xE0 SHL DUP11 MSTORE PUSH1 0x11 PUSH1 0x4 MSTORE PUSH1 0x24 DUP11 REVERT JUMPDEST PUSH2 0x7BC SWAP2 POP RETURNDATASIZE DUP1 DUP12 DUP4 RETURNDATACOPY PUSH2 0x748 DUP2 DUP4 PUSH2 0x1AD0 JUMP JUMPDEST CODESIZE PUSH2 0x319 JUMP JUMPDEST PUSH1 0x40 MLOAD RETURNDATASIZE DUP12 DUP3 RETURNDATACOPY RETURNDATASIZE SWAP1 REVERT JUMPDEST PUSH2 0x7E5 SWAP1 PUSH1 0x20 RETURNDATASIZE PUSH1 0x20 GT PUSH2 0x613 JUMPI PUSH2 0x607 DUP2 DUP4 PUSH2 0x1AD0 JUMP JUMPDEST POP CODESIZE PUSH2 0x2D2 JUMP JUMPDEST PUSH1 0x40 MLOAD RETURNDATASIZE DUP6 DUP3 RETURNDATACOPY RETURNDATASIZE SWAP1 REVERT JUMPDEST PUSH4 0x4E487B71 PUSH1 0xE0 SHL DUP11 MSTORE PUSH1 0x32 PUSH1 0x4 MSTORE PUSH1 0x24 DUP11 REVERT JUMPDEST PUSH1 0x2 SLOAD PUSH1 0x40 MLOAD PUSH4 0x95EA7B3 PUSH1 0xE0 SHL DUP2 MSTORE PUSH1 0x1 PUSH1 0x1 PUSH1 0xA0 SHL SUB SWAP2 DUP3 AND PUSH1 0x4 DUP3 ADD MSTORE PUSH1 0x44 DUP1 CALLDATALOAD PUSH1 0x24 DUP4 ADD MSTORE SWAP7 SWAP10 SWAP6 SWAP9 SWAP3 SWAP8 SWAP3 SWAP7 SWAP4 SWAP6 SWAP4 SWAP1 SWAP3 SWAP2 PUSH1 0x20 SWAP2 DUP5 SWAP2 DUP3 SWAP1 DUP12 SWAP1 DUP12 AND GAS CALL SWAP6 DUP7 ISZERO PUSH2 0x756 JUMPI PUSH3 0xFFFFFF PUSH1 0x20 SWAP5 PUSH2 0x8D6 SWAP5 DUP11 SWAP10 PUSH2 0xB4B JUMPI JUMPDEST POP PUSH1 0x1 DUP1 PUSH1 0xA0 SHL SUB PUSH1 0x2 SLOAD AND SWAP4 PUSH1 0x40 MLOAD SWAP4 PUSH2 0x882 DUP6 PUSH2 0x1A8A JUMP JUMPDEST PUSH1 0x1 PUSH1 0x1 PUSH1 0xA0 SHL SUB SWAP1 DUP2 AND DUP6 MSTORE AND DUP7 DUP5 ADD MSTORE AND PUSH1 0x40 DUP1 DUP4 ADD SWAP2 SWAP1 SWAP2 MSTORE ADDRESS PUSH1 0x60 DUP4 ADD MSTORE PUSH1 0x44 CALLDATALOAD PUSH1 0x80 DUP4 ADD MSTORE PUSH1 0xA0 DUP3 ADD DUP9 SWAP1 MSTORE PUSH1 0xC0 DUP3 ADD DUP9 SWAP1 MSTORE MLOAD PUSH4 0x4E45AAF PUSH1 0xE0 SHL DUP2 MSTORE SWAP8 DUP9 SWAP4 DUP5 SWAP3 DUP4 SWAP2 SWAP1 PUSH1 0x4 DUP4 ADD PUSH2 0x1CFB JUMP JUMPDEST SUB SWAP3 GAS CALL SWAP4 DUP5 ISZERO PUSH2 0x7EC JUMPI DUP4 SWAP5 PUSH2 0xB14 JUMPI JUMPDEST POP PUSH1 0x4 SLOAD PUSH1 0x1 PUSH1 0x1 PUSH1 0xA0 SHL SUB AND DUP1 EXTCODESIZE ISZERO PUSH2 0xAFC JUMPI DUP4 DUP1 SWAP2 PUSH1 0x24 PUSH1 0x40 MLOAD DUP1 SWAP5 DUP2 SWAP4 PUSH4 0x2E1A7D4D PUSH1 0xE0 SHL DUP4 MSTORE DUP11 PUSH1 0x4 DUP5 ADD MSTORE GAS CALL SWAP1 DUP2 ISZERO PUSH2 0x692 JUMPI DUP5 SWAP2 PUSH2 0xB00 JUMPI JUMPDEST POP POP PUSH1 0x3 SLOAD PUSH1 0x1 PUSH1 0x1 PUSH1 0xA0 SHL SUB AND DUP1 EXTCODESIZE ISZERO PUSH2 0xAFC JUMPI DUP4 DUP6 SWAP2 PUSH1 0x4 PUSH1 0x40 MLOAD DUP1 SWAP5 DUP2 SWAP4 PUSH4 0xD0E30DB PUSH1 0xE4 SHL DUP4 MSTORE GAS CALL DUP1 ISZERO PUSH2 0x692 JUMPI PUSH2 0xAE4 JUMPI JUMPDEST POP PUSH1 0x3 SLOAD PUSH1 0x1 SLOAD PUSH1 0x40 MLOAD PUSH4 0x95EA7B3 PUSH1 0xE0 SHL DUP2 MSTORE PUSH1 0x1 PUSH1 0x1 PUSH1 0xA0 SHL SUB SWAP2 DUP3 AND PUSH1 0x4 DUP3 ADD MSTORE PUSH1 0x24 DUP2 ADD DUP8 SWAP1 MSTORE SWAP6 SWAP2 PUSH1 0x20 SWAP2 DUP8 SWAP2 PUSH1 0x44 SWAP2 DUP4 SWAP2 DUP10 SWAP2 AND GAS CALL SWAP5 DUP6 ISZERO PUSH2 0x692 JUMPI PUSH2 0x9DE SWAP6 PUSH2 0x761 JUMPI POP DUP4 PUSH1 0x1 DUP1 PUSH1 0xA0 SHL SUB PUSH1 0x1 SLOAD AND SWAP3 PUSH1 0x40 MLOAD SWAP7 DUP8 SWAP6 DUP7 SWAP5 DUP6 SWAP4 PUSH4 0x38ED1739 PUSH1 0xE0 SHL DUP6 MSTORE PUSH2 0x12C TIMESTAMP ADD SWAP3 ADDRESS SWAP3 PUSH1 0x4 DUP8 ADD PUSH2 0x1C8A JUMP JUMPDEST SUB SWAP3 GAS CALL SWAP1 DUP2 ISZERO PUSH2 0x6E5 JUMPI DUP7 SWAP2 PUSH2 0xACA JUMPI JUMPDEST POP DUP1 MLOAD PUSH1 0x0 NOT DUP2 ADD SWAP2 SWAP1 DUP3 GT PUSH2 0xAB6 JUMPI SWAP1 PUSH2 0xA0A SWAP2 PUSH2 0x1CE7 JUMP JUMPDEST MLOAD DUP2 ISZERO PUSH2 0xAA2 JUMPI PUSH2 0xA2D SWAP3 DUP7 SWAP3 SWAP1 SWAP2 PUSH1 0x20 DUP2 PUSH1 0x1 PUSH1 0x1 PUSH1 0xA0 SHL SUB PUSH2 0x356 DUP7 PUSH2 0x1BFC JUMP JUMPDEST SUB SWAP3 GAS CALL SWAP5 DUP6 ISZERO PUSH2 0x692 JUMPI PUSH2 0xA73 SWAP6 PUSH2 0x761 JUMPI POP DUP4 PUSH1 0x1 DUP1 PUSH1 0xA0 SHL SUB PUSH1 0x1 SLOAD AND SWAP3 PUSH1 0x40 MLOAD SWAP7 DUP8 SWAP6 DUP7 SWAP5 DUP6 SWAP4 PUSH4 0x38ED1739 PUSH1 0xE0 SHL DUP6 MSTORE PUSH2 0x12C TIMESTAMP ADD SWAP3 ADDRESS SWAP3 PUSH1 0x4 DUP8 ADD PUSH2 0x1C8A JUMP JUMPDEST SUB SWAP3 GAS CALL DUP1 ISZERO PUSH2 0x692 JUMPI PUSH2 0xA88 JUMPI JUMPDEST POP PUSH2 0x55B JUMP JUMPDEST PUSH2 0xA9B SWAP1 RETURNDATASIZE DUP1 DUP7 DUP4 RETURNDATACOPY PUSH2 0x748 DUP2 DUP4 PUSH2 0x1AD0 JUMP JUMPDEST POP CODESIZE PUSH2 0xA82 JUMP JUMPDEST PUSH4 0x4E487B71 PUSH1 0xE0 SHL DUP7 MSTORE PUSH1 0x32 PUSH1 0x4 MSTORE PUSH1 0x24 DUP7 REVERT JUMPDEST PUSH4 0x4E487B71 PUSH1 0xE0 SHL DUP8 MSTORE PUSH1 0x11 PUSH1 0x4 MSTORE PUSH1 0x24 DUP8 REVERT JUMPDEST PUSH2 0xADE SWAP2 POP RETURNDATASIZE DUP1 DUP9 DUP4 RETURNDATACOPY PUSH2 0x748 DUP2 DUP4 PUSH2 0x1AD0 JUMP JUMPDEST CODESIZE PUSH2 0x9F0 JUMP JUMPDEST PUSH2 0xAEE DUP5 SWAP2 PUSH2 0x1ABC JUMP JUMPDEST PUSH2 0xAF8 JUMPI CODESIZE PUSH2 0x960 JUMP JUMPDEST DUP3 DUP1 REVERT JUMPDEST DUP4 DUP1 REVERT JUMPDEST PUSH2 0xB09 SWAP1 PUSH2 0x1ABC JUMP JUMPDEST PUSH2 0xAF8 JUMPI DUP3 CODESIZE PUSH2 0x928 JUMP JUMPDEST SWAP3 POP SWAP3 POP PUSH1 0x20 DUP3 RETURNDATASIZE PUSH1 0x20 GT PUSH2 0xB43 JUMPI JUMPDEST DUP2 PUSH2 0xB31 PUSH1 0x20 SWAP4 DUP4 PUSH2 0x1AD0 JUMP JUMPDEST DUP2 ADD SUB SLT PUSH2 0x685 JUMPI DUP8 SWAP2 MLOAD SWAP3 CODESIZE PUSH2 0x8E8 JUMP JUMPDEST RETURNDATASIZE SWAP2 POP PUSH2 0xB24 JUMP JUMPDEST PUSH2 0xB61 SWAP1 DUP8 RETURNDATASIZE DUP10 GT PUSH2 0x613 JUMPI PUSH2 0x607 DUP2 DUP4 PUSH2 0x1AD0 JUMP JUMPDEST POP CODESIZE PUSH2 0x868 JUMP JUMPDEST PUSH4 0x4E487B71 PUSH1 0xE0 SHL DUP12 MSTORE PUSH1 0x11 PUSH1 0x4 MSTORE PUSH1 0x24 DUP12 REVERT JUMPDEST PUSH2 0xB94 SWAP1 PUSH1 0x20 RETURNDATASIZE PUSH1 0x20 GT PUSH2 0x613 JUMPI PUSH2 0x607 DUP2 DUP4 PUSH2 0x1AD0 JUMP JUMPDEST POP CODESIZE PUSH2 0x24A JUMP JUMPDEST PUSH1 0x40 MLOAD RETURNDATASIZE DUP15 DUP3 RETURNDATACOPY RETURNDATASIZE SWAP1 REVERT JUMPDEST SWAP1 SWAP9 POP PUSH1 0x20 DUP2 RETURNDATASIZE PUSH1 0x20 GT PUSH2 0xBD2 JUMPI JUMPDEST DUP2 PUSH2 0xBC2 PUSH1 0x20 SWAP4 DUP4 PUSH2 0x1AD0 JUMP JUMPDEST DUP2 ADD SUB SLT PUSH2 0x685 JUMPI MLOAD SWAP8 CODESIZE PUSH2 0x209 JUMP JUMPDEST RETURNDATASIZE SWAP2 POP PUSH2 0xBB5 JUMP JUMPDEST PUSH1 0x40 MLOAD RETURNDATASIZE DUP14 DUP3 RETURNDATACOPY RETURNDATASIZE SWAP1 REVERT JUMPDEST POP CALLVALUE PUSH2 0xC7 JUMPI DUP1 PUSH1 0x3 NOT CALLDATASIZE ADD SLT PUSH2 0xC7 JUMPI SLOAD PUSH1 0x40 MLOAD PUSH1 0x1 PUSH1 0x1 PUSH1 0xA0 SHL SUB SWAP1 SWAP2 AND DUP2 MSTORE PUSH1 0x20 SWAP1 RETURN JUMPDEST POP CALLVALUE PUSH2 0xC7 JUMPI DUP1 PUSH1 0x3 NOT CALLDATASIZE ADD SLT PUSH2 0xC7 JUMPI PUSH1 0x2 SLOAD PUSH1 0x40 MLOAD PUSH1 0x1 PUSH1 0x1 PUSH1 0xA0 SHL SUB SWAP1 SWAP2 AND DUP2 MSTORE PUSH1 0x20 SWAP1 RETURN JUMPDEST POP CALLVALUE PUSH2 0xC7 JUMPI PUSH2 0x100 CALLDATASIZE PUSH1 0x3 NOT ADD SLT PUSH2 0xC7 JUMPI PUSH2 0xC50 PUSH2 0x19FF JUMP JUMPDEST SWAP1 PUSH2 0xC59 PUSH2 0x19A9 JUMP JUMPDEST PUSH8 0xFFFFFFFFFFFFFFFF SWAP3 PUSH1 0x64 CALLDATALOAD DUP5 DUP2 GT PUSH2 0xAFC JUMPI PUSH2 0xC7B SWAP1 CALLDATASIZE SWAP1 PUSH1 0x4 ADD PUSH2 0x1A0F JUMP JUMPDEST SWAP5 PUSH1 0x84 CALLDATALOAD SWAP1 DUP2 GT PUSH2 0x704 JUMPI PUSH2 0xC94 SWAP1 CALLDATASIZE SWAP1 PUSH1 0x4 ADD PUSH2 0x1A0F JUMP JUMPDEST SWAP3 SWAP1 SWAP6 PUSH2 0xC9F PUSH2 0x19BF JUMP JUMPDEST PUSH2 0xCA7 PUSH2 0x19D5 JUMP JUMPDEST SWAP8 PUSH2 0xCB0 PUSH2 0x1A40 JUMP JUMPDEST SWAP1 PUSH1 0x1 PUSH1 0xA0 SHL PUSH1 0x1 SWAP1 SUB SWAP10 DUP11 DUP1 SWAP3 DUP2 DUP13 SLOAD AND CALLER EQ PUSH2 0xCCD SWAP1 PUSH2 0x1A52 JUMP JUMPDEST PUSH1 0x40 MLOAD SWAP9 DUP10 SWAP8 PUSH1 0x20 SWAP10 PUSH1 0xFF AND DUP11 DUP11 ADD MSTORE PUSH1 0x40 DUP10 ADD PUSH1 0xC0 SWAP1 MSTORE PUSH1 0xE0 DUP10 ADD SWAP1 PUSH2 0xCF3 SWAP3 PUSH2 0x1B3A JUMP JUMPDEST PUSH1 0x1F NOT SWAP11 DUP12 DUP10 DUP4 SUB ADD PUSH1 0x60 DUP11 ADD MSTORE PUSH2 0xD0A SWAP3 PUSH2 0x1B3A JUMP JUMPDEST SWAP5 AND PUSH1 0x80 DUP7 ADD MSTORE AND PUSH1 0xA0 DUP5 ADD MSTORE PUSH3 0xFFFFFF AND PUSH1 0xC0 DUP4 ADD MSTORE SUB DUP4 DUP2 ADD DUP4 MSTORE PUSH2 0xD31 SWAP1 DUP4 PUSH2 0x1AD0 JUMP JUMPDEST DUP6 PUSH1 0x5 SLOAD AND SWAP6 DUP7 EXTCODESIZE ISZERO PUSH2 0x708 JUMPI PUSH1 0x40 MLOAD SWAP5 PUSH4 0x10AC2DDF PUSH1 0xE2 SHL DUP7 MSTORE ADDRESS PUSH1 0x4 DUP8 ADD MSTORE AND PUSH1 0x24 DUP6 ADD MSTORE PUSH1 0x44 CALLDATALOAD PUSH1 0x44 DUP6 ADD MSTORE PUSH1 0xA0 PUSH1 0x64 DUP6 ADD MSTORE DUP2 MLOAD SWAP2 DUP3 PUSH1 0xA4 DUP7 ADD MSTORE DUP6 JUMPDEST DUP4 DUP2 LT PUSH2 0xDBC JUMPI POP POP POP DUP4 SWAP5 DUP4 DUP6 PUSH1 0xC4 DUP3 DUP3 SWAP7 PUSH1 0x1F DUP8 DUP6 DUP6 DUP6 SWAP11 DUP7 ADD ADD MSTORE DUP6 PUSH1 0x84 DUP6 ADD MSTORE ADD AND DUP2 ADD SUB ADD SWAP3 GAS CALL DUP1 ISZERO PUSH2 0x61A JUMPI PUSH2 0xDAC JUMPI POP RETURN JUMPDEST PUSH2 0xDB5 SWAP1 PUSH2 0x1ABC JUMP JUMPDEST PUSH2 0xC7 JUMPI DUP1 RETURN JUMPDEST DUP2 DUP2 ADD DUP4 ADD MLOAD DUP7 DUP3 ADD PUSH1 0xC4 ADD MSTORE DUP3 ADD PUSH2 0xD72 JUMP JUMPDEST POP CALLVALUE PUSH2 0xC7 JUMPI PUSH1 0x40 CALLDATASIZE PUSH1 0x3 NOT ADD SLT PUSH2 0xC7 JUMPI PUSH2 0xDEA PUSH2 0x1993 JUMP JUMPDEST DUP2 SLOAD PUSH1 0x1 PUSH1 0x1 PUSH1 0xA0 SHL SUB SWAP2 PUSH1 0x20 SWAP2 PUSH2 0xE3F SWAP2 SWAP1 DUP5 AND PUSH2 0xE0A CALLER DUP3 EQ PUSH2 0x1A52 JUMP JUMPDEST PUSH1 0x40 MLOAD PUSH4 0xA9059CBB PUSH1 0xE0 SHL DUP2 MSTORE PUSH1 0x1 PUSH1 0x1 PUSH1 0xA0 SHL SUB SWAP1 SWAP2 AND PUSH1 0x4 DUP3 ADD MSTORE PUSH1 0x24 DUP1 CALLDATALOAD SWAP1 DUP3 ADD MSTORE SWAP4 DUP5 SWAP3 DUP4 SWAP2 DUP8 SWAP2 DUP4 SWAP1 PUSH1 0x44 DUP3 ADD SWAP1 JUMP JUMPDEST SUB SWAP4 AND GAS CALL DUP1 ISZERO PUSH2 0x61A JUMPI PUSH2 0xE52 JUMPI POP DUP1 RETURN JUMPDEST PUSH2 0x60F SWAP1 PUSH1 0x20 RETURNDATASIZE DUP2 GT PUSH2 0x613 JUMPI PUSH2 0x607 DUP2 DUP4 PUSH2 0x1AD0 JUMP JUMPDEST POP CALLVALUE PUSH2 0xC7 JUMPI DUP1 PUSH1 0x3 NOT CALLDATASIZE ADD SLT PUSH2 0xC7 JUMPI DUP1 DUP1 DUP1 DUP1 PUSH1 0x1 DUP1 PUSH1 0xA0 SHL SUB DUP2 SLOAD AND PUSH2 0xE93 DUP2 CALLER EQ PUSH2 0x1A52 JUMP JUMPDEST SELFBALANCE SWAP1 GAS CALL RETURNDATASIZE ISZERO PUSH2 0xF26 JUMPI RETURNDATASIZE PUSH8 0xFFFFFFFFFFFFFFFF DUP2 GT PUSH2 0xF12 JUMPI PUSH1 0x40 MLOAD SWAP1 PUSH2 0xEC5 PUSH1 0x1F DUP3 ADD PUSH1 0x1F NOT AND PUSH1 0x20 ADD DUP4 PUSH2 0x1AD0 JUMP JUMPDEST DUP2 MSTORE DUP3 PUSH1 0x20 RETURNDATASIZE SWAP3 ADD RETURNDATACOPY JUMPDEST ISZERO PUSH2 0xED7 JUMPI DUP1 RETURN JUMPDEST PUSH1 0x40 MLOAD PUSH3 0x461BCD PUSH1 0xE5 SHL DUP2 MSTORE PUSH1 0x20 PUSH1 0x4 DUP3 ADD MSTORE PUSH1 0x13 PUSH1 0x24 DUP3 ADD MSTORE PUSH19 0x115512081D1C985B9CD9995C8819985A5B1959 PUSH1 0x6A SHL PUSH1 0x44 DUP3 ADD MSTORE PUSH1 0x64 SWAP1 REVERT JUMPDEST PUSH4 0x4E487B71 PUSH1 0xE0 SHL DUP4 MSTORE PUSH1 0x41 PUSH1 0x4 MSTORE PUSH1 0x24 DUP4 REVERT JUMPDEST PUSH2 0xECF JUMP JUMPDEST SWAP1 POP CALLVALUE PUSH2 0x198F JUMPI PUSH1 0xA0 CALLDATASIZE PUSH1 0x3 NOT ADD SLT PUSH2 0x198F JUMPI PUSH2 0xF46 PUSH2 0x1993 JUMP JUMPDEST SWAP2 PUSH1 0x64 CALLDATALOAD SWAP3 PUSH1 0x1 DUP1 PUSH1 0xA0 SHL SUB SWAP3 DUP4 DUP6 AND DUP1 SWAP6 SUB PUSH2 0xAF8 JUMPI PUSH1 0x84 CALLDATALOAD SWAP1 PUSH8 0xFFFFFFFFFFFFFFFF SWAP1 DUP2 DUP4 GT PUSH2 0x704 JUMPI CALLDATASIZE PUSH1 0x23 DUP5 ADD SLT ISZERO PUSH2 0x704 JUMPI DUP3 PUSH1 0x4 ADD CALLDATALOAD DUP3 DUP2 GT PUSH2 0x708 JUMPI DUP4 ADD PUSH1 0x24 SWAP8 DUP9 DUP3 ADD SWAP3 CALLDATASIZE DUP5 GT PUSH2 0x18AD JUMPI DUP9 PUSH1 0x5 SLOAD AND CALLER SUB PUSH2 0x195C JUMPI POP ADDRESS SUB PUSH2 0x1923 JUMPI DUP4 PUSH1 0xC0 SWAP2 SUB SLT PUSH2 0x704 JUMPI DUP7 DUP4 ADD CALLDATALOAD SWAP1 PUSH1 0xFF DUP3 AND DUP1 SWAP3 SUB PUSH2 0x708 JUMPI PUSH1 0x44 DUP5 ADD CALLDATALOAD DUP4 DUP2 GT PUSH2 0x14E3 JUMPI DUP2 DUP10 PUSH2 0xFDF SWAP3 DUP8 ADD ADD PUSH2 0x1B96 JUMP JUMPDEST SWAP3 PUSH1 0x64 DUP6 ADD CALLDATALOAD SWAP1 DUP2 GT PUSH2 0x14E3 JUMPI SWAP1 DUP9 PUSH2 0xFFA SWAP3 DUP7 ADD ADD PUSH2 0x1B96 JUMP JUMPDEST PUSH2 0x1006 PUSH1 0x84 DUP6 ADD PUSH2 0x19EB JUMP JUMPDEST SWAP3 PUSH1 0xC4 PUSH2 0x1015 PUSH1 0xA4 DUP8 ADD PUSH2 0x19EB JUMP JUMPDEST SWAP6 ADD CALLDATALOAD SWAP3 PUSH3 0xFFFFFF DUP5 AND DUP5 SUB PUSH2 0x18AD JUMPI DUP10 SWAP1 PUSH2 0x12C TIMESTAMP ADD TIMESTAMP GT PUSH2 0x1910 JUMPI PUSH2 0x15AB JUMPI POP PUSH2 0x1083 PUSH1 0x20 DUP10 PUSH2 0x1046 DUP5 PUSH2 0x1CC4 JUMP JUMPDEST MLOAD PUSH1 0x1 SLOAD PUSH1 0x40 MLOAD PUSH4 0x95EA7B3 PUSH1 0xE0 SHL DUP2 MSTORE SWAP1 DUP14 AND PUSH1 0x1 PUSH1 0x1 PUSH1 0xA0 SHL SUB AND PUSH1 0x4 DUP3 ADD MSTORE DUP14 CALLDATALOAD PUSH1 0x24 DUP3 ADD MSTORE SWAP4 DUP5 SWAP3 SWAP1 SWAP2 AND SWAP1 DUP3 SWAP1 DUP13 SWAP1 DUP3 SWAP1 PUSH1 0x44 DUP3 ADD SWAP1 JUMP JUMPDEST SUB SWAP3 GAS CALL DUP1 ISZERO PUSH2 0x1581 JUMPI PUSH2 0x10CA DUP10 SWAP5 SWAP4 DUP13 SWAP4 DUP7 SWAP4 PUSH2 0x158C JUMPI JUMPDEST POP DUP12 PUSH1 0x1 SLOAD AND SWAP1 PUSH1 0x40 MLOAD SWAP7 DUP8 DUP1 SWAP5 DUP2 SWAP4 PUSH4 0x38ED1739 PUSH1 0xE0 SHL SWAP9 DUP10 DUP5 MSTORE PUSH2 0x12C TIMESTAMP ADD SWAP2 ADDRESS SWAP2 CALLDATALOAD PUSH1 0x4 DUP7 ADD PUSH2 0x1D57 JUMP JUMPDEST SUB SWAP3 GAS CALL SWAP3 DUP4 ISZERO PUSH2 0x1581 JUMPI DUP9 SWAP4 PUSH2 0x1565 JUMPI JUMPDEST POP DUP3 MLOAD PUSH1 0x0 NOT SWAP4 DUP5 DUP3 ADD SWAP2 DUP3 GT PUSH2 0x1552 JUMPI SWAP1 PUSH2 0x10F7 SWAP2 PUSH2 0x1CE7 JUMP JUMPDEST MLOAD PUSH2 0x1141 PUSH1 0x20 DUP3 DUP13 PUSH2 0x1108 DUP8 PUSH2 0x1CC4 JUMP JUMPDEST MLOAD AND DUP14 PUSH1 0x1 SLOAD AND DUP14 PUSH1 0x40 MLOAD DUP1 SWAP7 DUP2 SWAP6 DUP3 SWAP5 PUSH4 0x95EA7B3 PUSH1 0xE0 SHL DUP5 MSTORE PUSH1 0x4 DUP5 ADD PUSH1 0x20 SWAP1 SWAP4 SWAP3 SWAP2 SWAP4 PUSH1 0x40 DUP2 ADD SWAP5 PUSH1 0x1 DUP1 PUSH1 0xA0 SHL SUB AND DUP2 MSTORE ADD MSTORE JUMP JUMPDEST SUB SWAP3 GAS CALL DUP1 ISZERO PUSH2 0x1547 JUMPI SWAP2 DUP11 SWAP4 SWAP2 PUSH2 0x117E SWAP6 SWAP4 PUSH2 0x1528 JUMPI JUMPDEST POP DUP4 DUP13 PUSH1 0x1 SLOAD AND SWAP3 PUSH1 0x40 MLOAD SWAP7 DUP8 SWAP6 DUP7 SWAP5 DUP6 SWAP4 DUP5 MSTORE PUSH2 0x12C TIMESTAMP ADD SWAP2 ADDRESS SWAP2 PUSH1 0x4 DUP7 ADD PUSH2 0x1D57 JUMP JUMPDEST SUB SWAP3 GAS CALL SWAP1 DUP2 ISZERO PUSH2 0x756 JUMPI DUP8 SWAP2 PUSH2 0x150E JUMPI JUMPDEST POP DUP1 MLOAD SWAP2 DUP3 ADD SWAP2 DUP3 GT PUSH2 0x14FB JUMPI SWAP1 PUSH2 0x11A7 SWAP2 PUSH2 0x1CE7 JUMP JUMPDEST MLOAD SWAP1 DUP7 PUSH1 0x3 SLOAD AND DUP1 EXTCODESIZE ISZERO PUSH2 0x14E3 JUMPI DUP7 DUP1 SWAP2 DUP11 PUSH1 0x40 MLOAD DUP1 SWAP5 DUP2 SWAP4 PUSH4 0x2E1A7D4D PUSH1 0xE0 SHL DUP4 MSTORE DUP9 PUSH1 0x4 DUP5 ADD MSTORE GAS CALL DUP1 ISZERO PUSH2 0x756 JUMPI SWAP1 DUP8 SWAP2 PUSH2 0x14E7 JUMPI JUMPDEST POP POP DUP7 PUSH1 0x4 SLOAD AND DUP1 EXTCODESIZE ISZERO PUSH2 0x14E3 JUMPI DUP7 DUP4 SWAP2 PUSH1 0x4 PUSH1 0x40 MLOAD DUP1 SWAP5 DUP2 SWAP4 PUSH4 0xD0E30DB PUSH1 0xE4 SHL DUP4 MSTORE GAS CALL DUP1 ISZERO PUSH2 0x756 JUMPI SWAP1 DUP8 SWAP2 PUSH2 0x14CF JUMPI JUMPDEST POP POP PUSH1 0x4 DUP1 SLOAD PUSH1 0x2 SLOAD PUSH1 0x40 MLOAD PUSH4 0x95EA7B3 PUSH1 0xE0 SHL DUP2 MSTORE SWAP1 DUP11 AND PUSH1 0x1 PUSH1 0x1 PUSH1 0xA0 SHL SUB AND SWAP3 DUP2 ADD SWAP3 SWAP1 SWAP3 MSTORE PUSH1 0x24 DUP3 ADD DUP5 SWAP1 MSTORE PUSH1 0x20 SWAP1 DUP3 SWAP1 DUP11 AND DUP2 DUP11 DUP2 PUSH1 0x44 DUP2 ADD SUB SWAP3 GAS CALL DUP1 ISZERO PUSH2 0x756 JUMPI SWAP3 PUSH3 0xFFFFFF DUP9 SWAP7 SWAP4 PUSH1 0x20 SWAP7 SWAP4 PUSH2 0x12C8 SWAP7 PUSH2 0x14B2 JUMPI JUMPDEST POP DUP11 DUP1 PUSH1 0x2 SLOAD AND SWAP6 DUP2 PUSH1 0x40 MLOAD SWAP7 PUSH2 0x1287 DUP9 PUSH2 0x1A8A JUMP JUMPDEST AND DUP7 MSTORE AND DUP8 DUP6 ADD MSTORE AND PUSH1 0x40 DUP4 ADD MSTORE ADDRESS PUSH1 0x60 DUP4 ADD MSTORE PUSH1 0x80 DUP3 ADD MSTORE DUP5 PUSH1 0xA0 DUP3 ADD MSTORE DUP5 PUSH1 0xC0 DUP3 ADD MSTORE PUSH1 0x40 MLOAD SWAP5 DUP6 DUP1 SWAP5 DUP2 SWAP4 PUSH4 0x4E45AAF PUSH1 0xE0 SHL DUP4 MSTORE PUSH1 0x4 DUP4 ADD PUSH2 0x1CFB JUMP JUMPDEST SUB SWAP3 GAS CALL DUP1 ISZERO PUSH2 0x7EC JUMPI PUSH2 0x1487 JUMPI JUMPDEST POP JUMPDEST DUP3 PUSH2 0x12E7 PUSH1 0x44 CALLDATALOAD DUP7 CALLDATALOAD PUSH2 0x1B0A JUMP JUMPDEST SWAP2 AND SWAP1 PUSH1 0x40 MLOAD PUSH4 0x70A08231 PUSH1 0xE0 SHL DUP2 MSTORE ADDRESS PUSH1 0x4 DUP3 ADD MSTORE PUSH1 0x20 SWAP6 DUP7 DUP3 DUP3 DUP2 DUP8 GAS STATICCALL SWAP2 DUP3 ISZERO PUSH2 0x140A JUMPI DUP6 SWAP3 PUSH2 0x1458 JUMPI JUMPDEST POP DUP3 DUP3 LT PUSH2 0x1415 JUMPI POP PUSH1 0x5 SLOAD PUSH1 0x40 MLOAD PUSH4 0x95EA7B3 PUSH1 0xE0 SHL DUP2 MSTORE SWAP1 DUP7 AND PUSH1 0x1 PUSH1 0x1 PUSH1 0xA0 SHL SUB AND PUSH1 0x4 DUP3 ADD MSTORE PUSH1 0x24 DUP2 ADD DUP4 SWAP1 MSTORE DUP7 DUP2 PUSH1 0x44 DUP2 DUP9 DUP9 GAS CALL DUP1 ISZERO PUSH2 0x140A JUMPI SWAP2 DUP8 SWAP5 SWAP4 SWAP2 PUSH2 0x1369 SWAP4 PUSH2 0x13ED JUMPI JUMPDEST POP PUSH2 0x1B2D JUMP JUMPDEST SWAP1 DUP2 PUSH2 0x137A JUMPI JUMPDEST DUP3 PUSH1 0x40 MLOAD PUSH1 0x1 DUP2 MSTORE RETURN JUMPDEST DUP4 SLOAD PUSH1 0x40 MLOAD PUSH4 0xA9059CBB PUSH1 0xE0 SHL DUP2 MSTORE SWAP6 AND PUSH1 0x1 PUSH1 0x1 PUSH1 0xA0 SHL SUB AND PUSH1 0x4 DUP7 ADD MSTORE PUSH1 0x24 DUP6 ADD SWAP2 SWAP1 SWAP2 MSTORE DUP4 SWAP1 DUP2 DUP5 DUP2 PUSH1 0x44 DUP2 ADD SUB SWAP3 GAS CALL SWAP1 DUP2 ISZERO PUSH2 0x13E1 JUMPI POP PUSH2 0x13C4 JUMPI JUMPDEST DUP1 DUP3 DUP2 DUP1 PUSH2 0x1370 JUMP JUMPDEST PUSH2 0x13DA SWAP1 DUP3 RETURNDATASIZE DUP5 GT PUSH2 0x613 JUMPI PUSH2 0x607 DUP2 DUP4 PUSH2 0x1AD0 JUMP JUMPDEST POP CODESIZE PUSH2 0x13BB JUMP JUMPDEST PUSH1 0x40 MLOAD SWAP1 RETURNDATASIZE SWAP1 DUP3 RETURNDATACOPY RETURNDATASIZE SWAP1 REVERT JUMPDEST PUSH2 0x1403 SWAP1 DUP7 RETURNDATASIZE DUP9 GT PUSH2 0x613 JUMPI PUSH2 0x607 DUP2 DUP4 PUSH2 0x1AD0 JUMP JUMPDEST POP CODESIZE PUSH2 0x1363 JUMP JUMPDEST PUSH1 0x40 MLOAD RETURNDATASIZE DUP8 DUP3 RETURNDATACOPY RETURNDATASIZE SWAP1 REVERT JUMPDEST DUP7 PUSH1 0x17 PUSH1 0x64 SWAP3 PUSH1 0x40 MLOAD SWAP3 PUSH3 0x461BCD PUSH1 0xE5 SHL DUP5 MSTORE PUSH1 0x4 DUP5 ADD MSTORE DUP3 ADD MSTORE PUSH32 0x666C617368206C6F616E20756E70726F66697461626C65000000000000000000 PUSH1 0x44 DUP3 ADD MSTORE REVERT JUMPDEST SWAP1 SWAP2 POP DUP7 DUP2 DUP2 RETURNDATASIZE DUP4 GT PUSH2 0x1480 JUMPI JUMPDEST PUSH2 0x1470 DUP2 DUP4 PUSH2 0x1AD0 JUMP JUMPDEST DUP2 ADD SUB SLT PUSH2 0x685 JUMPI MLOAD SWAP1 CODESIZE PUSH2 0x1315 JUMP JUMPDEST POP RETURNDATASIZE PUSH2 0x1466 JUMP JUMPDEST PUSH1 0x20 SWAP1 DUP2 RETURNDATASIZE DUP4 GT PUSH2 0x14AB JUMPI JUMPDEST PUSH2 0x149D DUP2 DUP4 PUSH2 0x1AD0 JUMP JUMPDEST DUP2 ADD SUB SLT PUSH2 0x685 JUMPI CODESIZE PUSH2 0x12D7 JUMP JUMPDEST POP RETURNDATASIZE PUSH2 0x1493 JUMP JUMPDEST PUSH2 0x14C8 SWAP1 DUP9 RETURNDATASIZE DUP11 GT PUSH2 0x613 JUMPI PUSH2 0x607 DUP2 DUP4 PUSH2 0x1AD0 JUMP JUMPDEST POP CODESIZE PUSH2 0x1271 JUMP JUMPDEST PUSH2 0x14D8 SWAP1 PUSH2 0x1ABC JUMP JUMPDEST PUSH2 0x708 JUMPI DUP6 CODESIZE PUSH2 0x1214 JUMP JUMPDEST DUP7 DUP1 REVERT JUMPDEST PUSH2 0x14F0 SWAP1 PUSH2 0x1ABC JUMP JUMPDEST PUSH2 0x708 JUMPI DUP6 CODESIZE PUSH2 0x11E0 JUMP JUMPDEST PUSH4 0x4E487B71 PUSH1 0xE0 SHL DUP8 MSTORE PUSH1 0x11 PUSH1 0x4 MSTORE DUP9 DUP8 REVERT JUMPDEST PUSH2 0x1522 SWAP2 POP RETURNDATASIZE DUP1 DUP10 DUP4 RETURNDATACOPY PUSH2 0x748 DUP2 DUP4 PUSH2 0x1AD0 JUMP JUMPDEST CODESIZE PUSH2 0x1190 JUMP JUMPDEST PUSH2 0x1540 SWAP1 PUSH1 0x20 RETURNDATASIZE PUSH1 0x20 GT PUSH2 0x613 JUMPI PUSH2 0x607 DUP2 DUP4 PUSH2 0x1AD0 JUMP JUMPDEST POP CODESIZE PUSH2 0x1159 JUMP JUMPDEST PUSH1 0x40 MLOAD RETURNDATASIZE DUP13 DUP3 RETURNDATACOPY RETURNDATASIZE SWAP1 REVERT JUMPDEST PUSH4 0x4E487B71 PUSH1 0xE0 SHL DUP11 MSTORE PUSH1 0x11 PUSH1 0x4 MSTORE DUP12 DUP11 REVERT JUMPDEST PUSH2 0x157A SWAP2 SWAP4 POP RETURNDATASIZE DUP1 DUP11 DUP4 RETURNDATACOPY PUSH2 0x748 DUP2 DUP4 PUSH2 0x1AD0 JUMP JUMPDEST SWAP2 CODESIZE PUSH2 0x10DC JUMP JUMPDEST PUSH1 0x40 MLOAD RETURNDATASIZE DUP11 DUP3 RETURNDATACOPY RETURNDATASIZE SWAP1 REVERT JUMPDEST PUSH2 0x15A4 SWAP1 PUSH1 0x20 RETURNDATASIZE PUSH1 0x20 GT PUSH2 0x613 JUMPI PUSH2 0x607 DUP2 DUP4 PUSH2 0x1AD0 JUMP JUMPDEST POP CODESIZE PUSH2 0x109C JUMP JUMPDEST PUSH1 0x2 SLOAD PUSH1 0x40 MLOAD PUSH4 0x95EA7B3 PUSH1 0xE0 SHL DUP1 DUP3 MSTORE SWAP2 DUP12 AND PUSH1 0x1 PUSH1 0x1 PUSH1 0xA0 SHL SUB AND PUSH1 0x4 DUP3 ADD MSTORE SWAP2 CALLDATALOAD PUSH1 0x24 DUP4 ADD DUP2 SWAP1 MSTORE SWAP4 SWAP7 SWAP1 SWAP6 PUSH1 0x20 SWAP6 SWAP4 SWAP5 SWAP2 SWAP4 SWAP1 DUP12 AND SWAP3 DUP7 DUP2 PUSH1 0x44 DUP2 DUP15 DUP9 GAS CALL DUP1 ISZERO PUSH2 0xBDA JUMPI SWAP3 PUSH3 0xFFFFFF DUP9 SWAP8 SWAP7 SWAP4 DUP15 DUP15 SWAP12 SWAP11 SWAP8 SWAP5 PUSH2 0x1660 SWAP8 PUSH2 0x18F3 JUMPI JUMPDEST POP DUP1 PUSH1 0x2 SLOAD AND SWAP6 PUSH1 0x40 MLOAD SWAP6 PUSH2 0x1620 DUP8 PUSH2 0x1A8A JUMP JUMPDEST DUP7 MSTORE AND DUP8 DUP6 ADD MSTORE AND PUSH1 0x40 DUP4 ADD MSTORE ADDRESS PUSH1 0x60 DUP4 ADD MSTORE PUSH1 0x80 DUP3 ADD MSTORE DUP8 PUSH1 0xA0 DUP3 ADD MSTORE DUP8 PUSH1 0xC0 DUP3 ADD MSTORE PUSH1 0x40 MLOAD SWAP8 DUP9 DUP1 SWAP5 DUP2 SWAP4 PUSH4 0x4E45AAF PUSH1 0xE0 SHL DUP4 MSTORE PUSH1 0x4 DUP4 ADD PUSH2 0x1CFB JUMP JUMPDEST SUB SWAP3 GAS CALL SWAP4 DUP5 ISZERO PUSH2 0x756 JUMPI DUP8 SWAP5 PUSH2 0x18C4 JUMPI JUMPDEST POP DUP8 PUSH1 0x4 SLOAD AND DUP1 EXTCODESIZE ISZERO PUSH2 0x18AD JUMPI DUP8 DUP1 SWAP2 DUP12 PUSH1 0x40 MLOAD DUP1 SWAP5 DUP2 SWAP4 PUSH4 0x2E1A7D4D PUSH1 0xE0 SHL DUP4 MSTORE DUP11 PUSH1 0x4 DUP5 ADD MSTORE GAS CALL DUP1 ISZERO PUSH2 0x1581 JUMPI PUSH2 0x18B1 JUMPI JUMPDEST POP DUP8 PUSH1 0x3 SLOAD AND DUP1 EXTCODESIZE ISZERO PUSH2 0x18AD JUMPI DUP8 DUP6 SWAP2 PUSH1 0x4 PUSH1 0x40 MLOAD DUP1 SWAP5 DUP2 SWAP4 PUSH4 0xD0E30DB PUSH1 0xE4 SHL DUP4 MSTORE GAS CALL DUP1 ISZERO PUSH2 0x1581 JUMPI SWAP1 DUP9 SWAP2 PUSH2 0x1899 JUMPI JUMPDEST POP POP PUSH1 0x3 SLOAD PUSH1 0x1 SLOAD PUSH1 0x40 MLOAD DUP6 DUP2 MSTORE SWAP1 DUP11 AND PUSH1 0x1 PUSH1 0x1 PUSH1 0xA0 SHL SUB AND PUSH1 0x4 DUP3 ADD MSTORE PUSH1 0x24 DUP2 ADD DUP7 SWAP1 MSTORE SWAP1 DUP4 SWAP1 DUP3 SWAP1 DUP12 AND DUP2 DUP12 DUP2 PUSH1 0x44 DUP2 ADD SUB SWAP3 GAS CALL DUP1 ISZERO PUSH2 0x1581 JUMPI DUP9 SWAP3 DUP4 SWAP3 PUSH2 0x1752 SWAP3 PUSH2 0x187C JUMPI JUMPDEST POP DUP11 PUSH1 0x1 SLOAD AND SWAP1 PUSH1 0x40 MLOAD SWAP5 DUP6 DUP1 SWAP5 DUP2 SWAP4 PUSH4 0x38ED1739 PUSH1 0xE0 SHL SWAP12 DUP13 DUP5 MSTORE PUSH2 0x12C TIMESTAMP ADD SWAP2 ADDRESS SWAP2 PUSH1 0x4 DUP7 ADD PUSH2 0x1D57 JUMP JUMPDEST SUB SWAP3 GAS CALL SWAP1 DUP2 ISZERO PUSH2 0x756 JUMPI DUP8 SWAP2 PUSH2 0x1862 JUMPI JUMPDEST POP DUP1 MLOAD PUSH1 0x0 NOT DUP2 ADD SWAP2 SWAP1 DUP3 GT PUSH2 0x184F JUMPI PUSH2 0x1782 PUSH2 0x17C3 SWAP3 DUP5 SWAP3 PUSH2 0x1CE7 JUMP JUMPDEST MLOAD DUP1 SWAP5 DUP11 PUSH2 0x178F DUP10 PUSH2 0x1CC4 JUMP JUMPDEST MLOAD AND SWAP1 DUP11 DUP13 PUSH1 0x1 SLOAD AND SWAP2 PUSH1 0x40 MLOAD SWAP7 DUP8 SWAP6 DUP7 SWAP5 DUP6 SWAP4 DUP5 MSTORE PUSH1 0x4 DUP5 ADD PUSH1 0x20 SWAP1 SWAP4 SWAP3 SWAP2 SWAP4 PUSH1 0x40 DUP2 ADD SWAP5 PUSH1 0x1 DUP1 PUSH1 0xA0 SHL SUB AND DUP2 MSTORE ADD MSTORE JUMP JUMPDEST SUB SWAP3 GAS CALL DUP1 ISZERO PUSH2 0x756 JUMPI SWAP2 PUSH2 0x1802 SWAP6 SWAP4 SWAP2 DUP9 SWAP6 SWAP4 PUSH2 0x1831 JUMPI JUMPDEST POP POP DUP4 DUP9 PUSH1 0x1 SLOAD AND SWAP3 PUSH1 0x40 MLOAD SWAP7 DUP8 SWAP6 DUP7 SWAP5 DUP6 SWAP4 DUP5 MSTORE PUSH2 0x12C TIMESTAMP ADD SWAP2 ADDRESS SWAP2 PUSH1 0x4 DUP7 ADD PUSH2 0x1D57 JUMP JUMPDEST SUB SWAP3 GAS CALL DUP1 ISZERO PUSH2 0x7EC JUMPI PUSH2 0x1817 JUMPI JUMPDEST POP PUSH2 0x12D9 JUMP JUMPDEST PUSH2 0x182A SWAP1 RETURNDATASIZE DUP1 DUP6 DUP4 RETURNDATACOPY PUSH2 0x748 DUP2 DUP4 PUSH2 0x1AD0 JUMP JUMPDEST POP CODESIZE PUSH2 0x1811 JUMP JUMPDEST DUP2 PUSH2 0x1847 SWAP3 SWAP1 RETURNDATASIZE LT PUSH2 0x613 JUMPI PUSH2 0x607 DUP2 DUP4 PUSH2 0x1AD0 JUMP JUMPDEST POP CODESIZE DUP1 PUSH2 0x17DC JUMP JUMPDEST PUSH4 0x4E487B71 PUSH1 0xE0 SHL DUP9 MSTORE PUSH1 0x11 PUSH1 0x4 MSTORE DUP10 DUP9 REVERT JUMPDEST PUSH2 0x1876 SWAP2 POP RETURNDATASIZE DUP1 DUP10 DUP4 RETURNDATACOPY PUSH2 0x748 DUP2 DUP4 PUSH2 0x1AD0 JUMP JUMPDEST CODESIZE PUSH2 0x1764 JUMP JUMPDEST PUSH2 0x1892 SWAP1 DUP7 RETURNDATASIZE DUP9 GT PUSH2 0x613 JUMPI PUSH2 0x607 DUP2 DUP4 PUSH2 0x1AD0 JUMP JUMPDEST POP CODESIZE PUSH2 0x1725 JUMP JUMPDEST PUSH2 0x18A2 SWAP1 PUSH2 0x1ABC JUMP JUMPDEST PUSH2 0x14E3 JUMPI DUP7 CODESIZE PUSH2 0x16DA JUMP JUMPDEST DUP8 DUP1 REVERT JUMPDEST PUSH2 0x18BD SWAP1 SWAP8 SWAP2 SWAP8 PUSH2 0x1ABC JUMP JUMPDEST SWAP6 CODESIZE PUSH2 0x16A7 JUMP JUMPDEST SWAP1 SWAP4 POP DUP2 DUP2 DUP2 RETURNDATASIZE DUP4 GT PUSH2 0x18EC JUMPI JUMPDEST PUSH2 0x18DC DUP2 DUP4 PUSH2 0x1AD0 JUMP JUMPDEST DUP2 ADD SUB SLT PUSH2 0x14E3 JUMPI MLOAD SWAP3 CODESIZE PUSH2 0x1672 JUMP JUMPDEST POP RETURNDATASIZE PUSH2 0x18D2 JUMP JUMPDEST PUSH2 0x1909 SWAP1 DUP10 RETURNDATASIZE DUP12 GT PUSH2 0x613 JUMPI PUSH2 0x607 DUP2 DUP4 PUSH2 0x1AD0 JUMP JUMPDEST POP CODESIZE PUSH2 0x160C JUMP JUMPDEST POP PUSH4 0x4E487B71 PUSH1 0xE0 SHL DUP9 MSTORE PUSH1 0x11 PUSH1 0x4 MSTORE DUP8 REVERT JUMPDEST PUSH1 0x40 MLOAD PUSH3 0x461BCD PUSH1 0xE5 SHL DUP2 MSTORE PUSH1 0x20 PUSH1 0x4 DUP3 ADD MSTORE PUSH1 0x12 DUP2 DUP11 ADD MSTORE PUSH18 0x34B734BA34B0BA37B9103737BA1039B2B633 PUSH1 0x71 SHL PUSH1 0x44 DUP3 ADD MSTORE PUSH1 0x64 SWAP1 REVERT JUMPDEST PUSH3 0x461BCD PUSH1 0xE5 SHL DUP2 MSTORE PUSH1 0x20 PUSH1 0x4 DUP3 ADD MSTORE PUSH1 0xF DUP11 DUP3 ADD MSTORE PUSH15 0x18D85B1B195C881B9BDD081C1BDBDB PUSH1 0x8A SHL PUSH1 0x44 DUP3 ADD MSTORE PUSH1 0x64 SWAP1 REVERT JUMPDEST POP DUP1 REVERT JUMPDEST PUSH1 0x4 CALLDATALOAD SWAP1 PUSH1 0x1 PUSH1 0x1 PUSH1 0xA0 SHL SUB DUP3 AND DUP3 SUB PUSH2 0x685 JUMPI JUMP JUMPDEST PUSH1 0x24 CALLDATALOAD SWAP1 PUSH1 0x1 PUSH1 0x1 PUSH1 0xA0 SHL SUB DUP3 AND DUP3 SUB PUSH2 0x685 JUMPI JUMP JUMPDEST PUSH1 0xA4 CALLDATALOAD SWAP1 PUSH1 0x1 PUSH1 0x1 PUSH1 0xA0 SHL SUB DUP3 AND DUP3 SUB PUSH2 0x685 JUMPI JUMP JUMPDEST PUSH1 0xC4 CALLDATALOAD SWAP1 PUSH1 0x1 PUSH1 0x1 PUSH1 0xA0 SHL SUB DUP3 AND DUP3 SUB PUSH2 0x685 JUMPI JUMP JUMPDEST CALLDATALOAD SWAP1 PUSH1 0x1 PUSH1 0x1 PUSH1 0xA0 SHL SUB DUP3 AND DUP3 SUB PUSH2 0x685 JUMPI JUMP JUMPDEST PUSH1 0x4 CALLDATALOAD SWAP1 PUSH1 0xFF DUP3 AND DUP3 SUB PUSH2 0x685 JUMPI JUMP JUMPDEST SWAP2 DUP2 PUSH1 0x1F DUP5 ADD SLT ISZERO PUSH2 0x685 JUMPI DUP3 CALLDATALOAD SWAP2 PUSH8 0xFFFFFFFFFFFFFFFF DUP4 GT PUSH2 0x685 JUMPI PUSH1 0x20 DUP1 DUP6 ADD SWAP5 DUP5 PUSH1 0x5 SHL ADD ADD GT PUSH2 0x685 JUMPI JUMP JUMPDEST PUSH1 0xE4 CALLDATALOAD SWAP1 PUSH3 0xFFFFFF DUP3 AND DUP3 SUB PUSH2 0x685 JUMPI JUMP JUMPDEST ISZERO PUSH2 0x1A59 JUMPI JUMP JUMPDEST PUSH1 0x40 MLOAD PUSH3 0x461BCD PUSH1 0xE5 SHL DUP2 MSTORE PUSH1 0x20 PUSH1 0x4 DUP3 ADD MSTORE PUSH1 0x9 PUSH1 0x24 DUP3 ADD MSTORE PUSH9 0x3737BA1037BBB732B9 PUSH1 0xB9 SHL PUSH1 0x44 DUP3 ADD MSTORE PUSH1 0x64 SWAP1 REVERT JUMPDEST PUSH1 0xE0 DUP2 ADD SWAP1 DUP2 LT PUSH8 0xFFFFFFFFFFFFFFFF DUP3 GT OR PUSH2 0x1AA6 JUMPI PUSH1 0x40 MSTORE JUMP JUMPDEST PUSH4 0x4E487B71 PUSH1 0xE0 SHL PUSH1 0x0 MSTORE PUSH1 0x41 PUSH1 0x4 MSTORE PUSH1 0x24 PUSH1 0x0 REVERT JUMPDEST PUSH8 0xFFFFFFFFFFFFFFFF DUP2 GT PUSH2 0x1AA6 JUMPI PUSH1 0x40 MSTORE JUMP JUMPDEST SWAP1 PUSH1 0x1F DUP1 NOT SWAP2 ADD AND DUP2 ADD SWAP1 DUP2 LT PUSH8 0xFFFFFFFFFFFFFFFF DUP3 GT OR PUSH2 0x1AA6 JUMPI PUSH1 0x40 MSTORE JUMP JUMPDEST SWAP1 DUP2 PUSH1 0x20 SWAP2 SUB SLT PUSH2 0x685 JUMPI MLOAD DUP1 ISZERO ISZERO DUP2 SUB PUSH2 0x685 JUMPI SWAP1 JUMP JUMPDEST SWAP2 SWAP1 DUP3 ADD DUP1 SWAP3 GT PUSH2 0x1B17 JUMPI JUMP JUMPDEST PUSH4 0x4E487B71 PUSH1 0xE0 SHL PUSH1 0x0 MSTORE PUSH1 0x11 PUSH1 0x4 MSTORE PUSH1 0x24 PUSH1 0x0 REVERT JUMPDEST SWAP2 SWAP1 DUP3 SUB SWAP2 DUP3 GT PUSH2 0x1B17 JUMPI JUMP JUMPDEST SWAP2 SWAP1 DUP1 DUP3 MSTORE PUSH1 0x20 DUP1 SWAP3 ADD SWAP3 SWAP2 PUSH1 0x0 JUMPDEST DUP3 DUP2 LT PUSH2 0x1B57 JUMPI POP POP POP POP SWAP1 JUMP JUMPDEST SWAP1 SWAP2 SWAP3 SWAP4 DUP3 DUP1 PUSH1 0x1 SWAP3 DUP4 DUP1 PUSH1 0xA0 SHL SUB PUSH2 0x1B6F DUP10 PUSH2 0x19EB JUMP JUMPDEST AND DUP2 MSTORE ADD SWAP6 ADD SWAP4 SWAP3 SWAP2 ADD PUSH2 0x1B49 JUMP JUMPDEST PUSH8 0xFFFFFFFFFFFFFFFF DUP2 GT PUSH2 0x1AA6 JUMPI PUSH1 0x5 SHL PUSH1 0x20 ADD SWAP1 JUMP JUMPDEST DUP2 PUSH1 0x1F DUP3 ADD SLT ISZERO PUSH2 0x685 JUMPI DUP1 CALLDATALOAD SWAP2 PUSH2 0x1BAD DUP4 PUSH2 0x1B7E JUMP JUMPDEST SWAP3 PUSH2 0x1BBB PUSH1 0x40 MLOAD SWAP5 DUP6 PUSH2 0x1AD0 JUMP JUMPDEST DUP1 DUP5 MSTORE PUSH1 0x20 SWAP3 DUP4 DUP1 DUP7 ADD SWAP3 PUSH1 0x5 SHL DUP3 ADD ADD SWAP3 DUP4 GT PUSH2 0x685 JUMPI DUP4 ADD SWAP1 JUMPDEST DUP3 DUP3 LT PUSH2 0x1BE5 JUMPI POP POP POP POP SWAP1 JUMP JUMPDEST DUP4 DUP1 SWAP2 PUSH2 0x1BF1 DUP5 PUSH2 0x19EB JUMP JUMPDEST DUP2 MSTORE ADD SWAP2 ADD SWAP1 PUSH2 0x1BD7 JUMP JUMPDEST CALLDATALOAD PUSH1 0x1 PUSH1 0x1 PUSH1 0xA0 SHL SUB DUP2 AND DUP2 SUB PUSH2 0x685 JUMPI SWAP1 JUMP JUMPDEST PUSH1 0x20 SWAP1 DUP2 DUP2 DUP5 SUB SLT PUSH2 0x685 JUMPI DUP1 MLOAD SWAP1 PUSH8 0xFFFFFFFFFFFFFFFF DUP3 GT PUSH2 0x685 JUMPI ADD SWAP2 DUP1 PUSH1 0x1F DUP5 ADD SLT ISZERO PUSH2 0x685 JUMPI DUP3 MLOAD PUSH2 0x1C46 DUP2 PUSH2 0x1B7E JUMP JUMPDEST SWAP4 PUSH2 0x1C54 PUSH1 0x40 MLOAD SWAP6 DUP7 PUSH2 0x1AD0 JUMP JUMPDEST DUP2 DUP6 MSTORE DUP4 DUP1 DUP7 ADD SWAP3 PUSH1 0x5 SHL DUP3 ADD ADD SWAP3 DUP4 GT PUSH2 0x685 JUMPI DUP4 ADD SWAP1 JUMPDEST DUP3 DUP3 LT PUSH2 0x1C7B JUMPI POP POP POP POP SWAP1 JUMP JUMPDEST DUP2 MLOAD DUP2 MSTORE SWAP1 DUP4 ADD SWAP1 DUP4 ADD PUSH2 0x1C6D JUMP JUMPDEST SWAP2 PUSH1 0x80 SWAP4 PUSH2 0x1CB0 SWAP3 SWAP8 SWAP7 SWAP6 SWAP8 DUP5 MSTORE PUSH1 0x0 PUSH1 0x20 DUP6 ADD MSTORE PUSH1 0xA0 PUSH1 0x40 DUP6 ADD MSTORE PUSH1 0xA0 DUP5 ADD SWAP2 PUSH2 0x1B3A JUMP JUMPDEST PUSH1 0x1 PUSH1 0x1 PUSH1 0xA0 SHL SUB SWAP1 SWAP6 AND PUSH1 0x60 DUP3 ADD MSTORE ADD MSTORE JUMP JUMPDEST DUP1 MLOAD ISZERO PUSH2 0x1CD1 JUMPI PUSH1 0x20 ADD SWAP1 JUMP JUMPDEST PUSH4 0x4E487B71 PUSH1 0xE0 SHL PUSH1 0x0 MSTORE PUSH1 0x32 PUSH1 0x4 MSTORE PUSH1 0x24 PUSH1 0x0 REVERT JUMPDEST DUP1 MLOAD DUP3 LT ISZERO PUSH2 0x1CD1 JUMPI PUSH1 0x20 SWAP2 PUSH1 0x5 SHL ADD ADD SWAP1 JUMP JUMPDEST SWAP2 SWAP1 SWAP2 PUSH1 0xC0 PUSH1 0xE0 DUP3 ADD SWAP4 DUP2 PUSH1 0x1 DUP1 PUSH1 0xA0 SHL SUB SWAP2 DUP3 DUP2 MLOAD AND DUP6 MSTORE DUP3 PUSH1 0x20 DUP3 ADD MLOAD AND PUSH1 0x20 DUP7 ADD MSTORE PUSH3 0xFFFFFF PUSH1 0x40 DUP3 ADD MLOAD AND PUSH1 0x40 DUP7 ADD MSTORE DUP3 PUSH1 0x60 DUP3 ADD MLOAD AND PUSH1 0x60 DUP7 ADD MSTORE PUSH1 0x80 DUP2 ADD MLOAD PUSH1 0x80 DUP7 ADD MSTORE PUSH1 0xA0 DUP2 ADD MLOAD PUSH1 0xA0 DUP7 ADD MSTORE ADD MLOAD AND SWAP2 ADD MSTORE JUMP JUMPDEST SWAP2 SWAP1 SWAP5 SWAP4 SWAP3 SWAP5 PUSH1 0xA0 DUP4 ADD SWAP1 DUP4 MSTORE PUSH1 0x20 SWAP1 PUSH1 0x0 DUP3 DUP6 ADD MSTORE PUSH1 0xA0 PUSH1 0x40 DUP6 ADD MSTORE DUP3 MLOAD DUP1 SWAP2 MSTORE DUP2 PUSH1 0xC0 DUP6 ADD SWAP4 ADD SWAP2 PUSH1 0x0 JUMPDEST DUP3 DUP2 LT PUSH2 0x1DA5 JUMPI POP POP POP POP SWAP1 PUSH1 0x80 SWAP2 SWAP5 PUSH1 0x1 DUP1 PUSH1 0xA0 SHL SUB AND PUSH1 0x60 DUP3 ADD MSTORE ADD MSTORE JUMP JUMPDEST DUP4 MLOAD PUSH1 0x1 PUSH1 0x1 PUSH1 0xA0 SHL SUB AND DUP6 MSTORE SWAP4 DUP2 ADD SWAP4 SWAP3 DUP2 ADD SWAP3 PUSH1 0x1 ADD PUSH2 0x1D84 JUMP INVALID LOG2 PUSH5 0x6970667358 0x22 SLT KECCAK256 DUP11 CALLCODE RETURNDATACOPY 0xCC LOG2 PUSH27 0xB43EA8BA1CAF38589B39C8EA14B39AEF6E2A69D7E1F605B8D22164 PUSH20 0x6F6C634300081400330000000000000000000000 "},"methodIdentifiers":{"aavePool()":"a03e4bc3","eloquraRouter()":"9cf4b457","eloquraWeth()":"bdd90def","execute(uint8,address,uint256,address[],address[],address,address,uint24,uint256)":"8fbe5c3d","executeOperation(address,uint256,uint256,address,bytes)":"1b11d0ff","executeWithFlashloan(uint8,address,uint256,address[],address[],address,address,uint24)":"667c358a","owner()":"8da5cb5b","rescueETH()":"20800a00","rescueTokens(address,uint256)":"57376198","uniswapRouter()":"735de9f7","uniswapWeth()":"c19766e3"}}}}}