{"contracts/EloquraRouter.sol":{"EloquraRouter":{"abi":[{"inputs":[{"internalType":"address","name":"_factory","type":"address"},{"internalType":"address","name":"_WETH","type":"address"}],"stateMutability":"nonpayable","type":"constructor"},{"inputs":[{"internalType":"address","name":"token","type":"address"}],"name":"SafeERC20FailedOperation","type":"error"},{"inputs":[],"name":"WETH","outputs":[{"internalType":"address","name":"","type":"address"}],"stateMutability":"view","type":"function"},{"inputs":[{"internalType":"address","name":"tokenA","type":"address"},{"internalType":"address","name":"tokenB","type":"address"},{"internalType":"uint256","name":"amountADesired","type":"uint256"},{"internalType":"uint256","name":"amountBDesired","type":"uint256"},{"internalType":"uint256","name":"amountAMin","type":"uint256"},{"internalType":"uint256","name":"amountBMin","type":"uint256"},{"internalType":"address","name":"to","type":"address"},{"internalType":"uint256","name":"deadline","type":"uint256"}],"name":"addLiquidity","outputs":[{"internalType":"uint256","name":"amountA","type":"uint256"},{"internalType":"uint256","name":"amountB","type":"uint256"},{"internalType":"uint256","name":"liquidity","type":"uint256"}],"stateMutability":"nonpayable","type":"function"},{"inputs":[{"internalType":"address","name":"token","type":"address"},{"internalType":"uint256","name":"amountTokenDesired","type":"uint256"},{"internalType":"uint256","name":"amountTokenMin","type":"uint256"},{"internalType":"uint256","name":"amountETHMin","type":"uint256"},{"internalType":"address","name":"to","type":"address"},{"internalType":"uint256","name":"deadline","type":"uint256"}],"name":"addLiquidityETH","outputs":[{"internalType":"uint256","name":"amountToken","type":"uint256"},{"internalType":"uint256","name":"amountETH","type":"uint256"},{"internalType":"uint256","name":"liquidity","type":"uint256"}],"stateMutability":"payable","type":"function"},{"inputs":[],"name":"factory","outputs":[{"internalType":"address","name":"","type":"address"}],"stateMutability":"view","type":"function"},{"inputs":[{"internalType":"uint256","name":"amountOut","type":"uint256"},{"internalType":"uint256","name":"reserveIn","type":"uint256"},{"internalType":"uint256","name":"reserveOut","type":"uint256"}],"name":"getAmountIn","outputs":[{"internalType":"uint256","name":"amountIn","type":"uint256"}],"stateMutability":"pure","type":"function"},{"inputs":[{"internalType":"uint256","name":"amountIn","type":"uint256"},{"internalType":"uint256","name":"reserveIn","type":"uint256"},{"internalType":"uint256","name":"reserveOut","type":"uint256"}],"name":"getAmountOut","outputs":[{"internalType":"uint256","name":"amountOut","type":"uint256"}],"stateMutability":"pure","type":"function"},{"inputs":[{"internalType":"uint256","name":"amountOut","type":"uint256"},{"internalType":"address[]","name":"path","type":"address[]"}],"name":"getAmountsIn","outputs":[{"internalType":"uint256[]","name":"amounts","type":"uint256[]"}],"stateMutability":"view","type":"function"},{"inputs":[{"internalType":"uint256","name":"amountIn","type":"uint256"},{"internalType":"address[]","name":"path","type":"address[]"}],"name":"getAmountsOut","outputs":[{"internalType":"uint256[]","name":"amounts","type":"uint256[]"}],"stateMutability":"view","type":"function"},{"inputs":[{"internalType":"address","name":"tokenIn","type":"address"},{"internalType":"address","name":"tokenOut","type":"address"},{"internalType":"uint256","name":"amountIn","type":"uint256"}],"name":"getSwapQuote","outputs":[{"internalType":"uint256","name":"amountOut","type":"uint256"},{"internalType":"uint256","name":"priceImpact","type":"uint256"},{"internalType":"uint256","name":"fee","type":"uint256"}],"stateMutability":"view","type":"function"},{"inputs":[{"internalType":"uint256","name":"amountA","type":"uint256"},{"internalType":"uint256","name":"reserveA","type":"uint256"},{"internalType":"uint256","name":"reserveB","type":"uint256"}],"name":"quote","outputs":[{"internalType":"uint256","name":"amountB","type":"uint256"}],"stateMutability":"pure","type":"function"},{"inputs":[{"internalType":"address","name":"tokenA","type":"address"},{"internalType":"address","name":"tokenB","type":"address"},{"internalType":"uint256","name":"liquidity","type":"uint256"},{"internalType":"uint256","name":"amountAMin","type":"uint256"},{"internalType":"uint256","name":"amountBMin","type":"uint256"},{"internalType":"address","name":"to","type":"address"},{"internalType":"uint256","name":"deadline","type":"uint256"}],"name":"removeLiquidity","outputs":[{"internalType":"uint256","name":"amountA","type":"uint256"},{"internalType":"uint256","name":"amountB","type":"uint256"}],"stateMutability":"nonpayable","type":"function"},{"inputs":[{"internalType":"address","name":"token","type":"address"},{"internalType":"uint256","name":"liquidity","type":"uint256"},{"internalType":"uint256","name":"amountTokenMin","type":"uint256"},{"internalType":"uint256","name":"amountETHMin","type":"uint256"},{"internalType":"address","name":"to","type":"address"},{"internalType":"uint256","name":"deadline","type":"uint256"}],"name":"removeLiquidityETH","outputs":[{"internalType":"uint256","name":"amountToken","type":"uint256"},{"internalType":"uint256","name":"amountETH","type":"uint256"}],"stateMutability":"nonpayable","type":"function"},{"inputs":[{"internalType":"uint256","name":"amountOutMin","type":"uint256"},{"internalType":"address[]","name":"path","type":"address[]"},{"internalType":"address","name":"to","type":"address"},{"internalType":"uint256","name":"deadline","type":"uint256"}],"name":"swapExactETHForTokens","outputs":[{"internalType":"uint256[]","name":"amounts","type":"uint256[]"}],"stateMutability":"payable","type":"function"},{"inputs":[{"internalType":"uint256","name":"amountIn","type":"uint256"},{"internalType":"uint256","name":"amountOutMin","type":"uint256"},{"internalType":"address[]","name":"path","type":"address[]"},{"internalType":"address","name":"to","type":"address"},{"internalType":"uint256","name":"deadline","type":"uint256"}],"name":"swapExactTokensForETH","outputs":[{"internalType":"uint256[]","name":"amounts","type":"uint256[]"}],"stateMutability":"nonpayable","type":"function"},{"inputs":[{"internalType":"uint256","name":"amountIn","type":"uint256"},{"internalType":"uint256","name":"amountOutMin","type":"uint256"},{"internalType":"address[]","name":"path","type":"address[]"},{"internalType":"address","name":"to","type":"address"},{"internalType":"uint256","name":"deadline","type":"uint256"}],"name":"swapExactTokensForTokens","outputs":[{"internalType":"uint256[]","name":"amounts","type":"uint256[]"}],"stateMutability":"nonpayable","type":"function"},{"inputs":[{"internalType":"uint256","name":"amountOut","type":"uint256"},{"internalType":"uint256","name":"amountInMax","type":"uint256"},{"internalType":"address[]","name":"path","type":"address[]"},{"internalType":"address","name":"to","type":"address"},{"internalType":"uint256","name":"deadline","type":"uint256"}],"name":"swapTokensForExactTokens","outputs":[{"internalType":"uint256[]","name":"amounts","type":"uint256[]"}],"stateMutability":"nonpayable","type":"function"},{"stateMutability":"payable","type":"receive"}],"evm":{"bytecode":{"linkReferences":{},"object":"60c034620000f957601f6200286f38819003918201601f19168301916001600160401b03831184841017620000fe578084926040948552833981010312620000f9576200005a6020620000528362000114565b920162000114565b9060805260a05260405161274590816200012a82396080518181816101a10152818161048c015281816105e80152818161069b015281816108f501528181610b6c01528181610e71015281816110c30152818161172101528181611add01528181612057015281816122e40152612522015260a0518181816024015281816101360152818161080701528181610a7401528181610db101526110600152f35b600080fd5b634e487b7160e01b600052604160045260246000fd5b51906001600160a01b0382168203620000f95756fe60406080815260049081361015610054575b5050361561001e57600080fd5b610052337f00000000000000000000000000000000000000000000000000000000000000006001600160a01b0316146114e2565b005b600091823560e01c806302751cec14611035578063054d50d41461101957806318cbafe514610d555780631f00ca7414610d3e57806338ed173914610cd45780634260677114610c855780637ff36ab514610a0b57806385f8c259146109ef5780638803dbee14610836578063ad5c4648146107f2578063ad615dec146107cf578063baa2abde14610617578063c45a0155146105d3578063d06ca61f146105ab578063e8e33700146103e75763f305d719146101115750610011565b61015f9161013491610122366112c7565b989394989790979291924211156114ff565b7f0000000000000000000000000000000000000000000000000000000000000000933490858a6116e9565b845163e6a4390560e01b81526001600160a01b03888116868301908152858216602080830191909152939a9499929893959193929086908a90819003604001817f000000000000000000000000000000000000000000000000000000000000000088165afa9889156103a457908a91869a6103ae575b508492918a6101e79285339116611554565b16803b156103a0578651630d0e30db60e41b8152848188818e865af180156103a4578587928d92610386575b50895163a9059cbb60e01b81526001600160a01b038c168a820190815260208101939093529384928390036040019183915af190811561037c5791610264602492879594879161034f575b506114e2565b848389519a8b9586946335313c2160e11b8652168a850152165af194851561034357819561030f575b508634116102b7575b505090519283525060208201929092526040810191909152606090f35b0390f35b8080806102c48a34611985565b335af16102cf6119a8565b50156102db5780610296565b606492519162461bcd60e51b8352820152601160248201527011551217d4915195539117d19052531151607a1b6044820152fd5b9094508181813d831161033c575b6103278183611406565b810103126103375751933861028d565b600080fd5b503d61031d565b508351903d90823e3d90fd5b61036f9150863d8811610375575b6103678183611406565b81019061196d565b3861025e565b503d61035d565b87513d86823e3d90fd5b90925061039391506113dc565b6103a057848a8538610213565b8380fd5b88513d87823e3d90fd5b6101e7919a50916103d6869493893d8b116103e0575b6103ce8183611406565b810190611535565b9a915091926101d5565b503d6103c4565b509190346105a7576101003660031901126105a75761040461129b565b9161040d6112b1565b6001600160a01b039390929060c43585811690819003610337576104354260e43510156114ff565b61044b60a43560843560643560443589876116e9565b97909684519663e6a4390560e01b8852602094858980610487858589840190602090939293604083019460018060a01b03809216845216910152565b0381867f0000000000000000000000000000000000000000000000000000000000000000165afa98891561059d578b92918b918a9b610563575b50879695938b8b946104de8895836104e79660249b339116611554565b84339116611554565b8751998a9586946335313c2160e11b8652850152165af19283156105585792610526575b50519283526020830193909352506040810191909152606090f35b90915082813d8311610551575b61053d8183611406565b81010312610337576102b39151903861050b565b503d610533565b8251903d90823e3d90fd5b602495929b50936104e7918b946104de61058c8c9b9a988c8d3d106103e0576103ce8183611406565b9e95985050945091509395966104c1565b87513d8a823e3d90fd5b5080fd5b5050346105a7576102b3906105c86105c23661149e565b90612026565b9051918291826113a1565b5050346105a757816003193601126105a757517f00000000000000000000000000000000000000000000000000000000000000006001600160a01b03168152602090f35b508290346105a75760e03660031901126105a75761063361129b565b9161063c6112b1565b906001600160a01b039060a43582811690819003610337576106624260c43510156114ff565b865163e6a4390560e01b81526001600160a01b0380881687830190815290861660208281019190915291969190879081906040010381877f0000000000000000000000000000000000000000000000000000000000000000165afa9586156107c5579088929184976107a2575b506024906106e58689169860443590338b611554565b848451988994859363226bf2d160e21b85528401525af1948515610796578194829661075c575b50808316938084168510156107545750905b50160361074f57905b610735606435831015611661565b6107436084358210156116a5565b82519182526020820152f35b610727565b90509061071e565b87809297508196503d831161078f575b6107768183611406565b8101031261078c5760208451940151948761070c565b80fd5b503d61076c565b508551903d90823e3d90fd5b60249197506107be9060203d81116103e0576103ce8183611406565b96906106cf565b88513d85823e3d90fd5b5050346105a7576020906107eb6107e536611307565b91611e31565b9051908152f35b5050346105a757816003193601126105a757517f00000000000000000000000000000000000000000000000000000000000000006001600160a01b03168152602090f35b5090346109eb5761087061085f61084c36611352565b98939896929590969491944211156114ff565b61086a368587611440565b90612295565b9561087a87611a2a565b51116109af57811561099c576001600160a01b03908161089985611aad565b16916108a485611aad565b846001101561098957916020916108f1936108c0848901611aad565b8a5163e6a4390560e01b81526001600160a01b03928316948101948552911660208401529384928391829160400190565b03917f0000000000000000000000000000000000000000000000000000000000000000165afa90811561097f57610957959492610951949261094a926102b39b91610961575b506109418a611a2a565b51913390611554565b3691611440565b84611ad0565b51918291826113a1565b610979915060203d81116103e0576103ce8183611406565b38610937565b86513d8a823e3d90fd5b634e487b7160e01b8a526032835260248afd5b634e487b7160e01b875260329052602486fd5b606490602086519162461bcd60e51b83528201526016602482015275115610d154d4d2559157d25394155517d05353d5539560521b6044820152fd5b8280fd5b5050346105a7576020906107eb610a0536611307565b91611f42565b509060803660031901126109eb5760243567ffffffffffffffff81116103a057610a389036908401611321565b6001600160a01b0393604435929190858416840361033757610a5e4260643510156114ff565b811561099c578590610a9e610a7285611aad565b7f0000000000000000000000000000000000000000000000000000000000000000841698168814611d7e565b610ab2610aac368587611440565b34612026565b9687516000198101908111610c7257610ad990610ad18435918b611a4d565b511015611a61565b88610ae389611a2a565b51823b156105a7578184918a5192838092630d0e30db60e41b8252875af18015610c6857610c50575b5050610b1785611aad565b92846001101561098957610b68906020948591610b35838a01611aad565b8b5163e6a4390560e01b81526001600160a01b039384168882019081529390911660208401529384928391829160400190565b03917f0000000000000000000000000000000000000000000000000000000000000000165afa908115610c465791610be1939185938c91610c29575b508b610baf8c611a2a565b518b5163a9059cbb60e01b81526001600160a01b03909316948301948552602085015290948593849291839160400190565b03925af191821561097f57610957959492610951949261094a926102b39b92610c0c575b50506114e2565b610c229250803d10610375576103678183611406565b3880610c05565b610c409150843d86116103e0576103ce8183611406565b38610ba4565b88513d8c823e3d90fd5b610c59906113dc565b610c64578838610b0c565b8880fd5b89513d84823e3d90fd5b634e487b7160e01b8a526011835260248afd5b5050346105a75760603660031901126105a7576102b390610cb8610ca761129b565b610caf6112b1565b604435916124ea565b9251918252602082015260408101919091529081906060820190565b5090346109eb57610cf5610cea61084c36611352565b6105c2368587611440565b9586516000198101908111610d2b5790610ad1610d129289611a4d565b811561099c576001600160a01b03908161089985611aad565b634e487b7160e01b895260118352602489fd5b5050346105a7576102b3906105c861086a3661149e565b5090346109eb57610d7a9192610d6a36611352565b97909493979291924211156114ff565b600019928284018381116110065783811015610ff15790610dea610da7610ddf95949360051b8401611aad565b6001600160a01b037f000000000000000000000000000000000000000000000000000000000000000081169690939184168714611d7e565b6105c2368686611440565b988951868101908111610fde5790610ad1610e05928c611a4d565b8215610fcb5780610e1583611aad565b1690610e2083611aad565b8460011015610fb8578b610e6d92602092610e3c848801611aad565b8d5163e6a4390560e01b81526001600160a01b03928316948101948552911660208401529384928391829160400190565b03917f0000000000000000000000000000000000000000000000000000000000000000165afa908115610fae57610ec292610ec8959492610eb9928b91610f90575b506109418d611a2a565b30923691611440565b88611ad0565b8551828101908111610f7d57610ede9087611a4d565b51813b15610f795784916024839288519485938492632e1a7d4d60e01b84528d8401525af18015610f6f57908491610f5b575b50508451908101908111610f48576102b395509180808093610f366109579689611a4d565b51905af1610f426119a8565b506119e8565b634e487b7160e01b835260118652602483fd5b610f64906113dc565b6109eb578238610f11565b85513d86823e3d90fd5b8480fd5b634e487b7160e01b855260118852602485fd5b610fa8915060203d81116103e0576103ce8183611406565b38610eaf565b89513d8a823e3d90fd5b634e487b7160e01b895260328c52602489fd5b634e487b7160e01b875260328a52602487fd5b634e487b7160e01b895260118c52602489fd5b60328a634e487b7160e01b6000525260246000fd5b634e487b7160e01b875260118a52602487fd5b5050346105a7576020906107eb61102f36611307565b91611e9f565b508290346105a757611046366112c7565b96939491969590929542111561105b816114ff565b6110857f0000000000000000000000000000000000000000000000000000000000000000916114ff565b885163e6a4390560e01b81526001600160a01b03848116848301908152838216602080830191909152919a91989192919089908390819003604001817f00000000000000000000000000000000000000000000000000000000000000008f165afa91821561129157918c918993849261126e575b50611109908d8316923384611554565b602482518094819363226bf2d160e21b8352308a8401525af1998a15611264578791889b61122a575b5083811695808216948786101561122357505b168303611210576111a3929161116361116b929b9a5b8c1015611661565b8910156116a5565b895163a9059cbb60e01b888201526001600160a01b038616602482015260448082018b905281529061119e606483611406565b6115af565b813b156103a0578560248592838b519586948593632e1a7d4d60e01b85528401525af1801561120657916111e9939186936111f3575b5081809381925af1610f426119a8565b8351928352820152f35b6111ff909291926113dc565b90886111d9565b87513d85823e3d90fd5b976111a3929161116b916111639061115b565b9050611145565b8c80929c508193503d831161125d575b6112448183611406565b8101031261125957878151910151998c611132565b8680fd5b503d61123a565b8b513d89823e3d90fd5b61110991925061128a908c8d3d106103e0576103ce8183611406565b91906110f9565b8c513d8a823e3d90fd5b600435906001600160a01b038216820361033757565b602435906001600160a01b038216820361033757565b60c0906003190112610337576001600160a01b03600435818116810361033757916024359160443591606435916084359081168103610337579060a43590565b606090600319011261033757600435906024359060443590565b9181601f840112156103375782359167ffffffffffffffff8311610337576020808501948460051b01011161033757565b60a06003198201126103375760043591602435916044359067ffffffffffffffff82116103375761138591600401611321565b90916064356001600160a01b0381168103610337579060843590565b6020908160408183019282815285518094520193019160005b8281106113c8575050505090565b8351855293810193928101926001016113ba565b67ffffffffffffffff81116113f057604052565b634e487b7160e01b600052604160045260246000fd5b90601f8019910116810190811067ffffffffffffffff8211176113f057604052565b67ffffffffffffffff81116113f05760051b60200190565b929161144b82611428565b916114596040519384611406565b829481845260208094019160051b810192831161033757905b82821061147f5750505050565b81356001600160a01b0381168103610337578152908301908301611472565b90604060031983011261033757600435916024359067ffffffffffffffff82116103375780602383011215610337578160246114df93600401359101611440565b90565b156114e957565b634e487b7160e01b600052600160045260246000fd5b1561150657565b60405162461bcd60e51b81526020600482015260076024820152661156141254915160ca1b6044820152606490fd5b9081602091031261033757516001600160a01b03811681036103375790565b6040516323b872dd60e01b60208201526001600160a01b03928316602482015292909116604483015260648083019390935291815260a081019181831067ffffffffffffffff8411176113f0576115ad926040526115af565b565b906000602091828151910182855af11561160b576000513d61160257506001600160a01b0381163b155b6115e05750565b604051635274afe760e01b81526001600160a01b039091166004820152602490fd5b600114156115d9565b6040513d6000823e3d90fd5b51906001600160701b038216820361033757565b908160609103126103375761163f81611617565b91604061164e60208401611617565b92015163ffffffff811681036103375790565b1561166857565b60405162461bcd60e51b8152602060048201526015602482015274125394d551919250d251539517d057d05353d55395605a1b6044820152606490fd5b156116ac57565b60405162461bcd60e51b8152602060048201526015602482015274125394d551919250d251539517d097d05353d55395605a1b6044820152606490fd5b6040805163e6a4390560e01b8082526001600160a01b03848116600484015285811660248401529598969792969592949293916020917f00000000000000000000000000000000000000000000000000000000000000008616918381604481865afa908115611945578492918891600091611950575b5016156118e3575b89519081526001600160a01b0385811660048301528616602482015291829060449082905afa9182156118d857916060918694936000926118bb575b50506004895180978193630240bc6b60e21b8352165afa9687156118b15750600093849761187a575b508082169280831684101561187357505b1603611861576001600160701b0393841693165b801580611859575b1561180657505050509091565b61181584828897959697611e31565b94838611611831575050505061182d908210156116a5565b9091565b83955061182d945090611848916118519394611e31565b948511156114e2565b831015611661565b5083156117f9565b6001600160701b0390811693166117f1565b90506117dd565b90965061189f91935060603d81116118aa575b6118978183611406565b81019061162b565b5092909295386117cc565b503d61188d565b513d6000823e3d90fd5b6118d19250803d106103e0576103ce8183611406565b38806117a3565b88513d6000823e3d90fd5b89516364e329cb60e11b81526001600160a01b0386811660048301528716602482015290915083816044816000875af180156119455790849291611928575b50611767565b61193e90833d85116103e0576103ce8183611406565b5038611922565b8a513d6000823e3d90fd5b6119679150843d86116103e0576103ce8183611406565b3861175f565b90816020910312610337575180151581036103375790565b9190820391821161199257565b634e487b7160e01b600052601160045260246000fd5b3d156119e3573d9067ffffffffffffffff82116113f057604051916119d7601f8201601f191660200184611406565b82523d6000602084013e565b606090565b156119ef57565b60405162461bcd60e51b815260206004820152601360248201527211551217d514905394d1915497d19052531151606a1b6044820152606490fd5b805115611a375760200190565b634e487b7160e01b600052603260045260246000fd5b8051821015611a375760209160051b010190565b15611a6857565b60405162461bcd60e51b815260206004820152601a60248201527f494e53554646494349454e545f4f55545055545f414d4f554e540000000000006044820152606490fd5b356001600160a01b03811681036103375790565b60001981146119925760010190565b9092916001600160a01b037f00000000000000000000000000000000000000000000000000000000000000008116929060005b8651600019810190811161199257811015611d755781611b238289611a4d565b5116600182018083116119925783611b3b828b611a4d565b51169081831015611d6a5784611b5384925b88611a4d565b5191168303611d63576000905b8a51600119810190811161199257851015611d59576002850180861161199257611b8b87918d611a4d565b516040805163e6a4390560e01b81526001600160a01b038781166004830152939092169092166024820152602080826044818f5afa9283156118b1575090611c1a9291600092611d3c575b5050925b6040805163e6a4390560e01b81526001600160a01b0397881660048083019190915297909616602487015294602092839082908e90829081906044820190565b03915afa908115611d3157908991600091611d14575b50169385519383850185811067ffffffffffffffff821117611cff57875260008552853b1561033757908991879895969493985198899663022c0d9f60e01b885287015260248601521660448401526080606484015283519081608485015260005b828110611ce8575050600080945083918260a49183838284010152601f801991011681010301925af19081156118b1575090611cd49291611cd9575b50611ac1565b611b03565b611ce2906113dc565b38611cce565b80860182015188820160a401528794508101611c92565b604189634e487b7160e01b6000525260246000fd5b611d2b9150843d86116103e0576103ce8183611406565b38611c30565b86513d6000823e3d90fd5b611d529250803d106103e0576103ce8183611406565b3880611bd6565b611c1a8892611bda565b6000611b60565b84611b538392611b4d565b50505050509050565b15611d8557565b60405162461bcd60e51b815260206004820152600c60248201526b0929cac82989288bea082a8960a31b6044820152606490fd5b15611dc057565b60405162461bcd60e51b8152602060048201526016602482015275494e53554646494349454e545f4c495155494449545960501b6044820152606490fd5b8181029291811591840414171561199257565b8115611e1b570490565b634e487b7160e01b600052601260045260246000fd5b8015611e64576114df92611e569183151580611e5b575b611e5190611db9565b611dfe565b611e11565b50811515611e48565b60405162461bcd60e51b8152602060048201526013602482015272125394d551919250d251539517d05353d55395606a1b6044820152606490fd5b8015611efd57811592831580611ef4575b611eb990611db9565b6103e58083029283040361199257611ed19082611dfe565b926103e8808402938404141715611992578101809111611992576114df91611e11565b50801515611eb0565b60405162461bcd60e51b815260206004820152601960248201527f494e53554646494349454e545f494e5055545f414d4f554e54000000000000006044820152606490fd5b919082611f6591611f54821515611a61565b80151580611fae57611e5190611db9565b916103e89283810293818504149015171561199257611f8391611985565b6103e59081810291818304149015171561199257611fa091611e11565b600181018091116119925790565b50831515611e48565b90611fc182611428565b611fce6040519182611406565b8281528092611fdf601f1991611428565b0190602036910137565b15611ff057565b60405162461bcd60e51b815260206004820152600e60248201526d1410525497d393d517d193d5539160921b6044820152606490fd5b919091612037600284511015611d7e565b6120418351611fb7565b9061204b82611a2a565b526001600160a01b03907f0000000000000000000000000000000000000000000000000000000000000000821660005b855160001981019081116119925781101561228e578361209b8288611a4d565b51166001820180831161199257856120b3828a611a4d565b516040805163e6a4390560e01b81526001600160a01b0395861660048083019190915293909216909416602482015260209081816044818a5afa9182156122835790899291600092612266575b5050169261210f841515611fe9565b80518094630240bc6b60e21b8252818460609788935afa9182156118b157506000948592612240575b505087612145868c611a4d565b51169388868c600097836121598984611a4d565b511611156122185787929161216d91611a4d565b51169061220357908b8a806121928a6121bc979661218b8b87611a4d565b5094611a4d565b51169116146000146121f1576001600160701b0391821691165b6121b6878a611a4d565b51611e9f565b926121dc5750906121d16121d7939286611a4d565b52611ac1565b61207b565b601190634e487b7160e01b6000525260246000fd5b6001600160701b0390811691166121ac565b601184634e487b7160e01b6000525260246000fd5b50505093906121bc91948b8a806121928a826122348b87611a4d565b511661218b8287611a4d565b61225b93955080919250903d106118aa576118978183611406565b509290923880612138565b61227c9250803d106103e0576103ce8183611406565b3880612100565b85513d6000823e3d90fd5b5050925050565b9190916122a6600284511015611d7e565b6122b08351611fb7565b9283519160001992838101908111611992576122cc9086611a4d565b528051828101908111611992576001600160a01b03907f0000000000000000000000000000000000000000000000000000000000000000821690805b612313575050505050565b84810181811161245857836123288287611a4d565b5116846123358488611a4d565b516040805163e6a4390560e01b81526001600160a01b0394851660048083019190915293909216909316602482015260209081816044818a5afa9182156124df57908892916000926124c2575b50501690612391821515611fe9565b82518092630240bc6b60e21b8252818360609586935afa9384156118b15750600092839461249e575b505060009081886123cb878c611a4d565b5116896123d8898d611a4d565b5116111561247f576121dc57876123ef868b611a4d565b51166123fb878b611a4d565b50915b6121dc57509161244291612449938880612418888d611a4d565b511691161460001461246d576001600160701b0391821691165b61243c868d611a4d565b51611f42565b9189611a4d565b52801561245857840180612308565b60246000634e487b7160e01b81526011600452fd5b6001600160701b039081169116612432565b508761248b878b611a4d565b5116612497868b611a4d565b50916123fe565b80919294506124b99350903d106118aa576118978183611406565b509138806123ba565b6124d89250803d106103e0576103ce8183611406565b3880612382565b84513d6000823e3d90fd5b60405163e6a4390560e01b81526001600160a01b038281166004808401919091528482166024840152929592949293916020816044817f000000000000000000000000000000000000000000000000000000000000000086165afa801561160b5782916000916126f1575b501680156126df5790606086939260405194858092630240bc6b60e21b82525afa96871561160b5760009384986126b8575b50808216928083168410156126b157505b160361269f576001600160701b0380911694165b84158015612697575b612687576125c4818684611e9f565b94670de0b6b3a7640000918281029080820484149015171561267257906125ea91611e11565b90808602908682041486151715612655578261260591611e11565b60008183111561266a575061261a9082611985565b61271090818102918183041490151715612655579061263891611e11565b92601e820291808304601e14901517156121dc5750612710900490565b601185634e487b7160e01b6000525260246000fd5b915050612638565b601186634e487b7160e01b6000525260246000fd5b5050915050600090600090600090565b5080156125b5565b6001600160701b0394851694166125ac565b9050612598565b9097506126d491935060603d81116118aa576118978183611406565b509290929638612587565b50505050915050600090600090600090565b612709915060203d81116103e0576103ce8183611406565b3861255556fea26469706673582212203fe1f91745decb73126b420552c9dd5920787d4be9522b70665c36690afbdf1464736f6c63430008140033","opcodes":"PUSH1 0xC0 CALLVALUE PUSH3 0xF9 JUMPI PUSH1 0x1F PUSH3 0x286F CODESIZE DUP2 SWAP1 SUB SWAP2 DUP3 ADD PUSH1 0x1F NOT AND DUP4 ADD SWAP2 PUSH1 0x1 PUSH1 0x1 PUSH1 0x40 SHL SUB DUP4 GT DUP5 DUP5 LT OR PUSH3 0xFE JUMPI DUP1 DUP5 SWAP3 PUSH1 0x40 SWAP5 DUP6 MSTORE DUP4 CODECOPY DUP2 ADD SUB SLT PUSH3 0xF9 JUMPI PUSH3 0x5A PUSH1 0x20 PUSH3 0x52 DUP4 PUSH3 0x114 JUMP JUMPDEST SWAP3 ADD PUSH3 0x114 JUMP JUMPDEST SWAP1 PUSH1 0x80 MSTORE PUSH1 0xA0 MSTORE PUSH1 0x40 MLOAD PUSH2 0x2745 SWAP1 DUP2 PUSH3 0x12A DUP3 CODECOPY PUSH1 0x80 MLOAD DUP2 DUP2 DUP2 PUSH2 0x1A1 ADD MSTORE DUP2 DUP2 PUSH2 0x48C ADD MSTORE DUP2 DUP2 PUSH2 0x5E8 ADD MSTORE DUP2 DUP2 PUSH2 0x69B ADD MSTORE DUP2 DUP2 PUSH2 0x8F5 ADD MSTORE DUP2 DUP2 PUSH2 0xB6C ADD MSTORE DUP2 DUP2 PUSH2 0xE71 ADD MSTORE DUP2 DUP2 PUSH2 0x10C3 ADD MSTORE DUP2 DUP2 PUSH2 0x1721 ADD MSTORE DUP2 DUP2 PUSH2 0x1ADD ADD MSTORE DUP2 DUP2 PUSH2 0x2057 ADD MSTORE DUP2 DUP2 PUSH2 0x22E4 ADD MSTORE PUSH2 0x2522 ADD MSTORE PUSH1 0xA0 MLOAD DUP2 DUP2 DUP2 PUSH1 0x24 ADD MSTORE DUP2 DUP2 PUSH2 0x136 ADD MSTORE DUP2 DUP2 PUSH2 0x807 ADD MSTORE DUP2 DUP2 PUSH2 0xA74 ADD MSTORE DUP2 DUP2 PUSH2 0xDB1 ADD MSTORE PUSH2 0x1060 ADD MSTORE RETURN JUMPDEST PUSH1 0x0 DUP1 REVERT JUMPDEST PUSH4 0x4E487B71 PUSH1 0xE0 SHL PUSH1 0x0 MSTORE PUSH1 0x41 PUSH1 0x4 MSTORE PUSH1 0x24 PUSH1 0x0 REVERT JUMPDEST MLOAD SWAP1 PUSH1 0x1 PUSH1 0x1 PUSH1 0xA0 SHL SUB DUP3 AND DUP3 SUB PUSH3 0xF9 JUMPI JUMP INVALID PUSH1 0x40 PUSH1 0x80 DUP2 MSTORE PUSH1 0x4 SWAP1 DUP2 CALLDATASIZE LT ISZERO PUSH2 0x54 JUMPI JUMPDEST POP POP CALLDATASIZE ISZERO PUSH2 0x1E JUMPI PUSH1 0x0 DUP1 REVERT JUMPDEST PUSH2 0x52 CALLER PUSH32 0x0 PUSH1 0x1 PUSH1 0x1 PUSH1 0xA0 SHL SUB AND EQ PUSH2 0x14E2 JUMP JUMPDEST STOP JUMPDEST PUSH1 0x0 SWAP2 DUP3 CALLDATALOAD PUSH1 0xE0 SHR DUP1 PUSH4 0x2751CEC EQ PUSH2 0x1035 JUMPI DUP1 PUSH4 0x54D50D4 EQ PUSH2 0x1019 JUMPI DUP1 PUSH4 0x18CBAFE5 EQ PUSH2 0xD55 JUMPI DUP1 PUSH4 0x1F00CA74 EQ PUSH2 0xD3E JUMPI DUP1 PUSH4 0x38ED1739 EQ PUSH2 0xCD4 JUMPI DUP1 PUSH4 0x42606771 EQ PUSH2 0xC85 JUMPI DUP1 PUSH4 0x7FF36AB5 EQ PUSH2 0xA0B JUMPI DUP1 PUSH4 0x85F8C259 EQ PUSH2 0x9EF JUMPI DUP1 PUSH4 0x8803DBEE EQ PUSH2 0x836 JUMPI DUP1 PUSH4 0xAD5C4648 EQ PUSH2 0x7F2 JUMPI DUP1 PUSH4 0xAD615DEC EQ PUSH2 0x7CF JUMPI DUP1 PUSH4 0xBAA2ABDE EQ PUSH2 0x617 JUMPI DUP1 PUSH4 0xC45A0155 EQ PUSH2 0x5D3 JUMPI DUP1 PUSH4 0xD06CA61F EQ PUSH2 0x5AB JUMPI DUP1 PUSH4 0xE8E33700 EQ PUSH2 0x3E7 JUMPI PUSH4 0xF305D719 EQ PUSH2 0x111 JUMPI POP PUSH2 0x11 JUMP JUMPDEST PUSH2 0x15F SWAP2 PUSH2 0x134 SWAP2 PUSH2 0x122 CALLDATASIZE PUSH2 0x12C7 JUMP JUMPDEST SWAP9 SWAP4 SWAP5 SWAP9 SWAP8 SWAP1 SWAP8 SWAP3 SWAP2 SWAP3 TIMESTAMP GT ISZERO PUSH2 0x14FF JUMP JUMPDEST PUSH32 0x0 SWAP4 CALLVALUE SWAP1 DUP6 DUP11 PUSH2 0x16E9 JUMP JUMPDEST DUP5 MLOAD PUSH4 0xE6A43905 PUSH1 0xE0 SHL DUP2 MSTORE PUSH1 0x1 PUSH1 0x1 PUSH1 0xA0 SHL SUB DUP9 DUP2 AND DUP7 DUP4 ADD SWAP1 DUP2 MSTORE DUP6 DUP3 AND PUSH1 0x20 DUP1 DUP4 ADD SWAP2 SWAP1 SWAP2 MSTORE SWAP4 SWAP11 SWAP5 SWAP10 SWAP3 SWAP9 SWAP4 SWAP6 SWAP2 SWAP4 SWAP3 SWAP1 DUP7 SWAP1 DUP11 SWAP1 DUP2 SWAP1 SUB PUSH1 0x40 ADD DUP2 PUSH32 0x0 DUP9 AND GAS STATICCALL SWAP9 DUP10 ISZERO PUSH2 0x3A4 JUMPI SWAP1 DUP11 SWAP2 DUP7 SWAP11 PUSH2 0x3AE JUMPI JUMPDEST POP DUP5 SWAP3 SWAP2 DUP11 PUSH2 0x1E7 SWAP3 DUP6 CALLER SWAP2 AND PUSH2 0x1554 JUMP JUMPDEST AND DUP1 EXTCODESIZE ISZERO PUSH2 0x3A0 JUMPI DUP7 MLOAD PUSH4 0xD0E30DB PUSH1 0xE4 SHL DUP2 MSTORE DUP5 DUP2 DUP9 DUP2 DUP15 DUP7 GAS CALL DUP1 ISZERO PUSH2 0x3A4 JUMPI DUP6 DUP8 SWAP3 DUP14 SWAP3 PUSH2 0x386 JUMPI JUMPDEST POP DUP10 MLOAD PUSH4 0xA9059CBB PUSH1 0xE0 SHL DUP2 MSTORE PUSH1 0x1 PUSH1 0x1 PUSH1 0xA0 SHL SUB DUP13 AND DUP11 DUP3 ADD SWAP1 DUP2 MSTORE PUSH1 0x20 DUP2 ADD SWAP4 SWAP1 SWAP4 MSTORE SWAP4 DUP5 SWAP3 DUP4 SWAP1 SUB PUSH1 0x40 ADD SWAP2 DUP4 SWAP2 GAS CALL SWAP1 DUP2 ISZERO PUSH2 0x37C JUMPI SWAP2 PUSH2 0x264 PUSH1 0x24 SWAP3 DUP8 SWAP6 SWAP5 DUP8 SWAP2 PUSH2 0x34F JUMPI JUMPDEST POP PUSH2 0x14E2 JUMP JUMPDEST DUP5 DUP4 DUP10 MLOAD SWAP11 DUP12 SWAP6 DUP7 SWAP5 PUSH4 0x35313C21 PUSH1 0xE1 SHL DUP7 MSTORE AND DUP11 DUP6 ADD MSTORE AND GAS CALL SWAP5 DUP6 ISZERO PUSH2 0x343 JUMPI DUP2 SWAP6 PUSH2 0x30F JUMPI JUMPDEST POP DUP7 CALLVALUE GT PUSH2 0x2B7 JUMPI JUMPDEST POP POP SWAP1 MLOAD SWAP3 DUP4 MSTORE POP PUSH1 0x20 DUP3 ADD SWAP3 SWAP1 SWAP3 MSTORE PUSH1 0x40 DUP2 ADD SWAP2 SWAP1 SWAP2 MSTORE PUSH1 0x60 SWAP1 RETURN JUMPDEST SUB SWAP1 RETURN JUMPDEST DUP1 DUP1 DUP1 PUSH2 0x2C4 DUP11 CALLVALUE PUSH2 0x1985 JUMP JUMPDEST CALLER GAS CALL PUSH2 0x2CF PUSH2 0x19A8 JUMP JUMPDEST POP ISZERO PUSH2 0x2DB JUMPI DUP1 PUSH2 0x296 JUMP JUMPDEST PUSH1 0x64 SWAP3 MLOAD SWAP2 PUSH3 0x461BCD PUSH1 0xE5 SHL DUP4 MSTORE DUP3 ADD MSTORE PUSH1 0x11 PUSH1 0x24 DUP3 ADD MSTORE PUSH17 0x11551217D4915195539117D19052531151 PUSH1 0x7A SHL PUSH1 0x44 DUP3 ADD MSTORE REVERT JUMPDEST SWAP1 SWAP5 POP DUP2 DUP2 DUP2 RETURNDATASIZE DUP4 GT PUSH2 0x33C JUMPI JUMPDEST PUSH2 0x327 DUP2 DUP4 PUSH2 0x1406 JUMP JUMPDEST DUP2 ADD SUB SLT PUSH2 0x337 JUMPI MLOAD SWAP4 CODESIZE PUSH2 0x28D JUMP JUMPDEST PUSH1 0x0 DUP1 REVERT JUMPDEST POP RETURNDATASIZE PUSH2 0x31D JUMP JUMPDEST POP DUP4 MLOAD SWAP1 RETURNDATASIZE SWAP1 DUP3 RETURNDATACOPY RETURNDATASIZE SWAP1 REVERT JUMPDEST PUSH2 0x36F SWAP2 POP DUP7 RETURNDATASIZE DUP9 GT PUSH2 0x375 JUMPI JUMPDEST PUSH2 0x367 DUP2 DUP4 PUSH2 0x1406 JUMP JUMPDEST DUP2 ADD SWAP1 PUSH2 0x196D JUMP JUMPDEST CODESIZE PUSH2 0x25E JUMP JUMPDEST POP RETURNDATASIZE PUSH2 0x35D JUMP JUMPDEST DUP8 MLOAD RETURNDATASIZE DUP7 DUP3 RETURNDATACOPY RETURNDATASIZE SWAP1 REVERT JUMPDEST SWAP1 SWAP3 POP PUSH2 0x393 SWAP2 POP PUSH2 0x13DC JUMP JUMPDEST PUSH2 0x3A0 JUMPI DUP5 DUP11 DUP6 CODESIZE PUSH2 0x213 JUMP JUMPDEST DUP4 DUP1 REVERT JUMPDEST DUP9 MLOAD RETURNDATASIZE DUP8 DUP3 RETURNDATACOPY RETURNDATASIZE SWAP1 REVERT JUMPDEST PUSH2 0x1E7 SWAP2 SWAP11 POP SWAP2 PUSH2 0x3D6 DUP7 SWAP5 SWAP4 DUP10 RETURNDATASIZE DUP12 GT PUSH2 0x3E0 JUMPI JUMPDEST PUSH2 0x3CE DUP2 DUP4 PUSH2 0x1406 JUMP JUMPDEST DUP2 ADD SWAP1 PUSH2 0x1535 JUMP JUMPDEST SWAP11 SWAP2 POP SWAP2 SWAP3 PUSH2 0x1D5 JUMP JUMPDEST POP RETURNDATASIZE PUSH2 0x3C4 JUMP JUMPDEST POP SWAP2 SWAP1 CALLVALUE PUSH2 0x5A7 JUMPI PUSH2 0x100 CALLDATASIZE PUSH1 0x3 NOT ADD SLT PUSH2 0x5A7 JUMPI PUSH2 0x404 PUSH2 0x129B JUMP JUMPDEST SWAP2 PUSH2 0x40D PUSH2 0x12B1 JUMP JUMPDEST PUSH1 0x1 PUSH1 0x1 PUSH1 0xA0 SHL SUB SWAP4 SWAP1 SWAP3 SWAP1 PUSH1 0xC4 CALLDATALOAD DUP6 DUP2 AND SWAP1 DUP2 SWAP1 SUB PUSH2 0x337 JUMPI PUSH2 0x435 TIMESTAMP PUSH1 0xE4 CALLDATALOAD LT ISZERO PUSH2 0x14FF JUMP JUMPDEST PUSH2 0x44B PUSH1 0xA4 CALLDATALOAD PUSH1 0x84 CALLDATALOAD PUSH1 0x64 CALLDATALOAD PUSH1 0x44 CALLDATALOAD DUP10 DUP8 PUSH2 0x16E9 JUMP JUMPDEST SWAP8 SWAP1 SWAP7 DUP5 MLOAD SWAP7 PUSH4 0xE6A43905 PUSH1 0xE0 SHL DUP9 MSTORE PUSH1 0x20 SWAP5 DUP6 DUP10 DUP1 PUSH2 0x487 DUP6 DUP6 DUP10 DUP5 ADD SWAP1 PUSH1 0x20 SWAP1 SWAP4 SWAP3 SWAP4 PUSH1 0x40 DUP4 ADD SWAP5 PUSH1 0x1 DUP1 PUSH1 0xA0 SHL SUB DUP1 SWAP3 AND DUP5 MSTORE AND SWAP2 ADD MSTORE JUMP JUMPDEST SUB DUP2 DUP7 PUSH32 0x0 AND GAS STATICCALL SWAP9 DUP10 ISZERO PUSH2 0x59D JUMPI DUP12 SWAP3 SWAP2 DUP12 SWAP2 DUP11 SWAP12 PUSH2 0x563 JUMPI JUMPDEST POP DUP8 SWAP7 SWAP6 SWAP4 DUP12 DUP12 SWAP5 PUSH2 0x4DE DUP9 SWAP6 DUP4 PUSH2 0x4E7 SWAP7 PUSH1 0x24 SWAP12 CALLER SWAP2 AND PUSH2 0x1554 JUMP JUMPDEST DUP5 CALLER SWAP2 AND PUSH2 0x1554 JUMP JUMPDEST DUP8 MLOAD SWAP10 DUP11 SWAP6 DUP7 SWAP5 PUSH4 0x35313C21 PUSH1 0xE1 SHL DUP7 MSTORE DUP6 ADD MSTORE AND GAS CALL SWAP3 DUP4 ISZERO PUSH2 0x558 JUMPI SWAP3 PUSH2 0x526 JUMPI JUMPDEST POP MLOAD SWAP3 DUP4 MSTORE PUSH1 0x20 DUP4 ADD SWAP4 SWAP1 SWAP4 MSTORE POP PUSH1 0x40 DUP2 ADD SWAP2 SWAP1 SWAP2 MSTORE PUSH1 0x60 SWAP1 RETURN JUMPDEST SWAP1 SWAP2 POP DUP3 DUP2 RETURNDATASIZE DUP4 GT PUSH2 0x551 JUMPI JUMPDEST PUSH2 0x53D DUP2 DUP4 PUSH2 0x1406 JUMP JUMPDEST DUP2 ADD SUB SLT PUSH2 0x337 JUMPI PUSH2 0x2B3 SWAP2 MLOAD SWAP1 CODESIZE PUSH2 0x50B JUMP JUMPDEST POP RETURNDATASIZE PUSH2 0x533 JUMP JUMPDEST DUP3 MLOAD SWAP1 RETURNDATASIZE SWAP1 DUP3 RETURNDATACOPY RETURNDATASIZE SWAP1 REVERT JUMPDEST PUSH1 0x24 SWAP6 SWAP3 SWAP12 POP SWAP4 PUSH2 0x4E7 SWAP2 DUP12 SWAP5 PUSH2 0x4DE PUSH2 0x58C DUP13 SWAP12 SWAP11 SWAP9 DUP13 DUP14 RETURNDATASIZE LT PUSH2 0x3E0 JUMPI PUSH2 0x3CE DUP2 DUP4 PUSH2 0x1406 JUMP JUMPDEST SWAP15 SWAP6 SWAP9 POP POP SWAP5 POP SWAP2 POP SWAP4 SWAP6 SWAP7 PUSH2 0x4C1 JUMP JUMPDEST DUP8 MLOAD RETURNDATASIZE DUP11 DUP3 RETURNDATACOPY RETURNDATASIZE SWAP1 REVERT JUMPDEST POP DUP1 REVERT JUMPDEST POP POP CALLVALUE PUSH2 0x5A7 JUMPI PUSH2 0x2B3 SWAP1 PUSH2 0x5C8 PUSH2 0x5C2 CALLDATASIZE PUSH2 0x149E JUMP JUMPDEST SWAP1 PUSH2 0x2026 JUMP JUMPDEST SWAP1 MLOAD SWAP2 DUP3 SWAP2 DUP3 PUSH2 0x13A1 JUMP JUMPDEST POP POP CALLVALUE PUSH2 0x5A7 JUMPI DUP2 PUSH1 0x3 NOT CALLDATASIZE ADD SLT PUSH2 0x5A7 JUMPI MLOAD PUSH32 0x0 PUSH1 0x1 PUSH1 0x1 PUSH1 0xA0 SHL SUB AND DUP2 MSTORE PUSH1 0x20 SWAP1 RETURN JUMPDEST POP DUP3 SWAP1 CALLVALUE PUSH2 0x5A7 JUMPI PUSH1 0xE0 CALLDATASIZE PUSH1 0x3 NOT ADD SLT PUSH2 0x5A7 JUMPI PUSH2 0x633 PUSH2 0x129B JUMP JUMPDEST SWAP2 PUSH2 0x63C PUSH2 0x12B1 JUMP JUMPDEST SWAP1 PUSH1 0x1 PUSH1 0x1 PUSH1 0xA0 SHL SUB SWAP1 PUSH1 0xA4 CALLDATALOAD DUP3 DUP2 AND SWAP1 DUP2 SWAP1 SUB PUSH2 0x337 JUMPI PUSH2 0x662 TIMESTAMP PUSH1 0xC4 CALLDATALOAD LT ISZERO PUSH2 0x14FF JUMP JUMPDEST DUP7 MLOAD PUSH4 0xE6A43905 PUSH1 0xE0 SHL DUP2 MSTORE PUSH1 0x1 PUSH1 0x1 PUSH1 0xA0 SHL SUB DUP1 DUP9 AND DUP8 DUP4 ADD SWAP1 DUP2 MSTORE SWAP1 DUP7 AND PUSH1 0x20 DUP3 DUP2 ADD SWAP2 SWAP1 SWAP2 MSTORE SWAP2 SWAP7 SWAP2 SWAP1 DUP8 SWAP1 DUP2 SWAP1 PUSH1 0x40 ADD SUB DUP2 DUP8 PUSH32 0x0 AND GAS STATICCALL SWAP6 DUP7 ISZERO PUSH2 0x7C5 JUMPI SWAP1 DUP9 SWAP3 SWAP2 DUP5 SWAP8 PUSH2 0x7A2 JUMPI JUMPDEST POP PUSH1 0x24 SWAP1 PUSH2 0x6E5 DUP7 DUP10 AND SWAP9 PUSH1 0x44 CALLDATALOAD SWAP1 CALLER DUP12 PUSH2 0x1554 JUMP JUMPDEST DUP5 DUP5 MLOAD SWAP9 DUP10 SWAP5 DUP6 SWAP4 PUSH4 0x226BF2D1 PUSH1 0xE2 SHL DUP6 MSTORE DUP5 ADD MSTORE GAS CALL SWAP5 DUP6 ISZERO PUSH2 0x796 JUMPI DUP2 SWAP5 DUP3 SWAP7 PUSH2 0x75C JUMPI JUMPDEST POP DUP1 DUP4 AND SWAP4 DUP1 DUP5 AND DUP6 LT ISZERO PUSH2 0x754 JUMPI POP SWAP1 JUMPDEST POP AND SUB PUSH2 0x74F JUMPI SWAP1 JUMPDEST PUSH2 0x735 PUSH1 0x64 CALLDATALOAD DUP4 LT ISZERO PUSH2 0x1661 JUMP JUMPDEST PUSH2 0x743 PUSH1 0x84 CALLDATALOAD DUP3 LT ISZERO PUSH2 0x16A5 JUMP JUMPDEST DUP3 MLOAD SWAP2 DUP3 MSTORE PUSH1 0x20 DUP3 ADD MSTORE RETURN JUMPDEST PUSH2 0x727 JUMP JUMPDEST SWAP1 POP SWAP1 PUSH2 0x71E JUMP JUMPDEST DUP8 DUP1 SWAP3 SWAP8 POP DUP2 SWAP7 POP RETURNDATASIZE DUP4 GT PUSH2 0x78F JUMPI JUMPDEST PUSH2 0x776 DUP2 DUP4 PUSH2 0x1406 JUMP JUMPDEST DUP2 ADD SUB SLT PUSH2 0x78C JUMPI PUSH1 0x20 DUP5 MLOAD SWAP5 ADD MLOAD SWAP5 DUP8 PUSH2 0x70C JUMP JUMPDEST DUP1 REVERT JUMPDEST POP RETURNDATASIZE PUSH2 0x76C JUMP JUMPDEST POP DUP6 MLOAD SWAP1 RETURNDATASIZE SWAP1 DUP3 RETURNDATACOPY RETURNDATASIZE SWAP1 REVERT JUMPDEST PUSH1 0x24 SWAP2 SWAP8 POP PUSH2 0x7BE SWAP1 PUSH1 0x20 RETURNDATASIZE DUP2 GT PUSH2 0x3E0 JUMPI PUSH2 0x3CE DUP2 DUP4 PUSH2 0x1406 JUMP JUMPDEST SWAP7 SWAP1 PUSH2 0x6CF JUMP JUMPDEST DUP9 MLOAD RETURNDATASIZE DUP6 DUP3 RETURNDATACOPY RETURNDATASIZE SWAP1 REVERT JUMPDEST POP POP CALLVALUE PUSH2 0x5A7 JUMPI PUSH1 0x20 SWAP1 PUSH2 0x7EB PUSH2 0x7E5 CALLDATASIZE PUSH2 0x1307 JUMP JUMPDEST SWAP2 PUSH2 0x1E31 JUMP JUMPDEST SWAP1 MLOAD SWAP1 DUP2 MSTORE RETURN JUMPDEST POP POP CALLVALUE PUSH2 0x5A7 JUMPI DUP2 PUSH1 0x3 NOT CALLDATASIZE ADD SLT PUSH2 0x5A7 JUMPI MLOAD PUSH32 0x0 PUSH1 0x1 PUSH1 0x1 PUSH1 0xA0 SHL SUB AND DUP2 MSTORE PUSH1 0x20 SWAP1 RETURN JUMPDEST POP SWAP1 CALLVALUE PUSH2 0x9EB JUMPI PUSH2 0x870 PUSH2 0x85F PUSH2 0x84C CALLDATASIZE PUSH2 0x1352 JUMP JUMPDEST SWAP9 SWAP4 SWAP9 SWAP7 SWAP3 SWAP6 SWAP1 SWAP7 SWAP5 SWAP2 SWAP5 TIMESTAMP GT ISZERO PUSH2 0x14FF JUMP JUMPDEST PUSH2 0x86A CALLDATASIZE DUP6 DUP8 PUSH2 0x1440 JUMP JUMPDEST SWAP1 PUSH2 0x2295 JUMP JUMPDEST SWAP6 PUSH2 0x87A DUP8 PUSH2 0x1A2A JUMP JUMPDEST MLOAD GT PUSH2 0x9AF JUMPI DUP2 ISZERO PUSH2 0x99C JUMPI PUSH1 0x1 PUSH1 0x1 PUSH1 0xA0 SHL SUB SWAP1 DUP2 PUSH2 0x899 DUP6 PUSH2 0x1AAD JUMP JUMPDEST AND SWAP2 PUSH2 0x8A4 DUP6 PUSH2 0x1AAD JUMP JUMPDEST DUP5 PUSH1 0x1 LT ISZERO PUSH2 0x989 JUMPI SWAP2 PUSH1 0x20 SWAP2 PUSH2 0x8F1 SWAP4 PUSH2 0x8C0 DUP5 DUP10 ADD PUSH2 0x1AAD JUMP JUMPDEST DUP11 MLOAD PUSH4 0xE6A43905 PUSH1 0xE0 SHL DUP2 MSTORE PUSH1 0x1 PUSH1 0x1 PUSH1 0xA0 SHL SUB SWAP3 DUP4 AND SWAP5 DUP2 ADD SWAP5 DUP6 MSTORE SWAP2 AND PUSH1 0x20 DUP5 ADD MSTORE SWAP4 DUP5 SWAP3 DUP4 SWAP2 DUP3 SWAP2 PUSH1 0x40 ADD SWAP1 JUMP JUMPDEST SUB SWAP2 PUSH32 0x0 AND GAS STATICCALL SWAP1 DUP2 ISZERO PUSH2 0x97F JUMPI PUSH2 0x957 SWAP6 SWAP5 SWAP3 PUSH2 0x951 SWAP5 SWAP3 PUSH2 0x94A SWAP3 PUSH2 0x2B3 SWAP12 SWAP2 PUSH2 0x961 JUMPI JUMPDEST POP PUSH2 0x941 DUP11 PUSH2 0x1A2A JUMP JUMPDEST MLOAD SWAP2 CALLER SWAP1 PUSH2 0x1554 JUMP JUMPDEST CALLDATASIZE SWAP2 PUSH2 0x1440 JUMP JUMPDEST DUP5 PUSH2 0x1AD0 JUMP JUMPDEST MLOAD SWAP2 DUP3 SWAP2 DUP3 PUSH2 0x13A1 JUMP JUMPDEST PUSH2 0x979 SWAP2 POP PUSH1 0x20 RETURNDATASIZE DUP2 GT PUSH2 0x3E0 JUMPI PUSH2 0x3CE DUP2 DUP4 PUSH2 0x1406 JUMP JUMPDEST CODESIZE PUSH2 0x937 JUMP JUMPDEST DUP7 MLOAD RETURNDATASIZE DUP11 DUP3 RETURNDATACOPY RETURNDATASIZE SWAP1 REVERT JUMPDEST PUSH4 0x4E487B71 PUSH1 0xE0 SHL DUP11 MSTORE PUSH1 0x32 DUP4 MSTORE PUSH1 0x24 DUP11 REVERT JUMPDEST PUSH4 0x4E487B71 PUSH1 0xE0 SHL DUP8 MSTORE PUSH1 0x32 SWAP1 MSTORE PUSH1 0x24 DUP7 REVERT JUMPDEST PUSH1 0x64 SWAP1 PUSH1 0x20 DUP7 MLOAD SWAP2 PUSH3 0x461BCD PUSH1 0xE5 SHL DUP4 MSTORE DUP3 ADD MSTORE PUSH1 0x16 PUSH1 0x24 DUP3 ADD MSTORE PUSH22 0x115610D154D4D2559157D25394155517D05353D55395 PUSH1 0x52 SHL PUSH1 0x44 DUP3 ADD MSTORE REVERT JUMPDEST DUP3 DUP1 REVERT JUMPDEST POP POP CALLVALUE PUSH2 0x5A7 JUMPI PUSH1 0x20 SWAP1 PUSH2 0x7EB PUSH2 0xA05 CALLDATASIZE PUSH2 0x1307 JUMP JUMPDEST SWAP2 PUSH2 0x1F42 JUMP JUMPDEST POP SWAP1 PUSH1 0x80 CALLDATASIZE PUSH1 0x3 NOT ADD SLT PUSH2 0x9EB JUMPI PUSH1 0x24 CALLDATALOAD PUSH8 0xFFFFFFFFFFFFFFFF DUP2 GT PUSH2 0x3A0 JUMPI PUSH2 0xA38 SWAP1 CALLDATASIZE SWAP1 DUP5 ADD PUSH2 0x1321 JUMP JUMPDEST PUSH1 0x1 PUSH1 0x1 PUSH1 0xA0 SHL SUB SWAP4 PUSH1 0x44 CALLDATALOAD SWAP3 SWAP2 SWAP1 DUP6 DUP5 AND DUP5 SUB PUSH2 0x337 JUMPI PUSH2 0xA5E TIMESTAMP PUSH1 0x64 CALLDATALOAD LT ISZERO PUSH2 0x14FF JUMP JUMPDEST DUP2 ISZERO PUSH2 0x99C JUMPI DUP6 SWAP1 PUSH2 0xA9E PUSH2 0xA72 DUP6 PUSH2 0x1AAD JUMP JUMPDEST PUSH32 0x0 DUP5 AND SWAP9 AND DUP9 EQ PUSH2 0x1D7E JUMP JUMPDEST PUSH2 0xAB2 PUSH2 0xAAC CALLDATASIZE DUP6 DUP8 PUSH2 0x1440 JUMP JUMPDEST CALLVALUE PUSH2 0x2026 JUMP JUMPDEST SWAP7 DUP8 MLOAD PUSH1 0x0 NOT DUP2 ADD SWAP1 DUP2 GT PUSH2 0xC72 JUMPI PUSH2 0xAD9 SWAP1 PUSH2 0xAD1 DUP5 CALLDATALOAD SWAP2 DUP12 PUSH2 0x1A4D JUMP JUMPDEST MLOAD LT ISZERO PUSH2 0x1A61 JUMP JUMPDEST DUP9 PUSH2 0xAE3 DUP10 PUSH2 0x1A2A JUMP JUMPDEST MLOAD DUP3 EXTCODESIZE ISZERO PUSH2 0x5A7 JUMPI DUP2 DUP5 SWAP2 DUP11 MLOAD SWAP3 DUP4 DUP1 SWAP3 PUSH4 0xD0E30DB PUSH1 0xE4 SHL DUP3 MSTORE DUP8 GAS CALL DUP1 ISZERO PUSH2 0xC68 JUMPI PUSH2 0xC50 JUMPI JUMPDEST POP POP PUSH2 0xB17 DUP6 PUSH2 0x1AAD JUMP JUMPDEST SWAP3 DUP5 PUSH1 0x1 LT ISZERO PUSH2 0x989 JUMPI PUSH2 0xB68 SWAP1 PUSH1 0x20 SWAP5 DUP6 SWAP2 PUSH2 0xB35 DUP4 DUP11 ADD PUSH2 0x1AAD JUMP JUMPDEST DUP12 MLOAD PUSH4 0xE6A43905 PUSH1 0xE0 SHL DUP2 MSTORE PUSH1 0x1 PUSH1 0x1 PUSH1 0xA0 SHL SUB SWAP4 DUP5 AND DUP9 DUP3 ADD SWAP1 DUP2 MSTORE SWAP4 SWAP1 SWAP2 AND PUSH1 0x20 DUP5 ADD MSTORE SWAP4 DUP5 SWAP3 DUP4 SWAP2 DUP3 SWAP2 PUSH1 0x40 ADD SWAP1 JUMP JUMPDEST SUB SWAP2 PUSH32 0x0 AND GAS STATICCALL SWAP1 DUP2 ISZERO PUSH2 0xC46 JUMPI SWAP2 PUSH2 0xBE1 SWAP4 SWAP2 DUP6 SWAP4 DUP13 SWAP2 PUSH2 0xC29 JUMPI JUMPDEST POP DUP12 PUSH2 0xBAF DUP13 PUSH2 0x1A2A JUMP JUMPDEST MLOAD DUP12 MLOAD PUSH4 0xA9059CBB PUSH1 0xE0 SHL DUP2 MSTORE PUSH1 0x1 PUSH1 0x1 PUSH1 0xA0 SHL SUB SWAP1 SWAP4 AND SWAP5 DUP4 ADD SWAP5 DUP6 MSTORE PUSH1 0x20 DUP6 ADD MSTORE SWAP1 SWAP5 DUP6 SWAP4 DUP5 SWAP3 SWAP2 DUP4 SWAP2 PUSH1 0x40 ADD SWAP1 JUMP JUMPDEST SUB SWAP3 GAS CALL SWAP2 DUP3 ISZERO PUSH2 0x97F JUMPI PUSH2 0x957 SWAP6 SWAP5 SWAP3 PUSH2 0x951 SWAP5 SWAP3 PUSH2 0x94A SWAP3 PUSH2 0x2B3 SWAP12 SWAP3 PUSH2 0xC0C JUMPI JUMPDEST POP POP PUSH2 0x14E2 JUMP JUMPDEST PUSH2 0xC22 SWAP3 POP DUP1 RETURNDATASIZE LT PUSH2 0x375 JUMPI PUSH2 0x367 DUP2 DUP4 PUSH2 0x1406 JUMP JUMPDEST CODESIZE DUP1 PUSH2 0xC05 JUMP JUMPDEST PUSH2 0xC40 SWAP2 POP DUP5 RETURNDATASIZE DUP7 GT PUSH2 0x3E0 JUMPI PUSH2 0x3CE DUP2 DUP4 PUSH2 0x1406 JUMP JUMPDEST CODESIZE PUSH2 0xBA4 JUMP JUMPDEST DUP9 MLOAD RETURNDATASIZE DUP13 DUP3 RETURNDATACOPY RETURNDATASIZE SWAP1 REVERT JUMPDEST PUSH2 0xC59 SWAP1 PUSH2 0x13DC JUMP JUMPDEST PUSH2 0xC64 JUMPI DUP9 CODESIZE PUSH2 0xB0C JUMP JUMPDEST DUP9 DUP1 REVERT JUMPDEST DUP10 MLOAD RETURNDATASIZE DUP5 DUP3 RETURNDATACOPY RETURNDATASIZE SWAP1 REVERT JUMPDEST PUSH4 0x4E487B71 PUSH1 0xE0 SHL DUP11 MSTORE PUSH1 0x11 DUP4 MSTORE PUSH1 0x24 DUP11 REVERT JUMPDEST POP POP CALLVALUE PUSH2 0x5A7 JUMPI PUSH1 0x60 CALLDATASIZE PUSH1 0x3 NOT ADD SLT PUSH2 0x5A7 JUMPI PUSH2 0x2B3 SWAP1 PUSH2 0xCB8 PUSH2 0xCA7 PUSH2 0x129B JUMP JUMPDEST PUSH2 0xCAF PUSH2 0x12B1 JUMP JUMPDEST PUSH1 0x44 CALLDATALOAD SWAP2 PUSH2 0x24EA JUMP JUMPDEST SWAP3 MLOAD SWAP2 DUP3 MSTORE PUSH1 0x20 DUP3 ADD MSTORE PUSH1 0x40 DUP2 ADD SWAP2 SWAP1 SWAP2 MSTORE SWAP1 DUP2 SWAP1 PUSH1 0x60 DUP3 ADD SWAP1 JUMP JUMPDEST POP SWAP1 CALLVALUE PUSH2 0x9EB JUMPI PUSH2 0xCF5 PUSH2 0xCEA PUSH2 0x84C CALLDATASIZE PUSH2 0x1352 JUMP JUMPDEST PUSH2 0x5C2 CALLDATASIZE DUP6 DUP8 PUSH2 0x1440 JUMP JUMPDEST SWAP6 DUP7 MLOAD PUSH1 0x0 NOT DUP2 ADD SWAP1 DUP2 GT PUSH2 0xD2B JUMPI SWAP1 PUSH2 0xAD1 PUSH2 0xD12 SWAP3 DUP10 PUSH2 0x1A4D JUMP JUMPDEST DUP2 ISZERO PUSH2 0x99C JUMPI PUSH1 0x1 PUSH1 0x1 PUSH1 0xA0 SHL SUB SWAP1 DUP2 PUSH2 0x899 DUP6 PUSH2 0x1AAD JUMP JUMPDEST PUSH4 0x4E487B71 PUSH1 0xE0 SHL DUP10 MSTORE PUSH1 0x11 DUP4 MSTORE PUSH1 0x24 DUP10 REVERT JUMPDEST POP POP CALLVALUE PUSH2 0x5A7 JUMPI PUSH2 0x2B3 SWAP1 PUSH2 0x5C8 PUSH2 0x86A CALLDATASIZE PUSH2 0x149E JUMP JUMPDEST POP SWAP1 CALLVALUE PUSH2 0x9EB JUMPI PUSH2 0xD7A SWAP2 SWAP3 PUSH2 0xD6A CALLDATASIZE PUSH2 0x1352 JUMP JUMPDEST SWAP8 SWAP1 SWAP5 SWAP4 SWAP8 SWAP3 SWAP2 SWAP3 TIMESTAMP GT ISZERO PUSH2 0x14FF JUMP JUMPDEST PUSH1 0x0 NOT SWAP3 DUP3 DUP5 ADD DUP4 DUP2 GT PUSH2 0x1006 JUMPI DUP4 DUP2 LT ISZERO PUSH2 0xFF1 JUMPI SWAP1 PUSH2 0xDEA PUSH2 0xDA7 PUSH2 0xDDF SWAP6 SWAP5 SWAP4 PUSH1 0x5 SHL DUP5 ADD PUSH2 0x1AAD JUMP JUMPDEST PUSH1 0x1 PUSH1 0x1 PUSH1 0xA0 SHL SUB PUSH32 0x0 DUP2 AND SWAP7 SWAP1 SWAP4 SWAP2 DUP5 AND DUP8 EQ PUSH2 0x1D7E JUMP JUMPDEST PUSH2 0x5C2 CALLDATASIZE DUP7 DUP7 PUSH2 0x1440 JUMP JUMPDEST SWAP9 DUP10 MLOAD DUP7 DUP2 ADD SWAP1 DUP2 GT PUSH2 0xFDE JUMPI SWAP1 PUSH2 0xAD1 PUSH2 0xE05 SWAP3 DUP13 PUSH2 0x1A4D JUMP JUMPDEST DUP3 ISZERO PUSH2 0xFCB JUMPI DUP1 PUSH2 0xE15 DUP4 PUSH2 0x1AAD JUMP JUMPDEST AND SWAP1 PUSH2 0xE20 DUP4 PUSH2 0x1AAD JUMP JUMPDEST DUP5 PUSH1 0x1 LT ISZERO PUSH2 0xFB8 JUMPI DUP12 PUSH2 0xE6D SWAP3 PUSH1 0x20 SWAP3 PUSH2 0xE3C DUP5 DUP9 ADD PUSH2 0x1AAD JUMP JUMPDEST DUP14 MLOAD PUSH4 0xE6A43905 PUSH1 0xE0 SHL DUP2 MSTORE PUSH1 0x1 PUSH1 0x1 PUSH1 0xA0 SHL SUB SWAP3 DUP4 AND SWAP5 DUP2 ADD SWAP5 DUP6 MSTORE SWAP2 AND PUSH1 0x20 DUP5 ADD MSTORE SWAP4 DUP5 SWAP3 DUP4 SWAP2 DUP3 SWAP2 PUSH1 0x40 ADD SWAP1 JUMP JUMPDEST SUB SWAP2 PUSH32 0x0 AND GAS STATICCALL SWAP1 DUP2 ISZERO PUSH2 0xFAE JUMPI PUSH2 0xEC2 SWAP3 PUSH2 0xEC8 SWAP6 SWAP5 SWAP3 PUSH2 0xEB9 SWAP3 DUP12 SWAP2 PUSH2 0xF90 JUMPI JUMPDEST POP PUSH2 0x941 DUP14 PUSH2 0x1A2A JUMP JUMPDEST ADDRESS SWAP3 CALLDATASIZE SWAP2 PUSH2 0x1440 JUMP JUMPDEST DUP9 PUSH2 0x1AD0 JUMP JUMPDEST DUP6 MLOAD DUP3 DUP2 ADD SWAP1 DUP2 GT PUSH2 0xF7D JUMPI PUSH2 0xEDE SWAP1 DUP8 PUSH2 0x1A4D JUMP JUMPDEST MLOAD DUP2 EXTCODESIZE ISZERO PUSH2 0xF79 JUMPI DUP5 SWAP2 PUSH1 0x24 DUP4 SWAP3 DUP9 MLOAD SWAP5 DUP6 SWAP4 DUP5 SWAP3 PUSH4 0x2E1A7D4D PUSH1 0xE0 SHL DUP5 MSTORE DUP14 DUP5 ADD MSTORE GAS CALL DUP1 ISZERO PUSH2 0xF6F JUMPI SWAP1 DUP5 SWAP2 PUSH2 0xF5B JUMPI JUMPDEST POP POP DUP5 MLOAD SWAP1 DUP2 ADD SWAP1 DUP2 GT PUSH2 0xF48 JUMPI PUSH2 0x2B3 SWAP6 POP SWAP2 DUP1 DUP1 DUP1 SWAP4 PUSH2 0xF36 PUSH2 0x957 SWAP7 DUP10 PUSH2 0x1A4D JUMP JUMPDEST MLOAD SWAP1 GAS CALL PUSH2 0xF42 PUSH2 0x19A8 JUMP JUMPDEST POP PUSH2 0x19E8 JUMP JUMPDEST PUSH4 0x4E487B71 PUSH1 0xE0 SHL DUP4 MSTORE PUSH1 0x11 DUP7 MSTORE PUSH1 0x24 DUP4 REVERT JUMPDEST PUSH2 0xF64 SWAP1 PUSH2 0x13DC JUMP JUMPDEST PUSH2 0x9EB JUMPI DUP3 CODESIZE PUSH2 0xF11 JUMP JUMPDEST DUP6 MLOAD RETURNDATASIZE DUP7 DUP3 RETURNDATACOPY RETURNDATASIZE SWAP1 REVERT JUMPDEST DUP5 DUP1 REVERT JUMPDEST PUSH4 0x4E487B71 PUSH1 0xE0 SHL DUP6 MSTORE PUSH1 0x11 DUP9 MSTORE PUSH1 0x24 DUP6 REVERT JUMPDEST PUSH2 0xFA8 SWAP2 POP PUSH1 0x20 RETURNDATASIZE DUP2 GT PUSH2 0x3E0 JUMPI PUSH2 0x3CE DUP2 DUP4 PUSH2 0x1406 JUMP JUMPDEST CODESIZE PUSH2 0xEAF JUMP JUMPDEST DUP10 MLOAD RETURNDATASIZE DUP11 DUP3 RETURNDATACOPY RETURNDATASIZE SWAP1 REVERT JUMPDEST PUSH4 0x4E487B71 PUSH1 0xE0 SHL DUP10 MSTORE PUSH1 0x32 DUP13 MSTORE PUSH1 0x24 DUP10 REVERT JUMPDEST PUSH4 0x4E487B71 PUSH1 0xE0 SHL DUP8 MSTORE PUSH1 0x32 DUP11 MSTORE PUSH1 0x24 DUP8 REVERT JUMPDEST PUSH4 0x4E487B71 PUSH1 0xE0 SHL DUP10 MSTORE PUSH1 0x11 DUP13 MSTORE PUSH1 0x24 DUP10 REVERT JUMPDEST PUSH1 0x32 DUP11 PUSH4 0x4E487B71 PUSH1 0xE0 SHL PUSH1 0x0 MSTORE MSTORE PUSH1 0x24 PUSH1 0x0 REVERT JUMPDEST PUSH4 0x4E487B71 PUSH1 0xE0 SHL DUP8 MSTORE PUSH1 0x11 DUP11 MSTORE PUSH1 0x24 DUP8 REVERT JUMPDEST POP POP CALLVALUE PUSH2 0x5A7 JUMPI PUSH1 0x20 SWAP1 PUSH2 0x7EB PUSH2 0x102F CALLDATASIZE PUSH2 0x1307 JUMP JUMPDEST SWAP2 PUSH2 0x1E9F JUMP JUMPDEST POP DUP3 SWAP1 CALLVALUE PUSH2 0x5A7 JUMPI PUSH2 0x1046 CALLDATASIZE PUSH2 0x12C7 JUMP JUMPDEST SWAP7 SWAP4 SWAP5 SWAP2 SWAP7 SWAP6 SWAP1 SWAP3 SWAP6 TIMESTAMP GT ISZERO PUSH2 0x105B DUP2 PUSH2 0x14FF JUMP JUMPDEST PUSH2 0x1085 PUSH32 0x0 SWAP2 PUSH2 0x14FF JUMP JUMPDEST DUP9 MLOAD PUSH4 0xE6A43905 PUSH1 0xE0 SHL DUP2 MSTORE PUSH1 0x1 PUSH1 0x1 PUSH1 0xA0 SHL SUB DUP5 DUP2 AND DUP5 DUP4 ADD SWAP1 DUP2 MSTORE DUP4 DUP3 AND PUSH1 0x20 DUP1 DUP4 ADD SWAP2 SWAP1 SWAP2 MSTORE SWAP2 SWAP11 SWAP2 SWAP9 SWAP2 SWAP3 SWAP2 SWAP1 DUP10 SWAP1 DUP4 SWAP1 DUP2 SWAP1 SUB PUSH1 0x40 ADD DUP2 PUSH32 0x0 DUP16 AND GAS STATICCALL SWAP2 DUP3 ISZERO PUSH2 0x1291 JUMPI SWAP2 DUP13 SWAP2 DUP10 SWAP4 DUP5 SWAP3 PUSH2 0x126E JUMPI JUMPDEST POP PUSH2 0x1109 SWAP1 DUP14 DUP4 AND SWAP3 CALLER DUP5 PUSH2 0x1554 JUMP JUMPDEST PUSH1 0x24 DUP3 MLOAD DUP1 SWAP5 DUP2 SWAP4 PUSH4 0x226BF2D1 PUSH1 0xE2 SHL DUP4 MSTORE ADDRESS DUP11 DUP5 ADD MSTORE GAS CALL SWAP10 DUP11 ISZERO PUSH2 0x1264 JUMPI DUP8 SWAP2 DUP9 SWAP12 PUSH2 0x122A JUMPI JUMPDEST POP DUP4 DUP2 AND SWAP6 DUP1 DUP3 AND SWAP5 DUP8 DUP7 LT ISZERO PUSH2 0x1223 JUMPI POP JUMPDEST AND DUP4 SUB PUSH2 0x1210 JUMPI PUSH2 0x11A3 SWAP3 SWAP2 PUSH2 0x1163 PUSH2 0x116B SWAP3 SWAP12 SWAP11 JUMPDEST DUP13 LT ISZERO PUSH2 0x1661 JUMP JUMPDEST DUP10 LT ISZERO PUSH2 0x16A5 JUMP JUMPDEST DUP10 MLOAD PUSH4 0xA9059CBB PUSH1 0xE0 SHL DUP9 DUP3 ADD MSTORE PUSH1 0x1 PUSH1 0x1 PUSH1 0xA0 SHL SUB DUP7 AND PUSH1 0x24 DUP3 ADD MSTORE PUSH1 0x44 DUP1 DUP3 ADD DUP12 SWAP1 MSTORE DUP2 MSTORE SWAP1 PUSH2 0x119E PUSH1 0x64 DUP4 PUSH2 0x1406 JUMP JUMPDEST PUSH2 0x15AF JUMP JUMPDEST DUP2 EXTCODESIZE ISZERO PUSH2 0x3A0 JUMPI DUP6 PUSH1 0x24 DUP6 SWAP3 DUP4 DUP12 MLOAD SWAP6 DUP7 SWAP5 DUP6 SWAP4 PUSH4 0x2E1A7D4D PUSH1 0xE0 SHL DUP6 MSTORE DUP5 ADD MSTORE GAS CALL DUP1 ISZERO PUSH2 0x1206 JUMPI SWAP2 PUSH2 0x11E9 SWAP4 SWAP2 DUP7 SWAP4 PUSH2 0x11F3 JUMPI JUMPDEST POP DUP2 DUP1 SWAP4 DUP2 SWAP3 GAS CALL PUSH2 0xF42 PUSH2 0x19A8 JUMP JUMPDEST DUP4 MLOAD SWAP3 DUP4 MSTORE DUP3 ADD MSTORE RETURN JUMPDEST PUSH2 0x11FF SWAP1 SWAP3 SWAP2 SWAP3 PUSH2 0x13DC JUMP JUMPDEST SWAP1 DUP9 PUSH2 0x11D9 JUMP JUMPDEST DUP8 MLOAD RETURNDATASIZE DUP6 DUP3 RETURNDATACOPY RETURNDATASIZE SWAP1 REVERT JUMPDEST SWAP8 PUSH2 0x11A3 SWAP3 SWAP2 PUSH2 0x116B SWAP2 PUSH2 0x1163 SWAP1 PUSH2 0x115B JUMP JUMPDEST SWAP1 POP PUSH2 0x1145 JUMP JUMPDEST DUP13 DUP1 SWAP3 SWAP13 POP DUP2 SWAP4 POP RETURNDATASIZE DUP4 GT PUSH2 0x125D JUMPI JUMPDEST PUSH2 0x1244 DUP2 DUP4 PUSH2 0x1406 JUMP JUMPDEST DUP2 ADD SUB SLT PUSH2 0x1259 JUMPI DUP8 DUP2 MLOAD SWAP2 ADD MLOAD SWAP10 DUP13 PUSH2 0x1132 JUMP JUMPDEST DUP7 DUP1 REVERT JUMPDEST POP RETURNDATASIZE PUSH2 0x123A JUMP JUMPDEST DUP12 MLOAD RETURNDATASIZE DUP10 DUP3 RETURNDATACOPY RETURNDATASIZE SWAP1 REVERT JUMPDEST PUSH2 0x1109 SWAP2 SWAP3 POP PUSH2 0x128A SWAP1 DUP13 DUP14 RETURNDATASIZE LT PUSH2 0x3E0 JUMPI PUSH2 0x3CE DUP2 DUP4 PUSH2 0x1406 JUMP JUMPDEST SWAP2 SWAP1 PUSH2 0x10F9 JUMP JUMPDEST DUP13 MLOAD RETURNDATASIZE DUP11 DUP3 RETURNDATACOPY RETURNDATASIZE SWAP1 REVERT JUMPDEST PUSH1 0x4 CALLDATALOAD SWAP1 PUSH1 0x1 PUSH1 0x1 PUSH1 0xA0 SHL SUB DUP3 AND DUP3 SUB PUSH2 0x337 JUMPI JUMP JUMPDEST PUSH1 0x24 CALLDATALOAD SWAP1 PUSH1 0x1 PUSH1 0x1 PUSH1 0xA0 SHL SUB DUP3 AND DUP3 SUB PUSH2 0x337 JUMPI JUMP JUMPDEST PUSH1 0xC0 SWAP1 PUSH1 0x3 NOT ADD SLT PUSH2 0x337 JUMPI PUSH1 0x1 PUSH1 0x1 PUSH1 0xA0 SHL SUB PUSH1 0x4 CALLDATALOAD DUP2 DUP2 AND DUP2 SUB PUSH2 0x337 JUMPI SWAP2 PUSH1 0x24 CALLDATALOAD SWAP2 PUSH1 0x44 CALLDATALOAD SWAP2 PUSH1 0x64 CALLDATALOAD SWAP2 PUSH1 0x84 CALLDATALOAD SWAP1 DUP2 AND DUP2 SUB PUSH2 0x337 JUMPI SWAP1 PUSH1 0xA4 CALLDATALOAD SWAP1 JUMP JUMPDEST PUSH1 0x60 SWAP1 PUSH1 0x3 NOT ADD SLT PUSH2 0x337 JUMPI PUSH1 0x4 CALLDATALOAD SWAP1 PUSH1 0x24 CALLDATALOAD SWAP1 PUSH1 0x44 CALLDATALOAD SWAP1 JUMP JUMPDEST SWAP2 DUP2 PUSH1 0x1F DUP5 ADD SLT ISZERO PUSH2 0x337 JUMPI DUP3 CALLDATALOAD SWAP2 PUSH8 0xFFFFFFFFFFFFFFFF DUP4 GT PUSH2 0x337 JUMPI PUSH1 0x20 DUP1 DUP6 ADD SWAP5 DUP5 PUSH1 0x5 SHL ADD ADD GT PUSH2 0x337 JUMPI JUMP JUMPDEST PUSH1 0xA0 PUSH1 0x3 NOT DUP3 ADD SLT PUSH2 0x337 JUMPI PUSH1 0x4 CALLDATALOAD SWAP2 PUSH1 0x24 CALLDATALOAD SWAP2 PUSH1 0x44 CALLDATALOAD SWAP1 PUSH8 0xFFFFFFFFFFFFFFFF DUP3 GT PUSH2 0x337 JUMPI PUSH2 0x1385 SWAP2 PUSH1 0x4 ADD PUSH2 0x1321 JUMP JUMPDEST SWAP1 SWAP2 PUSH1 0x64 CALLDATALOAD PUSH1 0x1 PUSH1 0x1 PUSH1 0xA0 SHL SUB DUP2 AND DUP2 SUB PUSH2 0x337 JUMPI SWAP1 PUSH1 0x84 CALLDATALOAD SWAP1 JUMP JUMPDEST PUSH1 0x20 SWAP1 DUP2 PUSH1 0x40 DUP2 DUP4 ADD SWAP3 DUP3 DUP2 MSTORE DUP6 MLOAD DUP1 SWAP5 MSTORE ADD SWAP4 ADD SWAP2 PUSH1 0x0 JUMPDEST DUP3 DUP2 LT PUSH2 0x13C8 JUMPI POP POP POP POP SWAP1 JUMP JUMPDEST DUP4 MLOAD DUP6 MSTORE SWAP4 DUP2 ADD SWAP4 SWAP3 DUP2 ADD SWAP3 PUSH1 0x1 ADD PUSH2 0x13BA JUMP JUMPDEST PUSH8 0xFFFFFFFFFFFFFFFF DUP2 GT PUSH2 0x13F0 JUMPI PUSH1 0x40 MSTORE JUMP JUMPDEST PUSH4 0x4E487B71 PUSH1 0xE0 SHL PUSH1 0x0 MSTORE PUSH1 0x41 PUSH1 0x4 MSTORE PUSH1 0x24 PUSH1 0x0 REVERT JUMPDEST SWAP1 PUSH1 0x1F DUP1 NOT SWAP2 ADD AND DUP2 ADD SWAP1 DUP2 LT PUSH8 0xFFFFFFFFFFFFFFFF DUP3 GT OR PUSH2 0x13F0 JUMPI PUSH1 0x40 MSTORE JUMP JUMPDEST PUSH8 0xFFFFFFFFFFFFFFFF DUP2 GT PUSH2 0x13F0 JUMPI PUSH1 0x5 SHL PUSH1 0x20 ADD SWAP1 JUMP JUMPDEST SWAP3 SWAP2 PUSH2 0x144B DUP3 PUSH2 0x1428 JUMP JUMPDEST SWAP2 PUSH2 0x1459 PUSH1 0x40 MLOAD SWAP4 DUP5 PUSH2 0x1406 JUMP JUMPDEST DUP3 SWAP5 DUP2 DUP5 MSTORE PUSH1 0x20 DUP1 SWAP5 ADD SWAP2 PUSH1 0x5 SHL DUP2 ADD SWAP3 DUP4 GT PUSH2 0x337 JUMPI SWAP1 JUMPDEST DUP3 DUP3 LT PUSH2 0x147F JUMPI POP POP POP POP JUMP JUMPDEST DUP2 CALLDATALOAD PUSH1 0x1 PUSH1 0x1 PUSH1 0xA0 SHL SUB DUP2 AND DUP2 SUB PUSH2 0x337 JUMPI DUP2 MSTORE SWAP1 DUP4 ADD SWAP1 DUP4 ADD PUSH2 0x1472 JUMP JUMPDEST SWAP1 PUSH1 0x40 PUSH1 0x3 NOT DUP4 ADD SLT PUSH2 0x337 JUMPI PUSH1 0x4 CALLDATALOAD SWAP2 PUSH1 0x24 CALLDATALOAD SWAP1 PUSH8 0xFFFFFFFFFFFFFFFF DUP3 GT PUSH2 0x337 JUMPI DUP1 PUSH1 0x23 DUP4 ADD SLT ISZERO PUSH2 0x337 JUMPI DUP2 PUSH1 0x24 PUSH2 0x14DF SWAP4 PUSH1 0x4 ADD CALLDATALOAD SWAP2 ADD PUSH2 0x1440 JUMP JUMPDEST SWAP1 JUMP JUMPDEST ISZERO PUSH2 0x14E9 JUMPI JUMP JUMPDEST PUSH4 0x4E487B71 PUSH1 0xE0 SHL PUSH1 0x0 MSTORE PUSH1 0x1 PUSH1 0x4 MSTORE PUSH1 0x24 PUSH1 0x0 REVERT JUMPDEST ISZERO PUSH2 0x1506 JUMPI JUMP JUMPDEST PUSH1 0x40 MLOAD PUSH3 0x461BCD PUSH1 0xE5 SHL DUP2 MSTORE PUSH1 0x20 PUSH1 0x4 DUP3 ADD MSTORE PUSH1 0x7 PUSH1 0x24 DUP3 ADD MSTORE PUSH7 0x11561412549151 PUSH1 0xCA SHL PUSH1 0x44 DUP3 ADD MSTORE PUSH1 0x64 SWAP1 REVERT JUMPDEST SWAP1 DUP2 PUSH1 0x20 SWAP2 SUB SLT PUSH2 0x337 JUMPI MLOAD PUSH1 0x1 PUSH1 0x1 PUSH1 0xA0 SHL SUB DUP2 AND DUP2 SUB PUSH2 0x337 JUMPI SWAP1 JUMP JUMPDEST PUSH1 0x40 MLOAD PUSH4 0x23B872DD PUSH1 0xE0 SHL PUSH1 0x20 DUP3 ADD MSTORE PUSH1 0x1 PUSH1 0x1 PUSH1 0xA0 SHL SUB SWAP3 DUP4 AND PUSH1 0x24 DUP3 ADD MSTORE SWAP3 SWAP1 SWAP2 AND PUSH1 0x44 DUP4 ADD MSTORE PUSH1 0x64 DUP1 DUP4 ADD SWAP4 SWAP1 SWAP4 MSTORE SWAP2 DUP2 MSTORE PUSH1 0xA0 DUP2 ADD SWAP2 DUP2 DUP4 LT PUSH8 0xFFFFFFFFFFFFFFFF DUP5 GT OR PUSH2 0x13F0 JUMPI PUSH2 0x15AD SWAP3 PUSH1 0x40 MSTORE PUSH2 0x15AF JUMP JUMPDEST JUMP JUMPDEST SWAP1 PUSH1 0x0 PUSH1 0x20 SWAP2 DUP3 DUP2 MLOAD SWAP2 ADD DUP3 DUP6 GAS CALL ISZERO PUSH2 0x160B JUMPI PUSH1 0x0 MLOAD RETURNDATASIZE PUSH2 0x1602 JUMPI POP PUSH1 0x1 PUSH1 0x1 PUSH1 0xA0 SHL SUB DUP2 AND EXTCODESIZE ISZERO JUMPDEST PUSH2 0x15E0 JUMPI POP JUMP JUMPDEST PUSH1 0x40 MLOAD PUSH4 0x5274AFE7 PUSH1 0xE0 SHL DUP2 MSTORE PUSH1 0x1 PUSH1 0x1 PUSH1 0xA0 SHL SUB SWAP1 SWAP2 AND PUSH1 0x4 DUP3 ADD MSTORE PUSH1 0x24 SWAP1 REVERT JUMPDEST PUSH1 0x1 EQ ISZERO PUSH2 0x15D9 JUMP JUMPDEST PUSH1 0x40 MLOAD RETURNDATASIZE PUSH1 0x0 DUP3 RETURNDATACOPY RETURNDATASIZE SWAP1 REVERT JUMPDEST MLOAD SWAP1 PUSH1 0x1 PUSH1 0x1 PUSH1 0x70 SHL SUB DUP3 AND DUP3 SUB PUSH2 0x337 JUMPI JUMP JUMPDEST SWAP1 DUP2 PUSH1 0x60 SWAP2 SUB SLT PUSH2 0x337 JUMPI PUSH2 0x163F DUP2 PUSH2 0x1617 JUMP JUMPDEST SWAP2 PUSH1 0x40 PUSH2 0x164E PUSH1 0x20 DUP5 ADD PUSH2 0x1617 JUMP JUMPDEST SWAP3 ADD MLOAD PUSH4 0xFFFFFFFF DUP2 AND DUP2 SUB PUSH2 0x337 JUMPI SWAP1 JUMP JUMPDEST ISZERO PUSH2 0x1668 JUMPI JUMP JUMPDEST PUSH1 0x40 MLOAD PUSH3 0x461BCD PUSH1 0xE5 SHL DUP2 MSTORE PUSH1 0x20 PUSH1 0x4 DUP3 ADD MSTORE PUSH1 0x15 PUSH1 0x24 DUP3 ADD MSTORE PUSH21 0x125394D551919250D251539517D057D05353D55395 PUSH1 0x5A SHL PUSH1 0x44 DUP3 ADD MSTORE PUSH1 0x64 SWAP1 REVERT JUMPDEST ISZERO PUSH2 0x16AC JUMPI JUMP JUMPDEST PUSH1 0x40 MLOAD PUSH3 0x461BCD PUSH1 0xE5 SHL DUP2 MSTORE PUSH1 0x20 PUSH1 0x4 DUP3 ADD MSTORE PUSH1 0x15 PUSH1 0x24 DUP3 ADD MSTORE PUSH21 0x125394D551919250D251539517D097D05353D55395 PUSH1 0x5A SHL PUSH1 0x44 DUP3 ADD MSTORE PUSH1 0x64 SWAP1 REVERT JUMPDEST PUSH1 0x40 DUP1 MLOAD PUSH4 0xE6A43905 PUSH1 0xE0 SHL DUP1 DUP3 MSTORE PUSH1 0x1 PUSH1 0x1 PUSH1 0xA0 SHL SUB DUP5 DUP2 AND PUSH1 0x4 DUP5 ADD MSTORE DUP6 DUP2 AND PUSH1 0x24 DUP5 ADD MSTORE SWAP6 SWAP9 SWAP7 SWAP8 SWAP3 SWAP7 SWAP6 SWAP3 SWAP5 SWAP3 SWAP4 SWAP2 PUSH1 0x20 SWAP2 PUSH32 0x0 DUP7 AND SWAP2 DUP4 DUP2 PUSH1 0x44 DUP2 DUP7 GAS STATICCALL SWAP1 DUP2 ISZERO PUSH2 0x1945 JUMPI DUP5 SWAP3 SWAP2 DUP9 SWAP2 PUSH1 0x0 SWAP2 PUSH2 0x1950 JUMPI JUMPDEST POP AND ISZERO PUSH2 0x18E3 JUMPI JUMPDEST DUP10 MLOAD SWAP1 DUP2 MSTORE PUSH1 0x1 PUSH1 0x1 PUSH1 0xA0 SHL SUB DUP6 DUP2 AND PUSH1 0x4 DUP4 ADD MSTORE DUP7 AND PUSH1 0x24 DUP3 ADD MSTORE SWAP2 DUP3 SWAP1 PUSH1 0x44 SWAP1 DUP3 SWAP1 GAS STATICCALL SWAP2 DUP3 ISZERO PUSH2 0x18D8 JUMPI SWAP2 PUSH1 0x60 SWAP2 DUP7 SWAP5 SWAP4 PUSH1 0x0 SWAP3 PUSH2 0x18BB JUMPI JUMPDEST POP POP PUSH1 0x4 DUP10 MLOAD DUP1 SWAP8 DUP2 SWAP4 PUSH4 0x240BC6B PUSH1 0xE2 SHL DUP4 MSTORE AND GAS STATICCALL SWAP7 DUP8 ISZERO PUSH2 0x18B1 JUMPI POP PUSH1 0x0 SWAP4 DUP5 SWAP8 PUSH2 0x187A JUMPI JUMPDEST POP DUP1 DUP3 AND SWAP3 DUP1 DUP4 AND DUP5 LT ISZERO PUSH2 0x1873 JUMPI POP JUMPDEST AND SUB PUSH2 0x1861 JUMPI PUSH1 0x1 PUSH1 0x1 PUSH1 0x70 SHL SUB SWAP4 DUP5 AND SWAP4 AND JUMPDEST DUP1 ISZERO DUP1 PUSH2 0x1859 JUMPI JUMPDEST ISZERO PUSH2 0x1806 JUMPI POP POP POP POP SWAP1 SWAP2 JUMP JUMPDEST PUSH2 0x1815 DUP5 DUP3 DUP9 SWAP8 SWAP6 SWAP7 SWAP8 PUSH2 0x1E31 JUMP JUMPDEST SWAP5 DUP4 DUP7 GT PUSH2 0x1831 JUMPI POP POP POP POP PUSH2 0x182D SWAP1 DUP3 LT ISZERO PUSH2 0x16A5 JUMP JUMPDEST SWAP1 SWAP2 JUMP JUMPDEST DUP4 SWAP6 POP PUSH2 0x182D SWAP5 POP SWAP1 PUSH2 0x1848 SWAP2 PUSH2 0x1851 SWAP4 SWAP5 PUSH2 0x1E31 JUMP JUMPDEST SWAP5 DUP6 GT ISZERO PUSH2 0x14E2 JUMP JUMPDEST DUP4 LT ISZERO PUSH2 0x1661 JUMP JUMPDEST POP DUP4 ISZERO PUSH2 0x17F9 JUMP JUMPDEST PUSH1 0x1 PUSH1 0x1 PUSH1 0x70 SHL SUB SWAP1 DUP2 AND SWAP4 AND PUSH2 0x17F1 JUMP JUMPDEST SWAP1 POP PUSH2 0x17DD JUMP JUMPDEST SWAP1 SWAP7 POP PUSH2 0x189F SWAP2 SWAP4 POP PUSH1 0x60 RETURNDATASIZE DUP2 GT PUSH2 0x18AA JUMPI JUMPDEST PUSH2 0x1897 DUP2 DUP4 PUSH2 0x1406 JUMP JUMPDEST DUP2 ADD SWAP1 PUSH2 0x162B JUMP JUMPDEST POP SWAP3 SWAP1 SWAP3 SWAP6 CODESIZE PUSH2 0x17CC JUMP JUMPDEST POP RETURNDATASIZE PUSH2 0x188D JUMP JUMPDEST MLOAD RETURNDATASIZE PUSH1 0x0 DUP3 RETURNDATACOPY RETURNDATASIZE SWAP1 REVERT JUMPDEST PUSH2 0x18D1 SWAP3 POP DUP1 RETURNDATASIZE LT PUSH2 0x3E0 JUMPI PUSH2 0x3CE DUP2 DUP4 PUSH2 0x1406 JUMP JUMPDEST CODESIZE DUP1 PUSH2 0x17A3 JUMP JUMPDEST DUP9 MLOAD RETURNDATASIZE PUSH1 0x0 DUP3 RETURNDATACOPY RETURNDATASIZE SWAP1 REVERT JUMPDEST DUP10 MLOAD PUSH4 0x64E329CB PUSH1 0xE1 SHL DUP2 MSTORE PUSH1 0x1 PUSH1 0x1 PUSH1 0xA0 SHL SUB DUP7 DUP2 AND PUSH1 0x4 DUP4 ADD MSTORE DUP8 AND PUSH1 0x24 DUP3 ADD MSTORE SWAP1 SWAP2 POP DUP4 DUP2 PUSH1 0x44 DUP2 PUSH1 0x0 DUP8 GAS CALL DUP1 ISZERO PUSH2 0x1945 JUMPI SWAP1 DUP5 SWAP3 SWAP2 PUSH2 0x1928 JUMPI JUMPDEST POP PUSH2 0x1767 JUMP JUMPDEST PUSH2 0x193E SWAP1 DUP4 RETURNDATASIZE DUP6 GT PUSH2 0x3E0 JUMPI PUSH2 0x3CE DUP2 DUP4 PUSH2 0x1406 JUMP JUMPDEST POP CODESIZE PUSH2 0x1922 JUMP JUMPDEST DUP11 MLOAD RETURNDATASIZE PUSH1 0x0 DUP3 RETURNDATACOPY RETURNDATASIZE SWAP1 REVERT JUMPDEST PUSH2 0x1967 SWAP2 POP DUP5 RETURNDATASIZE DUP7 GT PUSH2 0x3E0 JUMPI PUSH2 0x3CE DUP2 DUP4 PUSH2 0x1406 JUMP JUMPDEST CODESIZE PUSH2 0x175F JUMP JUMPDEST SWAP1 DUP2 PUSH1 0x20 SWAP2 SUB SLT PUSH2 0x337 JUMPI MLOAD DUP1 ISZERO ISZERO DUP2 SUB PUSH2 0x337 JUMPI SWAP1 JUMP JUMPDEST SWAP2 SWAP1 DUP3 SUB SWAP2 DUP3 GT PUSH2 0x1992 JUMPI JUMP JUMPDEST PUSH4 0x4E487B71 PUSH1 0xE0 SHL PUSH1 0x0 MSTORE PUSH1 0x11 PUSH1 0x4 MSTORE PUSH1 0x24 PUSH1 0x0 REVERT JUMPDEST RETURNDATASIZE ISZERO PUSH2 0x19E3 JUMPI RETURNDATASIZE SWAP1 PUSH8 0xFFFFFFFFFFFFFFFF DUP3 GT PUSH2 0x13F0 JUMPI PUSH1 0x40 MLOAD SWAP2 PUSH2 0x19D7 PUSH1 0x1F DUP3 ADD PUSH1 0x1F NOT AND PUSH1 0x20 ADD DUP5 PUSH2 0x1406 JUMP JUMPDEST DUP3 MSTORE RETURNDATASIZE PUSH1 0x0 PUSH1 0x20 DUP5 ADD RETURNDATACOPY JUMP JUMPDEST PUSH1 0x60 SWAP1 JUMP JUMPDEST ISZERO PUSH2 0x19EF JUMPI JUMP JUMPDEST PUSH1 0x40 MLOAD PUSH3 0x461BCD PUSH1 0xE5 SHL DUP2 MSTORE PUSH1 0x20 PUSH1 0x4 DUP3 ADD MSTORE PUSH1 0x13 PUSH1 0x24 DUP3 ADD MSTORE PUSH19 0x11551217D514905394D1915497D19052531151 PUSH1 0x6A SHL PUSH1 0x44 DUP3 ADD MSTORE PUSH1 0x64 SWAP1 REVERT JUMPDEST DUP1 MLOAD ISZERO PUSH2 0x1A37 JUMPI PUSH1 0x20 ADD SWAP1 JUMP JUMPDEST PUSH4 0x4E487B71 PUSH1 0xE0 SHL PUSH1 0x0 MSTORE PUSH1 0x32 PUSH1 0x4 MSTORE PUSH1 0x24 PUSH1 0x0 REVERT JUMPDEST DUP1 MLOAD DUP3 LT ISZERO PUSH2 0x1A37 JUMPI PUSH1 0x20 SWAP2 PUSH1 0x5 SHL ADD ADD SWAP1 JUMP JUMPDEST ISZERO PUSH2 0x1A68 JUMPI JUMP JUMPDEST PUSH1 0x40 MLOAD PUSH3 0x461BCD PUSH1 0xE5 SHL DUP2 MSTORE PUSH1 0x20 PUSH1 0x4 DUP3 ADD MSTORE PUSH1 0x1A PUSH1 0x24 DUP3 ADD MSTORE PUSH32 0x494E53554646494349454E545F4F55545055545F414D4F554E54000000000000 PUSH1 0x44 DUP3 ADD MSTORE PUSH1 0x64 SWAP1 REVERT JUMPDEST CALLDATALOAD PUSH1 0x1 PUSH1 0x1 PUSH1 0xA0 SHL SUB DUP2 AND DUP2 SUB PUSH2 0x337 JUMPI SWAP1 JUMP JUMPDEST PUSH1 0x0 NOT DUP2 EQ PUSH2 0x1992 JUMPI PUSH1 0x1 ADD SWAP1 JUMP JUMPDEST SWAP1 SWAP3 SWAP2 PUSH1 0x1 PUSH1 0x1 PUSH1 0xA0 SHL SUB PUSH32 0x0 DUP2 AND SWAP3 SWAP1 PUSH1 0x0 JUMPDEST DUP7 MLOAD PUSH1 0x0 NOT DUP2 ADD SWAP1 DUP2 GT PUSH2 0x1992 JUMPI DUP2 LT ISZERO PUSH2 0x1D75 JUMPI DUP2 PUSH2 0x1B23 DUP3 DUP10 PUSH2 0x1A4D JUMP JUMPDEST MLOAD AND PUSH1 0x1 DUP3 ADD DUP1 DUP4 GT PUSH2 0x1992 JUMPI DUP4 PUSH2 0x1B3B DUP3 DUP12 PUSH2 0x1A4D JUMP JUMPDEST MLOAD AND SWAP1 DUP2 DUP4 LT ISZERO PUSH2 0x1D6A JUMPI DUP5 PUSH2 0x1B53 DUP5 SWAP3 JUMPDEST DUP9 PUSH2 0x1A4D JUMP JUMPDEST MLOAD SWAP2 AND DUP4 SUB PUSH2 0x1D63 JUMPI PUSH1 0x0 SWAP1 JUMPDEST DUP11 MLOAD PUSH1 0x1 NOT DUP2 ADD SWAP1 DUP2 GT PUSH2 0x1992 JUMPI DUP6 LT ISZERO PUSH2 0x1D59 JUMPI PUSH1 0x2 DUP6 ADD DUP1 DUP7 GT PUSH2 0x1992 JUMPI PUSH2 0x1B8B DUP8 SWAP2 DUP14 PUSH2 0x1A4D JUMP JUMPDEST MLOAD PUSH1 0x40 DUP1 MLOAD PUSH4 0xE6A43905 PUSH1 0xE0 SHL DUP2 MSTORE PUSH1 0x1 PUSH1 0x1 PUSH1 0xA0 SHL SUB DUP8 DUP2 AND PUSH1 0x4 DUP4 ADD MSTORE SWAP4 SWAP1 SWAP3 AND SWAP1 SWAP3 AND PUSH1 0x24 DUP3 ADD MSTORE PUSH1 0x20 DUP1 DUP3 PUSH1 0x44 DUP2 DUP16 GAS STATICCALL SWAP3 DUP4 ISZERO PUSH2 0x18B1 JUMPI POP SWAP1 PUSH2 0x1C1A SWAP3 SWAP2 PUSH1 0x0 SWAP3 PUSH2 0x1D3C JUMPI JUMPDEST POP POP SWAP3 JUMPDEST PUSH1 0x40 DUP1 MLOAD PUSH4 0xE6A43905 PUSH1 0xE0 SHL DUP2 MSTORE PUSH1 0x1 PUSH1 0x1 PUSH1 0xA0 SHL SUB SWAP8 DUP9 AND PUSH1 0x4 DUP1 DUP4 ADD SWAP2 SWAP1 SWAP2 MSTORE SWAP8 SWAP1 SWAP7 AND PUSH1 0x24 DUP8 ADD MSTORE SWAP5 PUSH1 0x20 SWAP3 DUP4 SWAP1 DUP3 SWAP1 DUP15 SWAP1 DUP3 SWAP1 DUP2 SWAP1 PUSH1 0x44 DUP3 ADD SWAP1 JUMP JUMPDEST SUB SWAP2 GAS STATICCALL SWAP1 DUP2 ISZERO PUSH2 0x1D31 JUMPI SWAP1 DUP10 SWAP2 PUSH1 0x0 SWAP2 PUSH2 0x1D14 JUMPI JUMPDEST POP AND SWAP4 DUP6 MLOAD SWAP4 DUP4 DUP6 ADD DUP6 DUP2 LT PUSH8 0xFFFFFFFFFFFFFFFF DUP3 GT OR PUSH2 0x1CFF JUMPI DUP8 MSTORE PUSH1 0x0 DUP6 MSTORE DUP6 EXTCODESIZE ISZERO PUSH2 0x337 JUMPI SWAP1 DUP10 SWAP2 DUP8 SWAP9 SWAP6 SWAP7 SWAP5 SWAP4 SWAP9 MLOAD SWAP9 DUP10 SWAP7 PUSH4 0x22C0D9F PUSH1 0xE0 SHL DUP9 MSTORE DUP8 ADD MSTORE PUSH1 0x24 DUP7 ADD MSTORE AND PUSH1 0x44 DUP5 ADD MSTORE PUSH1 0x80 PUSH1 0x64 DUP5 ADD MSTORE DUP4 MLOAD SWAP1 DUP2 PUSH1 0x84 DUP6 ADD MSTORE PUSH1 0x0 JUMPDEST DUP3 DUP2 LT PUSH2 0x1CE8 JUMPI POP POP PUSH1 0x0 DUP1 SWAP5 POP DUP4 SWAP2 DUP3 PUSH1 0xA4 SWAP2 DUP4 DUP4 DUP3 DUP5 ADD ADD MSTORE PUSH1 0x1F DUP1 NOT SWAP2 ADD AND DUP2 ADD SUB ADD SWAP3 GAS CALL SWAP1 DUP2 ISZERO PUSH2 0x18B1 JUMPI POP SWAP1 PUSH2 0x1CD4 SWAP3 SWAP2 PUSH2 0x1CD9 JUMPI JUMPDEST POP PUSH2 0x1AC1 JUMP JUMPDEST PUSH2 0x1B03 JUMP JUMPDEST PUSH2 0x1CE2 SWAP1 PUSH2 0x13DC JUMP JUMPDEST CODESIZE PUSH2 0x1CCE JUMP JUMPDEST DUP1 DUP7 ADD DUP3 ADD MLOAD DUP9 DUP3 ADD PUSH1 0xA4 ADD MSTORE DUP8 SWAP5 POP DUP2 ADD PUSH2 0x1C92 JUMP JUMPDEST PUSH1 0x41 DUP10 PUSH4 0x4E487B71 PUSH1 0xE0 SHL PUSH1 0x0 MSTORE MSTORE PUSH1 0x24 PUSH1 0x0 REVERT JUMPDEST PUSH2 0x1D2B SWAP2 POP DUP5 RETURNDATASIZE DUP7 GT PUSH2 0x3E0 JUMPI PUSH2 0x3CE DUP2 DUP4 PUSH2 0x1406 JUMP JUMPDEST CODESIZE PUSH2 0x1C30 JUMP JUMPDEST DUP7 MLOAD RETURNDATASIZE PUSH1 0x0 DUP3 RETURNDATACOPY RETURNDATASIZE SWAP1 REVERT JUMPDEST PUSH2 0x1D52 SWAP3 POP DUP1 RETURNDATASIZE LT PUSH2 0x3E0 JUMPI PUSH2 0x3CE DUP2 DUP4 PUSH2 0x1406 JUMP JUMPDEST CODESIZE DUP1 PUSH2 0x1BD6 JUMP JUMPDEST PUSH2 0x1C1A DUP9 SWAP3 PUSH2 0x1BDA JUMP JUMPDEST PUSH1 0x0 PUSH2 0x1B60 JUMP JUMPDEST DUP5 PUSH2 0x1B53 DUP4 SWAP3 PUSH2 0x1B4D JUMP JUMPDEST POP POP POP POP POP SWAP1 POP JUMP JUMPDEST ISZERO PUSH2 0x1D85 JUMPI JUMP JUMPDEST PUSH1 0x40 MLOAD PUSH3 0x461BCD PUSH1 0xE5 SHL DUP2 MSTORE PUSH1 0x20 PUSH1 0x4 DUP3 ADD MSTORE PUSH1 0xC PUSH1 0x24 DUP3 ADD MSTORE PUSH12 0x929CAC82989288BEA082A89 PUSH1 0xA3 SHL PUSH1 0x44 DUP3 ADD MSTORE PUSH1 0x64 SWAP1 REVERT JUMPDEST ISZERO PUSH2 0x1DC0 JUMPI JUMP JUMPDEST PUSH1 0x40 MLOAD PUSH3 0x461BCD PUSH1 0xE5 SHL DUP2 MSTORE PUSH1 0x20 PUSH1 0x4 DUP3 ADD MSTORE PUSH1 0x16 PUSH1 0x24 DUP3 ADD MSTORE PUSH22 0x494E53554646494349454E545F4C4951554944495459 PUSH1 0x50 SHL PUSH1 0x44 DUP3 ADD MSTORE PUSH1 0x64 SWAP1 REVERT JUMPDEST DUP2 DUP2 MUL SWAP3 SWAP2 DUP2 ISZERO SWAP2 DUP5 DIV EQ OR ISZERO PUSH2 0x1992 JUMPI JUMP JUMPDEST DUP2 ISZERO PUSH2 0x1E1B JUMPI DIV SWAP1 JUMP JUMPDEST PUSH4 0x4E487B71 PUSH1 0xE0 SHL PUSH1 0x0 MSTORE PUSH1 0x12 PUSH1 0x4 MSTORE PUSH1 0x24 PUSH1 0x0 REVERT JUMPDEST DUP1 ISZERO PUSH2 0x1E64 JUMPI PUSH2 0x14DF SWAP3 PUSH2 0x1E56 SWAP2 DUP4 ISZERO ISZERO DUP1 PUSH2 0x1E5B JUMPI JUMPDEST PUSH2 0x1E51 SWAP1 PUSH2 0x1DB9 JUMP JUMPDEST PUSH2 0x1DFE JUMP JUMPDEST PUSH2 0x1E11 JUMP JUMPDEST POP DUP2 ISZERO ISZERO PUSH2 0x1E48 JUMP JUMPDEST PUSH1 0x40 MLOAD PUSH3 0x461BCD PUSH1 0xE5 SHL DUP2 MSTORE PUSH1 0x20 PUSH1 0x4 DUP3 ADD MSTORE PUSH1 0x13 PUSH1 0x24 DUP3 ADD MSTORE PUSH19 0x125394D551919250D251539517D05353D55395 PUSH1 0x6A SHL PUSH1 0x44 DUP3 ADD MSTORE PUSH1 0x64 SWAP1 REVERT JUMPDEST DUP1 ISZERO PUSH2 0x1EFD JUMPI DUP2 ISZERO SWAP3 DUP4 ISZERO DUP1 PUSH2 0x1EF4 JUMPI JUMPDEST PUSH2 0x1EB9 SWAP1 PUSH2 0x1DB9 JUMP JUMPDEST PUSH2 0x3E5 DUP1 DUP4 MUL SWAP3 DUP4 DIV SUB PUSH2 0x1992 JUMPI PUSH2 0x1ED1 SWAP1 DUP3 PUSH2 0x1DFE JUMP JUMPDEST SWAP3 PUSH2 0x3E8 DUP1 DUP5 MUL SWAP4 DUP5 DIV EQ OR ISZERO PUSH2 0x1992 JUMPI DUP2 ADD DUP1 SWAP2 GT PUSH2 0x1992 JUMPI PUSH2 0x14DF SWAP2 PUSH2 0x1E11 JUMP JUMPDEST POP DUP1 ISZERO ISZERO PUSH2 0x1EB0 JUMP JUMPDEST PUSH1 0x40 MLOAD PUSH3 0x461BCD PUSH1 0xE5 SHL DUP2 MSTORE PUSH1 0x20 PUSH1 0x4 DUP3 ADD MSTORE PUSH1 0x19 PUSH1 0x24 DUP3 ADD MSTORE PUSH32 0x494E53554646494349454E545F494E5055545F414D4F554E5400000000000000 PUSH1 0x44 DUP3 ADD MSTORE PUSH1 0x64 SWAP1 REVERT JUMPDEST SWAP2 SWAP1 DUP3 PUSH2 0x1F65 SWAP2 PUSH2 0x1F54 DUP3 ISZERO ISZERO PUSH2 0x1A61 JUMP JUMPDEST DUP1 ISZERO ISZERO DUP1 PUSH2 0x1FAE JUMPI PUSH2 0x1E51 SWAP1 PUSH2 0x1DB9 JUMP JUMPDEST SWAP2 PUSH2 0x3E8 SWAP3 DUP4 DUP2 MUL SWAP4 DUP2 DUP6 DIV EQ SWAP1 ISZERO OR ISZERO PUSH2 0x1992 JUMPI PUSH2 0x1F83 SWAP2 PUSH2 0x1985 JUMP JUMPDEST PUSH2 0x3E5 SWAP1 DUP2 DUP2 MUL SWAP2 DUP2 DUP4 DIV EQ SWAP1 ISZERO OR ISZERO PUSH2 0x1992 JUMPI PUSH2 0x1FA0 SWAP2 PUSH2 0x1E11 JUMP JUMPDEST PUSH1 0x1 DUP2 ADD DUP1 SWAP2 GT PUSH2 0x1992 JUMPI SWAP1 JUMP JUMPDEST POP DUP4 ISZERO ISZERO PUSH2 0x1E48 JUMP JUMPDEST SWAP1 PUSH2 0x1FC1 DUP3 PUSH2 0x1428 JUMP JUMPDEST PUSH2 0x1FCE PUSH1 0x40 MLOAD SWAP2 DUP3 PUSH2 0x1406 JUMP JUMPDEST DUP3 DUP2 MSTORE DUP1 SWAP3 PUSH2 0x1FDF PUSH1 0x1F NOT SWAP2 PUSH2 0x1428 JUMP JUMPDEST ADD SWAP1 PUSH1 0x20 CALLDATASIZE SWAP2 ADD CALLDATACOPY JUMP JUMPDEST ISZERO PUSH2 0x1FF0 JUMPI JUMP JUMPDEST PUSH1 0x40 MLOAD PUSH3 0x461BCD PUSH1 0xE5 SHL DUP2 MSTORE PUSH1 0x20 PUSH1 0x4 DUP3 ADD MSTORE PUSH1 0xE PUSH1 0x24 DUP3 ADD MSTORE PUSH14 0x1410525497D393D517D193D55391 PUSH1 0x92 SHL PUSH1 0x44 DUP3 ADD MSTORE PUSH1 0x64 SWAP1 REVERT JUMPDEST SWAP2 SWAP1 SWAP2 PUSH2 0x2037 PUSH1 0x2 DUP5 MLOAD LT ISZERO PUSH2 0x1D7E JUMP JUMPDEST PUSH2 0x2041 DUP4 MLOAD PUSH2 0x1FB7 JUMP JUMPDEST SWAP1 PUSH2 0x204B DUP3 PUSH2 0x1A2A JUMP JUMPDEST MSTORE PUSH1 0x1 PUSH1 0x1 PUSH1 0xA0 SHL SUB SWAP1 PUSH32 0x0 DUP3 AND PUSH1 0x0 JUMPDEST DUP6 MLOAD PUSH1 0x0 NOT DUP2 ADD SWAP1 DUP2 GT PUSH2 0x1992 JUMPI DUP2 LT ISZERO PUSH2 0x228E JUMPI DUP4 PUSH2 0x209B DUP3 DUP9 PUSH2 0x1A4D JUMP JUMPDEST MLOAD AND PUSH1 0x1 DUP3 ADD DUP1 DUP4 GT PUSH2 0x1992 JUMPI DUP6 PUSH2 0x20B3 DUP3 DUP11 PUSH2 0x1A4D JUMP JUMPDEST MLOAD PUSH1 0x40 DUP1 MLOAD PUSH4 0xE6A43905 PUSH1 0xE0 SHL DUP2 MSTORE PUSH1 0x1 PUSH1 0x1 PUSH1 0xA0 SHL SUB SWAP6 DUP7 AND PUSH1 0x4 DUP1 DUP4 ADD SWAP2 SWAP1 SWAP2 MSTORE SWAP4 SWAP1 SWAP3 AND SWAP1 SWAP5 AND PUSH1 0x24 DUP3 ADD MSTORE PUSH1 0x20 SWAP1 DUP2 DUP2 PUSH1 0x44 DUP2 DUP11 GAS STATICCALL SWAP2 DUP3 ISZERO PUSH2 0x2283 JUMPI SWAP1 DUP10 SWAP3 SWAP2 PUSH1 0x0 SWAP3 PUSH2 0x2266 JUMPI JUMPDEST POP POP AND SWAP3 PUSH2 0x210F DUP5 ISZERO ISZERO PUSH2 0x1FE9 JUMP JUMPDEST DUP1 MLOAD DUP1 SWAP5 PUSH4 0x240BC6B PUSH1 0xE2 SHL DUP3 MSTORE DUP2 DUP5 PUSH1 0x60 SWAP8 DUP9 SWAP4 GAS STATICCALL SWAP2 DUP3 ISZERO PUSH2 0x18B1 JUMPI POP PUSH1 0x0 SWAP5 DUP6 SWAP3 PUSH2 0x2240 JUMPI JUMPDEST POP POP DUP8 PUSH2 0x2145 DUP7 DUP13 PUSH2 0x1A4D JUMP JUMPDEST MLOAD AND SWAP4 DUP9 DUP7 DUP13 PUSH1 0x0 SWAP8 DUP4 PUSH2 0x2159 DUP10 DUP5 PUSH2 0x1A4D JUMP JUMPDEST MLOAD AND GT ISZERO PUSH2 0x2218 JUMPI DUP8 SWAP3 SWAP2 PUSH2 0x216D SWAP2 PUSH2 0x1A4D JUMP JUMPDEST MLOAD AND SWAP1 PUSH2 0x2203 JUMPI SWAP1 DUP12 DUP11 DUP1 PUSH2 0x2192 DUP11 PUSH2 0x21BC SWAP8 SWAP7 PUSH2 0x218B DUP12 DUP8 PUSH2 0x1A4D JUMP JUMPDEST POP SWAP5 PUSH2 0x1A4D JUMP JUMPDEST MLOAD AND SWAP2 AND EQ PUSH1 0x0 EQ PUSH2 0x21F1 JUMPI PUSH1 0x1 PUSH1 0x1 PUSH1 0x70 SHL SUB SWAP2 DUP3 AND SWAP2 AND JUMPDEST PUSH2 0x21B6 DUP8 DUP11 PUSH2 0x1A4D JUMP JUMPDEST MLOAD PUSH2 0x1E9F JUMP JUMPDEST SWAP3 PUSH2 0x21DC JUMPI POP SWAP1 PUSH2 0x21D1 PUSH2 0x21D7 SWAP4 SWAP3 DUP7 PUSH2 0x1A4D JUMP JUMPDEST MSTORE PUSH2 0x1AC1 JUMP JUMPDEST PUSH2 0x207B JUMP JUMPDEST PUSH1 0x11 SWAP1 PUSH4 0x4E487B71 PUSH1 0xE0 SHL PUSH1 0x0 MSTORE MSTORE PUSH1 0x24 PUSH1 0x0 REVERT JUMPDEST PUSH1 0x1 PUSH1 0x1 PUSH1 0x70 SHL SUB SWAP1 DUP2 AND SWAP2 AND PUSH2 0x21AC JUMP JUMPDEST PUSH1 0x11 DUP5 PUSH4 0x4E487B71 PUSH1 0xE0 SHL PUSH1 0x0 MSTORE MSTORE PUSH1 0x24 PUSH1 0x0 REVERT JUMPDEST POP POP POP SWAP4 SWAP1 PUSH2 0x21BC SWAP2 SWAP5 DUP12 DUP11 DUP1 PUSH2 0x2192 DUP11 DUP3 PUSH2 0x2234 DUP12 DUP8 PUSH2 0x1A4D JUMP JUMPDEST MLOAD AND PUSH2 0x218B DUP3 DUP8 PUSH2 0x1A4D JUMP JUMPDEST PUSH2 0x225B SWAP4 SWAP6 POP DUP1 SWAP2 SWAP3 POP SWAP1 RETURNDATASIZE LT PUSH2 0x18AA JUMPI PUSH2 0x1897 DUP2 DUP4 PUSH2 0x1406 JUMP JUMPDEST POP SWAP3 SWAP1 SWAP3 CODESIZE DUP1 PUSH2 0x2138 JUMP JUMPDEST PUSH2 0x227C SWAP3 POP DUP1 RETURNDATASIZE LT PUSH2 0x3E0 JUMPI PUSH2 0x3CE DUP2 DUP4 PUSH2 0x1406 JUMP JUMPDEST CODESIZE DUP1 PUSH2 0x2100 JUMP JUMPDEST DUP6 MLOAD RETURNDATASIZE PUSH1 0x0 DUP3 RETURNDATACOPY RETURNDATASIZE SWAP1 REVERT JUMPDEST POP POP SWAP3 POP POP JUMP JUMPDEST SWAP2 SWAP1 SWAP2 PUSH2 0x22A6 PUSH1 0x2 DUP5 MLOAD LT ISZERO PUSH2 0x1D7E JUMP JUMPDEST PUSH2 0x22B0 DUP4 MLOAD PUSH2 0x1FB7 JUMP JUMPDEST SWAP3 DUP4 MLOAD SWAP2 PUSH1 0x0 NOT SWAP3 DUP4 DUP2 ADD SWAP1 DUP2 GT PUSH2 0x1992 JUMPI PUSH2 0x22CC SWAP1 DUP7 PUSH2 0x1A4D JUMP JUMPDEST MSTORE DUP1 MLOAD DUP3 DUP2 ADD SWAP1 DUP2 GT PUSH2 0x1992 JUMPI PUSH1 0x1 PUSH1 0x1 PUSH1 0xA0 SHL SUB SWAP1 PUSH32 0x0 DUP3 AND SWAP1 DUP1 JUMPDEST PUSH2 0x2313 JUMPI POP POP POP POP POP JUMP JUMPDEST DUP5 DUP2 ADD DUP2 DUP2 GT PUSH2 0x2458 JUMPI DUP4 PUSH2 0x2328 DUP3 DUP8 PUSH2 0x1A4D JUMP JUMPDEST MLOAD AND DUP5 PUSH2 0x2335 DUP5 DUP9 PUSH2 0x1A4D JUMP JUMPDEST MLOAD PUSH1 0x40 DUP1 MLOAD PUSH4 0xE6A43905 PUSH1 0xE0 SHL DUP2 MSTORE PUSH1 0x1 PUSH1 0x1 PUSH1 0xA0 SHL SUB SWAP5 DUP6 AND PUSH1 0x4 DUP1 DUP4 ADD SWAP2 SWAP1 SWAP2 MSTORE SWAP4 SWAP1 SWAP3 AND SWAP1 SWAP4 AND PUSH1 0x24 DUP3 ADD MSTORE PUSH1 0x20 SWAP1 DUP2 DUP2 PUSH1 0x44 DUP2 DUP11 GAS STATICCALL SWAP2 DUP3 ISZERO PUSH2 0x24DF JUMPI SWAP1 DUP9 SWAP3 SWAP2 PUSH1 0x0 SWAP3 PUSH2 0x24C2 JUMPI JUMPDEST POP POP AND SWAP1 PUSH2 0x2391 DUP3 ISZERO ISZERO PUSH2 0x1FE9 JUMP JUMPDEST DUP3 MLOAD DUP1 SWAP3 PUSH4 0x240BC6B PUSH1 0xE2 SHL DUP3 MSTORE DUP2 DUP4 PUSH1 0x60 SWAP6 DUP7 SWAP4 GAS STATICCALL SWAP4 DUP5 ISZERO PUSH2 0x18B1 JUMPI POP PUSH1 0x0 SWAP3 DUP4 SWAP5 PUSH2 0x249E JUMPI JUMPDEST POP POP PUSH1 0x0 SWAP1 DUP2 DUP9 PUSH2 0x23CB DUP8 DUP13 PUSH2 0x1A4D JUMP JUMPDEST MLOAD AND DUP10 PUSH2 0x23D8 DUP10 DUP14 PUSH2 0x1A4D JUMP JUMPDEST MLOAD AND GT ISZERO PUSH2 0x247F JUMPI PUSH2 0x21DC JUMPI DUP8 PUSH2 0x23EF DUP7 DUP12 PUSH2 0x1A4D JUMP JUMPDEST MLOAD AND PUSH2 0x23FB DUP8 DUP12 PUSH2 0x1A4D JUMP JUMPDEST POP SWAP2 JUMPDEST PUSH2 0x21DC JUMPI POP SWAP2 PUSH2 0x2442 SWAP2 PUSH2 0x2449 SWAP4 DUP9 DUP1 PUSH2 0x2418 DUP9 DUP14 PUSH2 0x1A4D JUMP JUMPDEST MLOAD AND SWAP2 AND EQ PUSH1 0x0 EQ PUSH2 0x246D JUMPI PUSH1 0x1 PUSH1 0x1 PUSH1 0x70 SHL SUB SWAP2 DUP3 AND SWAP2 AND JUMPDEST PUSH2 0x243C DUP7 DUP14 PUSH2 0x1A4D JUMP JUMPDEST MLOAD PUSH2 0x1F42 JUMP JUMPDEST SWAP2 DUP10 PUSH2 0x1A4D JUMP JUMPDEST MSTORE DUP1 ISZERO PUSH2 0x2458 JUMPI DUP5 ADD DUP1 PUSH2 0x2308 JUMP JUMPDEST PUSH1 0x24 PUSH1 0x0 PUSH4 0x4E487B71 PUSH1 0xE0 SHL DUP2 MSTORE PUSH1 0x11 PUSH1 0x4 MSTORE REVERT JUMPDEST PUSH1 0x1 PUSH1 0x1 PUSH1 0x70 SHL SUB SWAP1 DUP2 AND SWAP2 AND PUSH2 0x2432 JUMP JUMPDEST POP DUP8 PUSH2 0x248B DUP8 DUP12 PUSH2 0x1A4D JUMP JUMPDEST MLOAD AND PUSH2 0x2497 DUP7 DUP12 PUSH2 0x1A4D JUMP JUMPDEST POP SWAP2 PUSH2 0x23FE JUMP JUMPDEST DUP1 SWAP2 SWAP3 SWAP5 POP PUSH2 0x24B9 SWAP4 POP SWAP1 RETURNDATASIZE LT PUSH2 0x18AA JUMPI PUSH2 0x1897 DUP2 DUP4 PUSH2 0x1406 JUMP JUMPDEST POP SWAP2 CODESIZE DUP1 PUSH2 0x23BA JUMP JUMPDEST PUSH2 0x24D8 SWAP3 POP DUP1 RETURNDATASIZE LT PUSH2 0x3E0 JUMPI PUSH2 0x3CE DUP2 DUP4 PUSH2 0x1406 JUMP JUMPDEST CODESIZE DUP1 PUSH2 0x2382 JUMP JUMPDEST DUP5 MLOAD RETURNDATASIZE PUSH1 0x0 DUP3 RETURNDATACOPY RETURNDATASIZE SWAP1 REVERT JUMPDEST PUSH1 0x40 MLOAD PUSH4 0xE6A43905 PUSH1 0xE0 SHL DUP2 MSTORE PUSH1 0x1 PUSH1 0x1 PUSH1 0xA0 SHL SUB DUP3 DUP2 AND PUSH1 0x4 DUP1 DUP5 ADD SWAP2 SWAP1 SWAP2 MSTORE DUP5 DUP3 AND PUSH1 0x24 DUP5 ADD MSTORE SWAP3 SWAP6 SWAP3 SWAP5 SWAP3 SWAP4 SWAP2 PUSH1 0x20 DUP2 PUSH1 0x44 DUP2 PUSH32 0x0 DUP7 AND GAS STATICCALL DUP1 ISZERO PUSH2 0x160B JUMPI DUP3 SWAP2 PUSH1 0x0 SWAP2 PUSH2 0x26F1 JUMPI JUMPDEST POP AND DUP1 ISZERO PUSH2 0x26DF JUMPI SWAP1 PUSH1 0x60 DUP7 SWAP4 SWAP3 PUSH1 0x40 MLOAD SWAP5 DUP6 DUP1 SWAP3 PUSH4 0x240BC6B PUSH1 0xE2 SHL DUP3 MSTORE GAS STATICCALL SWAP7 DUP8 ISZERO PUSH2 0x160B JUMPI PUSH1 0x0 SWAP4 DUP5 SWAP9 PUSH2 0x26B8 JUMPI JUMPDEST POP DUP1 DUP3 AND SWAP3 DUP1 DUP4 AND DUP5 LT ISZERO PUSH2 0x26B1 JUMPI POP JUMPDEST AND SUB PUSH2 0x269F JUMPI PUSH1 0x1 PUSH1 0x1 PUSH1 0x70 SHL SUB DUP1 SWAP2 AND SWAP5 AND JUMPDEST DUP5 ISZERO DUP1 ISZERO PUSH2 0x2697 JUMPI JUMPDEST PUSH2 0x2687 JUMPI PUSH2 0x25C4 DUP2 DUP7 DUP5 PUSH2 0x1E9F JUMP JUMPDEST SWAP5 PUSH8 0xDE0B6B3A7640000 SWAP2 DUP3 DUP2 MUL SWAP1 DUP1 DUP3 DIV DUP5 EQ SWAP1 ISZERO OR ISZERO PUSH2 0x2672 JUMPI SWAP1 PUSH2 0x25EA SWAP2 PUSH2 0x1E11 JUMP JUMPDEST SWAP1 DUP1 DUP7 MUL SWAP1 DUP7 DUP3 DIV EQ DUP7 ISZERO OR ISZERO PUSH2 0x2655 JUMPI DUP3 PUSH2 0x2605 SWAP2 PUSH2 0x1E11 JUMP JUMPDEST PUSH1 0x0 DUP2 DUP4 GT ISZERO PUSH2 0x266A JUMPI POP PUSH2 0x261A SWAP1 DUP3 PUSH2 0x1985 JUMP JUMPDEST PUSH2 0x2710 SWAP1 DUP2 DUP2 MUL SWAP2 DUP2 DUP4 DIV EQ SWAP1 ISZERO OR ISZERO PUSH2 0x2655 JUMPI SWAP1 PUSH2 0x2638 SWAP2 PUSH2 0x1E11 JUMP JUMPDEST SWAP3 PUSH1 0x1E DUP3 MUL SWAP2 DUP1 DUP4 DIV PUSH1 0x1E EQ SWAP1 ISZERO OR ISZERO PUSH2 0x21DC JUMPI POP PUSH2 0x2710 SWAP1 DIV SWAP1 JUMP JUMPDEST PUSH1 0x11 DUP6 PUSH4 0x4E487B71 PUSH1 0xE0 SHL PUSH1 0x0 MSTORE MSTORE PUSH1 0x24 PUSH1 0x0 REVERT JUMPDEST SWAP2 POP POP PUSH2 0x2638 JUMP JUMPDEST PUSH1 0x11 DUP7 PUSH4 0x4E487B71 PUSH1 0xE0 SHL PUSH1 0x0 MSTORE MSTORE PUSH1 0x24 PUSH1 0x0 REVERT JUMPDEST POP POP SWAP2 POP POP PUSH1 0x0 SWAP1 PUSH1 0x0 SWAP1 PUSH1 0x0 SWAP1 JUMP JUMPDEST POP DUP1 ISZERO PUSH2 0x25B5 JUMP JUMPDEST PUSH1 0x1 PUSH1 0x1 PUSH1 0x70 SHL SUB SWAP5 DUP6 AND SWAP5 AND PUSH2 0x25AC JUMP JUMPDEST SWAP1 POP PUSH2 0x2598 JUMP JUMPDEST SWAP1 SWAP8 POP PUSH2 0x26D4 SWAP2 SWAP4 POP PUSH1 0x60 RETURNDATASIZE DUP2 GT PUSH2 0x18AA JUMPI PUSH2 0x1897 DUP2 DUP4 PUSH2 0x1406 JUMP JUMPDEST POP SWAP3 SWAP1 SWAP3 SWAP7 CODESIZE PUSH2 0x2587 JUMP JUMPDEST POP POP POP POP SWAP2 POP POP PUSH1 0x0 SWAP1 PUSH1 0x0 SWAP1 PUSH1 0x0 SWAP1 JUMP JUMPDEST PUSH2 0x2709 SWAP2 POP PUSH1 0x20 RETURNDATASIZE DUP2 GT PUSH2 0x3E0 JUMPI PUSH2 0x3CE DUP2 DUP4 PUSH2 0x1406 JUMP JUMPDEST CODESIZE PUSH2 0x2555 JUMP INVALID LOG2 PUSH5 0x6970667358 0x22 SLT KECCAK256 EXTCODEHASH 0xE1 0xF9 OR GASLIMIT 0xDE 0xCB PUSH20 0x126B420552C9DD5920787D4BE9522B70665C3669 EXP 0xFB 0xDF EQ PUSH5 0x736F6C6343 STOP ADDMOD EQ STOP CALLER "},"methodIdentifiers":{"WETH()":"ad5c4648","addLiquidity(address,address,uint256,uint256,uint256,uint256,address,uint256)":"e8e33700","addLiquidityETH(address,uint256,uint256,uint256,address,uint256)":"f305d719","factory()":"c45a0155","getAmountIn(uint256,uint256,uint256)":"85f8c259","getAmountOut(uint256,uint256,uint256)":"054d50d4","getAmountsIn(uint256,address[])":"1f00ca74","getAmountsOut(uint256,address[])":"d06ca61f","getSwapQuote(address,address,uint256)":"42606771","quote(uint256,uint256,uint256)":"ad615dec","removeLiquidity(address,address,uint256,uint256,uint256,address,uint256)":"baa2abde","removeLiquidityETH(address,uint256,uint256,uint256,address,uint256)":"02751cec","swapExactETHForTokens(uint256,address[],address,uint256)":"7ff36ab5","swapExactTokensForETH(uint256,uint256,address[],address,uint256)":"18cbafe5","swapExactTokensForTokens(uint256,uint256,address[],address,uint256)":"38ed1739","swapTokensForExactTokens(uint256,uint256,address[],address,uint256)":"8803dbee"}}}}}