{"contracts/EloquraFactory.sol":{"EloquraFactory":{"abi":[{"inputs":[{"internalType":"address","name":"_feeToSetter","type":"address"}],"stateMutability":"nonpayable","type":"constructor"},{"inputs":[],"name":"Forbidden","type":"error"},{"inputs":[],"name":"IdenticalAddresses","type":"error"},{"inputs":[],"name":"PairExists","type":"error"},{"inputs":[],"name":"ZeroAddress","type":"error"},{"anonymous":false,"inputs":[{"indexed":true,"internalType":"address","name":"oldSetter","type":"address"},{"indexed":true,"internalType":"address","name":"newSetter","type":"address"}],"name":"FeeToSetterUpdated","type":"event"},{"anonymous":false,"inputs":[{"indexed":true,"internalType":"address","name":"oldFeeTo","type":"address"},{"indexed":true,"internalType":"address","name":"newFeeTo","type":"address"}],"name":"FeeToUpdated","type":"event"},{"anonymous":false,"inputs":[{"indexed":true,"internalType":"address","name":"token0","type":"address"},{"indexed":true,"internalType":"address","name":"token1","type":"address"},{"indexed":false,"internalType":"address","name":"pair","type":"address"},{"indexed":false,"internalType":"uint256","name":"pairIndex","type":"uint256"}],"name":"PairCreated","type":"event"},{"inputs":[{"internalType":"uint256","name":"","type":"uint256"}],"name":"allPairs","outputs":[{"internalType":"address","name":"","type":"address"}],"stateMutability":"view","type":"function"},{"inputs":[],"name":"allPairsLength","outputs":[{"internalType":"uint256","name":"","type":"uint256"}],"stateMutability":"view","type":"function"},{"inputs":[{"internalType":"address","name":"tokenA","type":"address"},{"internalType":"address","name":"tokenB","type":"address"}],"name":"createPair","outputs":[{"internalType":"address","name":"pair","type":"address"}],"stateMutability":"nonpayable","type":"function"},{"inputs":[{"internalType":"uint256","name":"","type":"uint256"}],"name":"feeTiers","outputs":[{"internalType":"uint256","name":"","type":"uint256"}],"stateMutability":"view","type":"function"},{"inputs":[],"name":"feeTo","outputs":[{"internalType":"address","name":"","type":"address"}],"stateMutability":"view","type":"function"},{"inputs":[],"name":"feeToSetter","outputs":[{"internalType":"address","name":"","type":"address"}],"stateMutability":"view","type":"function"},{"inputs":[],"name":"getFeeTiers","outputs":[{"internalType":"uint256[]","name":"","type":"uint256[]"}],"stateMutability":"view","type":"function"},{"inputs":[{"internalType":"address","name":"","type":"address"},{"internalType":"address","name":"","type":"address"}],"name":"getPair","outputs":[{"internalType":"address","name":"","type":"address"}],"stateMutability":"view","type":"function"},{"inputs":[{"internalType":"address","name":"tokenA","type":"address"},{"internalType":"address","name":"tokenB","type":"address"}],"name":"pairFor","outputs":[{"internalType":"address","name":"","type":"address"}],"stateMutability":"view","type":"function"},{"inputs":[{"internalType":"address","name":"_feeTo","type":"address"}],"name":"setFeeTo","outputs":[],"stateMutability":"nonpayable","type":"function"},{"inputs":[{"internalType":"address","name":"_feeToSetter","type":"address"}],"name":"setFeeToSetter","outputs":[],"stateMutability":"nonpayable","type":"function"}],"evm":{"bytecode":{"linkReferences":{},"object":"60803461011b576001600160401b03612d7238819003601f8101601f19168401838111858210176101055784928291604052833960209384918101031261011b57516001600160a01b038116929083900361011b576040519160808301908111838210176101055760405260058252601981830152603260408301526064606083015260049182548380558084106100dd575b509082600052806000209060005b8481106100c857600180546001600160a01b03191687179055604051612c5190816101218239f35b835160ff1683820155928101926001016100a0565b60008481528484822092830192015b8281106100fa575050610092565b8181556001016100ec565b634e487b7160e01b600052604160045260246000fd5b600080fdfe608060405260043610156200001357600080fd5b60003560e01c8063017e7e5814620000d7578063094b741514620000d15780631e3dd18b14620000cb578063230ed44a14620000c5578063574f2ba314620000bf57806396ed28f914620000ad578063a2e74af614620000b9578063c9c6539614620000b3578063e6a4390514620000ad578063e9a4d24f14620000a75763f46901ed14620000a157600080fd5b62000693565b620005d3565b6200024d565b62000333565b620002ac565b620001ff565b620001b0565b62000157565b62000119565b620000ee565b6000910312620000e957565b600080fd5b34620000e9576000366003190112620000e9576000546040516001600160a01b039091168152602090f35b34620000e9576000366003190112620000e9576001546040516001600160a01b039091168152602090f35b6020906003190112620000e95760043590565b34620000e957620001683662000144565b600354811015620000e95760036000527fc2575a0e9e593c00f959f8c92f12db2869c3395a3b0502d05e2516446f71f85b01546040516001600160a01b039091168152602090f35b34620000e957620001c13662000144565b600454811015620000e95760209060046000527f8a35acfbc15ff81a39ae7d344fd709f28e8600b4aa8c65c6b64bfe7fe36bd19b0154604051908152f35b34620000e9576000366003190112620000e9576020600354604051908152f35b600435906001600160a01b0382168203620000e957565b602435906001600160a01b0382168203620000e957565b34620000e9576040366003190112620000e95760206200026c6200021f565b620002a26200027a62000236565b6001600160a01b03928316600090815260028552604080822092851682526020929092522090565b5416604051908152f35b34620000e9576020366003190112620000e957620002c96200021f565b600154906001600160a01b03808316913383900362000321571680926bffffffffffffffffffffffff60a01b16176001557fcca89bc909e02b7f333d20ee52583360f8ede8c27d76774f1e1c5935576a7f72600080a3005b604051631dd2188d60e31b8152600490fd5b34620000e957604080600319360112620000e957620003516200021f565b906200035c62000236565b6001600160a01b0392909190838316818516808214620005c2571015620005bc57915b8383168015620005ab57620003e3620003d7620003ca84620003b38860018060a01b03166000526002602052604060002090565b9060018060a01b0316600052602052604060002090565b546001600160a01b031690565b6001600160a01b031690565b6200059a57612421620003f9602082016200075b565b908082526020820190620007fb82398451606087811b6bffffffffffffffffffffffff19908116602084019081529187901b16603483015260288252906200044360488262000738565b5190209151906000f59385851695863b15620000e957845163485cc95560e01b81526001600160a01b03838116600483015285166024820152966000908890604490829084905af1918215620005945786620004f26200052f92620005729a7f0d3648bd0f6ba80134a33ba9275ac585d9d315f0ad8355cddefde31afa28d0e99662000576575b506200051183620004f28a620003b38560018060a01b03166000526002602052604060002090565b80546001600160a01b0319166001600160a01b03909216919091179055565b6001600160a01b0388166000908152600260205260409020620003b3565b6200053a8662000779565b60035485516001600160a01b03881681526020810191909152931692604090a3516001600160a01b0390911681529081906020820190565b0390f35b80620005866200058d926200071d565b80620000dd565b38620004ca565b6200076d565b8251633d77e89160e01b8152600490fd5b825163d92e233d60e01b8152600490fd5b6200037f565b8351630bd969eb60e41b8152600490fd5b34620000e957600080600319360112620006905760405180916004549081835260208093018092600483527f8a35acfbc15ff81a39ae7d344fd709f28e8600b4aa8c65c6b64bfe7fe36bd19b90835b8181106200067b57505050846200063b91038562000738565b60405193838594850191818652518092526040850193925b8281106200066357505050500390f35b83518552869550938101939281019260010162000653565b82548452928601926001928301920162000622565b80fd5b34620000e9576020366003190112620000e957620006b06200021f565b6001546001600160a01b039190821633036200032157600080546001600160a01b0319811692841692831782559092167f8f93286d6f131e956d1aa672d3ecdc817f24efc20b223b0de5d591f454edc3478380a380f35b634e487b7160e01b600052604160045260246000fd5b67ffffffffffffffff81116200073257604052565b62000707565b90601f8019910116810190811067ffffffffffffffff8211176200073257604052565b906200076b604051928362000738565b565b6040513d6000823e3d90fd5b6003546801000000000000000081101562000732576001810180600355811015620007e45760036000527fc2575a0e9e593c00f959f8c92f12db2869c3395a3b0502d05e2516446f71f85b0180546001600160a01b0319166001600160a01b03909216919091179055565b634e487b7160e01b600052603260045260246000fdfe60803462000346576001600160401b03906040908082018381118282101762000246578252601081526020926f22b637b8bab930902628102a37b5b2b760811b84830152825190838201828110828211176200024657845260068252650454c512d4c560d41b85830152825181811162000246576003908154906001958683811c931680156200033b575b8984101462000325578190601f93848111620002cf575b50899084831160011462000268576000926200025c575b505060001982851b1c191690861b1782555b835192831162000246576004938454978689811c991680156200023b575b818a101462000226578883869798999a11620001ca575b50809285116001146200015c575060009362000150575b505082851b92600019911b1c19161790555b600555601e600655600780546001600160a01b03191633179055516120d590816200034c8239f35b01519150388062000116565b929190879550601f1985168760005284600020946000905b828210620001b0575050851162000195575b50505050811b01905562000128565b01519060f884600019921b161c191690553880808062000186565b8484015187558a9890960195938401939081019062000174565b90919293945086600052816000208480880160051c8201928489106200021c575b918a91899897969594930160051c01915b8281106200020c575050620000ff565b600081558897508a9101620001fc565b92508192620001eb565b602286634e487b7160e01b6000525260246000fd5b98607f1698620000e8565b634e487b7160e01b600052604160045260246000fd5b015190503880620000b8565b90889350601f19831691866000528b6000209260005b8d828210620002b857505084116200029f575b505050811b018255620000ca565b015160001983871b60f8161c1916905538808062000291565b8385015186558c979095019493840193016200027e565b90915084600052896000208480850160051c8201928c86106200031b575b918a91869594930160051c01915b8281106200030b575050620000a1565b600081558594508a9101620002fb565b92508192620002ed565b634e487b7160e01b600052602260045260246000fd5b92607f16926200008a565b600080fdfe6080604052600436101561001257600080fd5b6000803560e01c8063022c0d9f146113f857806306fdde031461133d5780630902f1ac146112e4578063095ea7b31461125d5780630dfe1681146112345780630e2479d81461116957806311106ee21461109357806316c197391461103957806318160ddd1461101b57806323b872dd14610f2b5780632ffdaf8914610f0d578063313ce56714610ef15780634614131914610ed3578063485cc95514610e6157806355f5751014610df05780635909c0d514610dd25780635a3d549314610db45780636a62784214610ad057806370a0823114610a985780637464fc3d14610a7a57806389afcb441461071557806395d89b411461061357806398d5fdca146105f0578063a480ca791461051a578063a9059cbb146104e8578063ba9a7a56146104cb578063bc25cf771461038d578063c45a015514610364578063d21220a71461033b578063d73792a91461031e578063dd62ed3e146102cf578063f3058399146102b15763fff6cae91461018857600080fd5b346102ae57806003193601126102ae576101a0611b9e565b6008546040516370a0823160e01b808252306004830152916020916001600160a01b039183908290602490829086165afa9182156102a35783918693610272575b50600954169360246040518096819382523060048301525afa918215610267578492610230575b506102289250600a54916001600160701b03808460701c16931691611ce1565b600160055580f35b90915082813d8311610260575b6102478183611a01565b8101031261025b5761022891519038610208565b600080fd5b503d61023d565b6040513d86823e3d90fd5b8281939294503d831161029c575b61028a8183611a01565b8101031261025b5782905191386101e1565b503d610280565b6040513d87823e3d90fd5b80fd5b50346102ae57806003193601126102ae576020600f54604051908152f35b50346102ae5760403660031901126102ae576102e961196d565b60406102f3611983565b9260018060a01b03809316815260016020522091166000526020526020604060002054604051908152f35b50346102ae57806003193601126102ae5760206040516127108152f35b50346102ae57806003193601126102ae576009546040516001600160a01b039091168152602090f35b50346102ae57806003193601126102ae576007546040516001600160a01b039091168152602090f35b50346102ae576020806003193601126104c7576103a861196d565b906103b1611b9e565b6008546009546040516370a0823160e01b80825230600483015290946001600160a01b039283169490939092168286602481845afa9586156104bc57879661048b575b5061041790846104116001600160701b039889600a541690611b12565b91611f69565b6040519081523060048201528181602481875afa918215610480578692610450575b50506104119061022894600a5460701c1690611b12565b90809250813d8311610479575b6104678183611a01565b8101031261025b575183610411610439565b503d61045d565b6040513d88823e3d90fd5b9095508281813d83116104b5575b6104a38183611a01565b8101031261025b5751946104176103f4565b503d610499565b6040513d89823e3d90fd5b5080fd5b50346102ae57806003193601126102ae5760206040516103e88152f35b50346102ae5760403660031901126102ae5761050f61050561196d565b6024359033611a39565b602060405160018152f35b50346102ae5760203660031901126102ae5760409061053761196d565b60018060a01b039160038484841692838152600e60205220019182546001600160801b0391828216958260801c958693886105cf575b50836105b3575b50505050507f2e4fb6077d4acf86e12bb7411fb82b2b3eaa6a49787f4b1e17b423e7ea841169848051858152846020820152a282519182526020820152f35b6105c594815416905560095416611f69565b3882818080610574565b6001600160801b03191681556105ea88848460085416611f69565b3861056d565b50346102ae57806003193601126102ae57602061060b611f21565b604051908152f35b50346102ae57806003193601126102ae576040518160045490600182811c9181841693841561070b575b60209485851081146106f7578487529081156106d5575060011461067c575b6106788561066c81890382611a01565b60405191829182611999565b0390f35b929450600483527f8a35acfbc15ff81a39ae7d344fd709f28e8600b4aa8c65c6b64bfe7fe36bd19b5b8284106106c257505050816106789361066c92820101933861065c565b80548585018701529285019281016106a5565b60ff191686860152505050151560051b820101915061066c816106783861065c565b634e487b7160e01b83526022600452602483fd5b92607f169261063d565b50346102ae57602090816003193601126102ae5761073161196d565b9061073a611b9e565b610759600a546001600160701b0391828216928260701c169160e01c90565b506008546009546040516370a0823160e01b8082523060048301529794966001600160a01b039384169690949192841686846024818b5afa938415610a6f578294610a40575b5060405199808b523060048c0152878b602481855afa988915610a35578a9b849b9a610a02575b503084528389526108016107df8660408720549c611def565b966107f56107fa8d6107f5600254948592611b1f565b611b32565b9d8d611b1f565b998b1580156109fa575b6109e85730156109cf573060005260008a526040600020548181106109a757916000828c9360249796953084528386520360408320558060025403600255604051908152600080516020612080833981519152843092a361086d8d8b83611f69565b6108788c8b86611f69565b604051948580928582523060048301525afa928315610267579089918594610976575b5060246040518094819382523060048301525afa92831561096a5792610934575b50986108cb929160409a611ce1565b610911575b855191858352848484015216907fdccd412f0b1252819cb1fd330b93224ca42612892bb3f4f789976e6d81936496863392a360016005558351928352820152f35b61092c600a546001600160701b03808260701c169116611b1f565b600d556108d0565b929150988683813d8311610963575b61094d8183611a01565b8101031261025b579151919890919060406108bc565b503d610943565b604051903d90823e3d90fd5b8281939295503d83116109a0575b61098e8183611a01565b8101031261025b57889051923861089b565b503d610984565b60405163391434e360e21b815230600482015260248101919091526044810191909152606490fd5b604051634b637e8f60e11b815260048101869052602490fd5b60405163749383ad60e01b8152600490fd5b508a1561080b565b8980929c50819b503d8311610a2e575b610a1c8183611a01565b8101031261025b578a985199386107c6565b503d610a12565b6040513d85823e3d90fd5b9093508681813d8311610a68575b610a588183611a01565b8101031261025b5751923861079f565b503d610a4e565b6040513d84823e3d90fd5b50346102ae57806003193601126102ae576020600d54604051908152f35b50346102ae5760203660031901126102ae576020906040906001600160a01b03610ac061196d565b1681528083522054604051908152f35b50346102ae576020806003193601126104c757610aeb61196d565b610af3611b9e565b610b12600a546001600160701b0391828216928260701c169160e01c90565b50909160018060a01b03928360085416936040519386856024816370a0823160e01b998a82523060048301525afa948515610d7a578895610d85575b508682600954169660246040518099819382523060048301525afa958615610d7a578896610d4b575b506001600160701b039283811696610b8f8888611b12565b9685841694610b9e8684611b12565b97610ba98686611def565b966002549b8c15600014610d1c575050610bcb610bc68a8c611b1f565b611bc1565b6103e7198101908111610d08579a6103e890818101809111610cf2576000805160206120808339815191528e60009260025561dead9384845283825260408420818154019055604051908152a35b8a15610ce057610c298b82611b52565b168b52600e8a5260408b2080546001600160801b03808c1681831601818111610ccc57610c6b98999a9b9c9d9e5016906001600160801b031916179055611ce1565b610cae575b50604051918252838201527f4c209b5fc8ad50758f13e2e1088ba56a560dff690a1c6fef26394f4c03821c4f60403392a26001600555604051908152f35b610cc390600a5490808260701c169116611b1f565b600d5538610c70565b634e487b7160e01b8f52601160045260248ffd5b604051633489be7560e21b8152600490fd5b634e487b7160e01b600052601160045260246000fd5b634e487b7160e01b8e52601160045260248efd5b906107f5610d35610d3c938f959f8f906107f591611b1f565b938c611b1f565b90818082109118021899610c19565b9095508681813d8311610d73575b610d638183611a01565b8101031261025b57519438610b77565b503d610d59565b6040513d8a823e3d90fd5b9094508681813d8311610dad575b610d9d8183611a01565b8101031261025b57519338610b4e565b503d610d93565b50346102ae57806003193601126102ae576020600c54604051908152f35b50346102ae57806003193601126102ae576020600b54604051908152f35b50346102ae5760203660031901126102ae5760a0906040906001600160a01b03610e1861196d565b168152600e602052206001600160801b039081815416916001820154916003600282015491015492604051948552602085015260408401528116606083015260801c6080820152f35b50346102ae5760403660031901126102ae57610e7b61196d565b610e83611983565b6007546001600160a01b03919082163303610ec157816bffffffffffffffffffffffff60a01b93168360085416176008551690600954161760095580f35b604051631dd2188d60e31b8152600490fd5b50346102ae57806003193601126102ae576020601054604051908152f35b50346102ae57806003193601126102ae57602060405160128152f35b50346102ae57806003193601126102ae576020600654604051908152f35b50346102ae5760603660031901126102ae57610f4561196d565b610f4d611983565b60443591604060018060a01b0382169485815260016020522033600052602052604060002054936000198510610f89575b5061050f9350611a39565b838510610ff5578015610fdc573315610fc35761050f94849160005260016020526040600020336000526020520360406000205538610f7e565b604051634a1406b160e11b815260006004820152602490fd5b60405163e602df0560e01b815260006004820152602490fd5b604051637dc7a0d960e11b81523360048201526024810186905260448101859052606490fd5b50346102ae57806003193601126102ae576020600254604051908152f35b50346102ae5760203660031901126102ae576060906040906001600160a01b0361106161196d565b168152600e602052206001600160801b03600381835416920154906040519283528116602083015260801c6040820152f35b50346102ae576110a2366119e2565b91906110c3600a546001600160701b0391828216928260701c169160e01c90565b50909290841561116257835b6001600160701b03948516951561115a5750925b60065492612710938403908482116111465761110b929161110391611b1f565b941684611b1f565b9382810292818404149015171561113257602061060b8561112c8686611b05565b90611b32565b634e487b7160e01b81526011600452602490fd5b634e487b7160e01b84526011600452602484fd5b9050926110e3565b80936110cf565b50346102ae57611178366119e2565b90611198600a546001600160701b0391828216928260701c169160e01c90565b5090831561122d5780935b156112255750905b6111bf816001600160701b03809516611b1f565b926127109283850294808604851490151715611211576111e0929116611b12565b6006548203918211611146576111fa929161112c91611b1f565b906001820180921161113257602082604051908152f35b634e487b7160e01b86526011600452602486fd5b9050906111ab565b81936111a3565b50346102ae57806003193601126102ae576008546040516001600160a01b039091168152602090f35b50346102ae5760403660031901126102ae5761127761196d565b602435903315610fdc576001600160a01b0316908115610fc357336000526001602052604060002082600052602052806040600020556040519081527f8c5be1e5ebec7d5bd14f71427d1e84f3dd0314c0f7b2291e5b200ac8c7c3b92560203392a3602060405160018152f35b50346102ae57806003193601126102ae57606063ffffffff61131b600a546001600160701b0391828216928260701c169160e01c90565b909291604051936001600160701b038092168552166020840152166040820152f35b50346102ae57806003193601126102ae576040518160035490600182811c918184169384156113ee575b60209485851081146106f7578487529081156106d55750600114611395576106788561066c81890382611a01565b929450600383527fc2575a0e9e593c00f959f8c92f12db2869c3395a3b0502d05e2516446f71f85b5b8284106113db57505050816106789361066c92820101933861065c565b80548585018701529285019281016113be565b92607f1692611367565b50346102ae5760803660031901126102ae576001600160a01b0360443580821690036104c75767ffffffffffffffff606435116104c7573660236064350112156104c75767ffffffffffffffff60643560040135116104c757366024606435600401356064350101116104c75761146d611b9e565b60043515908180611963575b6119515761149c600a546001600160701b0391828216928260701c169160e01c90565b506001600160701b03829492166004351080159061193c575b61192a5782600854169083600954169282856044351614801561191d575b61190b57156118f7575b6024356118e3575b6064356004013561181d575b604051916020836024816370a0823160e01b948582523060048301525afa9283156104bc5787936117e8575b5060209060246040518096819382523060048301525afa9283156104805786936117b4575b506115586004356001600160701b038716611b12565b8211156117ad5761157d6115776004356001600160701b038816611b12565b83611b12565b945b6115946024356001600160701b038416611b12565b8411156117a6576115b96115b36024356001600160701b038516611b12565b85611b12565b935b861593848061179e575b61178c57806127108102046127101481151715611778576006546115f66115ec828b611b1f565b6127108402611b12565b6127108402848104612710148515171561176457906116226116289261161c858c611b1f565b90611b12565b90611b1f565b6116446001600160701b0387166001600160701b038716611b1f565b60019061271060025b6001811161173b575080600019048311610cf25761166c920290611b1f565b11611729576116879515611706575b866116d5575b50611ce1565b60405192835260208301526004356040830152602435606083015260443516907fd78ad95fa46c994b6551d0da85fc275fe613ce37657fb8d5e3d130840159d82260803392a3600160055580f35b6116f56127106116e86116fd938a611b1f565b0460801b60025490611b32565b601054611b05565b60105538611681565b6117216117196127106116e8848d611b1f565b600f54611b05565b600f5561167b565b604051632f62f0d960e21b8152600490fd5b9080600019048111610cf2576001821661175b575b80029060011c61164d565b80930292611750565b634e487b7160e01b8c52601160045260248cfd5b634e487b7160e01b89526011600452602489fd5b60405163098fb56160e01b8152600490fd5b5085156115c5565b86936115bb565b859461157f565b9092506020813d6020116117e0575b816117d060209383611a01565b8101031261025b57519138611542565b3d91506117c3565b9092506020813d602011611815575b8161180460209383611a01565b8101031261025b575191602061151d565b3d91506117f7565b83604435163b156118df57604051630b3a63e360e21b815233600482015260043560248201526024356044820152608060648201526064356004013560848201526064356004013560246064350160a48301378660a46064356004013583010152868160a481601f19601f60643560040135011681010301818389604435165af180156104bc576118af575b506114f1565b67ffffffffffffffff81979297116118cb5760405294386118a9565b634e487b7160e01b82526041600452602482fd5b8580fd5b6118f260243560443585611f69565b6114e5565b61190660043560443584611f69565b6114dd565b604051630521f43160e31b8152600490fd5b50838560443516146114d3565b60405163bb55fd2760e01b8152600490fd5b506001600160701b03811660243510156114b5565b6040516342301c2360e01b8152600490fd5b5060243515611479565b600435906001600160a01b038216820361025b57565b602435906001600160a01b038216820361025b57565b6020808252825181830181905290939260005b8281106119ce57505060409293506000838284010152601f8019910116010190565b8181018601518482016040015285016119ac565b604090600319011261025b5760043590602435801515810361025b5790565b90601f8019910116810190811067ffffffffffffffff821117611a2357604052565b634e487b7160e01b600052604160045260246000fd5b916001600160a01b03808416928315611aec5716928315611ad35760009083825281602052604082205490838210611aa157509160408282600080516020612080833981519152958760209652828652038282205586815220818154019055604051908152a3565b60405163391434e360e21b81526001600160a01b03919091166004820152602481019190915260448101839052606490fd5b60405163ec442f0560e01b815260006004820152602490fd5b604051634b637e8f60e11b815260006004820152602490fd5b91908201809211610cf257565b91908203918211610cf257565b81810292918115918404141715610cf257565b8115611b3c570490565b634e487b7160e01b600052601260045260246000fd5b6001600160a01b0316908115611ad357600080516020612080833981519152602082611b82600094600254611b05565b60025584845283825260408420818154019055604051908152a3565b600260055414611baf576002600555565b604051633ee5aeb560e01b8152600490fd5b600180821115611cdd57611c7e908083600160801b811015611ccb575b80600160401b6004921015611cbe575b640100000000811015611cb1575b62010000811015611ca4575b610100811015611c98575b6010811015611c8c575b1015611c85575b600302811c611c338185611b32565b01811c611c408185611b32565b01811c611c4d8185611b32565b01811c611c5a8185611b32565b01811c611c678185611b32565b01811c611c748185611b32565b01901c8092611b32565b8111900390565b811b611c24565b811c9160021b91611c1d565b60081c91811b91611c13565b60101c9160081b91611c08565b60201c9160101b91611bfc565b60401c9160201b91611bee565b50600160401b9050608084901c611bde565b5090565b92916001600160701b03908185118015611de6575b611dd4577f1c411e9a96e071241c2f21f7726b17ae89e3cab4c78be50e062b03a9fffbbad1946040948392600a5463ffffffff9060e01c81421603168481151580611dc9575b80611dbe575b611d8d575b50505050607093841b6dffffffffffffffffffffffffffff60701b1691169081174260e01b6001600160e01b03191617600a819055845191825290921c166020820152a1565b80611dae94169216611da181838502611b32565b600b5401600b5502611b32565b600c5401600c5538808084611d47565b508084161515611d42565b508083161515611d3c565b604051631a93c68960e11b8152600490fd5b50818311611cf6565b600754604051622fcfcb60e31b815292939291906001600160a01b03906020908490600490829085165afa928315611f1557600093611ed7575b508216151593600d549185600014611ec65782611e47575b50505050565b610bc6611e6491611e6a936001600160701b038091169116611b1f565b91611bc1565b90818111611e79575b80611e41565b611e896002546116228484611b12565b90600581029080820460051490151715610cf257611eaa9261112c91611b05565b80611eb6575b80611e73565b611ebf91611b52565b3880611eb0565b50509050611ed057565b6000600d55565b6020939193813d8211611f0d575b81611ef260209383611a01565b810103126104c757519083821682036102ae57509138611e29565b3d9150611ee5565b6040513d6000823e3d90fd5b600a546001600160701b03808216918215611f615760701c1690670de0b6b3a764000091828102928184041490151715610cf257611f5e91611b32565b90565b505050600090565b60405163a9059cbb60e01b60208083019182526001600160a01b039094166024830152604480830195909552938152919267ffffffffffffffff926080810184811182821017611a2357604052600092839283809351925af1913d15612077573d9081116118cb5760405190611fe8601f8201601f1916860183611a01565b81523d828583013e5b82612037575b5050156120015750565b6064906040519062461bcd60e51b82526004820152600f60248201526e1514905394d1915497d19052531151608a1b6044820152fd5b8051925082159190848315612053575b50505090503880611ff7565b9193818094500103126104c7578201519081151582036102ae575080388084612047565b506060611ff156feddf252ad1be2c89b69c2b068fc378daa952ba7f163c4a11628f55a4df523b3efa264697066735822122049ed6bfc657ee55011de5ff80de505c3b69a488f87a4b82bea4db04d976d2a6464736f6c63430008140033a26469706673582212209385b947d8a26a35be110e6c2e65f9343a1f58513c5ffe65f6257b16bcd7b38164736f6c63430008140033","opcodes":"PUSH1 0x80 CALLVALUE PUSH2 0x11B JUMPI PUSH1 0x1 PUSH1 0x1 PUSH1 0x40 SHL SUB PUSH2 0x2D72 CODESIZE DUP2 SWAP1 SUB PUSH1 0x1F DUP2 ADD PUSH1 0x1F NOT AND DUP5 ADD DUP4 DUP2 GT DUP6 DUP3 LT OR PUSH2 0x105 JUMPI DUP5 SWAP3 DUP3 SWAP2 PUSH1 0x40 MSTORE DUP4 CODECOPY PUSH1 0x20 SWAP4 DUP5 SWAP2 DUP2 ADD SUB SLT PUSH2 0x11B JUMPI MLOAD PUSH1 0x1 PUSH1 0x1 PUSH1 0xA0 SHL SUB DUP2 AND SWAP3 SWAP1 DUP4 SWAP1 SUB PUSH2 0x11B JUMPI PUSH1 0x40 MLOAD SWAP2 PUSH1 0x80 DUP4 ADD SWAP1 DUP2 GT DUP4 DUP3 LT OR PUSH2 0x105 JUMPI PUSH1 0x40 MSTORE PUSH1 0x5 DUP3 MSTORE PUSH1 0x19 DUP2 DUP4 ADD MSTORE PUSH1 0x32 PUSH1 0x40 DUP4 ADD MSTORE PUSH1 0x64 PUSH1 0x60 DUP4 ADD MSTORE PUSH1 0x4 SWAP2 DUP3 SLOAD DUP4 DUP1 SSTORE DUP1 DUP5 LT PUSH2 0xDD JUMPI JUMPDEST POP SWAP1 DUP3 PUSH1 0x0 MSTORE DUP1 PUSH1 0x0 KECCAK256 SWAP1 PUSH1 0x0 JUMPDEST DUP5 DUP2 LT PUSH2 0xC8 JUMPI PUSH1 0x1 DUP1 SLOAD PUSH1 0x1 PUSH1 0x1 PUSH1 0xA0 SHL SUB NOT AND DUP8 OR SWAP1 SSTORE PUSH1 0x40 MLOAD PUSH2 0x2C51 SWAP1 DUP2 PUSH2 0x121 DUP3 CODECOPY RETURN JUMPDEST DUP4 MLOAD PUSH1 0xFF AND DUP4 DUP3 ADD SSTORE SWAP3 DUP2 ADD SWAP3 PUSH1 0x1 ADD PUSH2 0xA0 JUMP JUMPDEST PUSH1 0x0 DUP5 DUP2 MSTORE DUP5 DUP5 DUP3 KECCAK256 SWAP3 DUP4 ADD SWAP3 ADD JUMPDEST DUP3 DUP2 LT PUSH2 0xFA JUMPI POP POP PUSH2 0x92 JUMP JUMPDEST DUP2 DUP2 SSTORE PUSH1 0x1 ADD PUSH2 0xEC JUMP JUMPDEST PUSH4 0x4E487B71 PUSH1 0xE0 SHL PUSH1 0x0 MSTORE PUSH1 0x41 PUSH1 0x4 MSTORE PUSH1 0x24 PUSH1 0x0 REVERT JUMPDEST PUSH1 0x0 DUP1 REVERT INVALID PUSH1 0x80 PUSH1 0x40 MSTORE PUSH1 0x4 CALLDATASIZE LT ISZERO PUSH3 0x13 JUMPI PUSH1 0x0 DUP1 REVERT JUMPDEST PUSH1 0x0 CALLDATALOAD PUSH1 0xE0 SHR DUP1 PUSH4 0x17E7E58 EQ PUSH3 0xD7 JUMPI DUP1 PUSH4 0x94B7415 EQ PUSH3 0xD1 JUMPI DUP1 PUSH4 0x1E3DD18B EQ PUSH3 0xCB JUMPI DUP1 PUSH4 0x230ED44A EQ PUSH3 0xC5 JUMPI DUP1 PUSH4 0x574F2BA3 EQ PUSH3 0xBF JUMPI DUP1 PUSH4 0x96ED28F9 EQ PUSH3 0xAD JUMPI DUP1 PUSH4 0xA2E74AF6 EQ PUSH3 0xB9 JUMPI DUP1 PUSH4 0xC9C65396 EQ PUSH3 0xB3 JUMPI DUP1 PUSH4 0xE6A43905 EQ PUSH3 0xAD JUMPI DUP1 PUSH4 0xE9A4D24F EQ PUSH3 0xA7 JUMPI PUSH4 0xF46901ED EQ PUSH3 0xA1 JUMPI PUSH1 0x0 DUP1 REVERT JUMPDEST PUSH3 0x693 JUMP JUMPDEST PUSH3 0x5D3 JUMP JUMPDEST PUSH3 0x24D JUMP JUMPDEST PUSH3 0x333 JUMP JUMPDEST PUSH3 0x2AC JUMP JUMPDEST PUSH3 0x1FF JUMP JUMPDEST PUSH3 0x1B0 JUMP JUMPDEST PUSH3 0x157 JUMP JUMPDEST PUSH3 0x119 JUMP JUMPDEST PUSH3 0xEE JUMP JUMPDEST PUSH1 0x0 SWAP2 SUB SLT PUSH3 0xE9 JUMPI JUMP JUMPDEST PUSH1 0x0 DUP1 REVERT JUMPDEST CALLVALUE PUSH3 0xE9 JUMPI PUSH1 0x0 CALLDATASIZE PUSH1 0x3 NOT ADD SLT PUSH3 0xE9 JUMPI PUSH1 0x0 SLOAD PUSH1 0x40 MLOAD PUSH1 0x1 PUSH1 0x1 PUSH1 0xA0 SHL SUB SWAP1 SWAP2 AND DUP2 MSTORE PUSH1 0x20 SWAP1 RETURN JUMPDEST CALLVALUE PUSH3 0xE9 JUMPI PUSH1 0x0 CALLDATASIZE PUSH1 0x3 NOT ADD SLT PUSH3 0xE9 JUMPI PUSH1 0x1 SLOAD PUSH1 0x40 MLOAD PUSH1 0x1 PUSH1 0x1 PUSH1 0xA0 SHL SUB SWAP1 SWAP2 AND DUP2 MSTORE PUSH1 0x20 SWAP1 RETURN JUMPDEST PUSH1 0x20 SWAP1 PUSH1 0x3 NOT ADD SLT PUSH3 0xE9 JUMPI PUSH1 0x4 CALLDATALOAD SWAP1 JUMP JUMPDEST CALLVALUE PUSH3 0xE9 JUMPI PUSH3 0x168 CALLDATASIZE PUSH3 0x144 JUMP JUMPDEST PUSH1 0x3 SLOAD DUP2 LT ISZERO PUSH3 0xE9 JUMPI PUSH1 0x3 PUSH1 0x0 MSTORE PUSH32 0xC2575A0E9E593C00F959F8C92F12DB2869C3395A3B0502D05E2516446F71F85B ADD SLOAD PUSH1 0x40 MLOAD PUSH1 0x1 PUSH1 0x1 PUSH1 0xA0 SHL SUB SWAP1 SWAP2 AND DUP2 MSTORE PUSH1 0x20 SWAP1 RETURN JUMPDEST CALLVALUE PUSH3 0xE9 JUMPI PUSH3 0x1C1 CALLDATASIZE PUSH3 0x144 JUMP JUMPDEST PUSH1 0x4 SLOAD DUP2 LT ISZERO PUSH3 0xE9 JUMPI PUSH1 0x20 SWAP1 PUSH1 0x4 PUSH1 0x0 MSTORE PUSH32 0x8A35ACFBC15FF81A39AE7D344FD709F28E8600B4AA8C65C6B64BFE7FE36BD19B ADD SLOAD PUSH1 0x40 MLOAD SWAP1 DUP2 MSTORE RETURN JUMPDEST CALLVALUE PUSH3 0xE9 JUMPI PUSH1 0x0 CALLDATASIZE PUSH1 0x3 NOT ADD SLT PUSH3 0xE9 JUMPI PUSH1 0x20 PUSH1 0x3 SLOAD PUSH1 0x40 MLOAD SWAP1 DUP2 MSTORE RETURN JUMPDEST PUSH1 0x4 CALLDATALOAD SWAP1 PUSH1 0x1 PUSH1 0x1 PUSH1 0xA0 SHL SUB DUP3 AND DUP3 SUB PUSH3 0xE9 JUMPI JUMP JUMPDEST PUSH1 0x24 CALLDATALOAD SWAP1 PUSH1 0x1 PUSH1 0x1 PUSH1 0xA0 SHL SUB DUP3 AND DUP3 SUB PUSH3 0xE9 JUMPI JUMP JUMPDEST CALLVALUE PUSH3 0xE9 JUMPI PUSH1 0x40 CALLDATASIZE PUSH1 0x3 NOT ADD SLT PUSH3 0xE9 JUMPI PUSH1 0x20 PUSH3 0x26C PUSH3 0x21F JUMP JUMPDEST PUSH3 0x2A2 PUSH3 0x27A PUSH3 0x236 JUMP JUMPDEST PUSH1 0x1 PUSH1 0x1 PUSH1 0xA0 SHL SUB SWAP3 DUP4 AND PUSH1 0x0 SWAP1 DUP2 MSTORE PUSH1 0x2 DUP6 MSTORE PUSH1 0x40 DUP1 DUP3 KECCAK256 SWAP3 DUP6 AND DUP3 MSTORE PUSH1 0x20 SWAP3 SWAP1 SWAP3 MSTORE KECCAK256 SWAP1 JUMP JUMPDEST SLOAD AND PUSH1 0x40 MLOAD SWAP1 DUP2 MSTORE RETURN JUMPDEST CALLVALUE PUSH3 0xE9 JUMPI PUSH1 0x20 CALLDATASIZE PUSH1 0x3 NOT ADD SLT PUSH3 0xE9 JUMPI PUSH3 0x2C9 PUSH3 0x21F JUMP JUMPDEST PUSH1 0x1 SLOAD SWAP1 PUSH1 0x1 PUSH1 0x1 PUSH1 0xA0 SHL SUB DUP1 DUP4 AND SWAP2 CALLER DUP4 SWAP1 SUB PUSH3 0x321 JUMPI AND DUP1 SWAP3 PUSH12 0xFFFFFFFFFFFFFFFFFFFFFFFF PUSH1 0xA0 SHL AND OR PUSH1 0x1 SSTORE PUSH32 0xCCA89BC909E02B7F333D20EE52583360F8EDE8C27D76774F1E1C5935576A7F72 PUSH1 0x0 DUP1 LOG3 STOP JUMPDEST PUSH1 0x40 MLOAD PUSH4 0x1DD2188D PUSH1 0xE3 SHL DUP2 MSTORE PUSH1 0x4 SWAP1 REVERT JUMPDEST CALLVALUE PUSH3 0xE9 JUMPI PUSH1 0x40 DUP1 PUSH1 0x3 NOT CALLDATASIZE ADD SLT PUSH3 0xE9 JUMPI PUSH3 0x351 PUSH3 0x21F JUMP JUMPDEST SWAP1 PUSH3 0x35C PUSH3 0x236 JUMP JUMPDEST PUSH1 0x1 PUSH1 0x1 PUSH1 0xA0 SHL SUB SWAP3 SWAP1 SWAP2 SWAP1 DUP4 DUP4 AND DUP2 DUP6 AND DUP1 DUP3 EQ PUSH3 0x5C2 JUMPI LT ISZERO PUSH3 0x5BC JUMPI SWAP2 JUMPDEST DUP4 DUP4 AND DUP1 ISZERO PUSH3 0x5AB JUMPI PUSH3 0x3E3 PUSH3 0x3D7 PUSH3 0x3CA DUP5 PUSH3 0x3B3 DUP9 PUSH1 0x1 DUP1 PUSH1 0xA0 SHL SUB AND PUSH1 0x0 MSTORE PUSH1 0x2 PUSH1 0x20 MSTORE PUSH1 0x40 PUSH1 0x0 KECCAK256 SWAP1 JUMP JUMPDEST SWAP1 PUSH1 0x1 DUP1 PUSH1 0xA0 SHL SUB AND PUSH1 0x0 MSTORE PUSH1 0x20 MSTORE PUSH1 0x40 PUSH1 0x0 KECCAK256 SWAP1 JUMP JUMPDEST SLOAD PUSH1 0x1 PUSH1 0x1 PUSH1 0xA0 SHL SUB AND SWAP1 JUMP JUMPDEST PUSH1 0x1 PUSH1 0x1 PUSH1 0xA0 SHL SUB AND SWAP1 JUMP JUMPDEST PUSH3 0x59A JUMPI PUSH2 0x2421 PUSH3 0x3F9 PUSH1 0x20 DUP3 ADD PUSH3 0x75B JUMP JUMPDEST SWAP1 DUP1 DUP3 MSTORE PUSH1 0x20 DUP3 ADD SWAP1 PUSH3 0x7FB DUP3 CODECOPY DUP5 MLOAD PUSH1 0x60 DUP8 DUP2 SHL PUSH12 0xFFFFFFFFFFFFFFFFFFFFFFFF NOT SWAP1 DUP2 AND PUSH1 0x20 DUP5 ADD SWAP1 DUP2 MSTORE SWAP2 DUP8 SWAP1 SHL AND PUSH1 0x34 DUP4 ADD MSTORE PUSH1 0x28 DUP3 MSTORE SWAP1 PUSH3 0x443 PUSH1 0x48 DUP3 PUSH3 0x738 JUMP JUMPDEST MLOAD SWAP1 KECCAK256 SWAP2 MLOAD SWAP1 PUSH1 0x0 CREATE2 SWAP4 DUP6 DUP6 AND SWAP6 DUP7 EXTCODESIZE ISZERO PUSH3 0xE9 JUMPI DUP5 MLOAD PUSH4 0x485CC955 PUSH1 0xE0 SHL DUP2 MSTORE PUSH1 0x1 PUSH1 0x1 PUSH1 0xA0 SHL SUB DUP4 DUP2 AND PUSH1 0x4 DUP4 ADD MSTORE DUP6 AND PUSH1 0x24 DUP3 ADD MSTORE SWAP7 PUSH1 0x0 SWAP1 DUP9 SWAP1 PUSH1 0x44 SWAP1 DUP3 SWAP1 DUP5 SWAP1 GAS CALL SWAP2 DUP3 ISZERO PUSH3 0x594 JUMPI DUP7 PUSH3 0x4F2 PUSH3 0x52F SWAP3 PUSH3 0x572 SWAP11 PUSH32 0xD3648BD0F6BA80134A33BA9275AC585D9D315F0AD8355CDDEFDE31AFA28D0E9 SWAP7 PUSH3 0x576 JUMPI JUMPDEST POP PUSH3 0x511 DUP4 PUSH3 0x4F2 DUP11 PUSH3 0x3B3 DUP6 PUSH1 0x1 DUP1 PUSH1 0xA0 SHL SUB AND PUSH1 0x0 MSTORE PUSH1 0x2 PUSH1 0x20 MSTORE PUSH1 0x40 PUSH1 0x0 KECCAK256 SWAP1 JUMP JUMPDEST DUP1 SLOAD PUSH1 0x1 PUSH1 0x1 PUSH1 0xA0 SHL SUB NOT AND PUSH1 0x1 PUSH1 0x1 PUSH1 0xA0 SHL SUB SWAP1 SWAP3 AND SWAP2 SWAP1 SWAP2 OR SWAP1 SSTORE JUMP JUMPDEST PUSH1 0x1 PUSH1 0x1 PUSH1 0xA0 SHL SUB DUP9 AND PUSH1 0x0 SWAP1 DUP2 MSTORE PUSH1 0x2 PUSH1 0x20 MSTORE PUSH1 0x40 SWAP1 KECCAK256 PUSH3 0x3B3 JUMP JUMPDEST PUSH3 0x53A DUP7 PUSH3 0x779 JUMP JUMPDEST PUSH1 0x3 SLOAD DUP6 MLOAD PUSH1 0x1 PUSH1 0x1 PUSH1 0xA0 SHL SUB DUP9 AND DUP2 MSTORE PUSH1 0x20 DUP2 ADD SWAP2 SWAP1 SWAP2 MSTORE SWAP4 AND SWAP3 PUSH1 0x40 SWAP1 LOG3 MLOAD PUSH1 0x1 PUSH1 0x1 PUSH1 0xA0 SHL SUB SWAP1 SWAP2 AND DUP2 MSTORE SWAP1 DUP2 SWAP1 PUSH1 0x20 DUP3 ADD SWAP1 JUMP JUMPDEST SUB SWAP1 RETURN JUMPDEST DUP1 PUSH3 0x586 PUSH3 0x58D SWAP3 PUSH3 0x71D JUMP JUMPDEST DUP1 PUSH3 0xDD JUMP JUMPDEST CODESIZE PUSH3 0x4CA JUMP JUMPDEST PUSH3 0x76D JUMP JUMPDEST DUP3 MLOAD PUSH4 0x3D77E891 PUSH1 0xE0 SHL DUP2 MSTORE PUSH1 0x4 SWAP1 REVERT JUMPDEST DUP3 MLOAD PUSH4 0xD92E233D PUSH1 0xE0 SHL DUP2 MSTORE PUSH1 0x4 SWAP1 REVERT JUMPDEST PUSH3 0x37F JUMP JUMPDEST DUP4 MLOAD PUSH4 0xBD969EB PUSH1 0xE4 SHL DUP2 MSTORE PUSH1 0x4 SWAP1 REVERT JUMPDEST CALLVALUE PUSH3 0xE9 JUMPI PUSH1 0x0 DUP1 PUSH1 0x3 NOT CALLDATASIZE ADD SLT PUSH3 0x690 JUMPI PUSH1 0x40 MLOAD DUP1 SWAP2 PUSH1 0x4 SLOAD SWAP1 DUP2 DUP4 MSTORE PUSH1 0x20 DUP1 SWAP4 ADD DUP1 SWAP3 PUSH1 0x4 DUP4 MSTORE PUSH32 0x8A35ACFBC15FF81A39AE7D344FD709F28E8600B4AA8C65C6B64BFE7FE36BD19B SWAP1 DUP4 JUMPDEST DUP2 DUP2 LT PUSH3 0x67B JUMPI POP POP POP DUP5 PUSH3 0x63B SWAP2 SUB DUP6 PUSH3 0x738 JUMP JUMPDEST PUSH1 0x40 MLOAD SWAP4 DUP4 DUP6 SWAP5 DUP6 ADD SWAP2 DUP2 DUP7 MSTORE MLOAD DUP1 SWAP3 MSTORE PUSH1 0x40 DUP6 ADD SWAP4 SWAP3 JUMPDEST DUP3 DUP2 LT PUSH3 0x663 JUMPI POP POP POP POP SUB SWAP1 RETURN JUMPDEST DUP4 MLOAD DUP6 MSTORE DUP7 SWAP6 POP SWAP4 DUP2 ADD SWAP4 SWAP3 DUP2 ADD SWAP3 PUSH1 0x1 ADD PUSH3 0x653 JUMP JUMPDEST DUP3 SLOAD DUP5 MSTORE SWAP3 DUP7 ADD SWAP3 PUSH1 0x1 SWAP3 DUP4 ADD SWAP3 ADD PUSH3 0x622 JUMP JUMPDEST DUP1 REVERT JUMPDEST CALLVALUE PUSH3 0xE9 JUMPI PUSH1 0x20 CALLDATASIZE PUSH1 0x3 NOT ADD SLT PUSH3 0xE9 JUMPI PUSH3 0x6B0 PUSH3 0x21F JUMP JUMPDEST PUSH1 0x1 SLOAD PUSH1 0x1 PUSH1 0x1 PUSH1 0xA0 SHL SUB SWAP2 SWAP1 DUP3 AND CALLER SUB PUSH3 0x321 JUMPI PUSH1 0x0 DUP1 SLOAD PUSH1 0x1 PUSH1 0x1 PUSH1 0xA0 SHL SUB NOT DUP2 AND SWAP3 DUP5 AND SWAP3 DUP4 OR DUP3 SSTORE SWAP1 SWAP3 AND PUSH32 0x8F93286D6F131E956D1AA672D3ECDC817F24EFC20B223B0DE5D591F454EDC347 DUP4 DUP1 LOG3 DUP1 RETURN JUMPDEST PUSH4 0x4E487B71 PUSH1 0xE0 SHL PUSH1 0x0 MSTORE PUSH1 0x41 PUSH1 0x4 MSTORE PUSH1 0x24 PUSH1 0x0 REVERT JUMPDEST PUSH8 0xFFFFFFFFFFFFFFFF DUP2 GT PUSH3 0x732 JUMPI PUSH1 0x40 MSTORE JUMP JUMPDEST PUSH3 0x707 JUMP JUMPDEST SWAP1 PUSH1 0x1F DUP1 NOT SWAP2 ADD AND DUP2 ADD SWAP1 DUP2 LT PUSH8 0xFFFFFFFFFFFFFFFF DUP3 GT OR PUSH3 0x732 JUMPI PUSH1 0x40 MSTORE JUMP JUMPDEST SWAP1 PUSH3 0x76B PUSH1 0x40 MLOAD SWAP3 DUP4 PUSH3 0x738 JUMP JUMPDEST JUMP JUMPDEST PUSH1 0x40 MLOAD RETURNDATASIZE PUSH1 0x0 DUP3 RETURNDATACOPY RETURNDATASIZE SWAP1 REVERT JUMPDEST PUSH1 0x3 SLOAD PUSH9 0x10000000000000000 DUP2 LT ISZERO PUSH3 0x732 JUMPI PUSH1 0x1 DUP2 ADD DUP1 PUSH1 0x3 SSTORE DUP2 LT ISZERO PUSH3 0x7E4 JUMPI PUSH1 0x3 PUSH1 0x0 MSTORE PUSH32 0xC2575A0E9E593C00F959F8C92F12DB2869C3395A3B0502D05E2516446F71F85B ADD DUP1 SLOAD PUSH1 0x1 PUSH1 0x1 PUSH1 0xA0 SHL SUB NOT AND PUSH1 0x1 PUSH1 0x1 PUSH1 0xA0 SHL SUB SWAP1 SWAP3 AND SWAP2 SWAP1 SWAP2 OR SWAP1 SSTORE JUMP JUMPDEST PUSH4 0x4E487B71 PUSH1 0xE0 SHL PUSH1 0x0 MSTORE PUSH1 0x32 PUSH1 0x4 MSTORE PUSH1 0x24 PUSH1 0x0 REVERT INVALID PUSH1 0x80 CALLVALUE PUSH3 0x346 JUMPI PUSH1 0x1 PUSH1 0x1 PUSH1 0x40 SHL SUB SWAP1 PUSH1 0x40 SWAP1 DUP1 DUP3 ADD DUP4 DUP2 GT DUP3 DUP3 LT OR PUSH3 0x246 JUMPI DUP3 MSTORE PUSH1 0x10 DUP2 MSTORE PUSH1 0x20 SWAP3 PUSH16 0x22B637B8BAB930902628102A37B5B2B7 PUSH1 0x81 SHL DUP5 DUP4 ADD MSTORE DUP3 MLOAD SWAP1 DUP4 DUP3 ADD DUP3 DUP2 LT DUP3 DUP3 GT OR PUSH3 0x246 JUMPI DUP5 MSTORE PUSH1 0x6 DUP3 MSTORE PUSH6 0x454C512D4C5 PUSH1 0xD4 SHL DUP6 DUP4 ADD MSTORE DUP3 MLOAD DUP2 DUP2 GT PUSH3 0x246 JUMPI PUSH1 0x3 SWAP1 DUP2 SLOAD SWAP1 PUSH1 0x1 SWAP6 DUP7 DUP4 DUP2 SHR SWAP4 AND DUP1 ISZERO PUSH3 0x33B JUMPI JUMPDEST DUP10 DUP5 LT EQ PUSH3 0x325 JUMPI DUP2 SWAP1 PUSH1 0x1F SWAP4 DUP5 DUP2 GT PUSH3 0x2CF JUMPI JUMPDEST POP DUP10 SWAP1 DUP5 DUP4 GT PUSH1 0x1 EQ PUSH3 0x268 JUMPI PUSH1 0x0 SWAP3 PUSH3 0x25C JUMPI JUMPDEST POP POP PUSH1 0x0 NOT DUP3 DUP6 SHL SHR NOT AND SWAP1 DUP7 SHL OR DUP3 SSTORE JUMPDEST DUP4 MLOAD SWAP3 DUP4 GT PUSH3 0x246 JUMPI PUSH1 0x4 SWAP4 DUP5 SLOAD SWAP8 DUP7 DUP10 DUP2 SHR SWAP10 AND DUP1 ISZERO PUSH3 0x23B JUMPI JUMPDEST DUP2 DUP11 LT EQ PUSH3 0x226 JUMPI DUP9 DUP4 DUP7 SWAP8 SWAP9 SWAP10 SWAP11 GT PUSH3 0x1CA JUMPI JUMPDEST POP DUP1 SWAP3 DUP6 GT PUSH1 0x1 EQ PUSH3 0x15C JUMPI POP PUSH1 0x0 SWAP4 PUSH3 0x150 JUMPI JUMPDEST POP POP DUP3 DUP6 SHL SWAP3 PUSH1 0x0 NOT SWAP2 SHL SHR NOT AND OR SWAP1 SSTORE JUMPDEST PUSH1 0x5 SSTORE PUSH1 0x1E PUSH1 0x6 SSTORE PUSH1 0x7 DUP1 SLOAD PUSH1 0x1 PUSH1 0x1 PUSH1 0xA0 SHL SUB NOT AND CALLER OR SWAP1 SSTORE MLOAD PUSH2 0x20D5 SWAP1 DUP2 PUSH3 0x34C DUP3 CODECOPY RETURN JUMPDEST ADD MLOAD SWAP2 POP CODESIZE DUP1 PUSH3 0x116 JUMP JUMPDEST SWAP3 SWAP2 SWAP1 DUP8 SWAP6 POP PUSH1 0x1F NOT DUP6 AND DUP8 PUSH1 0x0 MSTORE DUP5 PUSH1 0x0 KECCAK256 SWAP5 PUSH1 0x0 SWAP1 JUMPDEST DUP3 DUP3 LT PUSH3 0x1B0 JUMPI POP POP DUP6 GT PUSH3 0x195 JUMPI JUMPDEST POP POP POP POP DUP2 SHL ADD SWAP1 SSTORE PUSH3 0x128 JUMP JUMPDEST ADD MLOAD SWAP1 PUSH1 0xF8 DUP5 PUSH1 0x0 NOT SWAP3 SHL AND SHR NOT AND SWAP1 SSTORE CODESIZE DUP1 DUP1 DUP1 PUSH3 0x186 JUMP JUMPDEST DUP5 DUP5 ADD MLOAD DUP8 SSTORE DUP11 SWAP9 SWAP1 SWAP7 ADD SWAP6 SWAP4 DUP5 ADD SWAP4 SWAP1 DUP2 ADD SWAP1 PUSH3 0x174 JUMP JUMPDEST SWAP1 SWAP2 SWAP3 SWAP4 SWAP5 POP DUP7 PUSH1 0x0 MSTORE DUP2 PUSH1 0x0 KECCAK256 DUP5 DUP1 DUP9 ADD PUSH1 0x5 SHR DUP3 ADD SWAP3 DUP5 DUP10 LT PUSH3 0x21C JUMPI JUMPDEST SWAP2 DUP11 SWAP2 DUP10 SWAP9 SWAP8 SWAP7 SWAP6 SWAP5 SWAP4 ADD PUSH1 0x5 SHR ADD SWAP2 JUMPDEST DUP3 DUP2 LT PUSH3 0x20C JUMPI POP POP PUSH3 0xFF JUMP JUMPDEST PUSH1 0x0 DUP2 SSTORE DUP9 SWAP8 POP DUP11 SWAP2 ADD PUSH3 0x1FC JUMP JUMPDEST SWAP3 POP DUP2 SWAP3 PUSH3 0x1EB JUMP JUMPDEST PUSH1 0x22 DUP7 PUSH4 0x4E487B71 PUSH1 0xE0 SHL PUSH1 0x0 MSTORE MSTORE PUSH1 0x24 PUSH1 0x0 REVERT JUMPDEST SWAP9 PUSH1 0x7F AND SWAP9 PUSH3 0xE8 JUMP JUMPDEST PUSH4 0x4E487B71 PUSH1 0xE0 SHL PUSH1 0x0 MSTORE PUSH1 0x41 PUSH1 0x4 MSTORE PUSH1 0x24 PUSH1 0x0 REVERT JUMPDEST ADD MLOAD SWAP1 POP CODESIZE DUP1 PUSH3 0xB8 JUMP JUMPDEST SWAP1 DUP9 SWAP4 POP PUSH1 0x1F NOT DUP4 AND SWAP2 DUP7 PUSH1 0x0 MSTORE DUP12 PUSH1 0x0 KECCAK256 SWAP3 PUSH1 0x0 JUMPDEST DUP14 DUP3 DUP3 LT PUSH3 0x2B8 JUMPI POP POP DUP5 GT PUSH3 0x29F JUMPI JUMPDEST POP POP POP DUP2 SHL ADD DUP3 SSTORE PUSH3 0xCA JUMP JUMPDEST ADD MLOAD PUSH1 0x0 NOT DUP4 DUP8 SHL PUSH1 0xF8 AND SHR NOT AND SWAP1 SSTORE CODESIZE DUP1 DUP1 PUSH3 0x291 JUMP JUMPDEST DUP4 DUP6 ADD MLOAD DUP7 SSTORE DUP13 SWAP8 SWAP1 SWAP6 ADD SWAP5 SWAP4 DUP5 ADD SWAP4 ADD PUSH3 0x27E JUMP JUMPDEST SWAP1 SWAP2 POP DUP5 PUSH1 0x0 MSTORE DUP10 PUSH1 0x0 KECCAK256 DUP5 DUP1 DUP6 ADD PUSH1 0x5 SHR DUP3 ADD SWAP3 DUP13 DUP7 LT PUSH3 0x31B JUMPI JUMPDEST SWAP2 DUP11 SWAP2 DUP7 SWAP6 SWAP5 SWAP4 ADD PUSH1 0x5 SHR ADD SWAP2 JUMPDEST DUP3 DUP2 LT PUSH3 0x30B JUMPI POP POP PUSH3 0xA1 JUMP JUMPDEST PUSH1 0x0 DUP2 SSTORE DUP6 SWAP5 POP DUP11 SWAP2 ADD PUSH3 0x2FB JUMP JUMPDEST SWAP3 POP DUP2 SWAP3 PUSH3 0x2ED JUMP JUMPDEST PUSH4 0x4E487B71 PUSH1 0xE0 SHL PUSH1 0x0 MSTORE PUSH1 0x22 PUSH1 0x4 MSTORE PUSH1 0x24 PUSH1 0x0 REVERT JUMPDEST SWAP3 PUSH1 0x7F AND SWAP3 PUSH3 0x8A JUMP JUMPDEST PUSH1 0x0 DUP1 REVERT INVALID PUSH1 0x80 PUSH1 0x40 MSTORE PUSH1 0x4 CALLDATASIZE LT ISZERO PUSH2 0x12 JUMPI PUSH1 0x0 DUP1 REVERT JUMPDEST PUSH1 0x0 DUP1 CALLDATALOAD PUSH1 0xE0 SHR DUP1 PUSH4 0x22C0D9F EQ PUSH2 0x13F8 JUMPI DUP1 PUSH4 0x6FDDE03 EQ PUSH2 0x133D JUMPI DUP1 PUSH4 0x902F1AC EQ PUSH2 0x12E4 JUMPI DUP1 PUSH4 0x95EA7B3 EQ PUSH2 0x125D JUMPI DUP1 PUSH4 0xDFE1681 EQ PUSH2 0x1234 JUMPI DUP1 PUSH4 0xE2479D8 EQ PUSH2 0x1169 JUMPI DUP1 PUSH4 0x11106EE2 EQ PUSH2 0x1093 JUMPI DUP1 PUSH4 0x16C19739 EQ PUSH2 0x1039 JUMPI DUP1 PUSH4 0x18160DDD EQ PUSH2 0x101B JUMPI DUP1 PUSH4 0x23B872DD EQ PUSH2 0xF2B JUMPI DUP1 PUSH4 0x2FFDAF89 EQ PUSH2 0xF0D JUMPI DUP1 PUSH4 0x313CE567 EQ PUSH2 0xEF1 JUMPI DUP1 PUSH4 0x46141319 EQ PUSH2 0xED3 JUMPI DUP1 PUSH4 0x485CC955 EQ PUSH2 0xE61 JUMPI DUP1 PUSH4 0x55F57510 EQ PUSH2 0xDF0 JUMPI DUP1 PUSH4 0x5909C0D5 EQ PUSH2 0xDD2 JUMPI DUP1 PUSH4 0x5A3D5493 EQ PUSH2 0xDB4 JUMPI DUP1 PUSH4 0x6A627842 EQ PUSH2 0xAD0 JUMPI DUP1 PUSH4 0x70A08231 EQ PUSH2 0xA98 JUMPI DUP1 PUSH4 0x7464FC3D EQ PUSH2 0xA7A JUMPI DUP1 PUSH4 0x89AFCB44 EQ PUSH2 0x715 JUMPI DUP1 PUSH4 0x95D89B41 EQ PUSH2 0x613 JUMPI DUP1 PUSH4 0x98D5FDCA EQ PUSH2 0x5F0 JUMPI DUP1 PUSH4 0xA480CA79 EQ PUSH2 0x51A JUMPI DUP1 PUSH4 0xA9059CBB EQ PUSH2 0x4E8 JUMPI DUP1 PUSH4 0xBA9A7A56 EQ PUSH2 0x4CB JUMPI DUP1 PUSH4 0xBC25CF77 EQ PUSH2 0x38D JUMPI DUP1 PUSH4 0xC45A0155 EQ PUSH2 0x364 JUMPI DUP1 PUSH4 0xD21220A7 EQ PUSH2 0x33B JUMPI DUP1 PUSH4 0xD73792A9 EQ PUSH2 0x31E JUMPI DUP1 PUSH4 0xDD62ED3E EQ PUSH2 0x2CF JUMPI DUP1 PUSH4 0xF3058399 EQ PUSH2 0x2B1 JUMPI PUSH4 0xFFF6CAE9 EQ PUSH2 0x188 JUMPI PUSH1 0x0 DUP1 REVERT JUMPDEST CALLVALUE PUSH2 0x2AE JUMPI DUP1 PUSH1 0x3 NOT CALLDATASIZE ADD SLT PUSH2 0x2AE JUMPI PUSH2 0x1A0 PUSH2 0x1B9E JUMP JUMPDEST PUSH1 0x8 SLOAD PUSH1 0x40 MLOAD PUSH4 0x70A08231 PUSH1 0xE0 SHL DUP1 DUP3 MSTORE ADDRESS PUSH1 0x4 DUP4 ADD MSTORE SWAP2 PUSH1 0x20 SWAP2 PUSH1 0x1 PUSH1 0x1 PUSH1 0xA0 SHL SUB SWAP2 DUP4 SWAP1 DUP3 SWAP1 PUSH1 0x24 SWAP1 DUP3 SWAP1 DUP7 AND GAS STATICCALL SWAP2 DUP3 ISZERO PUSH2 0x2A3 JUMPI DUP4 SWAP2 DUP7 SWAP4 PUSH2 0x272 JUMPI JUMPDEST POP PUSH1 0x9 SLOAD AND SWAP4 PUSH1 0x24 PUSH1 0x40 MLOAD DUP1 SWAP7 DUP2 SWAP4 DUP3 MSTORE ADDRESS PUSH1 0x4 DUP4 ADD MSTORE GAS STATICCALL SWAP2 DUP3 ISZERO PUSH2 0x267 JUMPI DUP5 SWAP3 PUSH2 0x230 JUMPI JUMPDEST POP PUSH2 0x228 SWAP3 POP PUSH1 0xA SLOAD SWAP2 PUSH1 0x1 PUSH1 0x1 PUSH1 0x70 SHL SUB DUP1 DUP5 PUSH1 0x70 SHR AND SWAP4 AND SWAP2 PUSH2 0x1CE1 JUMP JUMPDEST PUSH1 0x1 PUSH1 0x5 SSTORE DUP1 RETURN JUMPDEST SWAP1 SWAP2 POP DUP3 DUP2 RETURNDATASIZE DUP4 GT PUSH2 0x260 JUMPI JUMPDEST PUSH2 0x247 DUP2 DUP4 PUSH2 0x1A01 JUMP JUMPDEST DUP2 ADD SUB SLT PUSH2 0x25B JUMPI PUSH2 0x228 SWAP2 MLOAD SWAP1 CODESIZE PUSH2 0x208 JUMP JUMPDEST PUSH1 0x0 DUP1 REVERT JUMPDEST POP RETURNDATASIZE PUSH2 0x23D JUMP JUMPDEST PUSH1 0x40 MLOAD RETURNDATASIZE DUP7 DUP3 RETURNDATACOPY RETURNDATASIZE SWAP1 REVERT JUMPDEST DUP3 DUP2 SWAP4 SWAP3 SWAP5 POP RETURNDATASIZE DUP4 GT PUSH2 0x29C JUMPI JUMPDEST PUSH2 0x28A DUP2 DUP4 PUSH2 0x1A01 JUMP JUMPDEST DUP2 ADD SUB SLT PUSH2 0x25B JUMPI DUP3 SWAP1 MLOAD SWAP2 CODESIZE PUSH2 0x1E1 JUMP JUMPDEST POP RETURNDATASIZE PUSH2 0x280 JUMP JUMPDEST PUSH1 0x40 MLOAD RETURNDATASIZE DUP8 DUP3 RETURNDATACOPY RETURNDATASIZE SWAP1 REVERT JUMPDEST DUP1 REVERT JUMPDEST POP CALLVALUE PUSH2 0x2AE JUMPI DUP1 PUSH1 0x3 NOT CALLDATASIZE ADD SLT PUSH2 0x2AE JUMPI PUSH1 0x20 PUSH1 0xF SLOAD PUSH1 0x40 MLOAD SWAP1 DUP2 MSTORE RETURN JUMPDEST POP CALLVALUE PUSH2 0x2AE JUMPI PUSH1 0x40 CALLDATASIZE PUSH1 0x3 NOT ADD SLT PUSH2 0x2AE JUMPI PUSH2 0x2E9 PUSH2 0x196D JUMP JUMPDEST PUSH1 0x40 PUSH2 0x2F3 PUSH2 0x1983 JUMP JUMPDEST SWAP3 PUSH1 0x1 DUP1 PUSH1 0xA0 SHL SUB DUP1 SWAP4 AND DUP2 MSTORE PUSH1 0x1 PUSH1 0x20 MSTORE KECCAK256 SWAP2 AND PUSH1 0x0 MSTORE PUSH1 0x20 MSTORE PUSH1 0x20 PUSH1 0x40 PUSH1 0x0 KECCAK256 SLOAD PUSH1 0x40 MLOAD SWAP1 DUP2 MSTORE RETURN JUMPDEST POP CALLVALUE PUSH2 0x2AE JUMPI DUP1 PUSH1 0x3 NOT CALLDATASIZE ADD SLT PUSH2 0x2AE JUMPI PUSH1 0x20 PUSH1 0x40 MLOAD PUSH2 0x2710 DUP2 MSTORE RETURN JUMPDEST POP CALLVALUE PUSH2 0x2AE JUMPI DUP1 PUSH1 0x3 NOT CALLDATASIZE ADD SLT PUSH2 0x2AE JUMPI PUSH1 0x9 SLOAD PUSH1 0x40 MLOAD PUSH1 0x1 PUSH1 0x1 PUSH1 0xA0 SHL SUB SWAP1 SWAP2 AND DUP2 MSTORE PUSH1 0x20 SWAP1 RETURN JUMPDEST POP CALLVALUE PUSH2 0x2AE JUMPI DUP1 PUSH1 0x3 NOT CALLDATASIZE ADD SLT PUSH2 0x2AE JUMPI PUSH1 0x7 SLOAD PUSH1 0x40 MLOAD PUSH1 0x1 PUSH1 0x1 PUSH1 0xA0 SHL SUB SWAP1 SWAP2 AND DUP2 MSTORE PUSH1 0x20 SWAP1 RETURN JUMPDEST POP CALLVALUE PUSH2 0x2AE JUMPI PUSH1 0x20 DUP1 PUSH1 0x3 NOT CALLDATASIZE ADD SLT PUSH2 0x4C7 JUMPI PUSH2 0x3A8 PUSH2 0x196D JUMP JUMPDEST SWAP1 PUSH2 0x3B1 PUSH2 0x1B9E JUMP JUMPDEST PUSH1 0x8 SLOAD PUSH1 0x9 SLOAD PUSH1 0x40 MLOAD PUSH4 0x70A08231 PUSH1 0xE0 SHL DUP1 DUP3 MSTORE ADDRESS PUSH1 0x4 DUP4 ADD MSTORE SWAP1 SWAP5 PUSH1 0x1 PUSH1 0x1 PUSH1 0xA0 SHL SUB SWAP3 DUP4 AND SWAP5 SWAP1 SWAP4 SWAP1 SWAP3 AND DUP3 DUP7 PUSH1 0x24 DUP2 DUP5 GAS STATICCALL SWAP6 DUP7 ISZERO PUSH2 0x4BC JUMPI DUP8 SWAP7 PUSH2 0x48B JUMPI JUMPDEST POP PUSH2 0x417 SWAP1 DUP5 PUSH2 0x411 PUSH1 0x1 PUSH1 0x1 PUSH1 0x70 SHL SUB SWAP9 DUP10 PUSH1 0xA SLOAD AND SWAP1 PUSH2 0x1B12 JUMP JUMPDEST SWAP2 PUSH2 0x1F69 JUMP JUMPDEST PUSH1 0x40 MLOAD SWAP1 DUP2 MSTORE ADDRESS PUSH1 0x4 DUP3 ADD MSTORE DUP2 DUP2 PUSH1 0x24 DUP2 DUP8 GAS STATICCALL SWAP2 DUP3 ISZERO PUSH2 0x480 JUMPI DUP7 SWAP3 PUSH2 0x450 JUMPI JUMPDEST POP POP PUSH2 0x411 SWAP1 PUSH2 0x228 SWAP5 PUSH1 0xA SLOAD PUSH1 0x70 SHR AND SWAP1 PUSH2 0x1B12 JUMP JUMPDEST SWAP1 DUP1 SWAP3 POP DUP2 RETURNDATASIZE DUP4 GT PUSH2 0x479 JUMPI JUMPDEST PUSH2 0x467 DUP2 DUP4 PUSH2 0x1A01 JUMP JUMPDEST DUP2 ADD SUB SLT PUSH2 0x25B JUMPI MLOAD DUP4 PUSH2 0x411 PUSH2 0x439 JUMP JUMPDEST POP RETURNDATASIZE PUSH2 0x45D JUMP JUMPDEST PUSH1 0x40 MLOAD RETURNDATASIZE DUP9 DUP3 RETURNDATACOPY RETURNDATASIZE SWAP1 REVERT JUMPDEST SWAP1 SWAP6 POP DUP3 DUP2 DUP2 RETURNDATASIZE DUP4 GT PUSH2 0x4B5 JUMPI JUMPDEST PUSH2 0x4A3 DUP2 DUP4 PUSH2 0x1A01 JUMP JUMPDEST DUP2 ADD SUB SLT PUSH2 0x25B JUMPI MLOAD SWAP5 PUSH2 0x417 PUSH2 0x3F4 JUMP JUMPDEST POP RETURNDATASIZE PUSH2 0x499 JUMP JUMPDEST PUSH1 0x40 MLOAD RETURNDATASIZE DUP10 DUP3 RETURNDATACOPY RETURNDATASIZE SWAP1 REVERT JUMPDEST POP DUP1 REVERT JUMPDEST POP CALLVALUE PUSH2 0x2AE JUMPI DUP1 PUSH1 0x3 NOT CALLDATASIZE ADD SLT PUSH2 0x2AE JUMPI PUSH1 0x20 PUSH1 0x40 MLOAD PUSH2 0x3E8 DUP2 MSTORE RETURN JUMPDEST POP CALLVALUE PUSH2 0x2AE JUMPI PUSH1 0x40 CALLDATASIZE PUSH1 0x3 NOT ADD SLT PUSH2 0x2AE JUMPI PUSH2 0x50F PUSH2 0x505 PUSH2 0x196D JUMP JUMPDEST PUSH1 0x24 CALLDATALOAD SWAP1 CALLER PUSH2 0x1A39 JUMP JUMPDEST PUSH1 0x20 PUSH1 0x40 MLOAD PUSH1 0x1 DUP2 MSTORE RETURN JUMPDEST POP CALLVALUE PUSH2 0x2AE JUMPI PUSH1 0x20 CALLDATASIZE PUSH1 0x3 NOT ADD SLT PUSH2 0x2AE JUMPI PUSH1 0x40 SWAP1 PUSH2 0x537 PUSH2 0x196D JUMP JUMPDEST PUSH1 0x1 DUP1 PUSH1 0xA0 SHL SUB SWAP2 PUSH1 0x3 DUP5 DUP5 DUP5 AND SWAP3 DUP4 DUP2 MSTORE PUSH1 0xE PUSH1 0x20 MSTORE KECCAK256 ADD SWAP2 DUP3 SLOAD PUSH1 0x1 PUSH1 0x1 PUSH1 0x80 SHL SUB SWAP2 DUP3 DUP3 AND SWAP6 DUP3 PUSH1 0x80 SHR SWAP6 DUP7 SWAP4 DUP9 PUSH2 0x5CF JUMPI JUMPDEST POP DUP4 PUSH2 0x5B3 JUMPI JUMPDEST POP POP POP POP POP PUSH32 0x2E4FB6077D4ACF86E12BB7411FB82B2B3EAA6A49787F4B1E17B423E7EA841169 DUP5 DUP1 MLOAD DUP6 DUP2 MSTORE DUP5 PUSH1 0x20 DUP3 ADD MSTORE LOG2 DUP3 MLOAD SWAP2 DUP3 MSTORE PUSH1 0x20 DUP3 ADD MSTORE RETURN JUMPDEST PUSH2 0x5C5 SWAP5 DUP2 SLOAD AND SWAP1 SSTORE PUSH1 0x9 SLOAD AND PUSH2 0x1F69 JUMP JUMPDEST CODESIZE DUP3 DUP2 DUP1 DUP1 PUSH2 0x574 JUMP JUMPDEST PUSH1 0x1 PUSH1 0x1 PUSH1 0x80 SHL SUB NOT AND DUP2 SSTORE PUSH2 0x5EA DUP9 DUP5 DUP5 PUSH1 0x8 SLOAD AND PUSH2 0x1F69 JUMP JUMPDEST CODESIZE PUSH2 0x56D JUMP JUMPDEST POP CALLVALUE PUSH2 0x2AE JUMPI DUP1 PUSH1 0x3 NOT CALLDATASIZE ADD SLT PUSH2 0x2AE JUMPI PUSH1 0x20 PUSH2 0x60B PUSH2 0x1F21 JUMP JUMPDEST PUSH1 0x40 MLOAD SWAP1 DUP2 MSTORE RETURN JUMPDEST POP CALLVALUE PUSH2 0x2AE JUMPI DUP1 PUSH1 0x3 NOT CALLDATASIZE ADD SLT PUSH2 0x2AE JUMPI PUSH1 0x40 MLOAD DUP2 PUSH1 0x4 SLOAD SWAP1 PUSH1 0x1 DUP3 DUP2 SHR SWAP2 DUP2 DUP5 AND SWAP4 DUP5 ISZERO PUSH2 0x70B JUMPI JUMPDEST PUSH1 0x20 SWAP5 DUP6 DUP6 LT DUP2 EQ PUSH2 0x6F7 JUMPI DUP5 DUP8 MSTORE SWAP1 DUP2 ISZERO PUSH2 0x6D5 JUMPI POP PUSH1 0x1 EQ PUSH2 0x67C JUMPI JUMPDEST PUSH2 0x678 DUP6 PUSH2 0x66C DUP2 DUP10 SUB DUP3 PUSH2 0x1A01 JUMP JUMPDEST PUSH1 0x40 MLOAD SWAP2 DUP3 SWAP2 DUP3 PUSH2 0x1999 JUMP JUMPDEST SUB SWAP1 RETURN JUMPDEST SWAP3 SWAP5 POP PUSH1 0x4 DUP4 MSTORE PUSH32 0x8A35ACFBC15FF81A39AE7D344FD709F28E8600B4AA8C65C6B64BFE7FE36BD19B JUMPDEST DUP3 DUP5 LT PUSH2 0x6C2 JUMPI POP POP POP DUP2 PUSH2 0x678 SWAP4 PUSH2 0x66C SWAP3 DUP3 ADD ADD SWAP4 CODESIZE PUSH2 0x65C JUMP JUMPDEST DUP1 SLOAD DUP6 DUP6 ADD DUP8 ADD MSTORE SWAP3 DUP6 ADD SWAP3 DUP2 ADD PUSH2 0x6A5 JUMP JUMPDEST PUSH1 0xFF NOT AND DUP7 DUP7 ADD MSTORE POP POP POP ISZERO ISZERO PUSH1 0x5 SHL DUP3 ADD ADD SWAP2 POP PUSH2 0x66C DUP2 PUSH2 0x678 CODESIZE PUSH2 0x65C JUMP JUMPDEST PUSH4 0x4E487B71 PUSH1 0xE0 SHL DUP4 MSTORE PUSH1 0x22 PUSH1 0x4 MSTORE PUSH1 0x24 DUP4 REVERT JUMPDEST SWAP3 PUSH1 0x7F AND SWAP3 PUSH2 0x63D JUMP JUMPDEST POP CALLVALUE PUSH2 0x2AE JUMPI PUSH1 0x20 SWAP1 DUP2 PUSH1 0x3 NOT CALLDATASIZE ADD SLT PUSH2 0x2AE JUMPI PUSH2 0x731 PUSH2 0x196D JUMP JUMPDEST SWAP1 PUSH2 0x73A PUSH2 0x1B9E JUMP JUMPDEST PUSH2 0x759 PUSH1 0xA SLOAD PUSH1 0x1 PUSH1 0x1 PUSH1 0x70 SHL SUB SWAP2 DUP3 DUP3 AND SWAP3 DUP3 PUSH1 0x70 SHR AND SWAP2 PUSH1 0xE0 SHR SWAP1 JUMP JUMPDEST POP PUSH1 0x8 SLOAD PUSH1 0x9 SLOAD PUSH1 0x40 MLOAD PUSH4 0x70A08231 PUSH1 0xE0 SHL DUP1 DUP3 MSTORE ADDRESS PUSH1 0x4 DUP4 ADD MSTORE SWAP8 SWAP5 SWAP7 PUSH1 0x1 PUSH1 0x1 PUSH1 0xA0 SHL SUB SWAP4 DUP5 AND SWAP7 SWAP1 SWAP5 SWAP2 SWAP3 DUP5 AND DUP7 DUP5 PUSH1 0x24 DUP2 DUP12 GAS STATICCALL SWAP4 DUP5 ISZERO PUSH2 0xA6F JUMPI DUP3 SWAP5 PUSH2 0xA40 JUMPI JUMPDEST POP PUSH1 0x40 MLOAD SWAP10 DUP1 DUP12 MSTORE ADDRESS PUSH1 0x4 DUP13 ADD MSTORE DUP8 DUP12 PUSH1 0x24 DUP2 DUP6 GAS STATICCALL SWAP9 DUP10 ISZERO PUSH2 0xA35 JUMPI DUP11 SWAP12 DUP5 SWAP12 SWAP11 PUSH2 0xA02 JUMPI JUMPDEST POP ADDRESS DUP5 MSTORE DUP4 DUP10 MSTORE PUSH2 0x801 PUSH2 0x7DF DUP7 PUSH1 0x40 DUP8 KECCAK256 SLOAD SWAP13 PUSH2 0x1DEF JUMP JUMPDEST SWAP7 PUSH2 0x7F5 PUSH2 0x7FA DUP14 PUSH2 0x7F5 PUSH1 0x2 SLOAD SWAP5 DUP6 SWAP3 PUSH2 0x1B1F JUMP JUMPDEST PUSH2 0x1B32 JUMP JUMPDEST SWAP14 DUP14 PUSH2 0x1B1F JUMP JUMPDEST SWAP10 DUP12 ISZERO DUP1 ISZERO PUSH2 0x9FA JUMPI JUMPDEST PUSH2 0x9E8 JUMPI ADDRESS ISZERO PUSH2 0x9CF JUMPI ADDRESS PUSH1 0x0 MSTORE PUSH1 0x0 DUP11 MSTORE PUSH1 0x40 PUSH1 0x0 KECCAK256 SLOAD DUP2 DUP2 LT PUSH2 0x9A7 JUMPI SWAP2 PUSH1 0x0 DUP3 DUP13 SWAP4 PUSH1 0x24 SWAP8 SWAP7 SWAP6 ADDRESS DUP5 MSTORE DUP4 DUP7 MSTORE SUB PUSH1 0x40 DUP4 KECCAK256 SSTORE DUP1 PUSH1 0x2 SLOAD SUB PUSH1 0x2 SSTORE PUSH1 0x40 MLOAD SWAP1 DUP2 MSTORE PUSH1 0x0 DUP1 MLOAD PUSH1 0x20 PUSH2 0x2080 DUP4 CODECOPY DUP2 MLOAD SWAP2 MSTORE DUP5 ADDRESS SWAP3 LOG3 PUSH2 0x86D DUP14 DUP12 DUP4 PUSH2 0x1F69 JUMP JUMPDEST PUSH2 0x878 DUP13 DUP12 DUP7 PUSH2 0x1F69 JUMP JUMPDEST PUSH1 0x40 MLOAD SWAP5 DUP6 DUP1 SWAP3 DUP6 DUP3 MSTORE ADDRESS PUSH1 0x4 DUP4 ADD MSTORE GAS STATICCALL SWAP3 DUP4 ISZERO PUSH2 0x267 JUMPI SWAP1 DUP10 SWAP2 DUP6 SWAP5 PUSH2 0x976 JUMPI JUMPDEST POP PUSH1 0x24 PUSH1 0x40 MLOAD DUP1 SWAP5 DUP2 SWAP4 DUP3 MSTORE ADDRESS PUSH1 0x4 DUP4 ADD MSTORE GAS STATICCALL SWAP3 DUP4 ISZERO PUSH2 0x96A JUMPI SWAP3 PUSH2 0x934 JUMPI JUMPDEST POP SWAP9 PUSH2 0x8CB SWAP3 SWAP2 PUSH1 0x40 SWAP11 PUSH2 0x1CE1 JUMP JUMPDEST PUSH2 0x911 JUMPI JUMPDEST DUP6 MLOAD SWAP2 DUP6 DUP4 MSTORE DUP5 DUP5 DUP5 ADD MSTORE AND SWAP1 PUSH32 0xDCCD412F0B1252819CB1FD330B93224CA42612892BB3F4F789976E6D81936496 DUP7 CALLER SWAP3 LOG3 PUSH1 0x1 PUSH1 0x5 SSTORE DUP4 MLOAD SWAP3 DUP4 MSTORE DUP3 ADD MSTORE RETURN JUMPDEST PUSH2 0x92C PUSH1 0xA SLOAD PUSH1 0x1 PUSH1 0x1 PUSH1 0x70 SHL SUB DUP1 DUP3 PUSH1 0x70 SHR AND SWAP2 AND PUSH2 0x1B1F JUMP JUMPDEST PUSH1 0xD SSTORE PUSH2 0x8D0 JUMP JUMPDEST SWAP3 SWAP2 POP SWAP9 DUP7 DUP4 DUP2 RETURNDATASIZE DUP4 GT PUSH2 0x963 JUMPI JUMPDEST PUSH2 0x94D DUP2 DUP4 PUSH2 0x1A01 JUMP JUMPDEST DUP2 ADD SUB SLT PUSH2 0x25B JUMPI SWAP2 MLOAD SWAP2 SWAP9 SWAP1 SWAP2 SWAP1 PUSH1 0x40 PUSH2 0x8BC JUMP JUMPDEST POP RETURNDATASIZE PUSH2 0x943 JUMP JUMPDEST PUSH1 0x40 MLOAD SWAP1 RETURNDATASIZE SWAP1 DUP3 RETURNDATACOPY RETURNDATASIZE SWAP1 REVERT JUMPDEST DUP3 DUP2 SWAP4 SWAP3 SWAP6 POP RETURNDATASIZE DUP4 GT PUSH2 0x9A0 JUMPI JUMPDEST PUSH2 0x98E DUP2 DUP4 PUSH2 0x1A01 JUMP JUMPDEST DUP2 ADD SUB SLT PUSH2 0x25B JUMPI DUP9 SWAP1 MLOAD SWAP3 CODESIZE PUSH2 0x89B JUMP JUMPDEST POP RETURNDATASIZE PUSH2 0x984 JUMP JUMPDEST PUSH1 0x40 MLOAD PUSH4 0x391434E3 PUSH1 0xE2 SHL DUP2 MSTORE ADDRESS PUSH1 0x4 DUP3 ADD MSTORE PUSH1 0x24 DUP2 ADD SWAP2 SWAP1 SWAP2 MSTORE PUSH1 0x44 DUP2 ADD SWAP2 SWAP1 SWAP2 MSTORE PUSH1 0x64 SWAP1 REVERT JUMPDEST PUSH1 0x40 MLOAD PUSH4 0x4B637E8F PUSH1 0xE1 SHL DUP2 MSTORE PUSH1 0x4 DUP2 ADD DUP7 SWAP1 MSTORE PUSH1 0x24 SWAP1 REVERT JUMPDEST PUSH1 0x40 MLOAD PUSH4 0x749383AD PUSH1 0xE0 SHL DUP2 MSTORE PUSH1 0x4 SWAP1 REVERT JUMPDEST POP DUP11 ISZERO PUSH2 0x80B JUMP JUMPDEST DUP10 DUP1 SWAP3 SWAP13 POP DUP2 SWAP12 POP RETURNDATASIZE DUP4 GT PUSH2 0xA2E JUMPI JUMPDEST PUSH2 0xA1C DUP2 DUP4 PUSH2 0x1A01 JUMP JUMPDEST DUP2 ADD SUB SLT PUSH2 0x25B JUMPI DUP11 SWAP9 MLOAD SWAP10 CODESIZE PUSH2 0x7C6 JUMP JUMPDEST POP RETURNDATASIZE PUSH2 0xA12 JUMP JUMPDEST PUSH1 0x40 MLOAD RETURNDATASIZE DUP6 DUP3 RETURNDATACOPY RETURNDATASIZE SWAP1 REVERT JUMPDEST SWAP1 SWAP4 POP DUP7 DUP2 DUP2 RETURNDATASIZE DUP4 GT PUSH2 0xA68 JUMPI JUMPDEST PUSH2 0xA58 DUP2 DUP4 PUSH2 0x1A01 JUMP JUMPDEST DUP2 ADD SUB SLT PUSH2 0x25B JUMPI MLOAD SWAP3 CODESIZE PUSH2 0x79F JUMP JUMPDEST POP RETURNDATASIZE PUSH2 0xA4E JUMP JUMPDEST PUSH1 0x40 MLOAD RETURNDATASIZE DUP5 DUP3 RETURNDATACOPY RETURNDATASIZE SWAP1 REVERT JUMPDEST POP CALLVALUE PUSH2 0x2AE JUMPI DUP1 PUSH1 0x3 NOT CALLDATASIZE ADD SLT PUSH2 0x2AE JUMPI PUSH1 0x20 PUSH1 0xD SLOAD PUSH1 0x40 MLOAD SWAP1 DUP2 MSTORE RETURN JUMPDEST POP CALLVALUE PUSH2 0x2AE JUMPI PUSH1 0x20 CALLDATASIZE PUSH1 0x3 NOT ADD SLT PUSH2 0x2AE JUMPI PUSH1 0x20 SWAP1 PUSH1 0x40 SWAP1 PUSH1 0x1 PUSH1 0x1 PUSH1 0xA0 SHL SUB PUSH2 0xAC0 PUSH2 0x196D JUMP JUMPDEST AND DUP2 MSTORE DUP1 DUP4 MSTORE KECCAK256 SLOAD PUSH1 0x40 MLOAD SWAP1 DUP2 MSTORE RETURN JUMPDEST POP CALLVALUE PUSH2 0x2AE JUMPI PUSH1 0x20 DUP1 PUSH1 0x3 NOT CALLDATASIZE ADD SLT PUSH2 0x4C7 JUMPI PUSH2 0xAEB PUSH2 0x196D JUMP JUMPDEST PUSH2 0xAF3 PUSH2 0x1B9E JUMP JUMPDEST PUSH2 0xB12 PUSH1 0xA SLOAD PUSH1 0x1 PUSH1 0x1 PUSH1 0x70 SHL SUB SWAP2 DUP3 DUP3 AND SWAP3 DUP3 PUSH1 0x70 SHR AND SWAP2 PUSH1 0xE0 SHR SWAP1 JUMP JUMPDEST POP SWAP1 SWAP2 PUSH1 0x1 DUP1 PUSH1 0xA0 SHL SUB SWAP3 DUP4 PUSH1 0x8 SLOAD AND SWAP4 PUSH1 0x40 MLOAD SWAP4 DUP7 DUP6 PUSH1 0x24 DUP2 PUSH4 0x70A08231 PUSH1 0xE0 SHL SWAP10 DUP11 DUP3 MSTORE ADDRESS PUSH1 0x4 DUP4 ADD MSTORE GAS STATICCALL SWAP5 DUP6 ISZERO PUSH2 0xD7A JUMPI DUP9 SWAP6 PUSH2 0xD85 JUMPI JUMPDEST POP DUP7 DUP3 PUSH1 0x9 SLOAD AND SWAP7 PUSH1 0x24 PUSH1 0x40 MLOAD DUP1 SWAP10 DUP2 SWAP4 DUP3 MSTORE ADDRESS PUSH1 0x4 DUP4 ADD MSTORE GAS STATICCALL SWAP6 DUP7 ISZERO PUSH2 0xD7A JUMPI DUP9 SWAP7 PUSH2 0xD4B JUMPI JUMPDEST POP PUSH1 0x1 PUSH1 0x1 PUSH1 0x70 SHL SUB SWAP3 DUP4 DUP2 AND SWAP7 PUSH2 0xB8F DUP9 DUP9 PUSH2 0x1B12 JUMP JUMPDEST SWAP7 DUP6 DUP5 AND SWAP5 PUSH2 0xB9E DUP7 DUP5 PUSH2 0x1B12 JUMP JUMPDEST SWAP8 PUSH2 0xBA9 DUP7 DUP7 PUSH2 0x1DEF JUMP JUMPDEST SWAP7 PUSH1 0x2 SLOAD SWAP12 DUP13 ISZERO PUSH1 0x0 EQ PUSH2 0xD1C JUMPI POP POP PUSH2 0xBCB PUSH2 0xBC6 DUP11 DUP13 PUSH2 0x1B1F JUMP JUMPDEST PUSH2 0x1BC1 JUMP JUMPDEST PUSH2 0x3E7 NOT DUP2 ADD SWAP1 DUP2 GT PUSH2 0xD08 JUMPI SWAP11 PUSH2 0x3E8 SWAP1 DUP2 DUP2 ADD DUP1 SWAP2 GT PUSH2 0xCF2 JUMPI PUSH1 0x0 DUP1 MLOAD PUSH1 0x20 PUSH2 0x2080 DUP4 CODECOPY DUP2 MLOAD SWAP2 MSTORE DUP15 PUSH1 0x0 SWAP3 PUSH1 0x2 SSTORE PUSH2 0xDEAD SWAP4 DUP5 DUP5 MSTORE DUP4 DUP3 MSTORE PUSH1 0x40 DUP5 KECCAK256 DUP2 DUP2 SLOAD ADD SWAP1 SSTORE PUSH1 0x40 MLOAD SWAP1 DUP2 MSTORE LOG3 JUMPDEST DUP11 ISZERO PUSH2 0xCE0 JUMPI PUSH2 0xC29 DUP12 DUP3 PUSH2 0x1B52 JUMP JUMPDEST AND DUP12 MSTORE PUSH1 0xE DUP11 MSTORE PUSH1 0x40 DUP12 KECCAK256 DUP1 SLOAD PUSH1 0x1 PUSH1 0x1 PUSH1 0x80 SHL SUB DUP1 DUP13 AND DUP2 DUP4 AND ADD DUP2 DUP2 GT PUSH2 0xCCC JUMPI PUSH2 0xC6B SWAP9 SWAP10 SWAP11 SWAP12 SWAP13 SWAP14 SWAP15 POP AND SWAP1 PUSH1 0x1 PUSH1 0x1 PUSH1 0x80 SHL SUB NOT AND OR SWAP1 SSTORE PUSH2 0x1CE1 JUMP JUMPDEST PUSH2 0xCAE JUMPI JUMPDEST POP PUSH1 0x40 MLOAD SWAP2 DUP3 MSTORE DUP4 DUP3 ADD MSTORE PUSH32 0x4C209B5FC8AD50758F13E2E1088BA56A560DFF690A1C6FEF26394F4C03821C4F PUSH1 0x40 CALLER SWAP3 LOG2 PUSH1 0x1 PUSH1 0x5 SSTORE PUSH1 0x40 MLOAD SWAP1 DUP2 MSTORE RETURN JUMPDEST PUSH2 0xCC3 SWAP1 PUSH1 0xA SLOAD SWAP1 DUP1 DUP3 PUSH1 0x70 SHR AND SWAP2 AND PUSH2 0x1B1F JUMP JUMPDEST PUSH1 0xD SSTORE CODESIZE PUSH2 0xC70 JUMP JUMPDEST PUSH4 0x4E487B71 PUSH1 0xE0 SHL DUP16 MSTORE PUSH1 0x11 PUSH1 0x4 MSTORE PUSH1 0x24 DUP16 REVERT JUMPDEST PUSH1 0x40 MLOAD PUSH4 0x3489BE75 PUSH1 0xE2 SHL DUP2 MSTORE PUSH1 0x4 SWAP1 REVERT JUMPDEST PUSH4 0x4E487B71 PUSH1 0xE0 SHL PUSH1 0x0 MSTORE PUSH1 0x11 PUSH1 0x4 MSTORE PUSH1 0x24 PUSH1 0x0 REVERT JUMPDEST PUSH4 0x4E487B71 PUSH1 0xE0 SHL DUP15 MSTORE PUSH1 0x11 PUSH1 0x4 MSTORE PUSH1 0x24 DUP15 REVERT JUMPDEST SWAP1 PUSH2 0x7F5 PUSH2 0xD35 PUSH2 0xD3C SWAP4 DUP16 SWAP6 SWAP16 DUP16 SWAP1 PUSH2 0x7F5 SWAP2 PUSH2 0x1B1F JUMP JUMPDEST SWAP4 DUP13 PUSH2 0x1B1F JUMP JUMPDEST SWAP1 DUP2 DUP1 DUP3 LT SWAP2 XOR MUL XOR SWAP10 PUSH2 0xC19 JUMP JUMPDEST SWAP1 SWAP6 POP DUP7 DUP2 DUP2 RETURNDATASIZE DUP4 GT PUSH2 0xD73 JUMPI JUMPDEST PUSH2 0xD63 DUP2 DUP4 PUSH2 0x1A01 JUMP JUMPDEST DUP2 ADD SUB SLT PUSH2 0x25B JUMPI MLOAD SWAP5 CODESIZE PUSH2 0xB77 JUMP JUMPDEST POP RETURNDATASIZE PUSH2 0xD59 JUMP JUMPDEST PUSH1 0x40 MLOAD RETURNDATASIZE DUP11 DUP3 RETURNDATACOPY RETURNDATASIZE SWAP1 REVERT JUMPDEST SWAP1 SWAP5 POP DUP7 DUP2 DUP2 RETURNDATASIZE DUP4 GT PUSH2 0xDAD JUMPI JUMPDEST PUSH2 0xD9D DUP2 DUP4 PUSH2 0x1A01 JUMP JUMPDEST DUP2 ADD SUB SLT PUSH2 0x25B JUMPI MLOAD SWAP4 CODESIZE PUSH2 0xB4E JUMP JUMPDEST POP RETURNDATASIZE PUSH2 0xD93 JUMP JUMPDEST POP CALLVALUE PUSH2 0x2AE JUMPI DUP1 PUSH1 0x3 NOT CALLDATASIZE ADD SLT PUSH2 0x2AE JUMPI PUSH1 0x20 PUSH1 0xC SLOAD PUSH1 0x40 MLOAD SWAP1 DUP2 MSTORE RETURN JUMPDEST POP CALLVALUE PUSH2 0x2AE JUMPI DUP1 PUSH1 0x3 NOT CALLDATASIZE ADD SLT PUSH2 0x2AE JUMPI PUSH1 0x20 PUSH1 0xB SLOAD PUSH1 0x40 MLOAD SWAP1 DUP2 MSTORE RETURN JUMPDEST POP CALLVALUE PUSH2 0x2AE JUMPI PUSH1 0x20 CALLDATASIZE PUSH1 0x3 NOT ADD SLT PUSH2 0x2AE JUMPI PUSH1 0xA0 SWAP1 PUSH1 0x40 SWAP1 PUSH1 0x1 PUSH1 0x1 PUSH1 0xA0 SHL SUB PUSH2 0xE18 PUSH2 0x196D JUMP JUMPDEST AND DUP2 MSTORE PUSH1 0xE PUSH1 0x20 MSTORE KECCAK256 PUSH1 0x1 PUSH1 0x1 PUSH1 0x80 SHL SUB SWAP1 DUP2 DUP2 SLOAD AND SWAP2 PUSH1 0x1 DUP3 ADD SLOAD SWAP2 PUSH1 0x3 PUSH1 0x2 DUP3 ADD SLOAD SWAP2 ADD SLOAD SWAP3 PUSH1 0x40 MLOAD SWAP5 DUP6 MSTORE PUSH1 0x20 DUP6 ADD MSTORE PUSH1 0x40 DUP5 ADD MSTORE DUP2 AND PUSH1 0x60 DUP4 ADD MSTORE PUSH1 0x80 SHR PUSH1 0x80 DUP3 ADD MSTORE RETURN JUMPDEST POP CALLVALUE PUSH2 0x2AE JUMPI PUSH1 0x40 CALLDATASIZE PUSH1 0x3 NOT ADD SLT PUSH2 0x2AE JUMPI PUSH2 0xE7B PUSH2 0x196D JUMP JUMPDEST PUSH2 0xE83 PUSH2 0x1983 JUMP JUMPDEST PUSH1 0x7 SLOAD PUSH1 0x1 PUSH1 0x1 PUSH1 0xA0 SHL SUB SWAP2 SWAP1 DUP3 AND CALLER SUB PUSH2 0xEC1 JUMPI DUP2 PUSH12 0xFFFFFFFFFFFFFFFFFFFFFFFF PUSH1 0xA0 SHL SWAP4 AND DUP4 PUSH1 0x8 SLOAD AND OR PUSH1 0x8 SSTORE AND SWAP1 PUSH1 0x9 SLOAD AND OR PUSH1 0x9 SSTORE DUP1 RETURN JUMPDEST PUSH1 0x40 MLOAD PUSH4 0x1DD2188D PUSH1 0xE3 SHL DUP2 MSTORE PUSH1 0x4 SWAP1 REVERT JUMPDEST POP CALLVALUE PUSH2 0x2AE JUMPI DUP1 PUSH1 0x3 NOT CALLDATASIZE ADD SLT PUSH2 0x2AE JUMPI PUSH1 0x20 PUSH1 0x10 SLOAD PUSH1 0x40 MLOAD SWAP1 DUP2 MSTORE RETURN JUMPDEST POP CALLVALUE PUSH2 0x2AE JUMPI DUP1 PUSH1 0x3 NOT CALLDATASIZE ADD SLT PUSH2 0x2AE JUMPI PUSH1 0x20 PUSH1 0x40 MLOAD PUSH1 0x12 DUP2 MSTORE RETURN JUMPDEST POP CALLVALUE PUSH2 0x2AE JUMPI DUP1 PUSH1 0x3 NOT CALLDATASIZE ADD SLT PUSH2 0x2AE JUMPI PUSH1 0x20 PUSH1 0x6 SLOAD PUSH1 0x40 MLOAD SWAP1 DUP2 MSTORE RETURN JUMPDEST POP CALLVALUE PUSH2 0x2AE JUMPI PUSH1 0x60 CALLDATASIZE PUSH1 0x3 NOT ADD SLT PUSH2 0x2AE JUMPI PUSH2 0xF45 PUSH2 0x196D JUMP JUMPDEST PUSH2 0xF4D PUSH2 0x1983 JUMP JUMPDEST PUSH1 0x44 CALLDATALOAD SWAP2 PUSH1 0x40 PUSH1 0x1 DUP1 PUSH1 0xA0 SHL SUB DUP3 AND SWAP5 DUP6 DUP2 MSTORE PUSH1 0x1 PUSH1 0x20 MSTORE KECCAK256 CALLER PUSH1 0x0 MSTORE PUSH1 0x20 MSTORE PUSH1 0x40 PUSH1 0x0 KECCAK256 SLOAD SWAP4 PUSH1 0x0 NOT DUP6 LT PUSH2 0xF89 JUMPI JUMPDEST POP PUSH2 0x50F SWAP4 POP PUSH2 0x1A39 JUMP JUMPDEST DUP4 DUP6 LT PUSH2 0xFF5 JUMPI DUP1 ISZERO PUSH2 0xFDC JUMPI CALLER ISZERO PUSH2 0xFC3 JUMPI PUSH2 0x50F SWAP5 DUP5 SWAP2 PUSH1 0x0 MSTORE PUSH1 0x1 PUSH1 0x20 MSTORE PUSH1 0x40 PUSH1 0x0 KECCAK256 CALLER PUSH1 0x0 MSTORE PUSH1 0x20 MSTORE SUB PUSH1 0x40 PUSH1 0x0 KECCAK256 SSTORE CODESIZE PUSH2 0xF7E JUMP JUMPDEST PUSH1 0x40 MLOAD PUSH4 0x4A1406B1 PUSH1 0xE1 SHL DUP2 MSTORE PUSH1 0x0 PUSH1 0x4 DUP3 ADD MSTORE PUSH1 0x24 SWAP1 REVERT JUMPDEST PUSH1 0x40 MLOAD PUSH4 0xE602DF05 PUSH1 0xE0 SHL DUP2 MSTORE PUSH1 0x0 PUSH1 0x4 DUP3 ADD MSTORE PUSH1 0x24 SWAP1 REVERT JUMPDEST PUSH1 0x40 MLOAD PUSH4 0x7DC7A0D9 PUSH1 0xE1 SHL DUP2 MSTORE CALLER PUSH1 0x4 DUP3 ADD MSTORE PUSH1 0x24 DUP2 ADD DUP7 SWAP1 MSTORE PUSH1 0x44 DUP2 ADD DUP6 SWAP1 MSTORE PUSH1 0x64 SWAP1 REVERT JUMPDEST POP CALLVALUE PUSH2 0x2AE JUMPI DUP1 PUSH1 0x3 NOT CALLDATASIZE ADD SLT PUSH2 0x2AE JUMPI PUSH1 0x20 PUSH1 0x2 SLOAD PUSH1 0x40 MLOAD SWAP1 DUP2 MSTORE RETURN JUMPDEST POP CALLVALUE PUSH2 0x2AE JUMPI PUSH1 0x20 CALLDATASIZE PUSH1 0x3 NOT ADD SLT PUSH2 0x2AE JUMPI PUSH1 0x60 SWAP1 PUSH1 0x40 SWAP1 PUSH1 0x1 PUSH1 0x1 PUSH1 0xA0 SHL SUB PUSH2 0x1061 PUSH2 0x196D JUMP JUMPDEST AND DUP2 MSTORE PUSH1 0xE PUSH1 0x20 MSTORE KECCAK256 PUSH1 0x1 PUSH1 0x1 PUSH1 0x80 SHL SUB PUSH1 0x3 DUP2 DUP4 SLOAD AND SWAP3 ADD SLOAD SWAP1 PUSH1 0x40 MLOAD SWAP3 DUP4 MSTORE DUP2 AND PUSH1 0x20 DUP4 ADD MSTORE PUSH1 0x80 SHR PUSH1 0x40 DUP3 ADD MSTORE RETURN JUMPDEST POP CALLVALUE PUSH2 0x2AE JUMPI PUSH2 0x10A2 CALLDATASIZE PUSH2 0x19E2 JUMP JUMPDEST SWAP2 SWAP1 PUSH2 0x10C3 PUSH1 0xA SLOAD PUSH1 0x1 PUSH1 0x1 PUSH1 0x70 SHL SUB SWAP2 DUP3 DUP3 AND SWAP3 DUP3 PUSH1 0x70 SHR AND SWAP2 PUSH1 0xE0 SHR SWAP1 JUMP JUMPDEST POP SWAP1 SWAP3 SWAP1 DUP5 ISZERO PUSH2 0x1162 JUMPI DUP4 JUMPDEST PUSH1 0x1 PUSH1 0x1 PUSH1 0x70 SHL SUB SWAP5 DUP6 AND SWAP6 ISZERO PUSH2 0x115A JUMPI POP SWAP3 JUMPDEST PUSH1 0x6 SLOAD SWAP3 PUSH2 0x2710 SWAP4 DUP5 SUB SWAP1 DUP5 DUP3 GT PUSH2 0x1146 JUMPI PUSH2 0x110B SWAP3 SWAP2 PUSH2 0x1103 SWAP2 PUSH2 0x1B1F JUMP JUMPDEST SWAP5 AND DUP5 PUSH2 0x1B1F JUMP JUMPDEST SWAP4 DUP3 DUP2 MUL SWAP3 DUP2 DUP5 DIV EQ SWAP1 ISZERO OR ISZERO PUSH2 0x1132 JUMPI PUSH1 0x20 PUSH2 0x60B DUP6 PUSH2 0x112C DUP7 DUP7 PUSH2 0x1B05 JUMP JUMPDEST SWAP1 PUSH2 0x1B32 JUMP JUMPDEST PUSH4 0x4E487B71 PUSH1 0xE0 SHL DUP2 MSTORE PUSH1 0x11 PUSH1 0x4 MSTORE PUSH1 0x24 SWAP1 REVERT JUMPDEST PUSH4 0x4E487B71 PUSH1 0xE0 SHL DUP5 MSTORE PUSH1 0x11 PUSH1 0x4 MSTORE PUSH1 0x24 DUP5 REVERT JUMPDEST SWAP1 POP SWAP3 PUSH2 0x10E3 JUMP JUMPDEST DUP1 SWAP4 PUSH2 0x10CF JUMP JUMPDEST POP CALLVALUE PUSH2 0x2AE JUMPI PUSH2 0x1178 CALLDATASIZE PUSH2 0x19E2 JUMP JUMPDEST SWAP1 PUSH2 0x1198 PUSH1 0xA SLOAD PUSH1 0x1 PUSH1 0x1 PUSH1 0x70 SHL SUB SWAP2 DUP3 DUP3 AND SWAP3 DUP3 PUSH1 0x70 SHR AND SWAP2 PUSH1 0xE0 SHR SWAP1 JUMP JUMPDEST POP SWAP1 DUP4 ISZERO PUSH2 0x122D JUMPI DUP1 SWAP4 JUMPDEST ISZERO PUSH2 0x1225 JUMPI POP SWAP1 JUMPDEST PUSH2 0x11BF DUP2 PUSH1 0x1 PUSH1 0x1 PUSH1 0x70 SHL SUB DUP1 SWAP6 AND PUSH2 0x1B1F JUMP JUMPDEST SWAP3 PUSH2 0x2710 SWAP3 DUP4 DUP6 MUL SWAP5 DUP1 DUP7 DIV DUP6 EQ SWAP1 ISZERO OR ISZERO PUSH2 0x1211 JUMPI PUSH2 0x11E0 SWAP3 SWAP2 AND PUSH2 0x1B12 JUMP JUMPDEST PUSH1 0x6 SLOAD DUP3 SUB SWAP2 DUP3 GT PUSH2 0x1146 JUMPI PUSH2 0x11FA SWAP3 SWAP2 PUSH2 0x112C SWAP2 PUSH2 0x1B1F JUMP JUMPDEST SWAP1 PUSH1 0x1 DUP3 ADD DUP1 SWAP3 GT PUSH2 0x1132 JUMPI PUSH1 0x20 DUP3 PUSH1 0x40 MLOAD SWAP1 DUP2 MSTORE RETURN JUMPDEST PUSH4 0x4E487B71 PUSH1 0xE0 SHL DUP7 MSTORE PUSH1 0x11 PUSH1 0x4 MSTORE PUSH1 0x24 DUP7 REVERT JUMPDEST SWAP1 POP SWAP1 PUSH2 0x11AB JUMP JUMPDEST DUP2 SWAP4 PUSH2 0x11A3 JUMP JUMPDEST POP CALLVALUE PUSH2 0x2AE JUMPI DUP1 PUSH1 0x3 NOT CALLDATASIZE ADD SLT PUSH2 0x2AE JUMPI PUSH1 0x8 SLOAD PUSH1 0x40 MLOAD PUSH1 0x1 PUSH1 0x1 PUSH1 0xA0 SHL SUB SWAP1 SWAP2 AND DUP2 MSTORE PUSH1 0x20 SWAP1 RETURN JUMPDEST POP CALLVALUE PUSH2 0x2AE JUMPI PUSH1 0x40 CALLDATASIZE PUSH1 0x3 NOT ADD SLT PUSH2 0x2AE JUMPI PUSH2 0x1277 PUSH2 0x196D JUMP JUMPDEST PUSH1 0x24 CALLDATALOAD SWAP1 CALLER ISZERO PUSH2 0xFDC JUMPI PUSH1 0x1 PUSH1 0x1 PUSH1 0xA0 SHL SUB AND SWAP1 DUP2 ISZERO PUSH2 0xFC3 JUMPI CALLER PUSH1 0x0 MSTORE PUSH1 0x1 PUSH1 0x20 MSTORE PUSH1 0x40 PUSH1 0x0 KECCAK256 DUP3 PUSH1 0x0 MSTORE PUSH1 0x20 MSTORE DUP1 PUSH1 0x40 PUSH1 0x0 KECCAK256 SSTORE PUSH1 0x40 MLOAD SWAP1 DUP2 MSTORE PUSH32 0x8C5BE1E5EBEC7D5BD14F71427D1E84F3DD0314C0F7B2291E5B200AC8C7C3B925 PUSH1 0x20 CALLER SWAP3 LOG3 PUSH1 0x20 PUSH1 0x40 MLOAD PUSH1 0x1 DUP2 MSTORE RETURN JUMPDEST POP CALLVALUE PUSH2 0x2AE JUMPI DUP1 PUSH1 0x3 NOT CALLDATASIZE ADD SLT PUSH2 0x2AE JUMPI PUSH1 0x60 PUSH4 0xFFFFFFFF PUSH2 0x131B PUSH1 0xA SLOAD PUSH1 0x1 PUSH1 0x1 PUSH1 0x70 SHL SUB SWAP2 DUP3 DUP3 AND SWAP3 DUP3 PUSH1 0x70 SHR AND SWAP2 PUSH1 0xE0 SHR SWAP1 JUMP JUMPDEST SWAP1 SWAP3 SWAP2 PUSH1 0x40 MLOAD SWAP4 PUSH1 0x1 PUSH1 0x1 PUSH1 0x70 SHL SUB DUP1 SWAP3 AND DUP6 MSTORE AND PUSH1 0x20 DUP5 ADD MSTORE AND PUSH1 0x40 DUP3 ADD MSTORE RETURN JUMPDEST POP CALLVALUE PUSH2 0x2AE JUMPI DUP1 PUSH1 0x3 NOT CALLDATASIZE ADD SLT PUSH2 0x2AE JUMPI PUSH1 0x40 MLOAD DUP2 PUSH1 0x3 SLOAD SWAP1 PUSH1 0x1 DUP3 DUP2 SHR SWAP2 DUP2 DUP5 AND SWAP4 DUP5 ISZERO PUSH2 0x13EE JUMPI JUMPDEST PUSH1 0x20 SWAP5 DUP6 DUP6 LT DUP2 EQ PUSH2 0x6F7 JUMPI DUP5 DUP8 MSTORE SWAP1 DUP2 ISZERO PUSH2 0x6D5 JUMPI POP PUSH1 0x1 EQ PUSH2 0x1395 JUMPI PUSH2 0x678 DUP6 PUSH2 0x66C DUP2 DUP10 SUB DUP3 PUSH2 0x1A01 JUMP JUMPDEST SWAP3 SWAP5 POP PUSH1 0x3 DUP4 MSTORE PUSH32 0xC2575A0E9E593C00F959F8C92F12DB2869C3395A3B0502D05E2516446F71F85B JUMPDEST DUP3 DUP5 LT PUSH2 0x13DB JUMPI POP POP POP DUP2 PUSH2 0x678 SWAP4 PUSH2 0x66C SWAP3 DUP3 ADD ADD SWAP4 CODESIZE PUSH2 0x65C JUMP JUMPDEST DUP1 SLOAD DUP6 DUP6 ADD DUP8 ADD MSTORE SWAP3 DUP6 ADD SWAP3 DUP2 ADD PUSH2 0x13BE JUMP JUMPDEST SWAP3 PUSH1 0x7F AND SWAP3 PUSH2 0x1367 JUMP JUMPDEST POP CALLVALUE PUSH2 0x2AE JUMPI PUSH1 0x80 CALLDATASIZE PUSH1 0x3 NOT ADD SLT PUSH2 0x2AE JUMPI PUSH1 0x1 PUSH1 0x1 PUSH1 0xA0 SHL SUB PUSH1 0x44 CALLDATALOAD DUP1 DUP3 AND SWAP1 SUB PUSH2 0x4C7 JUMPI PUSH8 0xFFFFFFFFFFFFFFFF PUSH1 0x64 CALLDATALOAD GT PUSH2 0x4C7 JUMPI CALLDATASIZE PUSH1 0x23 PUSH1 0x64 CALLDATALOAD ADD SLT ISZERO PUSH2 0x4C7 JUMPI PUSH8 0xFFFFFFFFFFFFFFFF PUSH1 0x64 CALLDATALOAD PUSH1 0x4 ADD CALLDATALOAD GT PUSH2 0x4C7 JUMPI CALLDATASIZE PUSH1 0x24 PUSH1 0x64 CALLDATALOAD PUSH1 0x4 ADD CALLDATALOAD PUSH1 0x64 CALLDATALOAD ADD ADD GT PUSH2 0x4C7 JUMPI PUSH2 0x146D PUSH2 0x1B9E JUMP JUMPDEST PUSH1 0x4 CALLDATALOAD ISZERO SWAP1 DUP2 DUP1 PUSH2 0x1963 JUMPI JUMPDEST PUSH2 0x1951 JUMPI PUSH2 0x149C PUSH1 0xA SLOAD PUSH1 0x1 PUSH1 0x1 PUSH1 0x70 SHL SUB SWAP2 DUP3 DUP3 AND SWAP3 DUP3 PUSH1 0x70 SHR AND SWAP2 PUSH1 0xE0 SHR SWAP1 JUMP JUMPDEST POP PUSH1 0x1 PUSH1 0x1 PUSH1 0x70 SHL SUB DUP3 SWAP5 SWAP3 AND PUSH1 0x4 CALLDATALOAD LT DUP1 ISZERO SWAP1 PUSH2 0x193C JUMPI JUMPDEST PUSH2 0x192A JUMPI DUP3 PUSH1 0x8 SLOAD AND SWAP1 DUP4 PUSH1 0x9 SLOAD AND SWAP3 DUP3 DUP6 PUSH1 0x44 CALLDATALOAD AND EQ DUP1 ISZERO PUSH2 0x191D JUMPI JUMPDEST PUSH2 0x190B JUMPI ISZERO PUSH2 0x18F7 JUMPI JUMPDEST PUSH1 0x24 CALLDATALOAD PUSH2 0x18E3 JUMPI JUMPDEST PUSH1 0x64 CALLDATALOAD PUSH1 0x4 ADD CALLDATALOAD PUSH2 0x181D JUMPI JUMPDEST PUSH1 0x40 MLOAD SWAP2 PUSH1 0x20 DUP4 PUSH1 0x24 DUP2 PUSH4 0x70A08231 PUSH1 0xE0 SHL SWAP5 DUP6 DUP3 MSTORE ADDRESS PUSH1 0x4 DUP4 ADD MSTORE GAS STATICCALL SWAP3 DUP4 ISZERO PUSH2 0x4BC JUMPI DUP8 SWAP4 PUSH2 0x17E8 JUMPI JUMPDEST POP PUSH1 0x20 SWAP1 PUSH1 0x24 PUSH1 0x40 MLOAD DUP1 SWAP7 DUP2 SWAP4 DUP3 MSTORE ADDRESS PUSH1 0x4 DUP4 ADD MSTORE GAS STATICCALL SWAP3 DUP4 ISZERO PUSH2 0x480 JUMPI DUP7 SWAP4 PUSH2 0x17B4 JUMPI JUMPDEST POP PUSH2 0x1558 PUSH1 0x4 CALLDATALOAD PUSH1 0x1 PUSH1 0x1 PUSH1 0x70 SHL SUB DUP8 AND PUSH2 0x1B12 JUMP JUMPDEST DUP3 GT ISZERO PUSH2 0x17AD JUMPI PUSH2 0x157D PUSH2 0x1577 PUSH1 0x4 CALLDATALOAD PUSH1 0x1 PUSH1 0x1 PUSH1 0x70 SHL SUB DUP9 AND PUSH2 0x1B12 JUMP JUMPDEST DUP4 PUSH2 0x1B12 JUMP JUMPDEST SWAP5 JUMPDEST PUSH2 0x1594 PUSH1 0x24 CALLDATALOAD PUSH1 0x1 PUSH1 0x1 PUSH1 0x70 SHL SUB DUP5 AND PUSH2 0x1B12 JUMP JUMPDEST DUP5 GT ISZERO PUSH2 0x17A6 JUMPI PUSH2 0x15B9 PUSH2 0x15B3 PUSH1 0x24 CALLDATALOAD PUSH1 0x1 PUSH1 0x1 PUSH1 0x70 SHL SUB DUP6 AND PUSH2 0x1B12 JUMP JUMPDEST DUP6 PUSH2 0x1B12 JUMP JUMPDEST SWAP4 JUMPDEST DUP7 ISZERO SWAP4 DUP5 DUP1 PUSH2 0x179E JUMPI JUMPDEST PUSH2 0x178C JUMPI DUP1 PUSH2 0x2710 DUP2 MUL DIV PUSH2 0x2710 EQ DUP2 ISZERO OR ISZERO PUSH2 0x1778 JUMPI PUSH1 0x6 SLOAD PUSH2 0x15F6 PUSH2 0x15EC DUP3 DUP12 PUSH2 0x1B1F JUMP JUMPDEST PUSH2 0x2710 DUP5 MUL PUSH2 0x1B12 JUMP JUMPDEST PUSH2 0x2710 DUP5 MUL DUP5 DUP2 DIV PUSH2 0x2710 EQ DUP6 ISZERO OR ISZERO PUSH2 0x1764 JUMPI SWAP1 PUSH2 0x1622 PUSH2 0x1628 SWAP3 PUSH2 0x161C DUP6 DUP13 PUSH2 0x1B1F JUMP JUMPDEST SWAP1 PUSH2 0x1B12 JUMP JUMPDEST SWAP1 PUSH2 0x1B1F JUMP JUMPDEST PUSH2 0x1644 PUSH1 0x1 PUSH1 0x1 PUSH1 0x70 SHL SUB DUP8 AND PUSH1 0x1 PUSH1 0x1 PUSH1 0x70 SHL SUB DUP8 AND PUSH2 0x1B1F JUMP JUMPDEST PUSH1 0x1 SWAP1 PUSH2 0x2710 PUSH1 0x2 JUMPDEST PUSH1 0x1 DUP2 GT PUSH2 0x173B JUMPI POP DUP1 PUSH1 0x0 NOT DIV DUP4 GT PUSH2 0xCF2 JUMPI PUSH2 0x166C SWAP3 MUL SWAP1 PUSH2 0x1B1F JUMP JUMPDEST GT PUSH2 0x1729 JUMPI PUSH2 0x1687 SWAP6 ISZERO PUSH2 0x1706 JUMPI JUMPDEST DUP7 PUSH2 0x16D5 JUMPI JUMPDEST POP PUSH2 0x1CE1 JUMP JUMPDEST PUSH1 0x40 MLOAD SWAP3 DUP4 MSTORE PUSH1 0x20 DUP4 ADD MSTORE PUSH1 0x4 CALLDATALOAD PUSH1 0x40 DUP4 ADD MSTORE PUSH1 0x24 CALLDATALOAD PUSH1 0x60 DUP4 ADD MSTORE PUSH1 0x44 CALLDATALOAD AND SWAP1 PUSH32 0xD78AD95FA46C994B6551D0DA85FC275FE613CE37657FB8D5E3D130840159D822 PUSH1 0x80 CALLER SWAP3 LOG3 PUSH1 0x1 PUSH1 0x5 SSTORE DUP1 RETURN JUMPDEST PUSH2 0x16F5 PUSH2 0x2710 PUSH2 0x16E8 PUSH2 0x16FD SWAP4 DUP11 PUSH2 0x1B1F JUMP JUMPDEST DIV PUSH1 0x80 SHL PUSH1 0x2 SLOAD SWAP1 PUSH2 0x1B32 JUMP JUMPDEST PUSH1 0x10 SLOAD PUSH2 0x1B05 JUMP JUMPDEST PUSH1 0x10 SSTORE CODESIZE PUSH2 0x1681 JUMP JUMPDEST PUSH2 0x1721 PUSH2 0x1719 PUSH2 0x2710 PUSH2 0x16E8 DUP5 DUP14 PUSH2 0x1B1F JUMP JUMPDEST PUSH1 0xF SLOAD PUSH2 0x1B05 JUMP JUMPDEST PUSH1 0xF SSTORE PUSH2 0x167B JUMP JUMPDEST PUSH1 0x40 MLOAD PUSH4 0x2F62F0D9 PUSH1 0xE2 SHL DUP2 MSTORE PUSH1 0x4 SWAP1 REVERT JUMPDEST SWAP1 DUP1 PUSH1 0x0 NOT DIV DUP2 GT PUSH2 0xCF2 JUMPI PUSH1 0x1 DUP3 AND PUSH2 0x175B JUMPI JUMPDEST DUP1 MUL SWAP1 PUSH1 0x1 SHR PUSH2 0x164D JUMP JUMPDEST DUP1 SWAP4 MUL SWAP3 PUSH2 0x1750 JUMP JUMPDEST PUSH4 0x4E487B71 PUSH1 0xE0 SHL DUP13 MSTORE PUSH1 0x11 PUSH1 0x4 MSTORE PUSH1 0x24 DUP13 REVERT JUMPDEST PUSH4 0x4E487B71 PUSH1 0xE0 SHL DUP10 MSTORE PUSH1 0x11 PUSH1 0x4 MSTORE PUSH1 0x24 DUP10 REVERT JUMPDEST PUSH1 0x40 MLOAD PUSH4 0x98FB561 PUSH1 0xE0 SHL DUP2 MSTORE PUSH1 0x4 SWAP1 REVERT JUMPDEST POP DUP6 ISZERO PUSH2 0x15C5 JUMP JUMPDEST DUP7 SWAP4 PUSH2 0x15BB JUMP JUMPDEST DUP6 SWAP5 PUSH2 0x157F JUMP JUMPDEST SWAP1 SWAP3 POP PUSH1 0x20 DUP2 RETURNDATASIZE PUSH1 0x20 GT PUSH2 0x17E0 JUMPI JUMPDEST DUP2 PUSH2 0x17D0 PUSH1 0x20 SWAP4 DUP4 PUSH2 0x1A01 JUMP JUMPDEST DUP2 ADD SUB SLT PUSH2 0x25B JUMPI MLOAD SWAP2 CODESIZE PUSH2 0x1542 JUMP JUMPDEST RETURNDATASIZE SWAP2 POP PUSH2 0x17C3 JUMP JUMPDEST SWAP1 SWAP3 POP PUSH1 0x20 DUP2 RETURNDATASIZE PUSH1 0x20 GT PUSH2 0x1815 JUMPI JUMPDEST DUP2 PUSH2 0x1804 PUSH1 0x20 SWAP4 DUP4 PUSH2 0x1A01 JUMP JUMPDEST DUP2 ADD SUB SLT PUSH2 0x25B JUMPI MLOAD SWAP2 PUSH1 0x20 PUSH2 0x151D JUMP JUMPDEST RETURNDATASIZE SWAP2 POP PUSH2 0x17F7 JUMP JUMPDEST DUP4 PUSH1 0x44 CALLDATALOAD AND EXTCODESIZE ISZERO PUSH2 0x18DF JUMPI PUSH1 0x40 MLOAD PUSH4 0xB3A63E3 PUSH1 0xE2 SHL DUP2 MSTORE CALLER PUSH1 0x4 DUP3 ADD MSTORE PUSH1 0x4 CALLDATALOAD PUSH1 0x24 DUP3 ADD MSTORE PUSH1 0x24 CALLDATALOAD PUSH1 0x44 DUP3 ADD MSTORE PUSH1 0x80 PUSH1 0x64 DUP3 ADD MSTORE PUSH1 0x64 CALLDATALOAD PUSH1 0x4 ADD CALLDATALOAD PUSH1 0x84 DUP3 ADD MSTORE PUSH1 0x64 CALLDATALOAD PUSH1 0x4 ADD CALLDATALOAD PUSH1 0x24 PUSH1 0x64 CALLDATALOAD ADD PUSH1 0xA4 DUP4 ADD CALLDATACOPY DUP7 PUSH1 0xA4 PUSH1 0x64 CALLDATALOAD PUSH1 0x4 ADD CALLDATALOAD DUP4 ADD ADD MSTORE DUP7 DUP2 PUSH1 0xA4 DUP2 PUSH1 0x1F NOT PUSH1 0x1F PUSH1 0x64 CALLDATALOAD PUSH1 0x4 ADD CALLDATALOAD ADD AND DUP2 ADD SUB ADD DUP2 DUP4 DUP10 PUSH1 0x44 CALLDATALOAD AND GAS CALL DUP1 ISZERO PUSH2 0x4BC JUMPI PUSH2 0x18AF JUMPI JUMPDEST POP PUSH2 0x14F1 JUMP JUMPDEST PUSH8 0xFFFFFFFFFFFFFFFF DUP2 SWAP8 SWAP3 SWAP8 GT PUSH2 0x18CB JUMPI PUSH1 0x40 MSTORE SWAP5 CODESIZE PUSH2 0x18A9 JUMP JUMPDEST PUSH4 0x4E487B71 PUSH1 0xE0 SHL DUP3 MSTORE PUSH1 0x41 PUSH1 0x4 MSTORE PUSH1 0x24 DUP3 REVERT JUMPDEST DUP6 DUP1 REVERT JUMPDEST PUSH2 0x18F2 PUSH1 0x24 CALLDATALOAD PUSH1 0x44 CALLDATALOAD DUP6 PUSH2 0x1F69 JUMP JUMPDEST PUSH2 0x14E5 JUMP JUMPDEST PUSH2 0x1906 PUSH1 0x4 CALLDATALOAD PUSH1 0x44 CALLDATALOAD DUP5 PUSH2 0x1F69 JUMP JUMPDEST PUSH2 0x14DD JUMP JUMPDEST PUSH1 0x40 MLOAD PUSH4 0x521F431 PUSH1 0xE3 SHL DUP2 MSTORE PUSH1 0x4 SWAP1 REVERT JUMPDEST POP DUP4 DUP6 PUSH1 0x44 CALLDATALOAD AND EQ PUSH2 0x14D3 JUMP JUMPDEST PUSH1 0x40 MLOAD PUSH4 0xBB55FD27 PUSH1 0xE0 SHL DUP2 MSTORE PUSH1 0x4 SWAP1 REVERT JUMPDEST POP PUSH1 0x1 PUSH1 0x1 PUSH1 0x70 SHL SUB DUP2 AND PUSH1 0x24 CALLDATALOAD LT ISZERO PUSH2 0x14B5 JUMP JUMPDEST PUSH1 0x40 MLOAD PUSH4 0x42301C23 PUSH1 0xE0 SHL DUP2 MSTORE PUSH1 0x4 SWAP1 REVERT JUMPDEST POP PUSH1 0x24 CALLDATALOAD ISZERO PUSH2 0x1479 JUMP JUMPDEST PUSH1 0x4 CALLDATALOAD SWAP1 PUSH1 0x1 PUSH1 0x1 PUSH1 0xA0 SHL SUB DUP3 AND DUP3 SUB PUSH2 0x25B JUMPI JUMP JUMPDEST PUSH1 0x24 CALLDATALOAD SWAP1 PUSH1 0x1 PUSH1 0x1 PUSH1 0xA0 SHL SUB DUP3 AND DUP3 SUB PUSH2 0x25B JUMPI JUMP JUMPDEST PUSH1 0x20 DUP1 DUP3 MSTORE DUP3 MLOAD DUP2 DUP4 ADD DUP2 SWAP1 MSTORE SWAP1 SWAP4 SWAP3 PUSH1 0x0 JUMPDEST DUP3 DUP2 LT PUSH2 0x19CE JUMPI POP POP PUSH1 0x40 SWAP3 SWAP4 POP PUSH1 0x0 DUP4 DUP3 DUP5 ADD ADD MSTORE PUSH1 0x1F DUP1 NOT SWAP2 ADD AND ADD ADD SWAP1 JUMP JUMPDEST DUP2 DUP2 ADD DUP7 ADD MLOAD DUP5 DUP3 ADD PUSH1 0x40 ADD MSTORE DUP6 ADD PUSH2 0x19AC JUMP JUMPDEST PUSH1 0x40 SWAP1 PUSH1 0x3 NOT ADD SLT PUSH2 0x25B JUMPI PUSH1 0x4 CALLDATALOAD SWAP1 PUSH1 0x24 CALLDATALOAD DUP1 ISZERO ISZERO DUP2 SUB PUSH2 0x25B JUMPI SWAP1 JUMP JUMPDEST SWAP1 PUSH1 0x1F DUP1 NOT SWAP2 ADD AND DUP2 ADD SWAP1 DUP2 LT PUSH8 0xFFFFFFFFFFFFFFFF DUP3 GT OR PUSH2 0x1A23 JUMPI PUSH1 0x40 MSTORE JUMP JUMPDEST PUSH4 0x4E487B71 PUSH1 0xE0 SHL PUSH1 0x0 MSTORE PUSH1 0x41 PUSH1 0x4 MSTORE PUSH1 0x24 PUSH1 0x0 REVERT JUMPDEST SWAP2 PUSH1 0x1 PUSH1 0x1 PUSH1 0xA0 SHL SUB DUP1 DUP5 AND SWAP3 DUP4 ISZERO PUSH2 0x1AEC JUMPI AND SWAP3 DUP4 ISZERO PUSH2 0x1AD3 JUMPI PUSH1 0x0 SWAP1 DUP4 DUP3 MSTORE DUP2 PUSH1 0x20 MSTORE PUSH1 0x40 DUP3 KECCAK256 SLOAD SWAP1 DUP4 DUP3 LT PUSH2 0x1AA1 JUMPI POP SWAP2 PUSH1 0x40 DUP3 DUP3 PUSH1 0x0 DUP1 MLOAD PUSH1 0x20 PUSH2 0x2080 DUP4 CODECOPY DUP2 MLOAD SWAP2 MSTORE SWAP6 DUP8 PUSH1 0x20 SWAP7 MSTORE DUP3 DUP7 MSTORE SUB DUP3 DUP3 KECCAK256 SSTORE DUP7 DUP2 MSTORE KECCAK256 DUP2 DUP2 SLOAD ADD SWAP1 SSTORE PUSH1 0x40 MLOAD SWAP1 DUP2 MSTORE LOG3 JUMP JUMPDEST PUSH1 0x40 MLOAD PUSH4 0x391434E3 PUSH1 0xE2 SHL DUP2 MSTORE PUSH1 0x1 PUSH1 0x1 PUSH1 0xA0 SHL SUB SWAP2 SWAP1 SWAP2 AND PUSH1 0x4 DUP3 ADD MSTORE PUSH1 0x24 DUP2 ADD SWAP2 SWAP1 SWAP2 MSTORE PUSH1 0x44 DUP2 ADD DUP4 SWAP1 MSTORE PUSH1 0x64 SWAP1 REVERT JUMPDEST PUSH1 0x40 MLOAD PUSH4 0xEC442F05 PUSH1 0xE0 SHL DUP2 MSTORE PUSH1 0x0 PUSH1 0x4 DUP3 ADD MSTORE PUSH1 0x24 SWAP1 REVERT JUMPDEST PUSH1 0x40 MLOAD PUSH4 0x4B637E8F PUSH1 0xE1 SHL DUP2 MSTORE PUSH1 0x0 PUSH1 0x4 DUP3 ADD MSTORE PUSH1 0x24 SWAP1 REVERT JUMPDEST SWAP2 SWAP1 DUP3 ADD DUP1 SWAP3 GT PUSH2 0xCF2 JUMPI JUMP JUMPDEST SWAP2 SWAP1 DUP3 SUB SWAP2 DUP3 GT PUSH2 0xCF2 JUMPI JUMP JUMPDEST DUP2 DUP2 MUL SWAP3 SWAP2 DUP2 ISZERO SWAP2 DUP5 DIV EQ OR ISZERO PUSH2 0xCF2 JUMPI JUMP JUMPDEST DUP2 ISZERO PUSH2 0x1B3C JUMPI DIV SWAP1 JUMP JUMPDEST PUSH4 0x4E487B71 PUSH1 0xE0 SHL PUSH1 0x0 MSTORE PUSH1 0x12 PUSH1 0x4 MSTORE PUSH1 0x24 PUSH1 0x0 REVERT JUMPDEST PUSH1 0x1 PUSH1 0x1 PUSH1 0xA0 SHL SUB AND SWAP1 DUP2 ISZERO PUSH2 0x1AD3 JUMPI PUSH1 0x0 DUP1 MLOAD PUSH1 0x20 PUSH2 0x2080 DUP4 CODECOPY DUP2 MLOAD SWAP2 MSTORE PUSH1 0x20 DUP3 PUSH2 0x1B82 PUSH1 0x0 SWAP5 PUSH1 0x2 SLOAD PUSH2 0x1B05 JUMP JUMPDEST PUSH1 0x2 SSTORE DUP5 DUP5 MSTORE DUP4 DUP3 MSTORE PUSH1 0x40 DUP5 KECCAK256 DUP2 DUP2 SLOAD ADD SWAP1 SSTORE PUSH1 0x40 MLOAD SWAP1 DUP2 MSTORE LOG3 JUMP JUMPDEST PUSH1 0x2 PUSH1 0x5 SLOAD EQ PUSH2 0x1BAF JUMPI PUSH1 0x2 PUSH1 0x5 SSTORE JUMP JUMPDEST PUSH1 0x40 MLOAD PUSH4 0x3EE5AEB5 PUSH1 0xE0 SHL DUP2 MSTORE PUSH1 0x4 SWAP1 REVERT JUMPDEST PUSH1 0x1 DUP1 DUP3 GT ISZERO PUSH2 0x1CDD JUMPI PUSH2 0x1C7E SWAP1 DUP1 DUP4 PUSH1 0x1 PUSH1 0x80 SHL DUP2 LT ISZERO PUSH2 0x1CCB JUMPI JUMPDEST DUP1 PUSH1 0x1 PUSH1 0x40 SHL PUSH1 0x4 SWAP3 LT ISZERO PUSH2 0x1CBE JUMPI JUMPDEST PUSH5 0x100000000 DUP2 LT ISZERO PUSH2 0x1CB1 JUMPI JUMPDEST PUSH3 0x10000 DUP2 LT ISZERO PUSH2 0x1CA4 JUMPI JUMPDEST PUSH2 0x100 DUP2 LT ISZERO PUSH2 0x1C98 JUMPI JUMPDEST PUSH1 0x10 DUP2 LT ISZERO PUSH2 0x1C8C JUMPI JUMPDEST LT ISZERO PUSH2 0x1C85 JUMPI JUMPDEST PUSH1 0x3 MUL DUP2 SHR PUSH2 0x1C33 DUP2 DUP6 PUSH2 0x1B32 JUMP JUMPDEST ADD DUP2 SHR PUSH2 0x1C40 DUP2 DUP6 PUSH2 0x1B32 JUMP JUMPDEST ADD DUP2 SHR PUSH2 0x1C4D DUP2 DUP6 PUSH2 0x1B32 JUMP JUMPDEST ADD DUP2 SHR PUSH2 0x1C5A DUP2 DUP6 PUSH2 0x1B32 JUMP JUMPDEST ADD DUP2 SHR PUSH2 0x1C67 DUP2 DUP6 PUSH2 0x1B32 JUMP JUMPDEST ADD DUP2 SHR PUSH2 0x1C74 DUP2 DUP6 PUSH2 0x1B32 JUMP JUMPDEST ADD SWAP1 SHR DUP1 SWAP3 PUSH2 0x1B32 JUMP JUMPDEST DUP2 GT SWAP1 SUB SWAP1 JUMP JUMPDEST DUP2 SHL PUSH2 0x1C24 JUMP JUMPDEST DUP2 SHR SWAP2 PUSH1 0x2 SHL SWAP2 PUSH2 0x1C1D JUMP JUMPDEST PUSH1 0x8 SHR SWAP2 DUP2 SHL SWAP2 PUSH2 0x1C13 JUMP JUMPDEST PUSH1 0x10 SHR SWAP2 PUSH1 0x8 SHL SWAP2 PUSH2 0x1C08 JUMP JUMPDEST PUSH1 0x20 SHR SWAP2 PUSH1 0x10 SHL SWAP2 PUSH2 0x1BFC JUMP JUMPDEST PUSH1 0x40 SHR SWAP2 PUSH1 0x20 SHL SWAP2 PUSH2 0x1BEE JUMP JUMPDEST POP PUSH1 0x1 PUSH1 0x40 SHL SWAP1 POP PUSH1 0x80 DUP5 SWAP1 SHR PUSH2 0x1BDE JUMP JUMPDEST POP SWAP1 JUMP JUMPDEST SWAP3 SWAP2 PUSH1 0x1 PUSH1 0x1 PUSH1 0x70 SHL SUB SWAP1 DUP2 DUP6 GT DUP1 ISZERO PUSH2 0x1DE6 JUMPI JUMPDEST PUSH2 0x1DD4 JUMPI PUSH32 0x1C411E9A96E071241C2F21F7726B17AE89E3CAB4C78BE50E062B03A9FFFBBAD1 SWAP5 PUSH1 0x40 SWAP5 DUP4 SWAP3 PUSH1 0xA SLOAD PUSH4 0xFFFFFFFF SWAP1 PUSH1 0xE0 SHR DUP2 TIMESTAMP AND SUB AND DUP5 DUP2 ISZERO ISZERO DUP1 PUSH2 0x1DC9 JUMPI JUMPDEST DUP1 PUSH2 0x1DBE JUMPI JUMPDEST PUSH2 0x1D8D JUMPI JUMPDEST POP POP POP POP PUSH1 0x70 SWAP4 DUP5 SHL PUSH14 0xFFFFFFFFFFFFFFFFFFFFFFFFFFFF PUSH1 0x70 SHL AND SWAP2 AND SWAP1 DUP2 OR TIMESTAMP PUSH1 0xE0 SHL PUSH1 0x1 PUSH1 0x1 PUSH1 0xE0 SHL SUB NOT AND OR PUSH1 0xA DUP2 SWAP1 SSTORE DUP5 MLOAD SWAP2 DUP3 MSTORE SWAP1 SWAP3 SHR AND PUSH1 0x20 DUP3 ADD MSTORE LOG1 JUMP JUMPDEST DUP1 PUSH2 0x1DAE SWAP5 AND SWAP3 AND PUSH2 0x1DA1 DUP2 DUP4 DUP6 MUL PUSH2 0x1B32 JUMP JUMPDEST PUSH1 0xB SLOAD ADD PUSH1 0xB SSTORE MUL PUSH2 0x1B32 JUMP JUMPDEST PUSH1 0xC SLOAD ADD PUSH1 0xC SSTORE CODESIZE DUP1 DUP1 DUP5 PUSH2 0x1D47 JUMP JUMPDEST POP DUP1 DUP5 AND ISZERO ISZERO PUSH2 0x1D42 JUMP JUMPDEST POP DUP1 DUP4 AND ISZERO ISZERO PUSH2 0x1D3C JUMP JUMPDEST PUSH1 0x40 MLOAD PUSH4 0x1A93C689 PUSH1 0xE1 SHL DUP2 MSTORE PUSH1 0x4 SWAP1 REVERT JUMPDEST POP DUP2 DUP4 GT PUSH2 0x1CF6 JUMP JUMPDEST PUSH1 0x7 SLOAD PUSH1 0x40 MLOAD PUSH3 0x2FCFCB PUSH1 0xE3 SHL DUP2 MSTORE SWAP3 SWAP4 SWAP3 SWAP2 SWAP1 PUSH1 0x1 PUSH1 0x1 PUSH1 0xA0 SHL SUB SWAP1 PUSH1 0x20 SWAP1 DUP5 SWAP1 PUSH1 0x4 SWAP1 DUP3 SWAP1 DUP6 AND GAS STATICCALL SWAP3 DUP4 ISZERO PUSH2 0x1F15 JUMPI PUSH1 0x0 SWAP4 PUSH2 0x1ED7 JUMPI JUMPDEST POP DUP3 AND ISZERO ISZERO SWAP4 PUSH1 0xD SLOAD SWAP2 DUP6 PUSH1 0x0 EQ PUSH2 0x1EC6 JUMPI DUP3 PUSH2 0x1E47 JUMPI JUMPDEST POP POP POP POP JUMP JUMPDEST PUSH2 0xBC6 PUSH2 0x1E64 SWAP2 PUSH2 0x1E6A SWAP4 PUSH1 0x1 PUSH1 0x1 PUSH1 0x70 SHL SUB DUP1 SWAP2 AND SWAP2 AND PUSH2 0x1B1F JUMP JUMPDEST SWAP2 PUSH2 0x1BC1 JUMP JUMPDEST SWAP1 DUP2 DUP2 GT PUSH2 0x1E79 JUMPI JUMPDEST DUP1 PUSH2 0x1E41 JUMP JUMPDEST PUSH2 0x1E89 PUSH1 0x2 SLOAD PUSH2 0x1622 DUP5 DUP5 PUSH2 0x1B12 JUMP JUMPDEST SWAP1 PUSH1 0x5 DUP2 MUL SWAP1 DUP1 DUP3 DIV PUSH1 0x5 EQ SWAP1 ISZERO OR ISZERO PUSH2 0xCF2 JUMPI PUSH2 0x1EAA SWAP3 PUSH2 0x112C SWAP2 PUSH2 0x1B05 JUMP JUMPDEST DUP1 PUSH2 0x1EB6 JUMPI JUMPDEST DUP1 PUSH2 0x1E73 JUMP JUMPDEST PUSH2 0x1EBF SWAP2 PUSH2 0x1B52 JUMP JUMPDEST CODESIZE DUP1 PUSH2 0x1EB0 JUMP JUMPDEST POP POP SWAP1 POP PUSH2 0x1ED0 JUMPI JUMP JUMPDEST PUSH1 0x0 PUSH1 0xD SSTORE JUMP JUMPDEST PUSH1 0x20 SWAP4 SWAP2 SWAP4 DUP2 RETURNDATASIZE DUP3 GT PUSH2 0x1F0D JUMPI JUMPDEST DUP2 PUSH2 0x1EF2 PUSH1 0x20 SWAP4 DUP4 PUSH2 0x1A01 JUMP JUMPDEST DUP2 ADD SUB SLT PUSH2 0x4C7 JUMPI MLOAD SWAP1 DUP4 DUP3 AND DUP3 SUB PUSH2 0x2AE JUMPI POP SWAP2 CODESIZE PUSH2 0x1E29 JUMP JUMPDEST RETURNDATASIZE SWAP2 POP PUSH2 0x1EE5 JUMP JUMPDEST PUSH1 0x40 MLOAD RETURNDATASIZE PUSH1 0x0 DUP3 RETURNDATACOPY RETURNDATASIZE SWAP1 REVERT JUMPDEST PUSH1 0xA SLOAD PUSH1 0x1 PUSH1 0x1 PUSH1 0x70 SHL SUB DUP1 DUP3 AND SWAP2 DUP3 ISZERO PUSH2 0x1F61 JUMPI PUSH1 0x70 SHR AND SWAP1 PUSH8 0xDE0B6B3A7640000 SWAP2 DUP3 DUP2 MUL SWAP3 DUP2 DUP5 DIV EQ SWAP1 ISZERO OR ISZERO PUSH2 0xCF2 JUMPI PUSH2 0x1F5E SWAP2 PUSH2 0x1B32 JUMP JUMPDEST SWAP1 JUMP JUMPDEST POP POP POP PUSH1 0x0 SWAP1 JUMP JUMPDEST PUSH1 0x40 MLOAD PUSH4 0xA9059CBB PUSH1 0xE0 SHL PUSH1 0x20 DUP1 DUP4 ADD SWAP2 DUP3 MSTORE PUSH1 0x1 PUSH1 0x1 PUSH1 0xA0 SHL SUB SWAP1 SWAP5 AND PUSH1 0x24 DUP4 ADD MSTORE PUSH1 0x44 DUP1 DUP4 ADD SWAP6 SWAP1 SWAP6 MSTORE SWAP4 DUP2 MSTORE SWAP2 SWAP3 PUSH8 0xFFFFFFFFFFFFFFFF SWAP3 PUSH1 0x80 DUP2 ADD DUP5 DUP2 GT DUP3 DUP3 LT OR PUSH2 0x1A23 JUMPI PUSH1 0x40 MSTORE PUSH1 0x0 SWAP3 DUP4 SWAP3 DUP4 DUP1 SWAP4 MLOAD SWAP3 GAS CALL SWAP2 RETURNDATASIZE ISZERO PUSH2 0x2077 JUMPI RETURNDATASIZE SWAP1 DUP2 GT PUSH2 0x18CB JUMPI PUSH1 0x40 MLOAD SWAP1 PUSH2 0x1FE8 PUSH1 0x1F DUP3 ADD PUSH1 0x1F NOT AND DUP7 ADD DUP4 PUSH2 0x1A01 JUMP JUMPDEST DUP2 MSTORE RETURNDATASIZE DUP3 DUP6 DUP4 ADD RETURNDATACOPY JUMPDEST DUP3 PUSH2 0x2037 JUMPI JUMPDEST POP POP ISZERO PUSH2 0x2001 JUMPI POP JUMP JUMPDEST PUSH1 0x64 SWAP1 PUSH1 0x40 MLOAD SWAP1 PUSH3 0x461BCD PUSH1 0xE5 SHL DUP3 MSTORE PUSH1 0x4 DUP3 ADD MSTORE PUSH1 0xF PUSH1 0x24 DUP3 ADD MSTORE PUSH15 0x1514905394D1915497D19052531151 PUSH1 0x8A SHL PUSH1 0x44 DUP3 ADD MSTORE REVERT JUMPDEST DUP1 MLOAD SWAP3 POP DUP3 ISZERO SWAP2 SWAP1 DUP5 DUP4 ISZERO PUSH2 0x2053 JUMPI JUMPDEST POP POP POP SWAP1 POP CODESIZE DUP1 PUSH2 0x1FF7 JUMP JUMPDEST SWAP2 SWAP4 DUP2 DUP1 SWAP5 POP ADD SUB SLT PUSH2 0x4C7 JUMPI DUP3 ADD MLOAD SWAP1 DUP2 ISZERO ISZERO DUP3 SUB PUSH2 0x2AE JUMPI POP DUP1 CODESIZE DUP1 DUP5 PUSH2 0x2047 JUMP JUMPDEST POP PUSH1 0x60 PUSH2 0x1FF1 JUMP INVALID 0xDD CALLCODE MSTORE 0xAD SHL 0xE2 0xC8 SWAP12 PUSH10 0xC2B068FC378DAA952BA7 CALL PUSH4 0xC4A11628 CREATE2 GAS 0x4D CREATE2 0x23 0xB3 0xEF LOG2 PUSH5 0x6970667358 0x22 SLT KECCAK256 0x49 0xED PUSH12 0xFC657EE55011DE5FF80DE505 0xC3 0xB6 SWAP11 BASEFEE DUP16 DUP8 LOG4 0xB8 0x2B 0xEA 0x4D 0xB0 0x4D SWAP8 PUSH14 0x2A6464736F6C63430008140033A2 PUSH5 0x6970667358 0x22 SLT KECCAK256 SWAP4 DUP6 0xB9 SELFBALANCE 0xD8 LOG2 PUSH11 0x35BE110E6C2E65F9343A1F PC MLOAD EXTCODECOPY PUSH0 INVALID PUSH6 0xF6257B16BCD7 0xB3 DUP2 PUSH5 0x736F6C6343 STOP ADDMOD EQ STOP CALLER "},"methodIdentifiers":{"allPairs(uint256)":"1e3dd18b","allPairsLength()":"574f2ba3","createPair(address,address)":"c9c65396","feeTiers(uint256)":"230ed44a","feeTo()":"017e7e58","feeToSetter()":"094b7415","getFeeTiers()":"e9a4d24f","getPair(address,address)":"e6a43905","pairFor(address,address)":"96ed28f9","setFeeTo(address)":"f46901ed","setFeeToSetter(address)":"a2e74af6"}}}}}