{"contracts/EloquraLimitOrders.sol":{"EloquraLimitOrders":{"abi":[{"inputs":[{"internalType":"address","name":"_router","type":"address"}],"stateMutability":"nonpayable","type":"constructor"},{"inputs":[],"name":"InvalidAmount","type":"error"},{"inputs":[],"name":"InvalidExpiry","type":"error"},{"inputs":[],"name":"NotOrderOwner","type":"error"},{"inputs":[],"name":"OrderAlreadyCancelled","type":"error"},{"inputs":[],"name":"OrderAlreadyExecuted","type":"error"},{"inputs":[],"name":"OrderExpired","type":"error"},{"inputs":[],"name":"OrderNotExpired","type":"error"},{"inputs":[],"name":"OrderNotFound","type":"error"},{"inputs":[{"internalType":"address","name":"owner","type":"address"}],"name":"OwnableInvalidOwner","type":"error"},{"inputs":[{"internalType":"address","name":"account","type":"address"}],"name":"OwnableUnauthorizedAccount","type":"error"},{"inputs":[],"name":"PriceConditionNotMet","type":"error"},{"inputs":[],"name":"ReentrancyGuardReentrantCall","type":"error"},{"inputs":[{"internalType":"address","name":"token","type":"address"}],"name":"SafeERC20FailedOperation","type":"error"},{"anonymous":false,"inputs":[{"indexed":true,"internalType":"uint256","name":"orderId","type":"uint256"}],"name":"OrderCancelled","type":"event"},{"anonymous":false,"inputs":[{"indexed":true,"internalType":"uint256","name":"orderId","type":"uint256"},{"indexed":true,"internalType":"address","name":"executor","type":"address"},{"indexed":false,"internalType":"uint256","name":"amountIn","type":"uint256"},{"indexed":false,"internalType":"uint256","name":"amountOut","type":"uint256"},{"indexed":false,"internalType":"uint256","name":"executorFee","type":"uint256"}],"name":"OrderExecuted","type":"event"},{"anonymous":false,"inputs":[{"indexed":true,"internalType":"uint256","name":"orderId","type":"uint256"},{"indexed":true,"internalType":"address","name":"owner","type":"address"},{"indexed":false,"internalType":"address","name":"tokenIn","type":"address"},{"indexed":false,"internalType":"address","name":"tokenOut","type":"address"},{"indexed":false,"internalType":"uint256","name":"amountIn","type":"uint256"},{"indexed":false,"internalType":"uint256","name":"minAmountOut","type":"uint256"},{"indexed":false,"internalType":"uint256","name":"triggerPrice","type":"uint256"},{"indexed":false,"internalType":"uint256","name":"expiry","type":"uint256"}],"name":"OrderPlaced","type":"event"},{"anonymous":false,"inputs":[{"indexed":true,"internalType":"address","name":"previousOwner","type":"address"},{"indexed":true,"internalType":"address","name":"newOwner","type":"address"}],"name":"OwnershipTransferred","type":"event"},{"inputs":[{"internalType":"uint256","name":"orderId","type":"uint256"}],"name":"cancelOrder","outputs":[],"stateMutability":"nonpayable","type":"function"},{"inputs":[{"internalType":"uint256","name":"orderId","type":"uint256"}],"name":"claimExpired","outputs":[],"stateMutability":"nonpayable","type":"function"},{"inputs":[{"internalType":"uint256","name":"orderId","type":"uint256"}],"name":"executeOrder","outputs":[],"stateMutability":"nonpayable","type":"function"},{"inputs":[],"name":"executorFeeBps","outputs":[{"internalType":"uint256","name":"","type":"uint256"}],"stateMutability":"view","type":"function"},{"inputs":[{"internalType":"uint256","name":"orderId","type":"uint256"}],"name":"getOrder","outputs":[{"internalType":"address","name":"owner","type":"address"},{"internalType":"address","name":"tokenIn","type":"address"},{"internalType":"address","name":"tokenOut","type":"address"},{"internalType":"uint256","name":"amountIn","type":"uint256"},{"internalType":"uint256","name":"minAmountOut","type":"uint256"},{"internalType":"uint256","name":"triggerPrice","type":"uint256"},{"internalType":"uint256","name":"expiry","type":"uint256"},{"internalType":"bool","name":"executed","type":"bool"},{"internalType":"bool","name":"cancelled","type":"bool"}],"stateMutability":"view","type":"function"},{"inputs":[{"internalType":"address","name":"user","type":"address"}],"name":"getUserOrders","outputs":[{"internalType":"uint256[]","name":"","type":"uint256[]"}],"stateMutability":"view","type":"function"},{"inputs":[{"internalType":"uint256","name":"orderId","type":"uint256"}],"name":"isExecutable","outputs":[{"internalType":"bool","name":"executable","type":"bool"},{"internalType":"string","name":"reason","type":"string"}],"stateMutability":"view","type":"function"},{"inputs":[],"name":"nextOrderId","outputs":[{"internalType":"uint256","name":"","type":"uint256"}],"stateMutability":"view","type":"function"},{"inputs":[{"internalType":"uint256","name":"","type":"uint256"}],"name":"orders","outputs":[{"internalType":"address","name":"owner","type":"address"},{"internalType":"address","name":"tokenIn","type":"address"},{"internalType":"address","name":"tokenOut","type":"address"},{"internalType":"uint256","name":"amountIn","type":"uint256"},{"internalType":"uint256","name":"minAmountOut","type":"uint256"},{"internalType":"uint256","name":"triggerPrice","type":"uint256"},{"internalType":"uint256","name":"expiry","type":"uint256"},{"internalType":"bool","name":"executed","type":"bool"},{"internalType":"bool","name":"cancelled","type":"bool"}],"stateMutability":"view","type":"function"},{"inputs":[],"name":"owner","outputs":[{"internalType":"address","name":"","type":"address"}],"stateMutability":"view","type":"function"},{"inputs":[{"internalType":"address","name":"tokenIn","type":"address"},{"internalType":"address","name":"tokenOut","type":"address"},{"internalType":"uint256","name":"amountIn","type":"uint256"},{"internalType":"uint256","name":"minAmountOut","type":"uint256"},{"internalType":"uint256","name":"triggerPrice","type":"uint256"},{"internalType":"uint256","name":"expiry","type":"uint256"}],"name":"placeOrder","outputs":[{"internalType":"uint256","name":"orderId","type":"uint256"}],"stateMutability":"nonpayable","type":"function"},{"inputs":[],"name":"renounceOwnership","outputs":[],"stateMutability":"nonpayable","type":"function"},{"inputs":[],"name":"router","outputs":[{"internalType":"contract EloquraRouter","name":"","type":"address"}],"stateMutability":"view","type":"function"},{"inputs":[{"internalType":"uint256","name":"_feeBps","type":"uint256"}],"name":"setExecutorFeeBps","outputs":[],"stateMutability":"nonpayable","type":"function"},{"inputs":[{"internalType":"address","name":"newOwner","type":"address"}],"name":"transferOwnership","outputs":[],"stateMutability":"nonpayable","type":"function"},{"inputs":[{"internalType":"address","name":"","type":"address"},{"internalType":"uint256","name":"","type":"uint256"}],"name":"userOrders","outputs":[{"internalType":"uint256","name":"","type":"uint256"}],"stateMutability":"view","type":"function"}],"evm":{"bytecode":{"linkReferences":{},"object":"60a0346100e057601f61131b38819003918201601f19168301916001600160401b038311848410176100e5578084926020946040528339810103126100e057516001600160a01b0390818116908190036100e057600160005533156100c75760018054336001600160a01b03198216811790925560405193167f8be0079c531659141344cd1fd0a4f28419497f9722a3daafe3b4186f6b6457e0600080a3600a60055560805261121f90816100fc823960805181818160e2015281816103520152610feb0152f35b604051631e4fbdf760e01b815260006004820152602490fd5b600080fd5b634e487b7160e01b600052604160045260246000fdfe6080604052600436101561001257600080fd5b60003560e01c80630b422abe14610c035780631294a32614610be55780632a58b33014610bc757806334fe8154146108f45780634e395e2a1461087d578063514fcac7146107be57806363c69f081461070a578063715018a6146106ad578063856652e9146106555780638da5cb5b1461062c57806394f61134146102b057806398b0a16e14610253578063a85c38ef146101a4578063d09ef241146101a4578063f2fde38b146101165763f887ea40146100cc57600080fd5b34610111576000366003190112610111576040517f00000000000000000000000000000000000000000000000000000000000000006001600160a01b03168152602090f35b600080fd5b346101115760203660031901126101115761012f610ca2565b610137610ce6565b6001600160a01b0390811690811561018b57600154826bffffffffffffffffffffffff60a01b821617600155167f8be0079c531659141344cd1fd0a4f28419497f9722a3daafe3b4186f6b6457e0600080a3005b604051631e4fbdf760e01b815260006004820152602490fd5b34610111576020366003190112610111576004803560009081526003602081815260409283902080546001820154600283015494830154968301546005840154600685015460079095015488516001600160a01b0395861681529385169684019690965292909516958101959095526060850195909552608084019290925260a083019390935260c082015260ff808316151560e083015260089290921c909116151561010082015261012090f35b346101115760203660031901126101115760043561026f610ce6565b6064811161027c57600555005b60405162461bcd60e51b815260206004820152600c60248201526b08ccaca40e8dede40d0d2ced60a31b6044820152606490fd5b3461011157602080600319360112610111576004356102cd610dde565b6000818152600383526040902080546001600160a01b03939084161561061a57600782019384549260ff84166106085760ff8460081c166105f657600681015442116105e45760405161031f81610d12565b60028152604036858301376001820190838254168061033d83610e01565b528460028501541661034e83610e0e565b52847f0000000000000000000000000000000000000000000000000000000000000000169060038501549960405163d06ca61f60e01b81528b600482015260406024820152600081806103a46044820189610e9a565b0381875afa8015610556576103c1916000916105c9575b50610e0e565b5198670de0b6b3a7640000808b02908b8204148b1517156105a1578c6103e691610ed7565b6005880154116105b75760048701998a54116105b75760019060ff1916179055600554808b02908b8204148b1517156105a157612710900497888b039a8b116105a15760405163095ea7b360e01b81526001600160a01b0384166004820152602481018c9052918890839060449082906000905af1908115610556578b928892610562575b5060009493926104ab9792869254935416604051988996879586946338ed173960e01b86526004860152602485015260a0604485015260a4840190610e9a565b90606483015242608483015203925af1918215610556576104df938691600094610531575b508161051c575b505050610e0e565b519060405194855284015260408301527f1cd65e6e4f6a6bfcff65064f4e22d514f481a38dcbe4c2ad13ccde1b22e0694160603393a36001600055005b6105299254163390610ef7565b8684816104d7565b61054f9194503d806000833e6105478183610d60565b810190610e1e565b92896104d0565b6040513d6000823e3d90fd5b898092969594508193503d831161059a575b61057e8183610d60565b81010312610111575180151503610111579091858a918c61046b565b503d610574565b634e487b7160e01b600052601160045260246000fd5b604051633bef7afd60e01b8152600490fd5b6105de91503d806000833e6105478183610d60565b8d6103bb565b6040516362b439dd60e11b8152600490fd5b604051633e43d23960e11b8152600490fd5b604051634517788b60e11b8152600490fd5b60405163d36d896560e01b8152600490fd5b34610111576000366003190112610111576001546040516001600160a01b039091168152602090f35b346101115760403660031901126101115761066e610ca2565b6001600160a01b03166000908152600460205260409020805460243591908210156101115760209161069f91610cb8565b90546040519160031b1c8152f35b34610111576000366003190112610111576106c6610ce6565b600180546001600160a01b031981169091556000906001600160a01b03167f8be0079c531659141344cd1fd0a4f28419497f9722a3daafe3b4186f6b6457e08280a3005b3461011157602080600319360112610111576001600160a01b0361072c610ca2565b1660005260048152604060002060405190818382549182815201908192600052846000209060005b868282106107aa57868661076a82880383610d60565b604051928392818401908285525180915260408401929160005b82811061079357505050500390f35b835185528695509381019392810192600101610784565b835485529093019260019283019201610754565b34610111576020366003190112610111576004356107da610dde565b600081815260036020526040902080546001600160a01b0391908216801561061a57600782019283549060ff82166106085760ff8260081c166105f65782330361086b5761083f9461010060039361ff00191617905560018401541692015491610ef7565b7f61b9399f2f0f32ca39ce8d7be32caed5ec22fe07a6daba3a467ed479ec606582600080a26001600055005b604051637b2095ad60e11b8152600490fd5b34610111576020806003193601126101115761089a600435610f3a565b90604051928391151582526040818301528251908160408401526000935b8285106108db575050606092506000838284010152601f80199101168101030190f35b84810182015186860160600152938101938593506108b8565b346101115760c03660031901126101115761090d610ca2565b60249081356001600160a01b038116919082900361011157604435906064356084359060a4359261093c610dde565b84158015610bbf575b610bad5742841115610b9c5760018060a01b031693604051956323b872dd60e01b602088015233888801523060448801528160648801526064875260a0870167ffffffffffffffff9780821089831117610b87576109a69160405287610d82565b6002549660001990818914610b72576001890160025560405190610120820190811182821017610b5d576040523381528860e06007602084018b81528a8a60408701898152606088018b815260808901918d835260a08a0193845260c08a019485526000888b01526101008a019860008a52600052600360205260406000209560018060a01b038b5116906bffffffffffffffffffffffff60a01b9182895416178855600188019060018060a01b0390511682825416179055600287019160018060a01b03905116908254161790555160038501555160048401555160058301555160068201550192015115159060ff61ff0084549251151560081b1692169061ffff1916171790553360005260046020526040600020805499680100000000000000008b1015610b49575089610ae491600160209c018155610cb8565b819291549060031b918a831b921b19161790556040519586528786015260408501526060840152608083015260a0820152817f64044b9c7c96ecab1e66cbf89b68308feb44f532105bbdba72ab1167f995311160c03393a36001600055604051908152f35b634e487b7160e01b60009081526041600452fd5b8a634e487b7160e01b60005260416004526000fd5b89634e487b7160e01b60005260116004526000fd5b89634e487b7160e01b60005260416004526000fd5b60405162d36c8560e81b8152600490fd5b60405163162908e360e11b8152600490fd5b508115610945565b34610111576000366003190112610111576020600254604051908152f35b34610111576000366003190112610111576020600554604051908152f35b3461011157602036600319011261011157600435610c1f610dde565b600081815260036020526040902080546001600160a01b0391908216801561061a57600782019283549060ff82166106085760ff8260081c166105f6576006840154421115610c905782330361086b5761083f9461010060039361ff00191617905560018401541692015491610ef7565b60405163796c85f360e01b8152600490fd5b600435906001600160a01b038216820361011157565b8054821015610cd05760005260206000200190600090565b634e487b7160e01b600052603260045260246000fd5b6001546001600160a01b03163303610cfa57565b60405163118cdaa760e01b8152336004820152602490fd5b6060810190811067ffffffffffffffff821117610d2e57604052565b634e487b7160e01b600052604160045260246000fd5b6040810190811067ffffffffffffffff821117610d2e57604052565b90601f8019910116810190811067ffffffffffffffff821117610d2e57604052565b906000602091828151910182855af115610556576000513d610dd557506001600160a01b0381163b155b610db35750565b604051635274afe760e01b81526001600160a01b039091166004820152602490fd5b60011415610dac565b600260005414610def576002600055565b604051633ee5aeb560e01b8152600490fd5b805115610cd05760200190565b805160011015610cd05760400190565b90602090818382031261011157825167ffffffffffffffff93848211610111570181601f82011215610111578051938411610d2e578360051b9060405194610e6885840187610d60565b85528380860192820101928311610111578301905b828210610e8b575050505090565b81518152908301908301610e7d565b90815180825260208080930193019160005b828110610eba575050505090565b83516001600160a01b031685529381019392810192600101610eac565b8115610ee1570490565b634e487b7160e01b600052601260045260246000fd5b60405163a9059cbb60e01b60208201526001600160a01b03929092166024830152604480830193909352918152610f3891610f33606483610d60565b610d82565b565b90600091825260206003815260409283812060018060a01b039081815416156111bd57600781015460ff811661118f5760081c60ff16611169576006810154421161114557610fe7838751610f8e81610d12565b6002815288368883013784600185015416610fa882610e01565b5284600285015416610fb982610e0e565b526003840154948951808095819463d06ca61f60e01b83528960048401528d60248401526044830190610e9a565b03917f0000000000000000000000000000000000000000000000000000000000000000165afa849181611129575b50611044575050506b145d5bdd194819985a5b195960a21b9093519161103a83610d44565b600c835282015290565b61104d90610e0e565b5191670de0b6b3a7640000808402908482041484151715611115579061107291610ed7565b6005820154116110db5760040154116110ac57506945786563757461626c6560b01b60019351916110a283610d44565b600a835282015290565b734f75747075742062656c6f77206d696e696d756d60601b909351916110d183610d44565b6014835282015290565b50507f507269636520636f6e646974696f6e206e6f74206d65740000000000000000009093519161110b83610d44565b6017835282015290565b634e487b7160e01b85526011600452602485fd5b61113e9192503d8087833e6105478183610d60565b9038611015565b505066115e1c1a5c995960ca1b9093519161115f83610d44565b6007835282015290565b50506810d85b98d95b1b195960ba1b9093519161118583610d44565b6009835282015290565b5050506f105b1c9958591e48195e1958dd5d195960821b909351916111b383610d44565b6010835282015290565b50506e13dc99195c881b9bdd08199bdd5b99608a1b909351916111df83610d44565b600f83528201529056fea26469706673582212209802b9bf8aefaa816057ea257ef1082a8974bf952f5df347c63500e90898a36464736f6c63430008140033","opcodes":"PUSH1 0xA0 CALLVALUE PUSH2 0xE0 JUMPI PUSH1 0x1F PUSH2 0x131B CODESIZE DUP2 SWAP1 SUB SWAP2 DUP3 ADD PUSH1 0x1F NOT AND DUP4 ADD SWAP2 PUSH1 0x1 PUSH1 0x1 PUSH1 0x40 SHL SUB DUP4 GT DUP5 DUP5 LT OR PUSH2 0xE5 JUMPI DUP1 DUP5 SWAP3 PUSH1 0x20 SWAP5 PUSH1 0x40 MSTORE DUP4 CODECOPY DUP2 ADD SUB SLT PUSH2 0xE0 JUMPI MLOAD PUSH1 0x1 PUSH1 0x1 PUSH1 0xA0 SHL SUB SWAP1 DUP2 DUP2 AND SWAP1 DUP2 SWAP1 SUB PUSH2 0xE0 JUMPI PUSH1 0x1 PUSH1 0x0 SSTORE CALLER ISZERO PUSH2 0xC7 JUMPI PUSH1 0x1 DUP1 SLOAD CALLER PUSH1 0x1 PUSH1 0x1 PUSH1 0xA0 SHL SUB NOT DUP3 AND DUP2 OR SWAP1 SWAP3 SSTORE PUSH1 0x40 MLOAD SWAP4 AND PUSH32 0x8BE0079C531659141344CD1FD0A4F28419497F9722A3DAAFE3B4186F6B6457E0 PUSH1 0x0 DUP1 LOG3 PUSH1 0xA PUSH1 0x5 SSTORE PUSH1 0x80 MSTORE PUSH2 0x121F SWAP1 DUP2 PUSH2 0xFC DUP3 CODECOPY PUSH1 0x80 MLOAD DUP2 DUP2 DUP2 PUSH1 0xE2 ADD MSTORE DUP2 DUP2 PUSH2 0x352 ADD MSTORE PUSH2 0xFEB ADD MSTORE RETURN JUMPDEST PUSH1 0x40 MLOAD PUSH4 0x1E4FBDF7 PUSH1 0xE0 SHL DUP2 MSTORE PUSH1 0x0 PUSH1 0x4 DUP3 ADD MSTORE PUSH1 0x24 SWAP1 REVERT JUMPDEST PUSH1 0x0 DUP1 REVERT JUMPDEST PUSH4 0x4E487B71 PUSH1 0xE0 SHL PUSH1 0x0 MSTORE PUSH1 0x41 PUSH1 0x4 MSTORE PUSH1 0x24 PUSH1 0x0 REVERT INVALID PUSH1 0x80 PUSH1 0x40 MSTORE PUSH1 0x4 CALLDATASIZE LT ISZERO PUSH2 0x12 JUMPI PUSH1 0x0 DUP1 REVERT JUMPDEST PUSH1 0x0 CALLDATALOAD PUSH1 0xE0 SHR DUP1 PUSH4 0xB422ABE EQ PUSH2 0xC03 JUMPI DUP1 PUSH4 0x1294A326 EQ PUSH2 0xBE5 JUMPI DUP1 PUSH4 0x2A58B330 EQ PUSH2 0xBC7 JUMPI DUP1 PUSH4 0x34FE8154 EQ PUSH2 0x8F4 JUMPI DUP1 PUSH4 0x4E395E2A EQ PUSH2 0x87D JUMPI DUP1 PUSH4 0x514FCAC7 EQ PUSH2 0x7BE JUMPI DUP1 PUSH4 0x63C69F08 EQ PUSH2 0x70A JUMPI DUP1 PUSH4 0x715018A6 EQ PUSH2 0x6AD JUMPI DUP1 PUSH4 0x856652E9 EQ PUSH2 0x655 JUMPI DUP1 PUSH4 0x8DA5CB5B EQ PUSH2 0x62C JUMPI DUP1 PUSH4 0x94F61134 EQ PUSH2 0x2B0 JUMPI DUP1 PUSH4 0x98B0A16E EQ PUSH2 0x253 JUMPI DUP1 PUSH4 0xA85C38EF EQ PUSH2 0x1A4 JUMPI DUP1 PUSH4 0xD09EF241 EQ PUSH2 0x1A4 JUMPI DUP1 PUSH4 0xF2FDE38B EQ PUSH2 0x116 JUMPI PUSH4 0xF887EA40 EQ PUSH2 0xCC JUMPI PUSH1 0x0 DUP1 REVERT JUMPDEST CALLVALUE PUSH2 0x111 JUMPI PUSH1 0x0 CALLDATASIZE PUSH1 0x3 NOT ADD SLT PUSH2 0x111 JUMPI PUSH1 0x40 MLOAD PUSH32 0x0 PUSH1 0x1 PUSH1 0x1 PUSH1 0xA0 SHL SUB AND DUP2 MSTORE PUSH1 0x20 SWAP1 RETURN JUMPDEST PUSH1 0x0 DUP1 REVERT JUMPDEST CALLVALUE PUSH2 0x111 JUMPI PUSH1 0x20 CALLDATASIZE PUSH1 0x3 NOT ADD SLT PUSH2 0x111 JUMPI PUSH2 0x12F PUSH2 0xCA2 JUMP JUMPDEST PUSH2 0x137 PUSH2 0xCE6 JUMP JUMPDEST PUSH1 0x1 PUSH1 0x1 PUSH1 0xA0 SHL SUB SWAP1 DUP2 AND SWAP1 DUP2 ISZERO PUSH2 0x18B JUMPI PUSH1 0x1 SLOAD DUP3 PUSH12 0xFFFFFFFFFFFFFFFFFFFFFFFF PUSH1 0xA0 SHL DUP3 AND OR PUSH1 0x1 SSTORE AND PUSH32 0x8BE0079C531659141344CD1FD0A4F28419497F9722A3DAAFE3B4186F6B6457E0 PUSH1 0x0 DUP1 LOG3 STOP JUMPDEST PUSH1 0x40 MLOAD PUSH4 0x1E4FBDF7 PUSH1 0xE0 SHL DUP2 MSTORE PUSH1 0x0 PUSH1 0x4 DUP3 ADD MSTORE PUSH1 0x24 SWAP1 REVERT JUMPDEST CALLVALUE PUSH2 0x111 JUMPI PUSH1 0x20 CALLDATASIZE PUSH1 0x3 NOT ADD SLT PUSH2 0x111 JUMPI PUSH1 0x4 DUP1 CALLDATALOAD PUSH1 0x0 SWAP1 DUP2 MSTORE PUSH1 0x3 PUSH1 0x20 DUP2 DUP2 MSTORE PUSH1 0x40 SWAP3 DUP4 SWAP1 KECCAK256 DUP1 SLOAD PUSH1 0x1 DUP3 ADD SLOAD PUSH1 0x2 DUP4 ADD SLOAD SWAP5 DUP4 ADD SLOAD SWAP7 DUP4 ADD SLOAD PUSH1 0x5 DUP5 ADD SLOAD PUSH1 0x6 DUP6 ADD SLOAD PUSH1 0x7 SWAP1 SWAP6 ADD SLOAD DUP9 MLOAD PUSH1 0x1 PUSH1 0x1 PUSH1 0xA0 SHL SUB SWAP6 DUP7 AND DUP2 MSTORE SWAP4 DUP6 AND SWAP7 DUP5 ADD SWAP7 SWAP1 SWAP7 MSTORE SWAP3 SWAP1 SWAP6 AND SWAP6 DUP2 ADD SWAP6 SWAP1 SWAP6 MSTORE PUSH1 0x60 DUP6 ADD SWAP6 SWAP1 SWAP6 MSTORE PUSH1 0x80 DUP5 ADD SWAP3 SWAP1 SWAP3 MSTORE PUSH1 0xA0 DUP4 ADD SWAP4 SWAP1 SWAP4 MSTORE PUSH1 0xC0 DUP3 ADD MSTORE PUSH1 0xFF DUP1 DUP4 AND ISZERO ISZERO PUSH1 0xE0 DUP4 ADD MSTORE PUSH1 0x8 SWAP3 SWAP1 SWAP3 SHR SWAP1 SWAP2 AND ISZERO ISZERO PUSH2 0x100 DUP3 ADD MSTORE PUSH2 0x120 SWAP1 RETURN JUMPDEST CALLVALUE PUSH2 0x111 JUMPI PUSH1 0x20 CALLDATASIZE PUSH1 0x3 NOT ADD SLT PUSH2 0x111 JUMPI PUSH1 0x4 CALLDATALOAD PUSH2 0x26F PUSH2 0xCE6 JUMP JUMPDEST PUSH1 0x64 DUP2 GT PUSH2 0x27C JUMPI PUSH1 0x5 SSTORE STOP JUMPDEST PUSH1 0x40 MLOAD PUSH3 0x461BCD PUSH1 0xE5 SHL DUP2 MSTORE PUSH1 0x20 PUSH1 0x4 DUP3 ADD MSTORE PUSH1 0xC PUSH1 0x24 DUP3 ADD MSTORE PUSH12 0x8CCACA40E8DEDE40D0D2CED PUSH1 0xA3 SHL PUSH1 0x44 DUP3 ADD MSTORE PUSH1 0x64 SWAP1 REVERT JUMPDEST CALLVALUE PUSH2 0x111 JUMPI PUSH1 0x20 DUP1 PUSH1 0x3 NOT CALLDATASIZE ADD SLT PUSH2 0x111 JUMPI PUSH1 0x4 CALLDATALOAD PUSH2 0x2CD PUSH2 0xDDE JUMP JUMPDEST PUSH1 0x0 DUP2 DUP2 MSTORE PUSH1 0x3 DUP4 MSTORE PUSH1 0x40 SWAP1 KECCAK256 DUP1 SLOAD PUSH1 0x1 PUSH1 0x1 PUSH1 0xA0 SHL SUB SWAP4 SWAP1 DUP5 AND ISZERO PUSH2 0x61A JUMPI PUSH1 0x7 DUP3 ADD SWAP4 DUP5 SLOAD SWAP3 PUSH1 0xFF DUP5 AND PUSH2 0x608 JUMPI PUSH1 0xFF DUP5 PUSH1 0x8 SHR AND PUSH2 0x5F6 JUMPI PUSH1 0x6 DUP2 ADD SLOAD TIMESTAMP GT PUSH2 0x5E4 JUMPI PUSH1 0x40 MLOAD PUSH2 0x31F DUP2 PUSH2 0xD12 JUMP JUMPDEST PUSH1 0x2 DUP2 MSTORE PUSH1 0x40 CALLDATASIZE DUP6 DUP4 ADD CALLDATACOPY PUSH1 0x1 DUP3 ADD SWAP1 DUP4 DUP3 SLOAD AND DUP1 PUSH2 0x33D DUP4 PUSH2 0xE01 JUMP JUMPDEST MSTORE DUP5 PUSH1 0x2 DUP6 ADD SLOAD AND PUSH2 0x34E DUP4 PUSH2 0xE0E JUMP JUMPDEST MSTORE DUP5 PUSH32 0x0 AND SWAP1 PUSH1 0x3 DUP6 ADD SLOAD SWAP10 PUSH1 0x40 MLOAD PUSH4 0xD06CA61F PUSH1 0xE0 SHL DUP2 MSTORE DUP12 PUSH1 0x4 DUP3 ADD MSTORE PUSH1 0x40 PUSH1 0x24 DUP3 ADD MSTORE PUSH1 0x0 DUP2 DUP1 PUSH2 0x3A4 PUSH1 0x44 DUP3 ADD DUP10 PUSH2 0xE9A JUMP JUMPDEST SUB DUP2 DUP8 GAS STATICCALL DUP1 ISZERO PUSH2 0x556 JUMPI PUSH2 0x3C1 SWAP2 PUSH1 0x0 SWAP2 PUSH2 0x5C9 JUMPI JUMPDEST POP PUSH2 0xE0E JUMP JUMPDEST MLOAD SWAP9 PUSH8 0xDE0B6B3A7640000 DUP1 DUP12 MUL SWAP1 DUP12 DUP3 DIV EQ DUP12 ISZERO OR ISZERO PUSH2 0x5A1 JUMPI DUP13 PUSH2 0x3E6 SWAP2 PUSH2 0xED7 JUMP JUMPDEST PUSH1 0x5 DUP9 ADD SLOAD GT PUSH2 0x5B7 JUMPI PUSH1 0x4 DUP8 ADD SWAP10 DUP11 SLOAD GT PUSH2 0x5B7 JUMPI PUSH1 0x1 SWAP1 PUSH1 0xFF NOT AND OR SWAP1 SSTORE PUSH1 0x5 SLOAD DUP1 DUP12 MUL SWAP1 DUP12 DUP3 DIV EQ DUP12 ISZERO OR ISZERO PUSH2 0x5A1 JUMPI PUSH2 0x2710 SWAP1 DIV SWAP8 DUP9 DUP12 SUB SWAP11 DUP12 GT PUSH2 0x5A1 JUMPI PUSH1 0x40 MLOAD PUSH4 0x95EA7B3 PUSH1 0xE0 SHL DUP2 MSTORE PUSH1 0x1 PUSH1 0x1 PUSH1 0xA0 SHL SUB DUP5 AND PUSH1 0x4 DUP3 ADD MSTORE PUSH1 0x24 DUP2 ADD DUP13 SWAP1 MSTORE SWAP2 DUP9 SWAP1 DUP4 SWAP1 PUSH1 0x44 SWAP1 DUP3 SWAP1 PUSH1 0x0 SWAP1 GAS CALL SWAP1 DUP2 ISZERO PUSH2 0x556 JUMPI DUP12 SWAP3 DUP9 SWAP3 PUSH2 0x562 JUMPI JUMPDEST POP PUSH1 0x0 SWAP5 SWAP4 SWAP3 PUSH2 0x4AB SWAP8 SWAP3 DUP7 SWAP3 SLOAD SWAP4 SLOAD AND PUSH1 0x40 MLOAD SWAP9 DUP10 SWAP7 DUP8 SWAP6 DUP7 SWAP5 PUSH4 0x38ED1739 PUSH1 0xE0 SHL DUP7 MSTORE PUSH1 0x4 DUP7 ADD MSTORE PUSH1 0x24 DUP6 ADD MSTORE PUSH1 0xA0 PUSH1 0x44 DUP6 ADD MSTORE PUSH1 0xA4 DUP5 ADD SWAP1 PUSH2 0xE9A JUMP JUMPDEST SWAP1 PUSH1 0x64 DUP4 ADD MSTORE TIMESTAMP PUSH1 0x84 DUP4 ADD MSTORE SUB SWAP3 GAS CALL SWAP2 DUP3 ISZERO PUSH2 0x556 JUMPI PUSH2 0x4DF SWAP4 DUP7 SWAP2 PUSH1 0x0 SWAP5 PUSH2 0x531 JUMPI JUMPDEST POP DUP2 PUSH2 0x51C JUMPI JUMPDEST POP POP POP PUSH2 0xE0E JUMP JUMPDEST MLOAD SWAP1 PUSH1 0x40 MLOAD SWAP5 DUP6 MSTORE DUP5 ADD MSTORE PUSH1 0x40 DUP4 ADD MSTORE PUSH32 0x1CD65E6E4F6A6BFCFF65064F4E22D514F481A38DCBE4C2AD13CCDE1B22E06941 PUSH1 0x60 CALLER SWAP4 LOG3 PUSH1 0x1 PUSH1 0x0 SSTORE STOP JUMPDEST PUSH2 0x529 SWAP3 SLOAD AND CALLER SWAP1 PUSH2 0xEF7 JUMP JUMPDEST DUP7 DUP5 DUP2 PUSH2 0x4D7 JUMP JUMPDEST PUSH2 0x54F SWAP2 SWAP5 POP RETURNDATASIZE DUP1 PUSH1 0x0 DUP4 RETURNDATACOPY PUSH2 0x547 DUP2 DUP4 PUSH2 0xD60 JUMP JUMPDEST DUP2 ADD SWAP1 PUSH2 0xE1E JUMP JUMPDEST SWAP3 DUP10 PUSH2 0x4D0 JUMP JUMPDEST PUSH1 0x40 MLOAD RETURNDATASIZE PUSH1 0x0 DUP3 RETURNDATACOPY RETURNDATASIZE SWAP1 REVERT JUMPDEST DUP10 DUP1 SWAP3 SWAP7 SWAP6 SWAP5 POP DUP2 SWAP4 POP RETURNDATASIZE DUP4 GT PUSH2 0x59A JUMPI JUMPDEST PUSH2 0x57E DUP2 DUP4 PUSH2 0xD60 JUMP JUMPDEST DUP2 ADD SUB SLT PUSH2 0x111 JUMPI MLOAD DUP1 ISZERO ISZERO SUB PUSH2 0x111 JUMPI SWAP1 SWAP2 DUP6 DUP11 SWAP2 DUP13 PUSH2 0x46B JUMP JUMPDEST POP RETURNDATASIZE PUSH2 0x574 JUMP JUMPDEST PUSH4 0x4E487B71 PUSH1 0xE0 SHL PUSH1 0x0 MSTORE PUSH1 0x11 PUSH1 0x4 MSTORE PUSH1 0x24 PUSH1 0x0 REVERT JUMPDEST PUSH1 0x40 MLOAD PUSH4 0x3BEF7AFD PUSH1 0xE0 SHL DUP2 MSTORE PUSH1 0x4 SWAP1 REVERT JUMPDEST PUSH2 0x5DE SWAP2 POP RETURNDATASIZE DUP1 PUSH1 0x0 DUP4 RETURNDATACOPY PUSH2 0x547 DUP2 DUP4 PUSH2 0xD60 JUMP JUMPDEST DUP14 PUSH2 0x3BB JUMP JUMPDEST PUSH1 0x40 MLOAD PUSH4 0x62B439DD PUSH1 0xE1 SHL DUP2 MSTORE PUSH1 0x4 SWAP1 REVERT JUMPDEST PUSH1 0x40 MLOAD PUSH4 0x3E43D239 PUSH1 0xE1 SHL DUP2 MSTORE PUSH1 0x4 SWAP1 REVERT JUMPDEST PUSH1 0x40 MLOAD PUSH4 0x4517788B PUSH1 0xE1 SHL DUP2 MSTORE PUSH1 0x4 SWAP1 REVERT JUMPDEST PUSH1 0x40 MLOAD PUSH4 0xD36D8965 PUSH1 0xE0 SHL DUP2 MSTORE PUSH1 0x4 SWAP1 REVERT JUMPDEST CALLVALUE PUSH2 0x111 JUMPI PUSH1 0x0 CALLDATASIZE PUSH1 0x3 NOT ADD SLT PUSH2 0x111 JUMPI PUSH1 0x1 SLOAD PUSH1 0x40 MLOAD PUSH1 0x1 PUSH1 0x1 PUSH1 0xA0 SHL SUB SWAP1 SWAP2 AND DUP2 MSTORE PUSH1 0x20 SWAP1 RETURN JUMPDEST CALLVALUE PUSH2 0x111 JUMPI PUSH1 0x40 CALLDATASIZE PUSH1 0x3 NOT ADD SLT PUSH2 0x111 JUMPI PUSH2 0x66E PUSH2 0xCA2 JUMP JUMPDEST PUSH1 0x1 PUSH1 0x1 PUSH1 0xA0 SHL SUB AND PUSH1 0x0 SWAP1 DUP2 MSTORE PUSH1 0x4 PUSH1 0x20 MSTORE PUSH1 0x40 SWAP1 KECCAK256 DUP1 SLOAD PUSH1 0x24 CALLDATALOAD SWAP2 SWAP1 DUP3 LT ISZERO PUSH2 0x111 JUMPI PUSH1 0x20 SWAP2 PUSH2 0x69F SWAP2 PUSH2 0xCB8 JUMP JUMPDEST SWAP1 SLOAD PUSH1 0x40 MLOAD SWAP2 PUSH1 0x3 SHL SHR DUP2 MSTORE RETURN JUMPDEST CALLVALUE PUSH2 0x111 JUMPI PUSH1 0x0 CALLDATASIZE PUSH1 0x3 NOT ADD SLT PUSH2 0x111 JUMPI PUSH2 0x6C6 PUSH2 0xCE6 JUMP JUMPDEST PUSH1 0x1 DUP1 SLOAD PUSH1 0x1 PUSH1 0x1 PUSH1 0xA0 SHL SUB NOT DUP2 AND SWAP1 SWAP2 SSTORE PUSH1 0x0 SWAP1 PUSH1 0x1 PUSH1 0x1 PUSH1 0xA0 SHL SUB AND PUSH32 0x8BE0079C531659141344CD1FD0A4F28419497F9722A3DAAFE3B4186F6B6457E0 DUP3 DUP1 LOG3 STOP JUMPDEST CALLVALUE PUSH2 0x111 JUMPI PUSH1 0x20 DUP1 PUSH1 0x3 NOT CALLDATASIZE ADD SLT PUSH2 0x111 JUMPI PUSH1 0x1 PUSH1 0x1 PUSH1 0xA0 SHL SUB PUSH2 0x72C PUSH2 0xCA2 JUMP JUMPDEST AND PUSH1 0x0 MSTORE PUSH1 0x4 DUP2 MSTORE PUSH1 0x40 PUSH1 0x0 KECCAK256 PUSH1 0x40 MLOAD SWAP1 DUP2 DUP4 DUP3 SLOAD SWAP2 DUP3 DUP2 MSTORE ADD SWAP1 DUP2 SWAP3 PUSH1 0x0 MSTORE DUP5 PUSH1 0x0 KECCAK256 SWAP1 PUSH1 0x0 JUMPDEST DUP7 DUP3 DUP3 LT PUSH2 0x7AA JUMPI DUP7 DUP7 PUSH2 0x76A DUP3 DUP9 SUB DUP4 PUSH2 0xD60 JUMP JUMPDEST PUSH1 0x40 MLOAD SWAP3 DUP4 SWAP3 DUP2 DUP5 ADD SWAP1 DUP3 DUP6 MSTORE MLOAD DUP1 SWAP2 MSTORE PUSH1 0x40 DUP5 ADD SWAP3 SWAP2 PUSH1 0x0 JUMPDEST DUP3 DUP2 LT PUSH2 0x793 JUMPI POP POP POP POP SUB SWAP1 RETURN JUMPDEST DUP4 MLOAD DUP6 MSTORE DUP7 SWAP6 POP SWAP4 DUP2 ADD SWAP4 SWAP3 DUP2 ADD SWAP3 PUSH1 0x1 ADD PUSH2 0x784 JUMP JUMPDEST DUP4 SLOAD DUP6 MSTORE SWAP1 SWAP4 ADD SWAP3 PUSH1 0x1 SWAP3 DUP4 ADD SWAP3 ADD PUSH2 0x754 JUMP JUMPDEST CALLVALUE PUSH2 0x111 JUMPI PUSH1 0x20 CALLDATASIZE PUSH1 0x3 NOT ADD SLT PUSH2 0x111 JUMPI PUSH1 0x4 CALLDATALOAD PUSH2 0x7DA PUSH2 0xDDE JUMP JUMPDEST PUSH1 0x0 DUP2 DUP2 MSTORE PUSH1 0x3 PUSH1 0x20 MSTORE PUSH1 0x40 SWAP1 KECCAK256 DUP1 SLOAD PUSH1 0x1 PUSH1 0x1 PUSH1 0xA0 SHL SUB SWAP2 SWAP1 DUP3 AND DUP1 ISZERO PUSH2 0x61A JUMPI PUSH1 0x7 DUP3 ADD SWAP3 DUP4 SLOAD SWAP1 PUSH1 0xFF DUP3 AND PUSH2 0x608 JUMPI PUSH1 0xFF DUP3 PUSH1 0x8 SHR AND PUSH2 0x5F6 JUMPI DUP3 CALLER SUB PUSH2 0x86B JUMPI PUSH2 0x83F SWAP5 PUSH2 0x100 PUSH1 0x3 SWAP4 PUSH2 0xFF00 NOT AND OR SWAP1 SSTORE PUSH1 0x1 DUP5 ADD SLOAD AND SWAP3 ADD SLOAD SWAP2 PUSH2 0xEF7 JUMP JUMPDEST PUSH32 0x61B9399F2F0F32CA39CE8D7BE32CAED5EC22FE07A6DABA3A467ED479EC606582 PUSH1 0x0 DUP1 LOG2 PUSH1 0x1 PUSH1 0x0 SSTORE STOP JUMPDEST PUSH1 0x40 MLOAD PUSH4 0x7B2095AD PUSH1 0xE1 SHL DUP2 MSTORE PUSH1 0x4 SWAP1 REVERT JUMPDEST CALLVALUE PUSH2 0x111 JUMPI PUSH1 0x20 DUP1 PUSH1 0x3 NOT CALLDATASIZE ADD SLT PUSH2 0x111 JUMPI PUSH2 0x89A PUSH1 0x4 CALLDATALOAD PUSH2 0xF3A JUMP JUMPDEST SWAP1 PUSH1 0x40 MLOAD SWAP3 DUP4 SWAP2 ISZERO ISZERO DUP3 MSTORE PUSH1 0x40 DUP2 DUP4 ADD MSTORE DUP3 MLOAD SWAP1 DUP2 PUSH1 0x40 DUP5 ADD MSTORE PUSH1 0x0 SWAP4 JUMPDEST DUP3 DUP6 LT PUSH2 0x8DB JUMPI POP POP PUSH1 0x60 SWAP3 POP PUSH1 0x0 DUP4 DUP3 DUP5 ADD ADD MSTORE PUSH1 0x1F DUP1 NOT SWAP2 ADD AND DUP2 ADD SUB ADD SWAP1 RETURN JUMPDEST DUP5 DUP2 ADD DUP3 ADD MLOAD DUP7 DUP7 ADD PUSH1 0x60 ADD MSTORE SWAP4 DUP2 ADD SWAP4 DUP6 SWAP4 POP PUSH2 0x8B8 JUMP JUMPDEST CALLVALUE PUSH2 0x111 JUMPI PUSH1 0xC0 CALLDATASIZE PUSH1 0x3 NOT ADD SLT PUSH2 0x111 JUMPI PUSH2 0x90D PUSH2 0xCA2 JUMP JUMPDEST PUSH1 0x24 SWAP1 DUP2 CALLDATALOAD PUSH1 0x1 PUSH1 0x1 PUSH1 0xA0 SHL SUB DUP2 AND SWAP2 SWAP1 DUP3 SWAP1 SUB PUSH2 0x111 JUMPI PUSH1 0x44 CALLDATALOAD SWAP1 PUSH1 0x64 CALLDATALOAD PUSH1 0x84 CALLDATALOAD SWAP1 PUSH1 0xA4 CALLDATALOAD SWAP3 PUSH2 0x93C PUSH2 0xDDE JUMP JUMPDEST DUP5 ISZERO DUP1 ISZERO PUSH2 0xBBF JUMPI JUMPDEST PUSH2 0xBAD JUMPI TIMESTAMP DUP5 GT ISZERO PUSH2 0xB9C JUMPI PUSH1 0x1 DUP1 PUSH1 0xA0 SHL SUB AND SWAP4 PUSH1 0x40 MLOAD SWAP6 PUSH4 0x23B872DD PUSH1 0xE0 SHL PUSH1 0x20 DUP9 ADD MSTORE CALLER DUP9 DUP9 ADD MSTORE ADDRESS PUSH1 0x44 DUP9 ADD MSTORE DUP2 PUSH1 0x64 DUP9 ADD MSTORE PUSH1 0x64 DUP8 MSTORE PUSH1 0xA0 DUP8 ADD PUSH8 0xFFFFFFFFFFFFFFFF SWAP8 DUP1 DUP3 LT DUP10 DUP4 GT OR PUSH2 0xB87 JUMPI PUSH2 0x9A6 SWAP2 PUSH1 0x40 MSTORE DUP8 PUSH2 0xD82 JUMP JUMPDEST PUSH1 0x2 SLOAD SWAP7 PUSH1 0x0 NOT SWAP1 DUP2 DUP10 EQ PUSH2 0xB72 JUMPI PUSH1 0x1 DUP10 ADD PUSH1 0x2 SSTORE PUSH1 0x40 MLOAD SWAP1 PUSH2 0x120 DUP3 ADD SWAP1 DUP2 GT DUP3 DUP3 LT OR PUSH2 0xB5D JUMPI PUSH1 0x40 MSTORE CALLER DUP2 MSTORE DUP9 PUSH1 0xE0 PUSH1 0x7 PUSH1 0x20 DUP5 ADD DUP12 DUP2 MSTORE DUP11 DUP11 PUSH1 0x40 DUP8 ADD DUP10 DUP2 MSTORE PUSH1 0x60 DUP9 ADD DUP12 DUP2 MSTORE PUSH1 0x80 DUP10 ADD SWAP2 DUP14 DUP4 MSTORE PUSH1 0xA0 DUP11 ADD SWAP4 DUP5 MSTORE PUSH1 0xC0 DUP11 ADD SWAP5 DUP6 MSTORE PUSH1 0x0 DUP9 DUP12 ADD MSTORE PUSH2 0x100 DUP11 ADD SWAP9 PUSH1 0x0 DUP11 MSTORE PUSH1 0x0 MSTORE PUSH1 0x3 PUSH1 0x20 MSTORE PUSH1 0x40 PUSH1 0x0 KECCAK256 SWAP6 PUSH1 0x1 DUP1 PUSH1 0xA0 SHL SUB DUP12 MLOAD AND SWAP1 PUSH12 0xFFFFFFFFFFFFFFFFFFFFFFFF PUSH1 0xA0 SHL SWAP2 DUP3 DUP10 SLOAD AND OR DUP9 SSTORE PUSH1 0x1 DUP9 ADD SWAP1 PUSH1 0x1 DUP1 PUSH1 0xA0 SHL SUB SWAP1 MLOAD AND DUP3 DUP3 SLOAD AND OR SWAP1 SSTORE PUSH1 0x2 DUP8 ADD SWAP2 PUSH1 0x1 DUP1 PUSH1 0xA0 SHL SUB SWAP1 MLOAD AND SWAP1 DUP3 SLOAD AND OR SWAP1 SSTORE MLOAD PUSH1 0x3 DUP6 ADD SSTORE MLOAD PUSH1 0x4 DUP5 ADD SSTORE MLOAD PUSH1 0x5 DUP4 ADD SSTORE MLOAD PUSH1 0x6 DUP3 ADD SSTORE ADD SWAP3 ADD MLOAD ISZERO ISZERO SWAP1 PUSH1 0xFF PUSH2 0xFF00 DUP5 SLOAD SWAP3 MLOAD ISZERO ISZERO PUSH1 0x8 SHL AND SWAP3 AND SWAP1 PUSH2 0xFFFF NOT AND OR OR SWAP1 SSTORE CALLER PUSH1 0x0 MSTORE PUSH1 0x4 PUSH1 0x20 MSTORE PUSH1 0x40 PUSH1 0x0 KECCAK256 DUP1 SLOAD SWAP10 PUSH9 0x10000000000000000 DUP12 LT ISZERO PUSH2 0xB49 JUMPI POP DUP10 PUSH2 0xAE4 SWAP2 PUSH1 0x1 PUSH1 0x20 SWAP13 ADD DUP2 SSTORE PUSH2 0xCB8 JUMP JUMPDEST DUP2 SWAP3 SWAP2 SLOAD SWAP1 PUSH1 0x3 SHL SWAP2 DUP11 DUP4 SHL SWAP3 SHL NOT AND OR SWAP1 SSTORE PUSH1 0x40 MLOAD SWAP6 DUP7 MSTORE DUP8 DUP7 ADD MSTORE PUSH1 0x40 DUP6 ADD MSTORE PUSH1 0x60 DUP5 ADD MSTORE PUSH1 0x80 DUP4 ADD MSTORE PUSH1 0xA0 DUP3 ADD MSTORE DUP2 PUSH32 0x64044B9C7C96ECAB1E66CBF89B68308FEB44F532105BBDBA72AB1167F9953111 PUSH1 0xC0 CALLER SWAP4 LOG3 PUSH1 0x1 PUSH1 0x0 SSTORE PUSH1 0x40 MLOAD SWAP1 DUP2 MSTORE RETURN JUMPDEST PUSH4 0x4E487B71 PUSH1 0xE0 SHL PUSH1 0x0 SWAP1 DUP2 MSTORE PUSH1 0x41 PUSH1 0x4 MSTORE REVERT JUMPDEST DUP11 PUSH4 0x4E487B71 PUSH1 0xE0 SHL PUSH1 0x0 MSTORE PUSH1 0x41 PUSH1 0x4 MSTORE PUSH1 0x0 REVERT JUMPDEST DUP10 PUSH4 0x4E487B71 PUSH1 0xE0 SHL PUSH1 0x0 MSTORE PUSH1 0x11 PUSH1 0x4 MSTORE PUSH1 0x0 REVERT JUMPDEST DUP10 PUSH4 0x4E487B71 PUSH1 0xE0 SHL PUSH1 0x0 MSTORE PUSH1 0x41 PUSH1 0x4 MSTORE PUSH1 0x0 REVERT JUMPDEST PUSH1 0x40 MLOAD PUSH3 0xD36C85 PUSH1 0xE8 SHL DUP2 MSTORE PUSH1 0x4 SWAP1 REVERT JUMPDEST PUSH1 0x40 MLOAD PUSH4 0x162908E3 PUSH1 0xE1 SHL DUP2 MSTORE PUSH1 0x4 SWAP1 REVERT JUMPDEST POP DUP2 ISZERO PUSH2 0x945 JUMP JUMPDEST CALLVALUE PUSH2 0x111 JUMPI PUSH1 0x0 CALLDATASIZE PUSH1 0x3 NOT ADD SLT PUSH2 0x111 JUMPI PUSH1 0x20 PUSH1 0x2 SLOAD PUSH1 0x40 MLOAD SWAP1 DUP2 MSTORE RETURN JUMPDEST CALLVALUE PUSH2 0x111 JUMPI PUSH1 0x0 CALLDATASIZE PUSH1 0x3 NOT ADD SLT PUSH2 0x111 JUMPI PUSH1 0x20 PUSH1 0x5 SLOAD PUSH1 0x40 MLOAD SWAP1 DUP2 MSTORE RETURN JUMPDEST CALLVALUE PUSH2 0x111 JUMPI PUSH1 0x20 CALLDATASIZE PUSH1 0x3 NOT ADD SLT PUSH2 0x111 JUMPI PUSH1 0x4 CALLDATALOAD PUSH2 0xC1F PUSH2 0xDDE JUMP JUMPDEST PUSH1 0x0 DUP2 DUP2 MSTORE PUSH1 0x3 PUSH1 0x20 MSTORE PUSH1 0x40 SWAP1 KECCAK256 DUP1 SLOAD PUSH1 0x1 PUSH1 0x1 PUSH1 0xA0 SHL SUB SWAP2 SWAP1 DUP3 AND DUP1 ISZERO PUSH2 0x61A JUMPI PUSH1 0x7 DUP3 ADD SWAP3 DUP4 SLOAD SWAP1 PUSH1 0xFF DUP3 AND PUSH2 0x608 JUMPI PUSH1 0xFF DUP3 PUSH1 0x8 SHR AND PUSH2 0x5F6 JUMPI PUSH1 0x6 DUP5 ADD SLOAD TIMESTAMP GT ISZERO PUSH2 0xC90 JUMPI DUP3 CALLER SUB PUSH2 0x86B JUMPI PUSH2 0x83F SWAP5 PUSH2 0x100 PUSH1 0x3 SWAP4 PUSH2 0xFF00 NOT AND OR SWAP1 SSTORE PUSH1 0x1 DUP5 ADD SLOAD AND SWAP3 ADD SLOAD SWAP2 PUSH2 0xEF7 JUMP JUMPDEST PUSH1 0x40 MLOAD PUSH4 0x796C85F3 PUSH1 0xE0 SHL DUP2 MSTORE PUSH1 0x4 SWAP1 REVERT JUMPDEST PUSH1 0x4 CALLDATALOAD SWAP1 PUSH1 0x1 PUSH1 0x1 PUSH1 0xA0 SHL SUB DUP3 AND DUP3 SUB PUSH2 0x111 JUMPI JUMP JUMPDEST DUP1 SLOAD DUP3 LT ISZERO PUSH2 0xCD0 JUMPI PUSH1 0x0 MSTORE PUSH1 0x20 PUSH1 0x0 KECCAK256 ADD SWAP1 PUSH1 0x0 SWAP1 JUMP JUMPDEST PUSH4 0x4E487B71 PUSH1 0xE0 SHL PUSH1 0x0 MSTORE PUSH1 0x32 PUSH1 0x4 MSTORE PUSH1 0x24 PUSH1 0x0 REVERT JUMPDEST PUSH1 0x1 SLOAD PUSH1 0x1 PUSH1 0x1 PUSH1 0xA0 SHL SUB AND CALLER SUB PUSH2 0xCFA JUMPI JUMP JUMPDEST PUSH1 0x40 MLOAD PUSH4 0x118CDAA7 PUSH1 0xE0 SHL DUP2 MSTORE CALLER PUSH1 0x4 DUP3 ADD MSTORE PUSH1 0x24 SWAP1 REVERT JUMPDEST PUSH1 0x60 DUP2 ADD SWAP1 DUP2 LT PUSH8 0xFFFFFFFFFFFFFFFF DUP3 GT OR PUSH2 0xD2E JUMPI PUSH1 0x40 MSTORE JUMP JUMPDEST PUSH4 0x4E487B71 PUSH1 0xE0 SHL PUSH1 0x0 MSTORE PUSH1 0x41 PUSH1 0x4 MSTORE PUSH1 0x24 PUSH1 0x0 REVERT JUMPDEST PUSH1 0x40 DUP2 ADD SWAP1 DUP2 LT PUSH8 0xFFFFFFFFFFFFFFFF DUP3 GT OR PUSH2 0xD2E JUMPI PUSH1 0x40 MSTORE JUMP JUMPDEST SWAP1 PUSH1 0x1F DUP1 NOT SWAP2 ADD AND DUP2 ADD SWAP1 DUP2 LT PUSH8 0xFFFFFFFFFFFFFFFF DUP3 GT OR PUSH2 0xD2E JUMPI PUSH1 0x40 MSTORE JUMP JUMPDEST SWAP1 PUSH1 0x0 PUSH1 0x20 SWAP2 DUP3 DUP2 MLOAD SWAP2 ADD DUP3 DUP6 GAS CALL ISZERO PUSH2 0x556 JUMPI PUSH1 0x0 MLOAD RETURNDATASIZE PUSH2 0xDD5 JUMPI POP PUSH1 0x1 PUSH1 0x1 PUSH1 0xA0 SHL SUB DUP2 AND EXTCODESIZE ISZERO JUMPDEST PUSH2 0xDB3 JUMPI POP JUMP JUMPDEST PUSH1 0x40 MLOAD PUSH4 0x5274AFE7 PUSH1 0xE0 SHL DUP2 MSTORE PUSH1 0x1 PUSH1 0x1 PUSH1 0xA0 SHL SUB SWAP1 SWAP2 AND PUSH1 0x4 DUP3 ADD MSTORE PUSH1 0x24 SWAP1 REVERT JUMPDEST PUSH1 0x1 EQ ISZERO PUSH2 0xDAC JUMP JUMPDEST PUSH1 0x2 PUSH1 0x0 SLOAD EQ PUSH2 0xDEF JUMPI PUSH1 0x2 PUSH1 0x0 SSTORE JUMP JUMPDEST PUSH1 0x40 MLOAD PUSH4 0x3EE5AEB5 PUSH1 0xE0 SHL DUP2 MSTORE PUSH1 0x4 SWAP1 REVERT JUMPDEST DUP1 MLOAD ISZERO PUSH2 0xCD0 JUMPI PUSH1 0x20 ADD SWAP1 JUMP JUMPDEST DUP1 MLOAD PUSH1 0x1 LT ISZERO PUSH2 0xCD0 JUMPI PUSH1 0x40 ADD SWAP1 JUMP JUMPDEST SWAP1 PUSH1 0x20 SWAP1 DUP2 DUP4 DUP3 SUB SLT PUSH2 0x111 JUMPI DUP3 MLOAD PUSH8 0xFFFFFFFFFFFFFFFF SWAP4 DUP5 DUP3 GT PUSH2 0x111 JUMPI ADD DUP2 PUSH1 0x1F DUP3 ADD SLT ISZERO PUSH2 0x111 JUMPI DUP1 MLOAD SWAP4 DUP5 GT PUSH2 0xD2E JUMPI DUP4 PUSH1 0x5 SHL SWAP1 PUSH1 0x40 MLOAD SWAP5 PUSH2 0xE68 DUP6 DUP5 ADD DUP8 PUSH2 0xD60 JUMP JUMPDEST DUP6 MSTORE DUP4 DUP1 DUP7 ADD SWAP3 DUP3 ADD ADD SWAP3 DUP4 GT PUSH2 0x111 JUMPI DUP4 ADD SWAP1 JUMPDEST DUP3 DUP3 LT PUSH2 0xE8B JUMPI POP POP POP POP SWAP1 JUMP JUMPDEST DUP2 MLOAD DUP2 MSTORE SWAP1 DUP4 ADD SWAP1 DUP4 ADD PUSH2 0xE7D JUMP JUMPDEST SWAP1 DUP2 MLOAD DUP1 DUP3 MSTORE PUSH1 0x20 DUP1 DUP1 SWAP4 ADD SWAP4 ADD SWAP2 PUSH1 0x0 JUMPDEST DUP3 DUP2 LT PUSH2 0xEBA JUMPI POP POP POP POP SWAP1 JUMP JUMPDEST DUP4 MLOAD PUSH1 0x1 PUSH1 0x1 PUSH1 0xA0 SHL SUB AND DUP6 MSTORE SWAP4 DUP2 ADD SWAP4 SWAP3 DUP2 ADD SWAP3 PUSH1 0x1 ADD PUSH2 0xEAC JUMP JUMPDEST DUP2 ISZERO PUSH2 0xEE1 JUMPI DIV SWAP1 JUMP JUMPDEST PUSH4 0x4E487B71 PUSH1 0xE0 SHL PUSH1 0x0 MSTORE PUSH1 0x12 PUSH1 0x4 MSTORE PUSH1 0x24 PUSH1 0x0 REVERT JUMPDEST PUSH1 0x40 MLOAD PUSH4 0xA9059CBB PUSH1 0xE0 SHL PUSH1 0x20 DUP3 ADD MSTORE PUSH1 0x1 PUSH1 0x1 PUSH1 0xA0 SHL SUB SWAP3 SWAP1 SWAP3 AND PUSH1 0x24 DUP4 ADD MSTORE PUSH1 0x44 DUP1 DUP4 ADD SWAP4 SWAP1 SWAP4 MSTORE SWAP2 DUP2 MSTORE PUSH2 0xF38 SWAP2 PUSH2 0xF33 PUSH1 0x64 DUP4 PUSH2 0xD60 JUMP JUMPDEST PUSH2 0xD82 JUMP JUMPDEST JUMP JUMPDEST SWAP1 PUSH1 0x0 SWAP2 DUP3 MSTORE PUSH1 0x20 PUSH1 0x3 DUP2 MSTORE PUSH1 0x40 SWAP3 DUP4 DUP2 KECCAK256 PUSH1 0x1 DUP1 PUSH1 0xA0 SHL SUB SWAP1 DUP2 DUP2 SLOAD AND ISZERO PUSH2 0x11BD JUMPI PUSH1 0x7 DUP2 ADD SLOAD PUSH1 0xFF DUP2 AND PUSH2 0x118F JUMPI PUSH1 0x8 SHR PUSH1 0xFF AND PUSH2 0x1169 JUMPI PUSH1 0x6 DUP2 ADD SLOAD TIMESTAMP GT PUSH2 0x1145 JUMPI PUSH2 0xFE7 DUP4 DUP8 MLOAD PUSH2 0xF8E DUP2 PUSH2 0xD12 JUMP JUMPDEST PUSH1 0x2 DUP2 MSTORE DUP9 CALLDATASIZE DUP9 DUP4 ADD CALLDATACOPY DUP5 PUSH1 0x1 DUP6 ADD SLOAD AND PUSH2 0xFA8 DUP3 PUSH2 0xE01 JUMP JUMPDEST MSTORE DUP5 PUSH1 0x2 DUP6 ADD SLOAD AND PUSH2 0xFB9 DUP3 PUSH2 0xE0E JUMP JUMPDEST MSTORE PUSH1 0x3 DUP5 ADD SLOAD SWAP5 DUP10 MLOAD DUP1 DUP1 SWAP6 DUP2 SWAP5 PUSH4 0xD06CA61F PUSH1 0xE0 SHL DUP4 MSTORE DUP10 PUSH1 0x4 DUP5 ADD MSTORE DUP14 PUSH1 0x24 DUP5 ADD MSTORE PUSH1 0x44 DUP4 ADD SWAP1 PUSH2 0xE9A JUMP JUMPDEST SUB SWAP2 PUSH32 0x0 AND GAS STATICCALL DUP5 SWAP2 DUP2 PUSH2 0x1129 JUMPI JUMPDEST POP PUSH2 0x1044 JUMPI POP POP POP PUSH12 0x145D5BDD194819985A5B1959 PUSH1 0xA2 SHL SWAP1 SWAP4 MLOAD SWAP2 PUSH2 0x103A DUP4 PUSH2 0xD44 JUMP JUMPDEST PUSH1 0xC DUP4 MSTORE DUP3 ADD MSTORE SWAP1 JUMP JUMPDEST PUSH2 0x104D SWAP1 PUSH2 0xE0E JUMP JUMPDEST MLOAD SWAP2 PUSH8 0xDE0B6B3A7640000 DUP1 DUP5 MUL SWAP1 DUP5 DUP3 DIV EQ DUP5 ISZERO OR ISZERO PUSH2 0x1115 JUMPI SWAP1 PUSH2 0x1072 SWAP2 PUSH2 0xED7 JUMP JUMPDEST PUSH1 0x5 DUP3 ADD SLOAD GT PUSH2 0x10DB JUMPI PUSH1 0x4 ADD SLOAD GT PUSH2 0x10AC JUMPI POP PUSH10 0x45786563757461626C65 PUSH1 0xB0 SHL PUSH1 0x1 SWAP4 MLOAD SWAP2 PUSH2 0x10A2 DUP4 PUSH2 0xD44 JUMP JUMPDEST PUSH1 0xA DUP4 MSTORE DUP3 ADD MSTORE SWAP1 JUMP JUMPDEST PUSH20 0x4F75747075742062656C6F77206D696E696D756D PUSH1 0x60 SHL SWAP1 SWAP4 MLOAD SWAP2 PUSH2 0x10D1 DUP4 PUSH2 0xD44 JUMP JUMPDEST PUSH1 0x14 DUP4 MSTORE DUP3 ADD MSTORE SWAP1 JUMP JUMPDEST POP POP PUSH32 0x507269636520636F6E646974696F6E206E6F74206D6574000000000000000000 SWAP1 SWAP4 MLOAD SWAP2 PUSH2 0x110B DUP4 PUSH2 0xD44 JUMP JUMPDEST PUSH1 0x17 DUP4 MSTORE DUP3 ADD MSTORE SWAP1 JUMP JUMPDEST PUSH4 0x4E487B71 PUSH1 0xE0 SHL DUP6 MSTORE PUSH1 0x11 PUSH1 0x4 MSTORE PUSH1 0x24 DUP6 REVERT JUMPDEST PUSH2 0x113E SWAP2 SWAP3 POP RETURNDATASIZE DUP1 DUP8 DUP4 RETURNDATACOPY PUSH2 0x547 DUP2 DUP4 PUSH2 0xD60 JUMP JUMPDEST SWAP1 CODESIZE PUSH2 0x1015 JUMP JUMPDEST POP POP PUSH7 0x115E1C1A5C9959 PUSH1 0xCA SHL SWAP1 SWAP4 MLOAD SWAP2 PUSH2 0x115F DUP4 PUSH2 0xD44 JUMP JUMPDEST PUSH1 0x7 DUP4 MSTORE DUP3 ADD MSTORE SWAP1 JUMP JUMPDEST POP POP PUSH9 0x10D85B98D95B1B1959 PUSH1 0xBA SHL SWAP1 SWAP4 MLOAD SWAP2 PUSH2 0x1185 DUP4 PUSH2 0xD44 JUMP JUMPDEST PUSH1 0x9 DUP4 MSTORE DUP3 ADD MSTORE SWAP1 JUMP JUMPDEST POP POP POP PUSH16 0x105B1C9958591E48195E1958DD5D1959 PUSH1 0x82 SHL SWAP1 SWAP4 MLOAD SWAP2 PUSH2 0x11B3 DUP4 PUSH2 0xD44 JUMP JUMPDEST PUSH1 0x10 DUP4 MSTORE DUP3 ADD MSTORE SWAP1 JUMP JUMPDEST POP POP PUSH15 0x13DC99195C881B9BDD08199BDD5B99 PUSH1 0x8A SHL SWAP1 SWAP4 MLOAD SWAP2 PUSH2 0x11DF DUP4 PUSH2 0xD44 JUMP JUMPDEST PUSH1 0xF DUP4 MSTORE DUP3 ADD MSTORE SWAP1 JUMP INVALID LOG2 PUSH5 0x6970667358 0x22 SLT KECCAK256 SWAP9 MUL 0xB9 0xBF DUP11 0xEF 0xAA DUP2 PUSH1 0x57 0xEA 0x25 PUSH31 0xF1082A8974BF952F5DF347C63500E90898A36464736F6C6343000814003300 "},"methodIdentifiers":{"cancelOrder(uint256)":"514fcac7","claimExpired(uint256)":"0b422abe","executeOrder(uint256)":"94f61134","executorFeeBps()":"1294a326","getOrder(uint256)":"d09ef241","getUserOrders(address)":"63c69f08","isExecutable(uint256)":"4e395e2a","nextOrderId()":"2a58b330","orders(uint256)":"a85c38ef","owner()":"8da5cb5b","placeOrder(address,address,uint256,uint256,uint256,uint256)":"34fe8154","renounceOwnership()":"715018a6","router()":"f887ea40","setExecutorFeeBps(uint256)":"98b0a16e","transferOwnership(address)":"f2fde38b","userOrders(address,uint256)":"856652e9"}}}}}